S02B0000433A5C4D6963726F4672616D65776F726B504B5F76345F335C4275696C644F75747075745C544855F3
S315080000000CE000201D0000082C0000082C00000849
S315080000102C0000082C0000082C000008DFF808D087
S3150800002000F06AF802F070BF00400010FEE700BF5B
S3150800003072B62C4BD3F8882042F47002C3F8882095
S31508000040294A012151605A6922F402725A61D3F889
S31508000050FC2042F4FE62C3F8FC20244B1A680A43CB
S315080000601A601A461168214B8907FBD500229A6047
S315080000701A6822F0A0621A601A6842F480321A607E
S315080000801A689003FCD5184B1B68DBB2112B184B6A
S315080000900CBF40F2056240F205721A60134B154A0E
S315080000A05A601A6842F080721A601A4611680F4B35
S315080000B08901FBD549F202429A604FF480121A630D
S315080000C000225A639A634FF080521A644FF48042B2
S315080000D05A641A6822F001021A60A3F580330122D5
S315080000E01A60704700ED00E0002004E00038024086
S315080000F0003C02400854400708B5FFF799FF024B39
S315080001009847024B984708BD9D0100084D01000815
S3150800011008B5FFF78DFF014B984708BD9D010008FC
S31508000120814210B511D002F0030322F0030204E065
S3150800013050F8044B41F8044B043A002AF8D102E07F
S31508000140845C8C5401329A42FAD110BD08B50B482A
S315080001500B490C4AFFF7E4FF0B490C4A0C48FFF71A
S31508000160DFFF0C4B0C4A23F00303002102E042F8A0
S31508000170041B043B002BFAD108BD00BF00B50008DC
S315080001800040001000000000004000106409000054
S3150800019000B500086421000070490010034A136B7B
S315080001A06FEA53236FEA432313637047003802400C
S315080001B0004870470CE00020002070470020704778
S315080001C0704700207047000038B50C4615460828C9
S315080001D04CD8DFE800F0054B0F1C20272F4B4100B9
S315080001E024200121224B98472249234B40F20150F3
S315080001F0984738BD002939D00B685A1C36D044F6C2
S315080002001F62934232DC44F620630B6038BD40F22D
S3150800021001501A4902E01A4940F201502246164B8B
S31508000220984738BD144B174940F20150984715486E
S31508000230154B0FE0104B144D40F2015019B11349FC
S315080002409847124802E0124998471148A847114BA7
S31508000250D868114B984738BD41B1224640F2015043
S315080002600E49054B44F0010498472C6038BD00BF81
S31508000270F129000804A60008095000080DA6000880
S3150800028019A6000825A600084150000835A600084A
S3150800029048A6000800400010653C00085BA6000858
S315080002A037B583680D469B680446C0689847294653
S315080002B06A4601AB0C4DA847A8B1A368E0689B68DD
S315080002C09847009B8269142101FB03230C211A69B4
S315080002D0019B4B43D35C102B04D10448044B98472D
S315080002E0002000E001203EBD153500087CA6000868
S315080002F04150000830B5094C094B85B005462046E3
S31508000300984703238DE81800029004212846022204
S31508000310044CA047012005B030BD00BFA2A60008C6
S3150800032099500008F51700084A6A031D9A4207D132
S31508000330D0F8043823F00103C0F8043800234B62D0
S315080003400120704738B5144612680D467AB1006820
S315080003500968084B9847002807DD2B681B182B608F
S315080003602368181A2060012038BD002038BD0120F6
S3150800037038BD00BF213C0008D0F8043813F001024C
S3150800038010B50BD10C6AB4F5006F09D8021D43F0FD
S3150800039001034A62C0F80438012010BD002010BDD0
S315080003A0104610BD08B58368C0689B68984708BDA5
S315080003B010B58468C068E468A04710BD2DE9F04F01
S315080003C08FB004468A46039203F00F0B0AA821460B
S315080003D00BAA9A4B9847002800F09E81984D0A98D8
S315080003E0A84706900A98A847964D21460CAA0DAB31
S315080003F0A847054628B99448944B21469847284665
S31508000400C0E10C9B069FCDF814A014225343BA6989
S31508000410D118D358C3EB04098B68B9FBF3F203FB75
S315080004201299B9F1000F03DA894B98474FF0000982
S31508000430DDF80C80CDF81CA0012764E1DDF818C0B2
S315080004400D9814225343DCF81820D5180C26296970
S31508000450D258AB6806FB0011C9EB030A49687D4E02
S3150800046001FB0321A21AB2FBF3F20891049237E1C9
S31508000470A9682A690D9B09910C2101FB0320DDF867
S3150800048010C08068844510D9E868013383420D930B
S3150800049002D36F4B984729E101FB0323DDF824C0FB
S315080004A05A682B6802FB0C330893DDF814C0D44550
S315080004B038BFE246BBF1030F00F2FA80DFE81BF013
S315080004C0040004004D00DC00DDF818C09CF800307C
S315080004D003F00203DBB2ABB1BBF1000F0CD1DDF8C0
S315080004E00CC05D4BDCF80020204651469847DDF8E5
S315080004F00CC0CCF80000DBE0404621465246574B7C
S315080005009847D5E0BBF1000F06D15046544B9847A3
S315080005108046002800F03281524F0A9821465246FA
S315080005204346B847074620B9BBF1000F40F0C080E4
S315080005300FE0BBF1000F40F0BB80DDF80CC0464B66
S31508000540DCF80020404651469847DDF80CC0CCF848
S3150800055000004046444B9847AAE00A98434A214679
S315080005609047002800F00E810D9A2B69DFF800C12C
S315080005700C214A439A583E4B1340634526D0AA6835
S315080005802B68049F02FB07339C420CD10A998B689F
S31508000590C8681B6A2146984728B90A9A9368D0689A
S315080005A05B6A214698470A9B00219A680091176959
S315080005B0D868214652464346B8470746002877D1A9
S315080005C02C48224B21465246984771E0DDF820C058
S315080005D064450BD1306808B1234B984700237360F4
S315080005E040F60C101E4B9847306016E07068DDF830
S315080005F01CC040F60C13604498420ED9184B984715
S315080006008146002800F0BB8096E80600134B984701
S315080006103068154B9847C6F800903068002800F0F7
S31508000620B1807368079AC01841460C4B984773689F
S31508000630DDF81CC0634473603AE000BF81330008EC
S31508000640A50300081535000878A700083D2E000800
S31508000650E12B000870490010011F0008355C0008EE
S31508000660111D0008B10300081D1D0008A10200089D
S3150800067030400140C6A700080A98444A21469047D8
S3150800068000287FD00D9A2B69DFF804C10C214A4354
S315080006909A583F4B134063450AD00A9AA868049FA4
S315080006A0936829685B6A00FB0711D0689847074674
S315080006B0DDF814C0CAEB0C0CBCF1000FCDF814C061
S315080006C05FDD002F5DD0B8F1000F00D0D044DDF813
S315080006D010C054440CF1010CDDF824A0CDF810C06C
S315080006E06B68DDF810C09C45FFF4C2AEDDF814C097
S315080006F0BCF1000F45DD002F43D00C9A00230132D0
S315080007000D930C929946DDF818C00C9BDCF8142062
S315080007109342FFF493AE34E01E4A9369D2699C4231
S315080007201A4405D3944203D20AEB0401914207D92D
S315080007300092194821465246184CA047002021E04D
S31508000740BBF1020F0CD0BBF1030F0ED0BBF1010FAA
S3150800075017D10398124B214652469847584611E03E
S31508000760204603990E4B524606E0BAF1000F08D010
S315080007700C4B2046FF215246984702E002E04846C5
S3150800078000E001200FB0BDE8F08F00BFA10200080D
S315080007903040014000400010F5A700083D2E000833
S315080007A0355C0008695D000873B50446C06A002810
S315080007B042D0A36B3BB1251D2846FF2124221F4B9F
S315080007C09847256038E01E4B9847636B064698683D
S315080007D01C4B9847054600282BD03278636B02F0ED
S315080007E00202D2B222B19A68216B174B984705E0EC
S315080007F09A68E06A216B154E2B46B047E26A216B70
S315080008009368D0685B6A9847FF214FF490720B4B48
S3150800081005F594709847E26A636B9168002000902A
S315080008200E69D068216B9A682B46B0472846084B54
S3150800083001E00848084B98477CBD00BF695D000881
S31508000840A5030008111D0008355C0008B10300085F
S315080008501D1D000831A800083D2E00082DE9F043AB
S31508000860B1F5907F85B004460D4673D2876B77B194
S3150800087049090268012352F8210005F01F0503FA09
S3150800088005F520EA050542F82150A36262E0C06A30
S3150800089000285FD0314B98474FF00108C4F82880EC
S315080008A090F8009009F002095FFA89F9B9F1000F8A
S315080008B019D023686E0903EB86063046284B9847FD
S315080008C005F01F050368E26A08FA05F523EA050537
S315080008D004AB916843F8045D00970C69D06831460B
S315080008E00422A04736E0636BD3F808801D4B4046C8
S315080008F09847064600282DD04246E06A216B1A4FD3
S315080009003346B847242202FB0963D3F84811002965
S3150800091003F594730CDA6A09012053F8221005F0DE
S315080009201F0500FA05F521EA050543F8225004E0FB
S3150800093009F10109B9F1080FE5D1E36A00219A68BE
S3150800094000911569D868216B33464246A847304658
S31508000950064B984705B0BDE8F08300BFA50300081D
S31508000960FB240008111D0008B10300081D1D00081E
S315080009702DE9F04304468DB00B461746E16200297F
S3150800098000F0AC801A4668463021564B9847064612
S3150800099088B9251DFF212422534B28469847012351
S315080009A02560A36326632C460FCC0FC70FCC0FC751
S315080009B023683B6092E04D4B09984D4E9847009945
S315080009C00AAA21630BAB0546B04710B9494B9847AD
S315080009D084E0AA690A9B142101FB032300266363AA
S315080009E0A66395F8008008F002085FFA88F8B8F15F
S315080009F0000F43D1251DFF2124223B4B3E4E28469E
S31508000A0098473E4B40F60C10984781464B46099846
S31508000A10216B40F60C12B047C4F80080242303FB70
S31508000A20089101F594710A6A002A11DA2422344BD6
S31508000A302846984704F1040EBEE80F003E460FC646
S31508000A40BEE80F000FC6DEF800303360256004E00C
S31508000A5008F10108B8F1080FE1D1236853B9204617
S31508000A60284B261D98470FCE0FC70FCE0FC73368E2
S31508000A703B6025604846244B98472FE0206B234B64
S31508000A80984726608046242202FB06F303F5947CE9
S31508000A90C444DCF8201000290DDA08EB030606F535
S31508000AA094760FCE3D460FC50FCE0FC533682B6023
S31508000AB0C4F800C002E00136082EE5D123686BB9F8
S31508000AC02046104B08F5947598470FCD0FC70FCDE4
S31508000AD00FC72B683B6008F5947323600DB0BDE81B
S31508000AE0F08300BF79380008695D0008A50300088F
S31508000AF015350008E12B0008B1030008111D000890
S31508000B00355C0008A90700081D1D0008FB2400081D
S31508000B102DE9F04F514B99B00446984700250646F3
S31508000B208CE020462560A562E56225636563A563BA
S31508000B30314606AA4A4B984730464A4B98470027FB
S31508000B40D0F81890029483460197B8463C4618A8F0
S31508000B5000EB870353F8482C01325AD07A01DDF8A6
S31508000B6008C003920122CCF828204FF0000A05930A
S31508000B70059A52F8483C23FA0AF313F0010343D1C5
S31508000B80DDF80CC0142202FB08F20AEB0C010492F1
S31508000B901AE081420BDCD9F80800B368D9F80020BE
S31508000BA05B6A091B00FB0121F06898472CE0DDF819
S31508000BB004C00446D9F80C000CF1010C0C3284452B
S31508000BC0CDF804C008D33DE0D9F810E0DDF804C03C
S31508000BD00C20002200FB0CEE0EEB02008C42D0F833
S31508000BE008C040680CF1010CC0EB0C002044D0DDB5
S31508000BF0DDE7DDF810C0DBF8180003EB0C0200EBAC
S31508000C000209E1E7184B98470AF1010ABAF1200FE1
S31508000C10AED10137092F9AD1029CA36A53B1204657
S31508000C2040F21F11114B98472046E16A0C4B0FAA58
S31508000C309847A56230460E4B98470646002E7FF425
S31508000C4070AF07E0DBF8142008F10108143390456B
S31508000C50CFD3D7E719B0BDE8F08F00BF0D34000831
S31508000C6071090008A5030008E12B00085D080008C3
S31508000C7025340008036823B94068003018BF0120EE
S31508000C807047012070470000054A0023036043604F
S31508000C90C3609360136353639363D36313647047AA
S31508000CA07049001030B5044600688BB0F0B10323D4
S31508000CB00F4D61680022A8470E4D2B6B5BB105F1FD
S31508000CC0080040F21F110C4B984705F10800696BA4
S31508000CD00A4B01AA9847074B00229A601A635A637F
S31508000CE09A63DA631A642046054B98470BB030BD01
S31508000CF0BD030008704900105D0800087109000866
S31508000D00890C00082DE9F0438FB0044616460AA858
S31508000D100BAA284B0D46984700282AD0264F0A9832
S31508000D20B847DDF82C9080460A98B84749460CAA79
S31508000D300DAB224FB847002838D0D8F818200C9B9E
S31508000D40142101FB03230C211A690D9B4B43D05830
S31508000D501B4B98420FD01B4B98420CD0B0F1804FDA
S31508000D6009D0194AA3F5803398420CBF1846104695
S31508000D7001E00A900B9522680A9942B9A06084E8B6
S31508000D806000E1601148124B01AA98470BE0E3683E
S31508000D9099420AD1A368984207D163689A18AA4269
S31508000DA003D1F6186660012000E000200FB0BDE808
S31508000DB0F08300BF81330008A50300081535000835
S31508000DC0101000C030400140201000C078490010C3
S31508000DD0710900082DE9F043012B93B004468946B2
S31508000DE01E4601D8802A04D02046344B9847002452
S31508000DF05FE0C06820B92046314B9847012458E087
S31508000E00304B9847037803F00203DBB28046CBB930
S31508000E1060682D4B9847054620B92046274B9847CA
S31508000E202C4646E0294FE06894E806002B46B8476A
S31508000E30074640B92046214B98472846244B9847F1
S31508000E403C4636E0256880230093A368214F01932A
S31508000E50294662684B460BA8B84731460BA81E4B75
S31508000E6098470646A8B11D4E336B6BB106F10800CC
S31508000E7040F21F111A4B98471A4B716B06F108007E
S31508000E8002AA98470023336320460D4B984701244E
S31508000E9003E02046094B9847344698F8003003F09B
S31508000EA00203DBB213B92846094B98470BA80E4B29
S31508000EB09847204613B0BDE8F08300BFA50C00088C
S31508000EC0890C0008A5030008111D0008B1030008D5
S31508000ED01D1D00087B1B0008A51B00087049001093
S31508000EE05D08000871090008911B000837B5D0F89D
S31508000EF00438104A016023F00203C0F804380E4B88
S31508000F000E49C0F80838044602F10803009400F5B3
S31508000F1001600B4D04F51664A84704F10C00094B53
S31508000F20984730210848094B98470948094B98477C
S31508000F3000203EBDC8A60008FFFFFE0067A80008FF
S31508000F4075220008890C0008B44900102918000801
S31508000F5078490010110B000808B500F50160014B2F
S31508000F60984708BDA124000837B51A4B01AA0446BC
S31508000F7008200D469847019B002B18BF1D46164BA7
S31508000F809847164B20689847154B1B7813B9206865
S31508000F90144B9847144B00209847144B9847144B0A
S31508000FA09847144B984790B1134B2C68984784423E
S31508000FB00DD1124B98472846114B984769682A68FD
S31508000FC0AB68044605F10C000E4DA8472546A84710
S31508000FD03EBD00BFC90100084B510008653C00082A
S31508000FE0585F0010413B000841B30008475100080C
S31508000FF0F9240008B9010008B1010008C101000878
S31508001000BD010008F52000082DE9F04395B014ABA2
S31508001010002443F8084D0746139368462021204BC1
S315080010206D469847002837D0DFF894806D466846A5
S31508001030C047042213A91B4B064668469847139BCC
S31508001040D3F80090184B9847814509D1174B184893
S315080010503146984714AA02EB8403013443F8286CF6
S31508001060082C0CD014AB002243F8082D68461393BD
S315080010706FF0004101220F4B98470028D7D16846E8
S315080010800D4B98470028D2D12CB138460A990B4BFC
S315080010909847012000E0204615B0BDE8F08300BF60
S315080010A0D9380008CD370008B101000841500008BA
S315080010B06FA80008E9380008C9360008690F000853
S315080010C041340008F8B520220E6A0D4F05460C4635
S315080010D000680431B84720280DD1236A33B1616A04
S315080010E021B128683246B847B04206D12868054B70
S315080010F098470120F8BD0020F8BD0020F8BD00BFC4
S31508001100913B0008653C000808B50122014B984749
S3150800111008BD00BFC51000082DE9F041CF6992B09F
S315080011200C46F907DDF86080199E24D447F00107BC
S31508001130E76107F4005712B147F4004701E047F4A6
S3150800114080470BB947F00107002A00F5016508BF7B
S31508001150164608BF904602A82946084B9847211DFF
S3150800116002A83346CDF800803A46054CA0472846E3
S3150800117002A9044B984712B0BDE8F081092100087E
S315080011809D210008A92200082DE9F04F00268BB002
S3150800119007468946B246B0463446454B9847054603
S315080011A048B9009001904946384601222B46414CE1
S315080011B0A047284679E0012E10D10C2202FB08F040
S315080011C03D4B9847044648B9009001904946384631
S315080011D032462346374DA847204666E0374B284611
S315080011E09847436900220893964643E0816903902D
S315080011F089180292CB68099300239C4631E016B9F8
S3150800120008F101082AE00A694FF00C0B0BFB0AFBF0
S31508001210D21804EB0B00CDF81CB00490D1F800B03E
S31508001220506805928A68069000FB02BB0798059AE3
S3150800123044F800B0D2F808B006988A680BF1010B9A
S31508001240C0EB0B0B02FB0BFB04980A69C0F804B051
S3150800125012F803B00AF1010AC0F808B00CF1010C43
S315080012600C33DDF824B0DC45C9D1029A03980EF197
S31508001270010E1432089B9E45B8D12846104B984754
S3150800128005460028AAD10136022E86D10C2303FB77
S3150800129008F3019338462B46494601220094054D2A
S315080012A0A8472046074B984701200BB0BDE8F08FAA
S315080012B00D34000819110008111D0008A5030008BF
S315080012C0253400081D1D0008F0B5CC6914F0020489
S315080012D093B005460E4610D102AF094B38469847DB
S315080012E0A0F10100424242EB00024023019300971D
S315080012F0234628463146034CA047012013B0F0BDCB
S31508001300F5020008191100081FB5CB6913F002038E
S3150800131008D104AC012244F8082D0094082401944D
S31508001320024CA047012004B010BD00BF19110008E7
S3150800133070B500F516640C34124B88B00546204685
S315080013400E469847034620B120460F4B9847002083
S3150800135016E00E4A91690291D1690391116A526A9F
S31508001360059106920222079202AA012400921822E7
S3150800137028460192049431462246054DA847204640
S3150800138008B070BD750C0008A50C000800400010D8
S31508001390191100082DE9FF4100F516660C360546B9
S315080013A00F4B4F6A304688469847044620B1304668
S315080013B00C4B9847002010E003AE97E8030023463D
S315080013C03246094FB8470423019328462346009618
S315080013D041460122054CA047012004B0BDE8F08132
S315080013E0750C0008A50C0008BD03000819110008B3
S315080013F02DE9F04300F51666ADF5806D0C3683B021
S315080014000446134B4F6A3046884698477D6881469E
S3150800141020B130460F4B9847002014E0B5F5806F91
S3150800142028BF4FF4806502AE38680B4F294632460E
S315080014300123B847204600960195414601224B46AE
S31508001440064CA047012003B00DF5806DBDE8F0837A
S31508001450750C0008A50C0008BD0300081911000842
S3150800146013B5002400940194014CA0471CBD00BF8D
S31508001470191100082DE9F043294DD5F810498BB00C
S3150800148081468846002C41D04C6A002C3ED0216803
S31508001490012938D82846234B984704F1840670B1A9
S315080014A028462168204B32469847284621681F4B14
S315080014B032469847002828D11D4B984725E08022B8
S315080014C0231D00920190314603A84FF48272194FEA
S315080014D0B84703A82168184B984768B12846216879
S315080014E0114B3246984728462168104B3246984792
S315080014F020B90F4B984701E0044600E0012403A8F1
S315080015000E4B984702E0002400E001244846224694
S31508001510414600230A4CA04701200BB0BDE8F083E2
S31508001520B4490010B91A0008E11A0008051B00089A
S31508001530E12B00087B1B0008A51B0008911B00086F
S315080015406114000838B54C6A084D01220023A847E3
S315080015504CB1216811F0010105D1054B2020642208
S315080015609847044B9847012038BD00BF611400080E
S31508001570E1510008D12B000838B5CB695A04044656
S315080015800D462ED4D0F8042803F00203002B164B80
S3150800159042F00202C0F8042803F10C0208BF134601
S315080015A00CBF0C22012218686969013A884210D1D9
S315080015B098685B6810F0010F02D04210A258D35801
S315080015C0294604EB60009847294602460023204630
S315080015D005E00C33002AE6D1204629461346034C7B
S315080015E0A047012038BD00BFDCA60008611400082A
S315080015F008B5D0F808280B8B934204D0C0F80838F1
S31508001600024B984708BD002008BD00BF79150008A1
S315080016102DE9F04300F51665D1F82490234BD9F847
S3150800162000600C35044685B028468846984720B1A0
S3150800163028461F4B9847002034E001A8314602AAE5
S315080016401C4B26F00305984738B1294601981A4DD0
S31508001650042203ABA847039D00E02D68174B184FDB
S315080016609847291A4D4245EB01052046414605B9DA
S31508001670A6B901220023B8470021C822114B202011
S3150800168098471148114B9847204625B1D9F80010BC
S315080016900F4B984705E00F4B984702E02A462B4622
S315080016A0B847012005B0BDE8F08300BF750C0008F7
S315080016B0A50C000881330008B1030008B101000831
S315080016C061140008E1510008B4490010991A00088D
S315080016D0690F0008091000082DE9F04100F51668A1
S315080016E008F10C080746104B4D6A40460E469847C7
S315080016F0044620B140460D4B9847002511E029685D
S315080017000B4B22460420984795E8030022460323FC
S31508001710084DA84705462346384631462A46064C0C
S31508001720A0472846BDE8F081750C0008A50C0008FE
S31508001730C9010008BD030008611400082DE9F0413D
S315080017404F6A144B00F5166808F10C0806460D4654
S31508001750404697E806009847044618B940460E4B97
S31508001760984713E03C46032054F8081B0B4B00220D
S315080017709847224697E803000223094CA0470446E7
S315080017802946304622460023064DA8472046BDE88E
S31508001790F08100BF050D0008A50C0008C901000866
S315080017A0BD03000861140008F8B54F6A0E4E0C46D2
S315080017B0002105460A460520B04705F516603B6830
S315080017C07A6807F108010C30084FB84707463946CA
S315080017D006200022B047284621463A460023044CF4
S315080017E0A0470120F8BD00BFC9010008D50D0008B3
S315080017F06114000838B58380BDF81030069DC38093
S315080018001446059A018000234480037242B13DB113
S315080018100830372D34BF2B4637233821014CA047D3
S3150800182038BD00BF6950000870B54FF0FF338CB063
S31508001830C0F824390446274B6846984700283DD007
S31508001840099A009BC4F81029C4F814399368D0681B
S315080018509B68214E9847D4F814190BAA0AAB05467B
S31508001860B04738B1AA690B9B142101FB0323C4F8BE
S31508001870183901E0194B98472B7803F00203DBB2BD
S3150800188063B10123C4F81C390023C4F82039D4F8FD
S315080018901409134B9847C4F80C0918E0C4F81C3906
S315080018A0D4F81039C4F80C499A68D868D568D4F8B9
S315080018B0141940F60C122346A84708E00123C4F879
S315080018C01009C4F81809C4F81C39C4F820390CB032
S315080018D070BD00BFD938000815350008E12B00088F
S315080018E0FB24000838B5D0F810390546A3B1D0F85E
S315080018F01C2932B1D0F81409084B9847C5F80C09C9
S3150800190038BD9A68C5F80C09D468D868D5F814198A
S3150800191040F60C122B46A04738BD00BFFB24000832
S315080019202DE9F74F9846D0F810390446894692466D
S31508001930002B63D0324B9847D4F81C290C9BD4F85B
S315080019400C1940F60C15002A18BF45468BB1002322
S3150800195001EB09000BE0C75C1AF80360BE4305D02B
S31508001960D4F818394FF0010B9D6805E0013343455B
S31508001970F1D1002A37D193462846224B9847064686
S31508001980A0B1D4F81039D4F814199A68D868D76869
S3150800199033462A46B847B144002304E01AF8032020
S315080019A009F8032001334345F8D101E0164B98475F
S315080019B0BBF1000F07D0D4F81029D4F8141993688E
S315080019C0D0685B6A9847D4F8103900219A68009164
S315080019D01769D868D4F8141933462A46B8473046E2
S315080019E00A4B98470AE0D4F8103900209A68009004
S315080019F01469D86849442A465346A047BDE8FE8F6D
S31508001A00E5180008111D0008E12B00081D1D000837
S31508001A10F7B51746D0F8102904469368D0685B6A6C
S31508001A200E46D4F814199847D4F8103900219A6844
S31508001A3000911569D868D4F8141933463A46A84768
S31508001A402046014B9847FEBDE5180008D0F8103926
S31508001A5070B5D3B1D0F80C690E4D002311E003F12F
S31508001A60180256F82240AC4202D0621C08D10EE099
S31508001A7044F6206392000B60C0F82429012070BD4B
S31508001A800133322BEBD1002070BD184670BD002003
S31508001A9070BD00BF444C54421FB5D0F8241900232A
S31508001AA04A1C039304D0009303AA0423014CA047BD
S31508001AB01FBD00BF21190008D0F80C294FF4827009
S31508001AC0002300FB0121CA1892F84822FF2A05D1F3
S31508001AD00133B3F5827FF6D10120704700207047A5
S31508001AE013B5D0F80C494FF4827303FB014101F595
S31508001AF01271091B01240094014CA0471CBD00BFAC
S31508001B002119000870B50D4B0D4616460446984730
S31508001B104FF4827200235543D4F80C29F15C52190C
S31508001B20D21892F84822914205D10133B3F5827F43
S31508001B30F2D1012070BD002070BD00BFE518000875
S31508001B4038B50446D0F810090D4650B12046054B65
S31508001B5098474FF482704543D4F80C0905F5127579
S31508001B60401938BDE5180008D0F810391BB1D0F86F
S31508001B700C39987970471846704780E80E00009B24
S31508001B80C360019B036100234361F7230376704713
S31508001B9010B5034B044600F114009847204610BDC3
S31508001BA0F5240008F0B54C4DD5F8103985B0044633
S31508001BB00E46002B00F08A800369484A934203D0F8
S31508001BC0474A934255D10DE02846464B9847042884
S31508001BD07CD128460121444B9847002876D12846CF
S31508001BE0012152E0414B1B68002B01DC404B984712
S31508001BF0404B1A681C460AB93D4B98472468002C86
S31508001C0067D03A4B1B68002B5EDDA379042B26D1DF
S31508001C103148344B9847042818D104F51272364EC9
S31508001C202D480021B04704F55372012105462A487C
S31508001C30B047002104462C4E2748B04701210746E5
S31508001C402548B04707B965B100B95CB1294B2248A8
S31508001C501968264B1A68294B9847012402E0002484
S31508001C6000E02C46234D264B2868984700232B6016
S31508001C702FE028461B4B9847042827D1284631468B
S31508001C80194B984710BB284631461E4B98470146C4
S31508001C90F0B1A3681C4E0093E36804F114050193A0
S31508001CA00295022094E80C00B047184E207602E010
S31508001CB02846B047207694F91830012BF8D0D3F18E
S31508001CC0010438BF002404E0002402E0012400E0F7
S31508001CD00446204605B0F0BDB44900105020004027
S31508001CE030400140691B0008B91A00087449001001
S31508001CF0E12B000870490010051B0008111A00089E
S31508001D001D1D0008411B0008ED240008F1240008E9
S31508001D1008B5014B984708BDD94E000808B5014BD0
S31508001D20984708BD354E00082DE9F04F89B044F6AE
S31508001D302063059306A807A9534B98470698079961
S31508001D40524B9847524B53485968534B98475348F8
S31508001D50534B05A9984760B905A8524B984740B90F
S31508001D604C48514B9847002840F089804FF0FF3384
S31508001D70059300244D4BDFF884814D4D4D4F4E4E53
S31508001D809847009401944D490422032340F20150D8
S31508001D90A8474B494B4A4C4BCDF8008040F20150BE
S31508001DA0A8473B4D494B6868984721462246204636
S31508001DB0474B9847E868B84723460094042103220E
S31508001DC03E48B047404A3F4942484346B047042147
S31508001DD04148B047E868414EB84708AB012243F886
S31508001DE0142D214600933E483E4C3F4F0823A047FA
S31508001DF03E4B984782468B4620208521059AB04758
S31508001E00044600B1B847230604D5012005A90022D7
S31508001E102F4B984714F0050F02D01E48344B9847AD
S31508001E201C4CD4F8043813F002050DD023F0020335
S31508001E30C4F80438022005A90022254B98472B4BE5
S31508001E40984782468B46D7E7059B0133D4D0274B64
S31508001E509847284B8046059889469847B8EB0A085C
S31508001E6069EB0B09404571EB0903C5D207202946E2
S31508001E702A46174B984720460B4B9847BCE71E4BFC
S31508001E80984709B0BDE8F08F654F0008114E000865
S31508001E9000400010E0520010ED0E0008B449001092
S31508001EA04D1A0008C3010008091000084B51000824
S31508001EB009500008653C00084150000892A800082F
S31508001EC0ACA8000814AD0008C5A80008C53A000863
S31508001ED0C9010008DAA80008F1A80008E1510008BD
S31508001EE0F05A0010B1240008B551000875B300086F
S31508001EF0590F0008E72B0008D12B0008D1A80008C5
S31508001F0010B5074B08E010F8014B84EA1264013952
S31508001F1053F8244084EA02220029F4DC104610BD56
S31508001F200CA900082DE9F04FADF5805D87B0044691
S31508001F300DF582500430D31806680193154604EB54
S31508001F40010B00230DF1140A202203F80A2001339D
S31508001F50B3F5805FF9D10027BFE0631C3EB10DF5EC
S31508001F6080522046012115321C46B04705E00DF582
S31508001F708051227815311C460A704FF000099FE0FF
S31508001F805C4580F0AF8004F1010836B10DF580524A
S31508001F90204601211632B04704E00DF58052237819
S31508001FA016321370D84580F09D8008F1010436B1C9
S31508001FB00DF58052404601211732B04705E00DF570
S31508001FC0805098F80030173003700DF5805117319E
S31508001FD00DF5805016300B780278CDF808B003F06E
S31508001FE00F0C1B0902EB03231B051B0D0CF1030C3D
S31508001FF01033CDF80C90A346B146A8461C46664653
S315080020002205120D0DF5805116311AF80220019B92
S315080020100A703905090D98450AF8012062D00DF5B0
S31508002020825008F10105006848B10DF582530DF597
S3150800203080524046012116321B68984701E088F80D
S31508002040002001370134013E08F10108D8D15C4669
S315080020504E46DDF808B0DDF80C902CE05C4541D220
S31508002060631C3EB10DF580522046012117321C46ED
S31508002070B04705E00DF58050227817301C460270EF
S315080020800DF5805117310DF582503B051B0D0A7869
S3150800209000680AF803206B1C50B128461D460DF54A
S315080020A082530DF58052012117321B68984701E0CB
S315080020B02A701D46013709F10109B9F1080F0CD03C
S315080020C0019B9D4209D20DF58051153101200B78EF
S315080020D000FA09F21A42C1D152E75C45FFF43DAF56
S315080020E0012001E04FF0FF3007B00DF5805DBDE837
S315080020F0F08F000013B5002400940194014CA0470A
S315080021001CBD00BF251F000810B520220446074B3A
S3150800211040F8041B00219847002100220023616231
S31508002120A162E162C4E90C23A16310BD695D0008E0
S315080021302DE9F04799460368DDF82080144E0D46D0
S315080021401968144B071D0446002908BF194692460C
S31508002150114B082238469847494600224046B04760
S3150800216023682061B3F85020656122830132A3F801
S31508002170502000226283C4F81CA0C4F82090C4F83A
S315080021802480E26038462021B047E060BDE8F08749
S31508002190011F00080CAD0008355C00082DE9F04762
S315080021A099460368DDF82080164E0D461968164BC9
S315080021B0071D0446002908BF19469246134B0822F4
S315080021C038469847494600224046B0472B69206161
S315080021D063612368B3F8502022830132A3F85020A4
S315080021E0AB8AC4F82090638300224AF00203E361B5
S315080021F0C4F82480E26038462021B047E060BDE894
S31508002200F08700BF011F00080CAD0008355C000808
S31508002210436A10B504463BB102689368D0689B6868
S31508002220214698470023636210BD0000002238B596
S315080022302021C568054BC260044604309847431BF5
S315080022405842E56040EB030038BD00BF011F000897
S3150800225010B50446406A08B9236A43B90022044BFC
S31508002260216A98472369C21A504240EB020010BD02
S31508002270011F000838B580E80E00049B002100F114
S3150800228010050446C360A0F850104022044B2846A7
S315080022909847044B2846214698470123A36438BD2E
S315080022A0695D00080921000808B54368C0685B68CD
S315080022B0984708BD30B5044693B002A80D46094BA9
S315080022C02168984745F48045002145F001020091B0
S315080022D002A80B46044DA8472068044B02A9984754
S315080022E013B030BD0921000831210008A9220008D1
S315080022F02DE9F84FDFF89CB1DFF89CA10446051DCF
S31508002300A36B062B00F2AA80DFE813F0AB000700E8
S315080023100E0040005000720096002046D84702235F
S31508002320A363A56220235BE0214604F12C0251F841
S31508002330280B4368C0681B689847002800F09180FE
S31508002340DFF8588104F10509E66AC6F12006002E71
S3150800235018DD082E34BF37460827284646493A4628
S31508002360D04778B1284645493A46D04750B1721EFB
S3150800237028464946C047A36A013BA362E36A01337C
S31508002380E362E1E7072EBBD9032365E0214604F1A2
S315080023902C0251F8280B4368C0681B689847002828
S315080023A05FD0E36A002BABD1042355E02046344BBB
S315080023B09847B8B122689368D0681B682146984741
S315080023C080B1236A002B35D0636A002B43D02D4B8E
S315080023D098470523A363636AC4E90C01A362236AC9
S315080023E0E3628DE7E369D90735D42046042130E056
S315080023F0244B984706460F46D4E90C01224B301A5F
S3150800240067EB010198471AA3D3E90023824273EBCD
S31508002410010C20D32146C4E90C6751F8280B436800
S31508002420C0681B6804F12C029847E8B1E36A002BE0
S315080024307FF466AF06230FE02046144B984730B169
S3150800244022689368D0685B682146984703E020466F
S3150800245008210F4B98470123A36351E70020BDE8E5
S31508002460F88F0120BDE8F88F0120BDE8F88F00BF7E
S31508002470FF8693030000000067A800080CAD00085B
S315080024802D22000875B30008312D000851220008D6
S31508002490B522000811220008D55B0008B95C0008BF
S315080024A008B51030014B984708BD00BFF122000857
S315080024B0F0B5044693B00D461E4602A82146084BC1
S315080024C017469847189B02A80093294633463A466A
S315080024D0044DA847204602A9034B984713B0F0BD00
S315080024E00921000831210008A922000800207047A8
S315080024F000207047002070477047704738B500F0D5
S315080025000F02104B53F82230DBB10109890201F1A1
S31508002510804101F50031012409690B4D21FA02F1C8
S3150800252011F0010104FA02F403D1ED682C4203D13B
S3150800253038BDAD682C4204D0024C04EB8202126C02
S31508002540984738BD605C0010003C01402DE9F04713
S3150800255007462A4C2A4E0120A0470220A04756F8D3
S315080025602750002D43D0BA100232264B06F18004BC
S3150800257004EB471453F822A0234B204698474FF004
S315080025800109B6F8803209FA07F818EA030F0AD0E3
S315080025901E4B9847D6F88452421941F1000320464B
S315080025A01B49884723E007F003039B002AFA03FA2E
S315080025B0184B996818EA01010AF00F0A10D0DB686F
S315080025C018EA030F0BD04FEA8A2303F1804303F579
S315080025D00033196921FA07F101F0010100E04946C3
S315080025E0074B47EA0A1003EB87073A6CA84702200D
S315080025F0094CA0470120A047BDE8F087A52E000892
S31508002600605C001000380140D931000875B3000835
S3150800261085300008003C0140B92E000870B5094B0A
S31508002620094E5C6904F47C445C611B681C40A40A7E
S315080026300A25E30701D52846B04701356408F8D1CD
S3150800264070BD00BF003C01404D25000870B5094B20
S31508002650094E5C6904F478745C611B681C40640963
S315080026600525E20701D52846B04701356408F8D1A3
S3150800267070BD00BF003C01404D25000808B5034B5E
S3150800268010225A610420024B984708BD003C0140BD
S315080026904D25000808B5034B08225A610320024B52
S315080026A0984708BD003C01404D25000808B5034B76
S315080026B004225A610220024B984708BD003C01409B
S315080026C04D25000808B5034B02225A610120024B2A
S315080026D0984708BD003C01404D25000808B5034B46
S315080026E001225A610020024B984708BD003C014070
S315080026F04D2500082DE9F04F0409A40200F00F0B40
S315080027004FF0010904F180440BFA09FA4FF0030867
S31508002710022A85B01E4604F5003409FA0BF508FAB4
S315080027200AF805D04A450CBF4FF002094FF00009D8
S315080027300BF00707BF00C6F3031202FA07F209FAFD
S315080027400AF9019201FA0AFA02A80021174B9847DA
S315080027502168019A6FEA0803194041EA0A012160D3
S31508002760E168194049EA0101E160A1684FEADB0B1B
S315080027700B4043EA08030BF1080BA36054F82B300F
S315080027800F2101FA07F723EA07073A4344F82B20F3
S315080027906368F1074CBF1D4323EA0505656002A877
S315080027A0034B984705B0BDE8F08F00BFE5B20008B7
S315080027B0F1B200083F280DD803099B0203F18043B4
S315080027C003F5003300F00F001B6923FA00F000F050
S315080027D001007047002070472DE9F04F85B000F0E2
S315080027E00F0700F0030901924FEA8909BA081E4645
S315080027F04FF00F0A0309009204468B460AFA09FAB3
S3150800280002A803FA09F90021434B9847009A434B5B
S315080028104FF0010808FA07F50232BBF1000F60D045
S3150800282053F822100AEA010149450BD03C490968C8
S315080028300D4265D153F8221021EA0A0A4AEA09012B
S3150800284043F82210DFF8E490364B09F1800808EBCC
S315080028504718404698470E9B2BB1B9F88032C8F8FE
S315080028600C402B4303E0B9F8803223EA0503A9F8A4
S31508002870803249F827B0019B09EB8709022EC9F86F
S315080028804030274B03D0042E01D0032E02D19A687C
S315080028902A4302E09A6822EA0502012E9A60204B32
S315080028A003D0052E01D0032E02D1DA682A4302E0AE
S315080028B0DA6822EA0502DA605D611A68042E45EADA
S315080028C002021A6004D12046174B984730B920E017
S315080028D0052E1ED12046144B9847D0B9104B1D61C2
S315080028E017E053F822300AEA030ACA450AD10C4B04
S315080028F01A6822EA05051D600C4B43F827B001E06B
S315080029004FF0000802A80A4B9847404605B0BDE8B4
S31508002910F08F4FF00108F5E7E5B2000800380140EE
S31508002920003C0140D9310008B5270008605C00105A
S31508002930F1B200083F282DE9F34104460E46154634
S3150800294098460ED800219DF82420074F0B46B84715
S3150800295000962046294642469DF82030034CA0475B
S3150800296000E00020BDE8FC81F5260008D92700080C
S3150800297013B500939DF81030024C01930023A0472D
S315080029801CBD00BF352900083F2837B504460D464B
S3150800299014D803F00F01012904D000290CBF1146F1
S315080029A0022100E0032120462A46054DA8470021BA
S315080029B0204600910A460B46024CA0473EBD00BF82
S315080029C0F5260008D92700083F280FD803099B02D7
S315080029D000F00F00012203F1804302FA00F003F52C
S315080029E0003380B209B118837047588370470000D6
S315080029F03F2837B504460ED8074B084D984700229E
S31508002A00204613460121A8470021204600910A4680
S31508002A100B46034CA0473EBDC9290008F526000809
S31508002A20D92700084FF0FF3212184FF0FF3370B560
S31508002A3043EB010342F20E740025944275EB03063C
S31508002A4006D3044B9847044BC3F88402012070BD93
S31508002A50002070BDE72B0008605C0010F8B51E4F1B
S31508002A601E4B1F4D00241420002198470126A7F865
S31508002A708842A7F88A42A7F88C42A7F88E42803780
S31508002A8007EB44100022866116490134A847102C2A
S31508002A90F6D1154B154D164900241C602246062012
S31508002AA0A847224607201349A84722460820124964
S31508002AB0A847224609201149A84722460A20104954
S31508002AC0A847224617200F49A84728200E4922461C
S31508002AD0A8470120F8BD00BF605C0010252A000841
S31508002AE0B9310008FD240008003C01406D2B0008A0
S31508002AF0DD260008C5260008AD260008952600082C
S31508002B007D2600084D2600081D260008124B4FF0AA
S31508002B10FF32C3F88020C3F88420C3F88820C3F89E
S31508002B208021C3F88421C3F888210C4A0C4B9A608B
S31508002B30DA601A615A619A61DA621A639A63DA6329
S31508002B40BFF35F8F074A0849D1609360536A43F41D
S31508002B50E0235362704700BF00E100E0DEA50008ED
S31508002B600080012000ED00E00007FA0500F11002E0
S31508002B70094B10B543F82210BFF35F8F4209074B84
S31508002B8000F01F0102F16004012000FA01F143F888
S31508002B90241043F8221010BD0080012000E100E057
S31508002BA0420900F01F0120320120034B00FA01F10F
S31508002BB043F82210704700BF00E100E008B5024B59
S31508002BC09847012008BD00BF0D2B00087047FEE797
S31508002BD0014A024BDA60FEE70400FA0500ED00E060
S31508002BE000BEFEE770474FF47A73A0FB03017047F7
S31508002BF010B501200C4CA0470220A0470B4B4FF6FE
S31508002C00FD721A820A4B98470A4BD3E90023904271
S31508002C1071EB030401D3084B98470220074CA047E1
S31508002C200120A04710BD00BFA52E0008000C0040DB
S31508002C3075B30008F05E001029320008B92E0008A6
S31508002C40D3B50B4B0B4C06460F46684600219847F2
S31508002C50094BC3E90067094B66639847B04271EBB5
S31508002C60070301D30223A3826846054B9847DCBDB8
S31508002C70E5B20008000C0040F05E001075B30008CD
S31508002C80F1B2000810B51E494FF0FF324FF6FF7338
S31508002C90C1E900231B4B1A6C42F048021A641A4B0E
S31508002CA008229A60194B042420221C8002219A804B
S31508002CB000221A81998153211A839A8319854FF024
S31508002CC0FF315A63D9621249012098820C80172471
S31508002CD08A800C814FF6FF748A810A85CC628882C5
S31508002CE0088880B240F001000880198889B241F04E
S31508002CF00101198032200749074B984710BD00BFCC
S31508002D00F05E001000380240002004E0000C00408D
S31508002D1000180040F12B00086D2B000808B5A82301
S31508002D2058430538014B984708BD00BFD9A5000888
S31508002D300A230A46A0FB030103FB0211704701237D
S31508002D4003600B6000200021C2E900017047000003
S31508002D5013B51F4B984700241E4B9847684601A990
S31508002D60009401941C4B98479DE803001B4B984719
S31508002D701B4B98471B4B98471B4B98471B4B984731
S31508002D8020461B4B98471B4B98471B4B98471B4B9A
S31508002D9098471B4B98471B4B98471B4B98471B4B11
S31508002DA098471B4B98471B4B98471B4B98471B4B01
S31508002DB098471B4B98471B4B98471B4B98471B4BF1
S31508002DC098471B4B98471B4B98471B4B98471CBD6E
S31508002DD055310008713000085D4F0008114E000893
S31508002DE0C5500008715100085D2A0008BD53000847
S31508002DF04DB3000811330008515100084536000844
S31508002E00A9500008AB500008B1500008AD500008A2
S31508002E1043510008A93C0008B93A00083751000890
S31508002E20794F00083F5100083B510008BF50000881
S31508002E30B9500008B3500008315100080FB470B5F6
S31508002E40C2B046ABFF2153F8042B0A4C419301A8A4
S31508002E50A047094C094D0646E068A847E068084BB4
S31508002E6001A932469847E068A84742B0BDE87040D5
S31508002E7004B070475D50000800400010653C00082B
S31508002E80913B00080FB407B504AA054B52F8041B7A
S31508002E9040F2015001929847BDE80E4004B07047D1
S31508002EA07D4F0008034B03EB8000036C013303647A
S31508002EB0704700BFF85E0010034B03EB8000036CFD
S31508002EC0013B0364704700BFF85E0010044B03EB38
S31508002ED08000006C0028D4BF00200120704700BF86
S31508002EE0F85E0010002010B520210246034CA047CA
S31508002EF0034902460348A04710BD00BF011F00084A
S31508002F00000000000040001030B587B002AB2C4925
S31508002F102C4A01E043F804298B42FBD22A4C2B4B5E
S31508002F202B4963652B4B2C4A2C4DCB189B18A36554
S31508002F302B4B98472B4BE06598472B4B984700241B
S31508002F402A4B984704210322234629480094A84778
S31508002F50284A294B29492A48A84704212948A84725
S31508002F6004A805A9284B9847059A284B0498214692
S31508002F709847274C2748A04727482049A04726486E
S31508002F802649A04726481B49A04725481A49A0476D
S31508002F900121244B4EF66020984701210220224B3E
S31508002FA0984701200146214B9847214B98472148CD
S31508002FB0A0472148214B9847214B984707B030BD79
S31508002FC0000000100DF0ADBAF85E00100000000811
S31508002FD064090000F4B40000000000004150000835
S31508002FE0E52E0008BD2B0008852C0008512D000889
S31508002FF044AD0008C5A8000874AD000814AD000863
S315080030005AAD0008F1A80008654F0008695D000878
S31508003010852E00087DAD00087FAD000887AD000845
S3150800302093AD0008493000084D30000845300008C7
S31508003030291D00089DAD00089EAD00083D2E00081C
S31508003040CF2B0008002070470020704700207047EB
S3150800305068B161B188420AD04A680B6802B1136048
S3150800306003B15A60436881E80900416019607047F6
S31508003070034B1A1D1A6000225A609B60704700BFF6
S31508003080605F0010F7B516461F4656EA0703044662
S3150800309001D1124B9847124B684600219847114BAD
S315080030A0C4E90467186806E0D0E90423964277EB7A
S315080030B0030503D3084601680029F5D10A4B2146C2
S315080030C09847084B1B689C4203D130463946074B44
S315080030D098476846064B9847FEBD00BFE12B000897
S315080030E0E5B20008605F001051300008412C000866
S315080030F0F1B2000838B5144B1B6815461A6842B178
S31508003100D3E90423904271EB03042CBF0024032463
S3150800311000E00524E30701D50C4B9847E8B2DDE942
S3150800312004230B49884714F0060F0CD0064BA20758
S315080031301B6802D5D3E9040103E04FF0FF304FF6D0
S31508003140FF71024B984738BD605F0010412C00089C
S31508003150CD2B0008044B03F1100103F10C02D960D2
S31508003160002119615A617047605F0010836813B5C2
S31508003170044653B10021054B684698470448054B59
S31508003180214698476846044B98471CBDE5B2000897
S31508003190705F001051300008F1B2000808B5836965
S315080031A023B18368C0681BB1984708BD014B98478F
S315080031B008BD00BF6D3100080023036043608160CD
S315080031C0C26070474268036802B1136003B15A606F
S315080031D0002303604360704773B50E4D0E4B0446DB
S315080031E00021684698472E680C4B20469847A64209
S315080031F00CD155F8043BAB4202D0D3E9040103E0F5
S315080032004FF0FF304FF6FF71054B98476846054B60
S3150800321098477CBD605F0010E5B20008C53100081C
S31508003220412C0008F1B20008F7B5154B6846002195
S315080032309847144B1C682568EDB1134BD4E904670D
S315080032409847B04271EB070301D2104B98471020FC
S315080032500F4B98470F4B204698472B6813B1D5E973
S31508003260040103E04FF0FF304FF6FF710A4B984711
S3150800327020460A4B98476846094B9847FEBD00BF4B
S31508003280E5B20008605F001075B30008E12B00087E
S3150800329085510008C5310008412C00089D310008F9
S315080032A0F1B2000810B5046823681BB12046034B29
S315080032B0984700E01C46204610BD00BFC5310008EF
S315080032C037B50D4B6846002198470C480C4B984774
S315080032D060B18568C4680B4B684698470DB12046AF
S315080032E0A8476846084B9847012400E00446684604
S315080032F0064B984720463EBDE5B200086C5F0010B5
S31508003300A53200080FB300080BB30008F1B2000895
S31508003310044B1A1D1A6000225A60DA6001229B606B
S315080033201A617047785F0010F8B504460D461646D0
S315080033301F4609B9104B98470CB90F4B98470022FE
S31508003340A560E660226062601FB12B683046984728
S3150800335080B10A4BA3420CD06168226801B10A60A9
S3150800336002B151605A682360626014605C60012093
S31508003370F8BD0120F8BD00BFE12B00087C5F0010F6
S315080033802DE9F84F002303601E4B044618690D46C5
S315080033901746002834D01E68002E29D12FE0304663
S315080033A0D8470023D0F814909C461DE08169CA18B6
S315080033B0C958A94215D8D2F80880D2F804A00AFB41
S315080033C0081A55450DD2691AB1FBF8F1266039601D
S315080033D09568694339601368C91839600120BDE8E2
S315080033E0F88F0CF1010C1433CC45DFD1366801E0B7
S315080033F0DFF814B030680028D1D1BDE8F88F304620
S31508003400BDE8F88F785F0010A5030008044B18691B
S3150800341020B118680368002B08BF0020704700BF5A
S31508003420785F0010054B1B6933B1006828B1036843
S31508003430002B08BF0020704718467047785F0010B9
S3150800344090E80C00D018704770B50446406A8AB0F8
S31508003450002848D04368002B47D143E0A36983B9C5
S315080034606369002B4DD1636A5868606210B143687E
S31508003470002B43D1204669462822244B9847002032
S3150800348031E0013BA36100226369A969142000FBAE
S31508003490031312B1DA68013AA261A2690C214A4300
S315080034A019698818895C22699142D7D12978E26915
S315080034B001F00201C9B211B142F0010201E022F0A5
S315080034C001024168E2619A681B68E26002FB013307
S315080034D0236083680133591A4A430023A260636054
S315080034E0012000E018460AB070BD094EB0472146D3
S315080034F0054628226846054B9847AFE7B047436913
S315080035000546013B63610122BEE700BF355C000842
S31508003510A50300082DE9F74F0024146045692646DF
S3150800352001952EE0876957F804C08C4507EB04051A
S3150800353025D8D5F808806F6807FB08C7B9421ED298
S315080035402F69D5F80CB0D7F80490002509FB08CCEC
S31508003550B24611E0BE6806F101097E68C6EB0906A7
S3150800356008FB06CC0C37614505D2C2F800A05646C2
S315080035701D60012009E001355D45EBD1564601364F
S315080035801434019DAE42CDD10020BDE8FE8F2DE951
S31508003590F04F1D6885B014246C43DDF838C00394D9
S315080035A000273BE0039E0090BC1986693619DCF8B3
S315080035B00040D6F80CB04FF00C0909FB04F94FF09F
S315080035C00008CDF80890AA461FE00298D6F8109091
S315080035D008EB000509EB050019F8055001908D4226
S315080035E002D008F10C0879B9DDF804903068B168A2
S315080035F0D9F8047007FB010111605546C3F800A00D
S315080036000120CCF800400DE001345C45DDDB554671
S3150800361000240098CCF80040013514374469A542C7
S31508003620C0D3002005B0BDE8F08F000037B5069D71
S31508003630002414601C602C600095014CA0473EBD18
S315080036408F350008F0B51B4B1C6887B024B91A489B
S315080036501A4B9847254629E0DB68002B25D119E047
S31508003660A368E0681B68984718B1003518BF01259C
S3150800367000E005462046B04704AB0093302105AA72
S3150800368003AB0F4FB84718B10A4BDA686AB9DC6062
S31508003690246801E00B4E01252368002BE0D1054B79
S315080036A0DB68002B08BF002500E00025284607B088
S315080036B0F0BD00BF785F00100AAE00083D2E000876
S315080036C02D360008A50300082DE9F0410446456A91
S315080036D03A4B8CB002A82146282298477DB9384B28
S315080036E09847606200284FD00368002B4FD14AE004
S315080036F043F0010301E023F00103E36102E0A3695B
S315080037000133A3612F4D304E04F11407606A10B1DE
S315080037100368002B45D1204602A92822274B984743
S31508003720002031E0274B606A984762698369142153
S3150800373001FB023100236360A3690C2253430A6923
S315080037408968D018D35C86684568E1600136701BC5
S315080037504843A0602362012016E0636A186803687C
S31508003760606263B1A8470278E36902F00202D2B246
S3150800377012B143F0010301E023F00103E3610023E2
S315080037806361A361C2E718460CB0BDE8F0810D4B32
S3150800379098470278E36902F00202D2B2002AA7D15A
S315080037A0A9E7D4F81080A84704F118030093414606
S315080037B022463B46B0470028CFD0B3E7355C000821
S315080037C00D340008A50300088F3500082DE9F84FC9
S315080037D00446406A8846154600283ED00368002BF2
S315080037E037D000293BD137E06268A3689A4204D1F2
S315080037F020461F4B984700282FD06368A668EA180A
S31508003800B2429BF8002002F00202D2B294BF2E46C2
S31508003810C3EB06064AB1BAF1000F10D12268D318D5
S31508003820C8F800304FF0010A09E0626A216890681A
S315080038305918C768D0684B463246B84768B16368B6
S31508003840AD1BB1449E196660002DCDD10120BDE89F
S31508003850F88F1846BDE8F88F0846BDE8F88F054B7F
S3150800386098474FF0000A8346D8F80090ECE700BF67
S31508003870C9360008A5030008134B70B50446D86876
S315080038800E461546F0B12046002128220F4B9847D0
S315080038902661A5B12B6893B14FF0FF33A36165622A
S315080038A00B4B284698470278E36902F00202D2B227
S315080038B012B143F0010301E023F00103E36120465E
S315080038C0044B984770BD00BF785F0010695D00081B
S315080038D0A5030008C936000808B50022014B984719
S315080038E008BD00BF79380008012A70B5044603D020
S315080038F006D3022A30D101E0456802E0856800E077
S31508003900002501F100430233012B0ED8E3686FF05E
S315080039100040B5FBF3F2814203FB125201D1991A1A
S3150800392003E00AB1514200E059426D180B4E03E01C
S315080039302046ED1AB04780B1A3689D42F8DA05E043
S315080039402046B04748B1A368ED1800E0044E002DA4
S31508003950F6DB6560012070BD002070BDC936000821
S3150800396049340008064AA2F130031968814201D198
S315080039705868704708339342F7D10020704700BF54
S315080039805C40001073B51E4B05460C466846002180
S3150800399098471C4AD2F80C1225EA01050C4054EA4D
S315080039A0050326D010689668431C402B08BF0023E1
S315080039B0A6B95668B34201D101269660114A13602A
S315080039C0431C02EBC30380205D600D439C6025EA1F
S315080039D00404C2F80C420C4B98470AE00B480C4BFF
S315080039E098470C480C4B98478020074B984700246B
S315080039F000E001246846094B984720467CBD00BF75
S31508003A00E5B200088C5F0010855100083BAE00083F
S31508003A10852E00083CAE00083D2E0008F1B20008CD
S31508003A2010B5054B0C469847044B01460CB10020CF
S31508003A3000E02146984710BD653900088539000819
S31508003A402DE9F743134B14481449154F154EDFF863
S31508003A506080DFF8609034229847134B00221A6082
S31508003A605A609A60A7F1300425686A1C0CD00223B4
S31508003A70012100930D4A03232846B0472846C0472C
S31508003A80014608B96068C8470834BC42ECD1012031
S31508003A90BDE8FE830D4E000850AE00082840001011
S31508003AA05C400010712900088C5F0010213A00085C
S31508003AB0B52700088539000808B5014B984708BDA1
S31508003AC0413A000800F47F43B3F5007F37B5044652
S31508003AD011D0B3F5407F20D0B3F5807F22D10123E2
S31508003AE000930022104B0192C4B2601E19690F4C54
S31508003AF00823A04717E0C0F34215284600210C4BBF
S31508003B00984778B928460B4B984760B1E4B2601ECF
S31508003B1001210222084B984705E0C4B2601E074BF4
S31508003B20984700E000203EBD00400010AD3C00086C
S31508003B30B14700080D490008153E0008A1520008C3
S31508003B4000F47F43B3F5007F10B5044609D0B3F5FA
S31508003B50407F0ED0B3F5807F10D1C4B2601E084BEB
S31508003B600AE0C0B2074B01389847C4F34210064B27
S31508003B7002E0C4B2054B601E984710BD002010BD78
S31508003B80B13C0008B13E0008653F0008A552000890
S31508003B902DE9F047C7B2144600F47F480D4664265F
S31508003BA04FF00009013FDFF874A020E038462946A7
S31508003BB02246D04709E0384629462246134B03E0F9
S31508003BC0134B384629462246984700281BDB0AD15C
S31508003BD00020104B9847B0B12020002101220E4B3F
S31508003BE0013E984703E0241A2D188144322654B121
S31508003BF04EB1B8F5007FDED0B8F5407FE0D0B8F515
S31508003C00807FE5D1D2E74846BDE8F087154B000826
S31508003C10A95200082DB30008E1510008B53C000878
S31508003C2008B500F47F43B3F5007F09D0B3F5407FAC
S31508003C300AD0B3F5807F0CD1C0B20138064B06E036
S31508003C40C0B20138054B02E0C0B2054B01389847AF
S31508003C5008BD002008BD00BFB93C0008154D000886
S31508003C60AD52000808B500F47F43B3F5007F09D0CC
S31508003C70B3F5407F0AD0B3F5807F0CD1C0B20138C6
S31508003C80064B06E0C0B20138054B02E0C0B2054B50
S31508003C900138984708BD002008BD00BFBD3C000894
S31508003CA0FD4D0008B15200080020704701207047FA
S31508003CB00120704700207047002070470120704798
S31508003CC038B5B0F8643090F8475004469D4228BF8E
S31508003CD01D462A46104B006C216E9847236EB4F891
S31508003CE0642084F844505B192366ABB2D21AA4F850
S31508003CF0642094F84720954206BFB4F86620C3EBC3
S31508003D0002030023A4F86630B4F86620034B002AA1
S31508003D1008BF0023E36538BD355C0008C13C0008D0
S31508003D20F7B5394B0546C0F342100C461746984777
S31508003D300646002865D00068002864D005F01F05EF
S31508003D40032D5FDCFF2F02D1FF2C05D15AE07B1E25
S31508003D50022B57D8FF2C02D0631E022B52D805F12E
S31508003D601C0316F81320FF2A4CD106EB43035B7895
S31508003D70FF2B47D1FF2F04D03B1D56F82300002800
S31508003D8041D0FF2C04D0231D56F8230000283AD032
S31508003D90FF2F05D007F10A0356F82330002B31D13F
S31508003DA0FF2C05D004F10A0356F8230000282AD070
S31508003DB033460022FF2F07D093F83810B94221D096
S31508003DC093F83910B9421DD0FF2C07D093F8381054
S31508003DD0A14217D093F83910A14213D00132023309
S31508003DE0042AE7D11C350021084B6846984706F88F
S31508003DF0157006EB450568466C70054B984701201B
S31508003E0001E000E00020FEBD2D580008E5B20008DC
S31508003E10F1B2000808B5014B984708BD213D0008D6
S31508003E2037B5204B0546C0F342109847044600288C
S31508003E3034D00068002833D005F01F05032D2EDC8A
S31508003E400021194B6846984705F11C0314F81330EE
S31508003E50FF2B07D0043354F823301BB100221A6015
S31508003E605A609A6005F11C03FF2204F8132004EB3C
S31508003E7043035B78934207D0043354F823301BB1CD
S31508003E8000221A605A609A6004EB4504FF2384F8FE
S31508003E9039306846054B9847012001E000E00020CC
S31508003EA03EBD00BF2D580008E5B20008F1B2000873
S31508003EB008B5014B984708BD213E0008F7B5214BC8
S31508003EC005469847044600283AD01F4B6846002105
S31508003ED098472368002B2DD01C4B586800F47F4662
S31508003EE0C0F34211C0B2013822460023B6F5007F5E
S31508003EF003D18D4201D1834207D092F83870FF2F43
S31508003F001AD192F83970FF2F16D101330232042BD9
S31508003F10ECD1B6F5007F03D18D4201D10C4B984701
S31508003F200023236028460B4B98470B480B4B9847B2
S31508003F30012402E01C4600E000246846084B984726
S31508003F402046FEBD2D580008E5B2000800400010C6
S31508003F50213E0008F5590008A086010095B300081F
S31508003F60F1B2000808B5014B984708BDBD3E0008E8
S31508003F7037B50C4B05460C46684600219847284637
S31508003F80094B984740B185682C43A542846004D004
S31508003F900420064B984700E005466846044B9847B8
S31508003FA028463EBDE5B200082D5800088551000890
S31508003FB0F1B2000837B50C4B05460C466846002199
S31508003FC098472846094B984740B1856825EA04046E
S31508003FD0846024B90420064B984700E005466846E5
S31508003FE0044B984728463EBDE5B200082D58000800
S31508003FF0B5510008F1B2000808B5014B984708BD4D
S31508004000B53F00082DE9F341154B0D46044600213E
S315080040106846174698478DB1DFF84C802646002536
S3150800402033693BB1B26A2AB91A605A609A60204667
S315080040302946C04701350436042DF1D15FB1042164
S315080040400022236923B1A06A10B11A605A609A60E7
S3150800405004340139F5D16846024B9847BDE8FC811E
S31508004060E5B20008F1B20008CD58000810B503798A
S3150800407090F846209A4204461DD0052B03D101210B
S315080040800A460D4B984794F846302371062B10D8EC
S31508004090DFE803F004111111110911000023A4F837
S315080040A06430E36510BD204601210022024B984783
S315080040B010BD024B984710BD05400008E12B0008CB
S315080040C04B8882B0002B2ED1CB88022B2BD190F8AF
S315080040D04620032A27D00B7803F00F03012B05D0BF
S315080040E0022B08D0FBB900F1500312E0052A18D1BB
S315080040F00DF106030DE0042A8B8800D19BB903F065
S315080041007F038B8090F858209A420CD9426D02EBB7
S31508004110430303660223A0F86430044BC3650020FA
S3150800412002E0184600E0012002B07047C13C0008D2
S3150800413038B54B887F2B044618D88A88B2B9CD88FB
S31508004140A5B990F84620042A12D8DBB280F8453083
S31508004150002B14BF0423032380F84630054B9847E9
S31508004160054BA4F86450E365032038BD012038BD2B
S31508004170012038BD6D400008C13C000810B54B88C9
S315080041809BB98C888CB9CB88012B0ED190F8461038
S3150800419003290CD0A0F86430A0F86630054B00F16E
S315080041A048020266C365204610BD012010BD1846A8
S315080041B010BD00BFC13C00088B8870B50446164682
S315080041C0D3B9CD88C5B990F84630032B14D04B889F
S315080041D0012B11D8DBB280F84830002B14BF052319
S315080041E0042380F84630064B98473EB1054BA4F8A1
S315080041F06450E365052070BD012070BD052070BDC3
S315080042006D400008C13C0008C06830B508B930BD2B
S31508004210184604784388032C034407D001D8F4B120
S3150800422002E0FF2C1BD109E08C4205E00329EFD1FF
S3150800423054884578E4B2A542EAD111E005791478A4
S31508004240A542E5D145795478A542E1D1C588548877
S31508004250A542DDD105899488A542D9D130BD002073
S3150800426030BD000038B5CB884A88A0F866300446C9
S315080042700D46184623B9A4F86430344BE36538BDB7
S3150800428094F84630032B0AD8E36C43B10023E36461
S3150800429094F84730834238BF1846A4F866000023CE
S315080042A02366A4F864306B78062B34D1110A0229E8
S315080042B005D003290CD001292DD120461DE0204622
S315080042C02A46234B984730B3031D2366C2881BE052
S315080042D0D3B23BB91F4B2366B4F86630042B28BF0C
S315080042E0042316E0052B06D11B4A13781BB1226658
S315080042F0B4F866200AE0204603212A46144B98475C
S3150800430048B1031D23660279B4F866309A4238BF6D
S315080043101346A4F86430236E8BB92046FF212A463B
S315080043200B4B984778B100F10A0323664388B4F823
S3150800433066200A3B934228BF1346A4F86430034B11
S315080043400020E36538BD012038BD00BFC13C000828
S31508004350094200085C4000109C61001038B5CB8803
S3150800436004460A46002B3ED190F84630032B3AD035
S31508004370097811F00F0102D0022934D110E05588CE
S31508004380012D30D102211A4B984750B3C37A9B06A8
S3150800439020D5B4F8503043F00203A4F8503019E0A1
S315080043A0042B938800D1F3B903F07F039380D3B12C
S315080043B094F85810994216D95188B1B9616D31F8F7
S315080043C0130040F0010021F813009388042084F8B4
S315080043D0593000E006200023A4F86430054BE36555
S315080043E038BD284638BD012038BD012038BD00BF7C
S315080043F009420008C13C000838B5CB8804460A467D
S31508004400002B3AD190F84630052B36D10B7813F0AD
S315080044100F0302D0022B30D111E04D88012D2CD18B
S315080044200221184B984730B3C37A9A0623D5B4F8B5
S31508004430503023F00203A4F85030062015E08B888C
S3150800444003F07F038B80C3B190F85810994214D9B2
S315080044505188A1B9416D31F8130020F0010021F807
S3150800446013009388042084F859300023A4F8643094
S31508004470054BE36538BD284638BD012038BD012007
S3150800448038BD00BF09420008C13C000808B590F8CD
S315080044904430DBB1016C4B78092B14D8DFE803F004
S315080044A005071309130B13130D0F094B0CE0094BE2
S315080044B00AE0094B08E0094B06E0094B04E0012233
S315080044C0084B984708BD084B984708BD022008BD09
S315080044D0C1400008F94300085D430008314100085F
S315080044E07D410008B9410008654200082DE9F04100
S315080044F000228CB0134601A9535401321F2AFAD15F
S315080045000022FF2309A9535401320A2AFAD1034685
S315080045100020064601251A785C88022A03EB040166
S315080045202FD004D852B1012A40F0B0800CE0032AFB
S3150800453000F09E80FF2A40F0A980A1E0002E00F03E
S31508004540BF8080F00100A2E0002E40F0BB80162C50
S3150800455040F0BA801A79122A40F0B6805A79012AB0
S3150800456040F0B480DA7A082A06D0102A04D0202A25
S3150800457002D0402A40F0AC805E7D012E40F0AA8031
S3150800458082E0002840F0A8801A79092A40F0A6801F
S31508004590DF880437BC4240F0A1805C79022C40F0E9
S315080045A09F801C7A002C00F09D805A7A012A00F21E
S315080045B09B80DA7A02F08F02802A40F097800D33CA
S315080045C05A78042A70D11A78092A6FD1DA78002A1B
S315080045D06ED11F790FB96DE001320DF1240C12F876
S315080045E00CC0BCF1FF0F06D00A2A65D093F80280EA
S315080045F0E045F1D102E00A2A01D15DE01A200DF169
S31508004600300C624493F802C0093302F80CCC01E07E
S315080046101A789B185A78052AFAD15A78052A39D170
S315080046201A78072A38D19A7802F07F02013A1E2AA8
S3150800463034D893F803C01CF0030F31D01CF0C00F18
S315080046402ED10DF1300C6244013F12F82CCCFFB28A
S31508004650BCF1000F26D102F82C5C0733002FDCD101
S31508004660013CE4B298B9002CAAD18B4236D125E098
S315080046701A79043294423BD15B79032B3AD103E091
S3150800468093F90430002B37DA0B4644E717200CB0B1
S31508004690BDE8F0811220FAE71120F8E71820F6E7BE
S315080046A01320F4E71920F2E70E20F0E70D20EEE7D5
S315080046B00F20ECE71020EAE71B20E8E701202AE7AD
S315080046C00120E4E70220E2E70320E0E70420DEE732
S315080046D00520DCE70620DAE70720D8E70820D6E732
S315080046E01046D4E70A20D2E70B20D0E70C20CEE705
S315080046F01420CCE71520CAE71620C8E72DE9F341B0
S3150800470000238DF8043055238DF8003053238DF897
S31508004710013042238DF8023000F131038DF8033061
S315080047201C4B0C469847064600282ED01A4F1B4BA2
S31508004730002C08BF3C46204698470546002825D148
S31508004740BC4204D11FE05A8890449B1801E02346D6
S3150800475080461A78002AF6D108F10408012368462B
S31508004760214642460E4FB847F0680B4B984201D097
S315080047700C4B984740460C4B98472146F0604246FA
S315080047800A4B984702E0F46000E01C252846BDE87D
S31508004790FC8100BF2D58000825AF0008ED4400082D
S315080047A0094E00081D1D0008111D0008355C00088B
S315080047B008B5014B984708BDFD460008F0B5454BBE
S315080047C08BB00546984700210446434B08A89847EE
S315080047D0002C79D023686BB1404B5B6803F47F42A9
S315080047E0B2F5007F06D1C3F342139D4202D1284693
S315080047F03B4B9847E16811B928463A4B98473A48DF
S315080048003A4B69462022984790B10023384A184601
S315080048101DF803105070117019B101330232202BA4
S31508004820F6D1344A01335B0013700323537001E059
S31508004830304B18700221204600222F4B98472168DA
S31508004840064600293FD100283BD0E7682B4B682253
S3150800485020469847FF23E76084F8383084F83930D3
S3150800486084F83A3084F83B3084F83C3084F83D309C
S3150800487084F83E3084F83F3065712371F37A13F07B
S31508004880400FB4F8503014BF43F0010323F001037E
S31508004890A4F8503028461A4B9847A0B90F4B5868C9
S315080048A000F47F43B3F5007F09D1C0F342139D425C
S315080048B005D1C0B2013801210222124B98470126C0
S315080048C02660344600E0002408A80F4B9847204687
S315080048D00BB0F0BD2D580008E5B2000800400010E6
S315080048E0BD3E0008FD4600085CAE00080D4E0008F7
S315080048F09E6100109C61001009420008695D00086D
S31508004900255A0008213D0008F1B2000808B5014BF8
S31508004910984708BDBD47000838B50C46154602211C
S3150800492000221E4B9847002836D0438800F10D0117
S31508004930C018236813B921602B6027E08B4228D959
S31508004940834226D22A688A4223D3824221D25978C0
S3150800495005291ED1197807291BD15178042918D1A0
S315080049601278092A15D107330FE05A78042A04D198
S315080049701A78092A06D12B6004E0052A02D11B7889
S31508004980072B08D023681A789B182360236883426C
S31508004990EBD3002038BD012038BD00BF094200080E
S315080049A002688168531C082B08BF002351B9416867
S315080049B08B4201D1012181600360442303FB02007D
S315080049C00C307047002070472DE9F04F464B85B0F4
S315080049D00646C0F342100D469246984704460028FC
S315080049E07CD006F01F06032E78DCBAF1000F73D0D0
S315080049F0002D73D090F84630052B6FD100EB460694
S31508004A0096F83960FF2E69D0331D50F82330002BF5
S31508004A1064D002A80021354B98470027D146AB46FB
S31508004A20BA463D464F46331D314A54F82300019392
S31508004A309047019B8046C8B1A31993F82450A9450D
S31508004A4038BF4D462DB100F1040059462A46294B78
S31508004A509847A319AA4493F82430C8F800509D42F1
S31508004A602BD3C5EB0909AB440025DCE70135642DDA
S31508004A7009D9B9455546BA462AD154F8233018609B
S31508004A805860986024E001201B4A9047F8B902A8AC
S31508004A901A4B9847D8B994F84630052B17D13146A2
S31508004AA02046174B984702A8164B98473220164BB4
S31508004AB0984702A8154B9847B5E794F84630052B52
S31508004AC0554605D1204631460D4B984700E05546D8
S31508004AD002A80F4B984703E0554601E04FF0FF3513
S31508004AE0284605B0BDE8F08F2D580008E5B2000845
S31508004AF0A1490008355C0008CD2E0008FBB2000865
S31508004B003D5800080FB300081D2D00080BB3000818
S31508004B10F1B2000808B5014B984708BDC949000815
S31508004B202DE9F04104460D46904608B1032901DDFA
S31508004B30104B98472B1D54F8233023B105F10A036F
S31508004B4054F823300BB10B4B98472F1D0A4B54F8DA
S31508004B502700984754F827309B680121C8F8003089
S31508004B60064601FA05F16079044B98473046BDE8D8
S31508004B70F08100BFE12B0008A1490008713F000839
S31508004B80426803689A4201D183685BB1531C082BBB
S31508004B9008BF0023436000238360442303FB02000D
S31508004BA00C3070471846704770B504460D461646D1
S31508004BB008B1032901DD124B98472B1D54F8233001
S31508004BC023B105F10A0354F823300BB90C4B984767
S31508004BD0043526B154F825000A4B984770BD54F899
S31508004BE0253093E80600914201D1996829B14420FD
S31508004BF000FB023303F10C0070BD304670BD00BFE8
S31508004C00E12B0008814B00082DE9F04F85B0C0F371
S31508004C1042130093054601921846374B8B46984730
S31508004C200446002863D005F01F05032D5CDC90F8C8
S31508004C304630052B58D11C3510F81550FF2D53D08A
S31508004C402B1D50F82370002F50D002A800212B4BA3
S31508004C50002798473E46DDF804A03DE09EB92B1D87
S31508004C6054F8233093E80600914208D1996831B97F
S31508004C70012101FA05F10098214B98472FE04426B7
S31508004C8006FB02360C3604EB0509336899F8201042
S31508004C90C1EB0308C24538BFD046711804315846DF
S31508004CA04246184B984799F820304344DBB289F8B6
S31508004CB0203032689342C3444744C8EB0A0A0BD1F2
S31508004CC02B1D002654F8230089F820600E4B9847C0
S31508004CD0204629460D4B9847019B9F42BED302A802
S31508004CE00B4B3C46984702E0002400E03C46204631
S31508004CF005B0BDE8F08F00BF2D580008E5B20008E2
S31508004D00B53F0008355C0008814B0008CD580008FF
S31508004D10F1B2000808B5014B984708BD094C0008D0
S31508004D2090E80C009A4203D202F10800C01A7047B4
S31508004D30816809B9D01A7047082070472DE9F047ED
S31508004D402A4B0546C0F342109847044600283ED031
S31508004D5005F01F05032D3FDC90F84630052B38D1AA
S31508004D6000EB450595F83960FF2E35D0331D50F810
S31508004D702300002834D0DFF87880DFF878A0DFF841
S31508004D807890C0474FF47A75074600E0013D331D19
S31508004D9054F8233093E80600914223D19A687AB1F1
S31508004DA020E031462046D0476420C847331D54F8D2
S31508004DB02300C0478742E9D007464FF47A75E6E7ED
S31508004DC0002D0CDC00221A605A609A6001E0BDE8EA
S31508004DD0F0870120BDE8F0870020BDE8F0870120B4
S31508004DE0BDE8F087002DDCDCECE700BF2D58000895
S31508004DF0214D00083D5800081D2D000808B5014B37
S31508004E00984708BD3D4D00080020704700207047B0
S31508004E10054B81601860002303604360034BC36041
S31508004E20034B0361704700BFE8610010EFBEADDEBB
S31508004E300DF0B1BA38B5044600283FD050F8041C26
S31508004E401F4B9942A0F1140506D01E4B1E4854F874
S31508004E500C2C98471D4B984754F80C2CAB1853F854
S31508004E60041C174B994204D0164B19489847174B00
S31508004E709847184A54F8143C44F8082C6BB1D9687A
S31508004E8091420AD19A6854F80C1C1B688A1844F88F
S31508004E900C2C44F8143C03B15D6054F8103C6BB11B
S31508004EA0D9680C4A914209D1996854F80C2C8A1889
S31508004EB09A6054F8142C1A6002B1536038BD00BFCA
S31508004EC00DF0B1BA415000088AAE0008EEA50008F8
S31508004ED0C8AE0008EFBEADDE1A4B00F11B0110B5D7
S31508004EE021F003011C68184B18E0E2689A4214D1B5
S31508004EF0A2688A4211D301F128008242234610D9BA
S31508004F00521AA4181A6884E80C001C6002B154608E
S31508004F10A1609A68511A996003E02468002CE4D1CC
S31508004F200AE00A4BA268E360A218094B04F11400D0
S31508004F30236142F8043C10BD064B074898472046B3
S31508004F4010BD00BFE8610010EFBEADDE5EBEADDE8F
S31508004F500DF0B1BA4150000806AF000800230360FF
S31508004F600B607047024B034A0360D31A0B60704705
S31508004F7000000120FC7F012070470000F0B50E46B6
S31508004F80ADF5017D13460546324668461A4E4FF47E
S31508004F900071B04705F47F43B3F5407F6C4606467B
S31508004FA00ED006D8B3F5807F0AD0B3F5007F1FD19F
S31508004FB006E0B3F5A06F16D0B3F5C06F18D105E0BB
S31508004FC02846694632460D4B984711E00C4B1B683C
S31508004FD073B100220DF800206846984708E0285D5E
S31508004FE0B847013502E0074F00256C46B542F6DBA7
S31508004FF030460DF5017DF0BDB95E0008913B00080D
S31508005000EC6100104D5100080EB403B503AA044B19
S3150800501052F8041B01929847BDE80C4003B070474C
S315080050207D4F00080A46044908B5034648691946EB
S31508005030024B984708BD00BF004000107D4F00088E
S315080050400FB407B504A9044B51F8040B019198470E
S31508005050BDE80E4004B070472550000810B5014C55
S31508005060A04710BDB95E000810B578B172B179B124
S315080050705C1CA1424FF0000401D2047006E0C4543F
S3150800508011461A46034B9847204610BD012010BD0D
S31508005090012010BDF95D0008034613F8012B002A0C
S315080050A0FBD1181A013870477047704701207047BE
S315080050B070474FF04A4070474FF04A4070474FF0EC
S315080050C07740704708B50248024B984708BD00BFAD
S315080050D0F8620010D95000082DE97043124E336863
S315080050E00446D3B901254FF000084FF00009856141
S315080050F0C561C0E9088904F120020C4B00F11800CB
S3150800510004F11C01984706A3D3E90023C4E90289E0
S31508005110C4E90423C4E9002335600020BDE8708390
S31508005120000095D9EE1FCC01F06100103F2D000854
S315080051304FF04A4070470120704701207047012010
S31508005140704701207047012070477047704700007C
S3150800515010B50349034A044C04480023A04710BD70
S3150800516088400010BC40001029330008906A0010DF
S31508005170034B00221A605A601A620120704700BF6A
S315080051802063001013B5084B04460021684698476B
S31508005190064A136A1C43536A14620BB1906A98470D
S315080051A06846034B98471CBDE5B20008206300100B
S315080051B0F1B2000813B5074B044600216846984724
S315080051C0054B1A6A22EA04041C626846034B984790
S315080051D01CBD00BFE5B2000820630010F1B200084C
S315080051E02DE9F047234B244E244F86B082461046BD
S315080051F00C469847224B8046894604A800219847C2
S31508005200B04710EB080041EB0901CDE90201DFF8D0
S315080052108C900125B0463E6A264017D1C047024603
S315080052200B46DDE90201824273EB01010ED2A5B1FC
S315080052300220144B984780B904A8134B9847134B80
S315080052409847134B054604A89847E4E704A8114B6A
S315080052509847304606B0BDE8F0870023DDE902012D
S31508005260019352460094C84704A80B4B984701255A
S31508005270D1E700BFE72B000875B3000820630010CC
S31508005280E5B20008CD2E00080FB30008C1320008A9
S315080052900BB30008F1B2000819B30008F53000088E
S315080052A00120704701207047002070470020704792
S315080052B0002070470FB430B5C3B046ABFF2153F892
S315080052C0042B0A4C419301A8A047094C0546022025
S315080052D0A047022001A92A46064B98470220A04764
S315080052E043B0BDE8304004B0704700BF5D500008C9
S315080052F0BD3C0008B53C000873B5012300220093A5
S31508005300144E019204460D4602204FF4E13108235B
S31508005310B047114E1DB111482946B04701E0104863
S31508005320B0471048E16BB0470F48A16BB0470F482C
S31508005330616BB04704F140010D48B047064E0025A1
S31508005340294654F8042B0B480135B0470D2DF7D1E3
S315080053507CBD00BFAD3C0008B55200081FB0000870
S3150800536033B000083CB000084CB000085CB0000838
S315080053706CB000087CB0000808B5024B9847024B91
S31508005380984708BDF9520008CF2B000813B5074BFC
S31508005390044600216846984720460021044B984752
S315080053A0044B98476846044B98471CBDE5B200086D
S315080053B0F9520008CF2B0008F1B200080120704707
S315080053C008B5D0F8042822F00102C0F8042891F89C
S315080053D0B230084681F84630014B984708BD00BFF1
S315080053E06D400008F8B54FF0FF3343614023436230
S315080053F04FF040130C46836280220023FF254FF0AE
S31508005400804115E003F1400642F4800740F8267013
S3150800541000EB43164032C6F80859C6F8085B03F194
S3150800542048067601815103F1580676010133815108
S3150800543094F85860B342E5DB4FF4866303614FF492
S315080054400043C0F80039B4F8B050C0F8003B002358
S31508005450C0F810394FF0C043C0F8103BAD102646CF
S31508005460022101234FF0011232E015F003072BD079
S3150800547004EB030EBF049EF824E0D6F82CC047F0D0
S31508005480805747F4004747EA0E07BCF1000F0BD0D8
S3150800549003F1480E47EA83574FEA4E1E47F0006766
S315080054A040F80E700A430FE000EB431C4EF4002E42
S315080054B0CCF810EB03F1580E4FEA4E1E47F004479E
S315080054C040F80E7042EA01420133AD08490004363D
S315080054D0002DCAD101260923C0F81068C0F814386F
S315080054E00C4BC0F81C288361D0F8003823F4FE63FF
