S02B0000433A5C4D6963726F4672616D65776F726B504B5F76345F335C4275696C644F75747075745C544855F3
S315080000000CE000201D0000082C0000082C00000849
S315080000102C0000082C0000082C000008DFF808D087
S3150800002000F06CF802F08ABE00400010FEE700BF40
S3150800003072B62C4BD3F8882042F47002C3F8882095
S31508000040294A012151605A6922F402725A61274AE3
S31508000050D36843F4FE63D360254B1A680A431A60D3
S315080000601A461168224B8907FBD500229A601A683E
S3150800007022F0A0621A601A6842F480321A601C4B99
S315080000801B689803FBD5184B1B68DBB2112B194B61
S315080000900CBF40F2056240F205721A60144B164A0C
S315080000A05A601A6842F080721A601A461168104B34
S315080000B08901FBD549F202429A604FF480121A630D
S315080000C000225A639A634FF080521A644FF48042B2
S315080000D05A641A6822F001021A60A3F580330122D5
S315080000E01A60704700ED00E0002004E0F0ED00E043
S315080000F000380240003C02400854400708B5FFF7A4
S3150800010097FF024B9847024B984708BDA501000880
S315080001105901000808B5FFF78BFF014B984708BD42
S31508000120A5010008814230B515D002F00304034644
S3150800013022F00302D51AE84204D053F8045B41F8CA
S31508000140045BF7E701391A19934204D013F8010B37
S3150800015001F8010FF8E730BD08B50A480A490B4A05
S31508000160FFF7E0FF0A4A0B480B49FFF7DBFF0B4B8B
S315080001700B4A23F0030323B1002142F8041F043B72
S31508000180F9E708BDD0B300080040001000000000E1
S3150800019064090000D0B30008004000106021000088
S315080001A06C490010034A136B6FEA53236FEA432323
S315080001B01363704700380240004870470CE000207F
S315080001C000207047002070477047002070470000E5
S315080001D038B50C46154608284CD8DFE800F0054B1C
S315080001E00F1C20272F4B410024200121224B984722
S315080001F02249234B40F20150984738BD002939D08F
S315080002000B685A1C36D044F61F62934232DC44F619
S3150800021020630B6038BD40F201501A4902E01A49C2
S3150800022040F201502246164B984738BD144B1749E1
S3150800023040F2015098471548154B0FE0104B144DE6
S3150800024040F2015019B113499847124802E0124981
S3150800025098471148A847114BD868114B984738BD9D
S3150800026041B1224640F201500E49054B44F00104C3
S3150800027098472C6038BD00BF15280008D6A400088A
S31508000280E94D0008DFA40008EBA40008F7A400085D
S31508000290C94D000807A500081AA500080040001067
S315080002A0893A00082DA5000837B583680D469B686E
S315080002B00446C068984729466A4601AB0D4DA847CB
S315080002C0A8B1A368E0689B689847009B82691421D7
S315080002D001FB032301991A690C234B43D35C102BAA
S315080002E004D10548054B9847002000E0012003B0DB
S315080002F030BD00BF713300084EA50008C94D00087F
S3150800030030B5094C094B85B0054620469847032366
S315080003108DE818000290042128460222044CA047C2
S31508000320012005B030BD00BF74A50008414E000885
S3150800033099160008D0F8042812F0010310B50BD15D
S315080003400C6AB4F5006F07D8031D42F001024B6230
S31508000350C0F80428012010BD002010BD4A6A031DFC
S315080003609A4201BFD0F8043823F00103C0F80438D4
S31508000370002308BF4B6201207047000038B51446B9
S3150800038012680D465AB100680968074B9847002855
S3150800039007DD2A68236802441B1A2A6023600120A5
S315080003A038BD002038BD00BF453A00088368C068DC
S315080003B09B68184710B58468C068E468A446BDE819
S315080003C01040604710B58468C0682469A446BDE833
S315080003D0104060478368C0685B6A18472DE9F04F8C
S315080003E08FB004468946049203F00F050AA82146F1
S315080003F00BAA914B9847002800F072818F4E0A98F5
S31508000400B04783460A98B04721460CAA0DAB8C4ED6
S31508000410B04720B98B488C4B2146984772E10C9A15
S31508000420CDF8189014235343DBF81820D118D35865
S31508000430E21A8B68B2FBF3F103FB1123002B02DAF5
S31508000440824B984700230122049F03920C99DBF8FC
S315080004501420914280F06E8114224A43DBF818106A
S315080004608E1851F802E00D9A3169B0684FF00C0CFD
S315080004700CFB0211C31A4968079301FB00E1CEEB96
S3150800048004020891B2FBF0F205927368059A9A4243
S3150800049080F01B81079B069A31690598934228BF0D
S315080004A013469846B36807930D9B0C2202FB03126A
S315080004B0916888420DD9F16801338B420D9302D3B6
S315080004C0624B984701E112693368079902FB0133C9
S315080004D00893032D00F2E980DFE815F00400040014
S315080004E03C00CE009BF800309B070FD545B9049B0E
S315080004F020461A68564B41469847049B1860D4E034
S31508000500384621464246534B9847CEE035B94046D1
S31508000510514B98470746002800F0F4800A98DFF800
S315080005204CC1214642463B46E047039018B9002D88
S3150800053040F0BB800AE0002D40F0B780049B3846A7
S315080005401A68434B41469847049B18603846434B04
S315080005509847AAE00A98424B21469847002800F097
S31508000560D1800D9932690C234B43D2583D4B134029
S315080005703C4A934221D0B2683368059902FB01339D
S315080005809C4208D10A998B68C8681B6A2146984715
S31508000590002800F0D180002300930A98DFF8D0C025
S315080005A0214642463B46E047039000287DD12E4827
S315080005B0254B21464246984777E0089BDFF8B4A0CA
S315080005C09C420ED1DAF8000008B1244B9847002364
S315080005D0CAF8043040F60C101F4B9847CAF80000BA
S315080005E017E0DAF8040040F60C134844984210D98C
S315080005F0194B98470990002800F084809AE806006D
S31508000600144B9847DAF80000144A9047099BCAF831
S315080006100030DFF860A0DAF80030002B72D0DAF884
S315080006200400394618444A460A4B9847DAF8043013
S315080006304B44CAF8043038E0D1310008AD0300084D
S315080006407133000848A600086D2C0008052A000822
S31508000650A51D0008B9590008B51B0008C11B0008EC
S31508000660A90200083040014096A60008B503000814
S31508000670C5030008704900100A98334B214698476D
S3150800068000283FD00D9932690C234B43D2582F4B83
S3150800069013402E4A934208D03368B168059A0A98DF
S315080006A001FB02312A4B98470390069BC8EB0303CC
S315080006B0002B06933EDD039B002B3BD007B1474436
S315080006C0059B013344440593DFE6069B002B31DD89
S315080006D0039B7BB30C9A002301320D930C92B5E66B
S315080006E01C4A9369D2699C421A4405D3944203D2A0
S315080006F004EB0901914207D9009221461648174C86
S315080007004A46A04700201CE0022D06D0032D09D03A
S31508000710012D0FD10498214601E0049920464A4646
S315080007200F4B06E0B9F1000F04D00E4B2046FF210F
S315080007304A469847012004E00A98054B21469847FF
S3150800074029E70FB0BDE8F08FA90200083040014044
S31508000750D503000800400010C5A600086D2C000847
S31508000760B9590008B55B000873B50446C06A002885
S315080007703CD0A36B3BB1231D1846FF2124221C4DF8
S31508000780A847206032E01B4B9847636B064698687B
S31508000790194B9847054630B3337813F0020F636B4D
S315080007A004D09A68216B154B984705E09A68E06A69
S315080007B0216B134E2B46B047216BE06A114B9847C5
S315080007C0FF214FF490720A4B05F594709847636BB6
S315080007D000220092E06A216B9A680B4C2B46A047D0
S315080007E028460A4B01E00A480A4B984702B070BDF2
S315080007F0B55B0008AD030008B51B0008B959000829
S31508000800B5030008D5030008C5030008C11B000886
S3150800081001A700086D2C00082DE9F04307468DB0A6
S315080008200B461446F962002900F0B0801A4602A861
S315080008303021584B9847064680B93D1D2846FF216A
S315080008402422554B984701233D60BB630FCD3E6379
S315080008500FC40FCD0FC42B68236097E04F4B0B983E
S315080008604F4D9847029939636A4601AB0646A84731
S3150800087010B94C4B984789E0B269009B142101FBDB
S3150800088003237B633378002503F00203BD6303F07B
S31508000890FF06002B48D107F10408FF2124223E4B0E
S315080008A0414D40469847414B40F60C1098478146C3
S315080008B040F60C120B98396B4B46A8473E603246F9
S315080008C02423534309EB0301D1F84811002916DA0A
S315080008D003F594734B44424603F1240153F8040B81
S315080008E042F8040B8B42F9D146460FCE25460FC572
S315080008F00FCE0FC533682B60C7F8008002E00132BF
S31508000900082ADDD13B685BB93846294B45469847E6
S315080009100FCD0FC40FCD0FC42B682360C7F8008016
S315080009204846244B984731E0234B386B98473D603F
S3150800093080462B464FF0240E0EFB03FE08EB0E05F1
S31508000940D5F84821002A0EDA05F594750FCD264606
S315080009500FC60FCD0FC60EF5947E2B68336008EBD5
S315080009600E033B6002E00133082BE3D13B686BB909
S3150800097038460F4B08F5947598470FCD0FC40FCD21
S315080009800FC42B68236008F594733B600DB0BDE86F
S31508000990F08300BF51350008B55B0008AD030008B9
S315080009A071330008052A0008B5030008B51B0008BE
S315080009B069070008C11B000843230008F0B5836ACD
S315080009C08DB00446002B5AD0866B3EB10268136A76
S315080009D023F0004313620123836249E0C06A0028BA
S315080009E046D0284B98470123A362037803F00203F5
S315080009F003F0FF058BB12568234B20352846984719
S31508000A000268E06A0CAB22F0004243F8242D29461E
S31508000A10009604221D4DA8472AE0636B9F681C4B6D
S31508000A2038469847064618B33346E06A216BDFF81E
S31508000A306CC03A46E0472B46242202FB036202F5C5
S31508000A40A471D2F84821002A04DA0B6823F000437F
S31508000A500B6002E00133082BEED100230093E06A15
S31508000A60216B0A4D33463A46A8473046094B984704
S31508000A70094BE16A204603AA98470023A3620DB0F2
S31508000A80F0BD00BFAD03000843230008C5030008F6
S31508000A90B51B0008C11B000819080008B5030008A3
S31508000AA02DE9F04F3E4B8FB005469847074600287C
S31508000AB073D000242846394605AA3A4B2C60AC6206
S31508000AC0EC622C636C63AC6398473846364B9847A0
S31508000AD086698446A346A246A146A3000193019AC5
S31508000AE00EAB134453F8243C01333ED06301029302
S31508000AF00123AB624FF00008019A0EAB134453F87A
S31508000B00243C23FA08F3DB072AD4029B08EB0301EB
S31508000B1033690C2202FB0A329368506801331B1AA8
S31508000B208B455B440DDC99420BDC3368B268CDF823
S31508000B300CC0CBEB010102FB013138461B4B984731
S31508000B400CE09B46F3680AF1010A9A4502F10C0289
S31508000B50E2D316E0164BCDF80CC09847DDF80CC06A
S31508000B6008F10108B8F1200FC6D10134092CB4D117
S31508000B70AB6A13B128460F4B984738460E4B984731
S31508000B8094E7DCF8143009F101099945E2D2DCF85A
S31508000B901830142606FB0936BAE70FB0BDE8F08F01
S31508000BA05932000819080008AD030008D5030008E3
S31508000BB0052A0008BD09000871320008036823B930
S31508000BC04068003018BF01207047012070470000B8
S31508000BD0054A002303604360C3609360136353634D
S31508000BE09363D363136470477049001038B505469C
S31508000BF0006898B169680A4C00220323A047094C8B
S31508000C00094B04F1080098470023A3602363636334
S31508000C10A363E36323642846044B984738BD00BFA3
S31508000C20DD03000870490010BD090008D10B000853
S31508000C302DE9F0438FB00446164601A802AA254BB3
S31508000C400D46984740B3244F0198B847DDF80890F9
S31508000C5080460198B847494603AA04AB1F4FB847D0
S31508000C6008B9002033E0D8F81820039B142101FBAB
S31508000C70032304991A690C234B43D058184B9842FE
S31508000C800CD0B0F1804F09D0164A20F480311033C9
S31508000C90914218BF184601E0019002952368019910
S31508000CA043B9A06084E86000E1600F480F4B05AACD
S31508000CB098470BE0E2689142D3D1A2689042D0D11E
S31508000CC062681344AB42CCD13244626001200FB053
S31508000CD0BDE8F083D1310008AD0300087133000880
S31508000CE0101000C03040004078490010190800086C
S31508000CF02DE9F043012B8BB005468946984601D865
S31508000D00802A04D02846274B9847002047E0C36826
S31508000D101BB9254B9847012041E01846234B9847B5
S31508000D2003789A07074614D46868214B98470646FD
S31508000D300028E7D01F4CE86895E806003346A04728
S31508000D40044638B92846174B984730461A4B9847F1
S31508000D5024E02E686A68194C80230093AB680193D7
S31508000D6031464B4603A8A04703A84146144B98476B
S31508000D70044638B11348144B984728460A4B9847F7
S31508000D80012402E02846074B98473B789B0702D484
S31508000D903046094B984703A80C4B984720460BB09A
S31508000DA0BDE8F083ED0B0008D10B0008AD03000881
S31508000DB0B51B0008B5030008C11B0008231A000864
S31508000DC0511A000878490010BD0900083D1A0008A4
S31508000DD037B5D0F80438104A016023F00203C0F88A
S31508000DE004380E4BC0F80838044602F10803009090
S31508000DF00B490C4D00F50160A84704F66C100A4B28
S31508000E009847302109480A4B98470A480A4B984799
S31508000E10002003B030BD00BF98A50008FFFFFE0004
S31508000E2037A70008D1200008D10B0008B4490010E4
S31508000E30D116000878490010A10A000808B500F57F
S31508000E400160014B984708BDE922000837B51A4BDF
S31508000E5001AA054608200C469847019B002B18BF97
S31508000E601C46164B9847164B28689847154B1B780F
S31508000E7013B92868144B9847144B00209847144B0D
S31508000E809847144B9847144B984790B1134B2568CD
S31508000E90984785420DD1124B98472046114B9847E3
S31508000EA061682268A368054604F10C000E4CA04749
S31508000EB02C46A04703B030BDD1010008F34E000808
S31508000EC0893A0008585F00106539000805B200081D
S31508000ED0EF4E000841230008C1010008B9010008C7
S31508000EE0C9010008C5010008591F00082DE9F0418D
S31508000EF094B014AE002446F8504D074620210AA89F
S31508000F001E4B0196984738B9002033E0082C1ED1AD
S31508000F100AA81B4B984730B31A4B0AA8984701A949
S31508000F200422194B05460AA89847019BD3F8008066
S31508000F30164B98478045E9D1154B164829469847D8
S31508000F4014AB03EB8403013443F8485CDEE7002363
S31508000F508DE848000AA86FF0004101220E4B984719
S31508000F600028D9D1D4E7002CCED0384602990B4BAD
S31508000F709847012014B0BDE8F08100BFB1350008DC
S31508000F80553400088D320008C1350008B90100083B
S31508000F90C94D00083FA70008653600084D0E000831
S31508000FA0F8B520220E6A0D4F05460C460068043136
S31508000FB0B847202801D00020F8BD236A23B928683D
S31508000FC0074B98470120F8BD616A0029F7D02868C1
S31508000FD03246B847B042EED1F1E700BFB53900084E
S31508000FE0893A000808B50122014B984708BD00BF99
S31508000FF0A10F0008F0B5CC6993B00E46E107189F1B
S3150800100022D444F00101F16104F400541AB144F405
S31508001010004443B902E044F4804413B944F001049F
S315080010200AB91992174600F50165294602A8074B21
S31508001030984702A8311D2246199B0097044CA047E1
S31508001040284602A9034B984713B0F0BD6D1F000848
S31508001050FD1F0008052100081FB5CB6913F0020320
S3150800106008D104AC012244F8082D00940824019400
S31508001070024CA047012004B010BD00BFF50F0008C0
S31508001080F0B5CB6913F0020493B007460D460ED1AE
S3150800109002AE084B30469847431E5A425A414023EF
S315080010A001930096234638462946034CA04701205B
S315080010B013B0F0BD01030008F50F00082DE9F04F45
S315080010C08BB0002404900591A04627462546394B47
S315080010D09847064648B9002400940194049805994F
S315080010E0354D01222346A84760E034B10C207843E9
S315080010F0324B984705460028EDD0314B3046984785
S31508001100436909934FF0000E099B9E4538D08369C1
S31508001110142202FB0E334FF0000CDA680892089A84
S3150800112094452AD00CB9013724E00C2202FB08FBAF
S3150800113002FB0CF2069205EB0B011A69039106995C
S31508001140079202EB010A9A68DAF80490196809FB13
S31508001150021145F80B10DAF80810C9EB01090399D2
S3150800116009FB02224A600699079A525C039908F11C
S3150800117001088A600CF1010CD1E70EF1010EC3E7F4
S315080011803046104B984706460028B6D10CB90124BC
S315080011909DE70C235F43049800953346019705990C
S315080011A0054E2246B0472846074B984720460BB0BF
S315080011B0BDE8F08F59320008F50F0008B51B000886
S315080011C0AD03000871320008C11B00082DE9F04381
S315080011D000F66C18ADF20C4D0746164BD1F8249064
S315080011E040460E469847D9F80440054620B1404681
S315080011F0114B9847002018E0B4F5806F28BF4FF4CC
S3150800120080640DF10808214642460123DFF830C004
S31508001210D9F80000E04701943846CDF800803146F9
S3150800122001222B46054CA04701200DF20C4DBDE8C6
S31508001230F08300BFBD0B0008ED0B0008F50F000892
S31508001240DD0300082DE9FF4100F66C170646114B31
S31508001250D1F8248038460D469847044620B13846CA
S315080012600D4B9847002011E003AF234698E803008A
S315080012703A46DFF82CC0E04704230193304623465C
S31508001280009729460122054CA047012004B0BDE875
S31508001290F08100BFBD0B0008ED0B0008F50F000834
S315080012A0DD03000870B500F66C14134B88B00546CC
S315080012B020460E469847034620B120460F4B9847CE
S315080012C0002016E00E4A91690291D1690391116ACC
S315080012D0526A06920222079202AA01240092182252
S315080012E0284605910192049431462246054DA847A1
S315080012F0204608B070BD00BFBD0B0008ED0B000806
S3150800130000400010F50F000813B50024009401945E
S31508001310014CA04702B010BDF50F000838B5CB69DF
S315080013205A0404460D4630D4D0F8042842F0020286
S31508001330C0F8042803F00202154B002A03F10C0139
S315080013400ABF0B4601220C2212F1FF3217D3186886
S315080013506969884211D198685B6810F0010F4FEAF5
S315080013606000294618BF2258204418BFD35898470A
S31508001370294602460023204605E00C33E4E700220E
S31508001380204629461346034CA047012038BD00BF16
S31508001390ACA500080913000810B50A8BD0F8084850
S315080013A0A24204D0C0F80828024B984710BD002076
S315080013B010BD00BF1D13000838B54C6A084D012240
S315080013C00023A8474CB1216811F0010105D1054B4E
S315080013D0202064229847044B9847012038BD00BF57
S315080013E0091300088D4F0008F52900082DE9F0417A
S315080013F0294DD5F810498AB080460F46002C41D0B1
S315080014004C6A002C3ED02168012938D82846234B3F
S31508001410984704F1840668B128462168204B32466D
S315080014209847284621681F4B3246984748BB1E4BAB
S31508001430984726E08023009301903146231D03A890
S315080014404FF48272DFF870C0E04703A82168174B93
S31508001450984768B128462168114B3246984728466E
S315080014602168104B3246984720B90F4B984701E040
S31508001470044600E0012403A80D4B984702E0002427
S3150800148000E001244046224639460023094CA0477D
S3150800149001200AB0BDE8F081B449001059190008C6
S315080014A085190008A9190008052A0008511A000814
S315080014B03D1A000809130008231A00082DE9F0410F
S315080014C04D6A134B00F66C1807460E46404695E8DB
S315080014D006009847044618B940460E4B984713E04D
S315080014E02C46032054F8081B0B4B0022984795E816
S315080014F0030022460223094C094DA04704463146FB
S31508001500384622460023A8472046BDE8F08100BF9A
S31508001510310C0008ED0B0008D1010008DD030008B6
S31508001520091300082DE9F04100F66C180746114B1F
S315080015304C6A40460E469847054628B140460E4B2B
S3150800154098470020BDE8F08121680C4B2A46042004
S31508001550984794E803002A460323094CA047044603
S315080015602B46384631462246064DA8472046BDE852
S31508001570F08100BFBD0B0008ED0B0008D101000883
S31508001580DD030008091300082DE9F043D1F824808B
S31508001590244BD8F8007000F66C1485B00546204632
S315080015A00E46984720B120461F4B9847002035E045
S315080015B001A8394602AA1D4BDFF88C90984727F0F8
S315080015C0030438B121460198194C042203ABA047FD
S315080015D0039C00E02468C847231A5C425C41DFF894
S315080015E06CC02846314604B9A7B901220023E04752
S315080015F00021C8220F4B202098470F480F4B9847C9
S31508001600284624B1D8F800100D4B984705E00D4B35
S31508001610984702E022462346E047012005B0BDE888
S31508001620F08300BFBD0B0008ED0B0008D1310008A0
S31508001630B50300088D4F0008B44900103919000891
S315080016404D0E0008ED0E0008B90100080913000840
S31508001650F8B54C6A0D4F0D46002106460A46052088
S31508001660B8472368626804F1080106F66C10084C4E
S31508001670A0470446214606200022B847304622469F
S3150800168029460023034CA0470120F8BDD1010008D4
S31508001690F10C00080913000838B5059D8380BDF8CC
S315080016A01030C3800023069C01804280037265B116
S315080016B05CB1362C98BF234600F108004FF038017C
S315080016C02A4688BF3723014CA04738BD154E000867
S315080016D070B54FF0FF338CB0C0F824390446264B5A
S315080016E002A8984700283CD00B9B029AC4F81429F4
S315080016F09A68C4F810399268D868204E9047D4F88A
S31508001700141901AA6B460546B04738B1AA69019B68
S31508001710142101FB0323C4F8183901E0184B984734
S315080017202B7803F0020303F0FF0263B10123C4F828
S315080017301C390023C4F82039D4F81409114B9847EA
S31508001740C4F80C0916E0C4F81C29D4F81419C4F80E
S315080017500C492346D4F810090B4C40F60C12A04746
S3150800176008E00123C4F81009C4F81809C4F81C399C
S31508001770C4F820390CB070BDB135000871330008C3
S31508001780052A000843230008B503000810B50446D7
S31508001790D0F8100990B1D4F81C3933B1D4F814092B
S315080017A0074B9847C4F80C0910BDC4F80C49D4F87F
S315080017B01419234640F60C12024CA04710BD00BF70
S315080017C043230008B50300082DE9F3471F46D0F860
S315080017D010390A9D044689469246002B5DD0304B47
S315080017E09847D4F81C29D4F80C19002A51D140F688
S315080017F00C1695B10023BB420DD001EB0900C55C60
S315080018001AF80300A84304D0D4F8183901259E68AD
S3150800181003E00133EFE78ABB15463046214B98476C
S31508001820804690B14346D4F81009D4F81419DFF865
S3150800183084C03246E0470023BB4208D008EB0902C1
S315080018401AF80310D1540133F6E7174B98473DB100
S31508001850D4F81039D4F814199A68D868526A904797
S3150800186000230093D4F81419D4F810090F4C4346F2
S315080018703246A04740460E4B98470EE037460023AF
S315080018800093D4F81009094C49443A465346A047F0
S3150800189003E0002DF3D03E46ACE702B0BDE8F08782
S315080018A08D170008B51B0008052A0008C50300089F
S315080018B0C11B0008B503000873B50D46D0F810190A
S315080018C004468B68C8685B6AD4F8141916469847A4
S315080018D000230093D4F81419D4F8100932462B467D
S315080018E0034DA8472046034B984702B070BD00BF7A
S315080018F0C50300088D170008D0F8103970B5BBB1BC
S31508001900D0F80C2902F1600302F59475AB420FD0AA
S315080019101C68084EB44203D0013409D00433F5E7F5
S3150800192044F620649B1A0C60C0F82439012070BD67
S31508001930002070BD444C54421FB5D0F8241900232A
S315080019404A1C039304D0009303AA0423014CA0471E
S3150800195004B010BDC91700084FF482735943D0F874
S315080019600C3901F5127119444B1E01F203118B4211
S3150800197005D013F8012FFF2AF9D00020704701205F
S315080019807047000037B5D0F80C494FF4827303FB53
S315080019900141012501F51271091B0095014CA0476B
S315080019A003B030BDC917000870B50D4B04460D4687
S315080019B0164698470023D4F80C29F15C4FF4827038
S315080019C000FB0520184490F84822914205D10133BE
S315080019D0B3F5827FEFD1012070BD002070BD00BF36
S315080019E08D17000838B5D0F8103904460D465BB196
S315080019F0064B98474FF4827000FB05F1D4F80C3972
S31508001A0001F51271581838BD184638BD8D170008EB
S31508001A10D0F810391BB1D0F80C39987970471846A8
S31508001A20704710B580E80E00029BC360039B0361F4
S31508001A3000234361F723037610BD000010B5034B5E
S31508001A40044614309847204610BD00BF3D230008C1
S31508001A502DE9F0434A4DD5F8103985B004460E46AF
S31508001A600BB9012089E00369464A934206D002F57C
S31508001A708F3202F5F07293420ED054E02846424B5C
S31508001A8098470428EDD128460121404B984700285D
S31508001A90E7D12846012153E03D4C2368002B01DCA1
S31508001AA03C4B98473C4D2B680BB93A4B98472E68E8
S31508001AB00EB9002061E02368002BFADDB379042B08
S31508001AC001D0002428E02E482F4B984704281DD122
S31508001AD006F51272314F2A480021B84706F55372A7
S31508001AE0012180462648294EB84700210746244842
S31508001AF0B047012181462248B047B9F1000F02D10B
S31508001B00B8F1000FDDD008B9002FDAD022681C48DA
S31508001B102968234B984701242868224B98470023B5
S31508001B202B60204629E02846174B9847042898D169
S31508001B3028463146154B9847002892D12846314603
S31508001B40194B984701460028B3D0A3680093E36869
S31508001B50019304F114050295022094E80C00134E33
S31508001B60B047207694F91800012803D12846104B6F
S31508001B709847F6E7B0FA80F0400905B0BDE8F0836B
S31508001B80B449001050200040111A000859190008DD
S31508001B9074490010052A000870490010A9190008A0
S31508001BA0B9180008C11B0008E51900083523000804
S31508001BB03923000808B5014B984708BD854C00082D
S31508001BC008B5014B984708BDE54B00082DE9F04FCD
S31508001BD08BB044F62063059306A807A9534B544DCA
S31508001BE0DFF85881984706980799524B98476968CD
S31508001BF0514B524898475248524B05A9984760B9E5
S31508001C0005A8514B984740B94046504B984700287D
S31508001C1040F086804FF0FF33059300244C4B4D4E21
S31508001C20DFF878A1DFF878914B4F98470094019434
S31508001C304A490422032340F20150B0474849494A19
S31508001C40494BCDF800A040F20150B047474B6868B1
S31508001C50474E9847214622462046C847E868B8476F
S31508001C6023460094042103223C48B0473E4A3D4996
S31508001C7040485346B04704213F48B047E8683F4DBF
S31508001C80B8470AAB012243F8082D214600933C4C7D
S31508001C903C480823A047A8474C4606460F4620203E
S31508001CA08521059A384B9847814608B1374B98479E
S31508001CB019F0800F03D0012005A90022A04719F0CA
S31508001CC0050F02D01D48324B9847D8F80438DFF87C
S31508001CD06C9013F002020BD023F00203022005A930
S31508001CE00022C9F80438A047A84706460F46D6E793
S31508001CF0059B03920133D2D0A847264BB0EB060AC0
S31508001D00059861EB070B9847594508BF5045039A54
S31508001D10C5D207201146A04748460C4B9847BEE750
S31508001D201D4B98470BB0BDE8F08F00BF094D000862
S31508001D3000400010C14B0008D10D0008E052001009
S31508001D40B4490010F9180008CB010008ED0E000888
S31508001D50F34E0008E94D0008893A000862A7000812
S31508001D607CA70008E4AB000895A70008E53800083A
S31508001D70C94D0008AAA70008C1A7000839B200087B
S31508001D80F9220008F05A00108D4F0008614F00082C
S31508001D903D0E00080B2A0008F5290008A1A700082F
S31508001DA0D101000830B504460B1B0344002B09DD9E
S31508001DB014F8013B044D83EA126355F8233083EA8D
S31508001DC00222F1E7104630BDDCA700082DE9F04FE6
S31508001DD0ADF5805D85B015460DF581521C32176844
S31508001DE005EB030A044600EB0109002304AA202197
S31508001DF099540133B3F5805FF8D14FF000084C458C
S31508001E0080F0A480661C2FB1204601210DF10D0239
S31508001E10B84702E023788DF80D3034464FF0000BB2
S31508001E205545ECD201269DF80D3006FA0BF21A42FA
S31508001E3058D14C4580F08780A3197FB1009320467E
S31508001E4031460DF10E02B847009B4B457BD218462A
S31508001E5031460DF10F020234B84708E022788DF8B2
S31508001E600E2099456FD963788DF80F3002349DF8A6
S31508001E700F609DF80E2006F00F03360902EB0626C2
S31508001E80C6F30B0603331036284604A9C6F30B021D
S31508001E9004AD8A5C8DF80E20C8F30B0150456A54D0
S31508001EA051D00DF58151183100F1010C096879B14D
S31508001EB001930DF581531833CDF800C01B68012135
S31508001EC00DF10E0265469847DDF800C0019B01E05A
S31508001ED065460270013B08F1010806F101066046F5
S31508001EE0D3D129E04C452ED2631C3FB1009320463E
S31508001EF031460DF10F02B847009B02E022788DF8B3
S31508001F000F201C4604A9C8F30B039DF80F20CA54DA
S31508001F100DF5815318336E1C1B684BB10DF58153B3
S31508001F201833284601210DF10F021B68984700E077
S31508001F302A70354608F101080BF1010BBBF1080FB1
S31508001F407FF46EAF5BE74FF0FF3000E001200DF540
S31508001F50805D05B0BDE8F08F13B5002400940194A8
S31508001F60014CA04702B010BDCD1D000810B5084BA6
S31508001F700446202240F8041B00219847002300202D
S31508001F8000216362A362E362C4E90C01A36310BD86
S31508001F90B55B00082DE9F0479A460368089F154D7A
S31508001FA090461A68144B002A08BF1A4689461168D3
S31508001FB04160044651688160061D51460022384634
S31508001FC0A84722682061B2F85030C4F81490591C0A
S31508001FD0A2F85010002223836283C4F81C80C4F838
S31508001FE020A06762E26030462021A847E060BDE88D
S31508001FF0F08700BFA51D0008DCAB00082DE9F047F7
S3150800200099460368DDF82080174E15461A68174B5F
S31508002010002A08BF1A468A46116841600446516874
S315080020208160071D494600224046B0472268DAF813
S3150800203010306361B2F850302061591CA2F8501074
S315080020402383BAF814306383002245F00205E5615C
S31508002050C4F82090C4F82480E26038462021B047AE
S31508002060E060BDE8F08700BFA51D0008DCAB0008EE
S31508002070436A10B504463BB103689A68D868926803
S31508002080214690470023636210BD0000002238B540
S315080020902021C568044BC260044604309847431B98
S315080020A05842E560584138BDA51D000810B50446DC
S315080020B0406A08B9236A3BB9044B216A002298474B
S315080020C02369C31A5842584110BD00BFA51D000810
S315080020D038B580E80E0000F11005049BC3600021A6
S315080020E00446A0F850104022044B28469847044B53
S315080020F02846214698470123A36438BDB55B0008E6
S315080021006D1F00084368C0685B68184730B5044609
S3150800211093B00D4602A82168084B9847002145F45C
S315080021208042009102A842F001020B46044DA847DE
S315080021302068044B02A9984713B030BD6D1F0008EC
S31508002140951F0008052100082DE9F8430446061DD9
S31508002150A36B062B00F2A780DFE803F0A8040C3D6A
S315080021604D719700564B204698470223A363A662F3
S31508002170202359E0214651F8283B5A68D868156843
S3150800218004F12C02A847002800F09080E56AC5F102
S315080021902005002D1BDD072D94BFA8464FF0080823
S315080021A030464849484F4246B84780B130464749C5
S315080021B04246B84758B1464B3046611D6A1E984795
S315080021C0A36A013BA362E36A0133E362DEE7072DF4
S315080021D0BED9032357E0214651F8283B5A68D868E8
S315080021E0156804F12C02A84700285FD0E36A002B83
S315080021F0AED1042347E02046364B9847B0B1236852
S315080022009A68D86812682146904778B1236A002BE5
S3150800221038D0636A8BB1304B98470523A363C4E96A
S315080022200C01636AA362236AE36291E7E369DB0749
S3150800223003D420460421294B9847012323E0264B43
S31508002240984780468946D4E90C01B8EB000069EB4B
S315080022500101234B984718A3D3E900238B4208BFF3
S315080022608242EAD32146C4E90C8951F8283B5A68C8
S31508002270D868156804F12C02A847B8B1E36A002BA0
S315080022807FF466AF0623A36362E72046154B98479B
S3150800229030B123689A68D868526821469047CCE7D7
S315080022A020460821C7E70020BDE8F8830120BDE8DD
S315080022B0F88300BFAFF30080FF8693030000000099
S315080022C07120000837A7000855590008DCAB00083C
S315080022D0ED5A00088D20000839B200080D210008C3
S315080022E0592B0008AD20000808B51030014B984757
S315080022F008BD00BF49210008F0B5044693B00F4653
S315080023001D4602A82146084B16469847189B009377
S3150800231002A8394632462B46044DA847204602A94C
S31508002320034B984713B0F0BD6D1F0008951F0008B2
S3150800233005210008002070470020704700207047DC
S3150800234070477047F0B5124B00F00F071E4653F85A
S315080023502740E4B103099B0203F1804303F50033E8
S31508002360012219690B4DF94011F0010102FA07F231
S3150800237003D1EB681A4203D1F0BDAB681A4206D006
S3150800238006EB87031A6C2346BDE8F0401847F0BDF4
S31508002390605C0010003C01402DE9F74F0646294CC9
S315080023A0DFF8BCA00120A0470220A0475AF82670F3
S315080023B0D046002F3ED0B3100233234A0AF1800BD1
S315080023C052F82350214A06F003039B0001240BEB25
S315080023D0461BDD40584604FA06F301939047BAF8BF
S315080023E08022019B05F00F05134246EA05190AD01B
S315080023F0174B9847DAF88442021941F10003584608
S315080024001449884716E0144A916819400DD0D268D5
S3150800241013421DBFAB0203F1804303F50033214687
S315080024201EBF1969F14001F0010108EB860648460E
S31508002430326CB847094C0220A0470120A04703B0D8
S31508002440BDE8F08FD92C0008003801401D3000087F
S3150800245039B20008C52E0008003C0140ED2C0008E2
S31508002460605C001008B5034B01225A610020024B3C
S31508002470984708BD003C01409923000808B5034B5E
S3150800248002225A610120024B984708BD003C0140D0
S315080024909923000808B5034B04225A610220024B0F
S315080024A0984708BD003C01409923000808B5034B2E
S315080024B008225A610320024B984708BD003C014098
S315080024C09923000808B5034B10225A610420024BD1
S315080024D0984708BD003C01409923000838B5094BC8
S315080024E05C6904F478745C611B681C406409052502
S315080024F0E30702D52846044B9847640805F1010509
S31508002500F6D138BD003C01409923000838B5094B7F
S315080025105C6904F47C445C611B681C40A40A0A25B7
S31508002520E30702D52846044B9847640805F10105D8
S31508002530F6D138BD003C0140992300082DE9F04F3B
S31508002540040900F00F050127A4029A4604F1804405
S3150800255005FA07F34FF0030B022A85B004F5003499
S3150800256007FA05F90BFA03FB03D0BA4214BF002792
S31508002570022700F0070086009F4002A801FA03F32D
S31508002580184A0193002190472168019B6FEA0B02C4
S3150800259011400B432360E3681A401743E760A368BA
S315080025A0ED084BEA030304EB8505A3602A6A0F23AB
S315080025B0CAF30318B34022EA030308FA06F843EA03
S315080025C008032B6263681AF0010F14BF49EA030374
S315080025D023EA0903636002A8034B984705B0BDE8E0
S315080025E0F08F00BFA9B10008B5B100083F289FBF0A
S315080025F003099B0203F1804303F5003302469FBF9C
S31508002600186902F00F02D04000F0010088BF0020D0
S31508002610704700002DE9F04F894685B000F00301A8
S31508002620890004099A460F238B4000F00F0B00928D
S3150800263007464FF001088C4002A80021404A019342
S3150800264008FA0BF690474FEA9B05019BB9F1000F74
S3150800265059D0A90001F1804101F59C318A681A40D8
S31508002660A24208D0374A126816425CD18A6822EA22
S3150800267003031C438C60344C344B04F1800505EB92
S315080026804B15284698470E9B224623B1B4F880324C
S31508002690EF60334303E0B4F8803223EA0603A2F876
S315080026A0803242F82B9002EB8B02009B1364AAF14E
S315080026B00203022B234B9A6894BF3243B2439A60B3
S315080026C00AF0FD031F4A012BD36802D0BAF1050FA1
S315080026D001D1334301E023EA0603D3605661136848
S315080026E0BAF1040F43EA0603136004D13846184BBF
S315080026F09847D0B91BE0BAF1050F18D13846144BE4
S31508002700984790B113E00235124951F825100B404D
S31508002710A3420CD10B490B6823EA06060A4B0E6046
S3150800272043F82B9003E0002402E0064B1E610124C7
S3150800273002A8094B9847204605B0BDE8F08F00BFB0
S31508002740A9B10008003C0140605C00101D3000087B
S31508002750ED25000800380140B5B100083F2837B517
S3150800276004460D4614D803F00F01012903D00029A9
S3150800277018BF022200E00322204611462A46054DCC
S31508002780A8470021204600910A460B46024CA0475E
S3150800279003B030BD3D250008152600083F28F7B5CB
S315080027A004460F4616461D460FD800219DF82420DC
S315080027B0DFF820C00B46E0470097204631462A46F8
S315080027C09DF82030024CA04700E0002003B0F0BD81
S315080027D0152600083D25000813B500939DF810300E
S315080027E00193024C0023A04702B010BD9D270008A4
S315080027F03F280ED803099B0200F00F00012203F1BF
S315080028008043824003F5003392B209B11A837047B8
S315080028105A8370473F2837B504460ED8084B094DEA
S3150800282098470022204613460121A8470021204642
S3150800283000910A460B46044CA04703B030BD00BFC2
S31508002840F12700083D2500081526000810F1FF327B
S3150800285038B541F1FF33002542F20E749D4208BF98
S31508002860944206D3044B9847044BC3F884020120CC
S3150800287038BD002038BD00BF0B2A0008605C001078
S3150800288070B51E4B1420002198471D4A0023A2F854
S315080028908832A2F88A32A2F88C32A2F88E321C4606
S315080028A018481949194B204401268661002220340C
S315080028B09847B4F5007FF3D1154B164D16490024F9
S315080028C01C6022460620A847224614490720A84726
S315080028D0224613490820A847224612490920A84734
S315080028E0224611490A20A847224610491720A84718
S315080028F00F4922462820A847304670BD4D280008B3
S31508002900605C0010E05C001045230008FD2F0008FD
S31508002910003C014095290008652400087D2400082C
S3150800292095240008AD240008C5240008DD24000805
S315080029300D250008124B4FF0FF32C3F88020C3F86C
S315080029408420C3F88820C3F88021C3F88421C3F8FB
S3150800295088210C4B0C4A9A60DA601A615A619A61AE
S31508002960DA621A639A63DA63BFF35F8F074A084924
S31508002970D1609360536A43F4E0235362704700BF03
S3150800298000E100E000800120B0A4000800ED00E0AE
S315080029900007FA0503460A4A103042F82010BFF32A
S315080029A05F8F03F01F025B099B0003F1604303F589
S315080029B06143012000FA02F2C3F880211A607047C9
S315080029C000800120420900F01F03012000FA03F1EC
S315080029D002F12003014A42F82310704700E100E0A3
S315080029E008B5024B9847012008BD00BF35290008E5
S315080029F07047FEE7014B024ADA60FEE700ED00E0A9
S31508002A000400FA0500BEFEE770474FF47A73A0FB90
S31508002A100301704710B501200C4CA0470220A047BF
S31508002A200B4B4FF6FD721A820A4B98470A4BD3E9AD
S31508002A300023994208BF904201D3084B98470220C9
S31508002A40074CA0470120A04710BD00BFD92C00089D
S31508002A50000C004039B20008F05E00107130000822
S31508002A60ED2C000873B50C4B0C4E04460D46684613
S31508002A70002198470A4BC3E900450A4B74639847F7
S31508002A80A94208BFA04224BF0223B3826846064B68
S31508002A90984702B070BD00BFA9B10008000C0040FD
S31508002AA0F05E001039B20008B5B100081E4A1F4B87
S31508002AB04FF0FF304FF6FF7110B5C3E90001136CF4
S31508002AC043F0480313641A4B08229A60194B0424EE
S31508002AD020221C8002219A8000221A819981532182
S31508002AE01A839A8319854FF0FF315A63D9621249BE
S31508002AF0012098820C8017248A800C814FF6FF7477
S31508002B008A810A85CC628882088880B240F00100F2
S31508002B100880198889B241F00101198032200749D5
S31508002B20074B984710BD00BF00380240F05E001002
S31508002B30002004E0000C004000180040152A000898
S31508002B409529000808B5A82358430538014B984726
S31508002B5008BD00BFA9A4000810B50A24A0FB0423D9
S31508002B6004FB01331046194610BD012303600B60B0
S31508002B7000200021C2E900017047000013B5204B70
S31508002B809847204B98470024684601A91E4B009495
S31508002B90019498479DE803001C4B98471C4B98479F
S31508002BA01C4B98471C4B98471C4B984720461C4B78
S31508002BB098471C4B98471C4B98471C4B98471C4BEF
S31508002BC098471C4B98471C4B98471C4B98471C4BDF
S31508002BD098471C4B98471C4B98471C4B98471C4BCF
S31508002BE098471C4B98471C4B98471C4B98471C4BBF
S31508002BF098471C4B98471C4B984702B010BD00BF1E
S31508002C00952F0008B12E0008014D0008C14B000899
S31508002C106D4E0008194F0008812800085D5100080C
S31508002C2011B2000861310008F94E0008F9360008AB
S31508002C30514E0008534E0008594E0008554E0008DC
S31508002C40EB4E0008CD3A0008B9380008DF4E0008F8
S31508002C501D4D0008E74E0008E34E0008674E0008C1
S31508002C60614E00085B4E0008D94E00080FB470B5D7
S31508002C70C2B046ABFF2153F8042B019302A8094CB6
S31508002C80094DA047094C0646E068A84702A93246FE
S31508002C90074BE0689847E068A84742B0BDE870402F
S31508002CA004B07047094E0008893A00080040001031
S31508002CB0B53900080FB407B504AA064B52F8041B29
S31508002CC0019240F20150984703B05DF804EB04B056
S31508002CD0704700BF214D0008034B03EB8000036CCF
S31508002CE001330364704700BFF85E0010034B03EB23
S31508002CF08000036C013B0364704700BFF85E001058
S31508002D00044B03EB8000006C0028D4BF0020012090
S31508002D10704700BFF85E0010002010B5202102465B
S31508002D20034CA047034902460348A04710BD00BF0D
S31508002D30A51D0008000000000040001030B585B051
S31508002D4002AB2C4A934203D32B4A43F80429F8E7EB
S31508002D502A4C2B4B2B4963652B4B2C4A2C4D0B4489
S31508002D601344A3652B4B98472B4BE06598472B4B91
S31508002D70984700242A4B98470094234604210322A7
S31508002D802848A847284A294B29492A48A8470421F8
S31508002D902948A84702A803A9284B9847039A284B0D
S31508002DA0029821469847274C2748A0472748204994
S31508002DB0A04726482649A04726481B49A047254834
S31508002DC01A49A0470121244B4EF660209847012155
S31508002DD0224B0220984701200146214B9847214B58
S31508002DE098472148A0472148214B9847214B9847A7
S31508002DF005B030BD000000100DF0ADBAF85E001049
S31508002E000000000864090000C4B3000000000000C8
S31508002E10C94D0008192D0008E1290008AD2A000847
S31508002E207D2B000814AC000895A7000844AC0008E0
S31508002E30E4AB00082AAC0008C1A70008094D000841
S31508002E40B55B0008B52C00084DAC00084FAC00086F
S31508002E5057AC000863AC00087D2E0008812E0008D8
S31508002E60792E0008CD1B00086DAC00086EAC000872
S31508002E706D2C0008F32900080020704700207047D1
S31508002E800020704768B161B188420AD04A680B6869
S31508002E9002B1136003B15A60436881E809004160D2
S31508002EA0196070470368406803B118477047000007
S31508002EB0034B1A1D1A6000225A609B60704700BFB8
S31508002EC0605F0010F7B514461D4654EA0503074629
S31508002ED001D1124B9847124B684600219847114B6F
S31508002EE0C7E9044518681E46016829B1D0E90423D4
S31508002EF09D4208BF94420AD20B4B3946984733681D
S31508002F009F4206D120462946084B984701E00846C5
S31508002F10EAE76846064B984703B0F0BD052A00085D
S31508002F20A9B10008605F0010852E0008652A000810
S31508002F30B5B1000870B5144C236816461A682546BC
S31508002F4042B1D3E90423994208BF904234BF03240F
S31508002F50002400E00524E30701D50C4B9847F0B29E
S31508002F60DDE904230A49884714F0060F0BD0A207A7
S31508002F702B6802D5D3E9040103E04FF0FF304FF682
S31508002F80FF71024B984770BD605F0010652A000804
S31508002F90F1290008044B03F1100103F10C02D96072
S31508002FA0002119615A617047605F0010836813B584
S31508002FB0044653B10021064B684698470548064B18
S31508002FC0214698476846054B984702B010BD00BF92
S31508002FD0A9B10008705F0010852E0008B5B1000879
S31508002FE0826908B512B10830024B00E0024B9847D7
S31508002FF008BD00BFA52E0008AD2F000800230360FA
S3150800300043608160C26070474268036802B113601A
S3150800301003B15A60002303604360704773B50F4CD1
S315080030200F4B054600216846984726680D4B2846EB
S315080030309847AE420DD1234653F8042B9A4202D044
S31508003040D2E9040103E04FF0FF304FF6FF71064B5B
S3150800305098476846054B984702B070BD605F0010F8
S31508003060A9B1000809300008652A0008B5B10008AA
S31508003070F7B5154B684600219847144B1C68256818
S31508003080EDB1134BD4E904679847B94208BFB0427B
S3150800309001D2104B984710200F4B98470F4B2046EC
S315080030A098472B6813B1D5E9040103E04FF0FF30C8
S315080030B04FF6FF710A4B984720460A4B98476846D1
S315080030C0094B984703B0F0BDA9B10008605F00102E
S315080030D039B20008052A00082D4F000809300008F3
S315080030E0652A0008E12F0008B5B1000810B5046884
S315080030F0206818B12046024B9847204610BD00BFED
S31508003100093000081FB50F4B6846002198470E483E
S315080031100E4B984778B1083003C802AC84E8030020
S315080031200B4B6846984720460A4B984768460A4B11
S315080031309847012400E004466846084B984720460D
S3150800314004B010BDA9B100086C5F0010ED3000088E
S31508003150D3B10008A52E0008CFB10008B5B1000804
S31508003160044B1A1D1A6000225A60DA6001229B601D
S315080031701A617047785F0010F8B5044616461F4670
S315080031800D4609B9104B98470CB90F4B98470023C1
S31508003190A560E6602360636017B90C4B2BB911E094
S315080031A02B683046984770B1F7E7A3420AD06168A2
S315080031B0226801B10A6002B151605A6862602360F0
S315080031C05C6014600120F8BD052A00087C5F0010C9
S315080031D000232DE9F04703601D4B91461A69824684
S315080031E0884612B90020BDE8F0871C68002CF9D083
S315080031F02368002BF6D02046164B9847D0F814E0E3
S315080032000025754521D014276F438369DE19DB59DC
S31508003210434518D8B168726802FB0132904512D24C
S31508003220CAF80040C3EB0803B3FBF1F3C9F8003052
S31508003230B1684B43C9F8003032681344C9F8003006
S315080032400120BDE8F0870135DBE72468D0E700BF39
S31508003250785F0010AD030008044B186920B11868A0
S315080032600368002B08BF0020704700BF785F001076
S31508003270054A0346106928B1186818B10368002B77
S3150800328008BF0020704700BF785F001005C81044CB
S3150800329070470000F0B50446406A8BB050B14368E9
S315080032A0002B60D0314EB0476F460546234604F1E1
S315080032B0280E01E0034656E0186859683A4603C2E4
S315080032C0083373451746F7D1A36973B96369002BA9
S315080032D03AD1626A50686062002839D04268002A8A
S315080032E036D0B047054643692EE0013BA36100236B
S315080032F06269A969142000FB021213B1D368013B65
S31508003300A361A1690C234B431169CF18C95C2369D2
S315080033109942D9D12B787868116813F0020FE369BE
S3150800332014BF43F0010323F00103E3619368BA680D
S31508003330E360121A03FB001102FB0333A3600023A8
S315080033406360216001230EE0013B63610123CFE73F
S315080033506A460AAE154603CDB542206061602A4624
S3150800336004F10804F6D118460BB0F0BDAD03000809
S315080033702DE9F04700241460D0F814809A46444595
S315080033802CD0142565438669771976598E4223D839
S31508003390D7F808C07D6805FB0C65A9421CD23D69B3
S315080033A0D7F80C906B684FF0000E03FB0C66CE4501
S315080033B012D0AF686B68FF1A07FB0CC73E44B142D0
S315080033C005F10C0505D214600120CAF800E0BDE835
S315080033D0F0870EF1010EEAE70134D0E70020BDE8D8
S315080033E0F0872DE9F0471E68DDF820E014279C4693
S315080033F0774343699E422AD28469DEF800303C440A
S315080034000C25D4F80C905D434B451ADAD4F8108095
S3150800341008EB050A18F8058088450DD1A068DAF882
S315080034200450216805FB001111600120CCF80060EA
S31508003430CEF80030BDE8F0870C350029EED0013310
S31508003440E2E70023CEF8003001361437D1E7002032
S31508003450BDE8F087F0B5456A8DB00446034602AE6E
S3150800346000F1280718685968324603C20833BB4278
S315080034701646F7D135B9334B9847606218B30368D7
S3150800348043B920E0A3690133A361606A80B1036888
S31508003490DBB90DE02C4B9847037813F0020FE3696C
S315080034A002D043F0010301E023F00103E361ECE7F6
S315080034B002AA0CAD134603CBAB42206061601A46E4
S315080034C004F10804F6D1002039E026691E4DA84704
S315080034D004F1180300933146224604F114031B4EE7
S315080034E0B047C8B1606AA84763698269142101FBBD
S315080034F003210023A269086963600C235A438518CF
S315080035008968AB686D68E1605B1B03FB0113A36008
S31508003510835C2362012012E0636A186860620368AC
S3150800352053B1A847037813F0020FE36914BF43F0B9
S31508003530010323F00103E36100236361A4E70DB0EF
S31508003540F0BD00BF59320008AD030008E333000898
S31508003550134BDB6870B504460E461546D3B10021F9
S315080035602822104B9847266185B12B6873B14FF016
S31508003570FF33A36165620C4B28469847037813F01E
S31508003580020FE36908D043F00103E3612046074BC5
S31508003590984770BD184670BD23F00103F5E700BFD4
S315080035A0785F0010B55B0008AD03000855340008C5
S315080035B008B50022014B984708BD00BF51350008E1
S315080035C02DE9F0470446406A8846164610B9002099
S315080035D0BDE8F0870368002BF9D00029F7D01F4B08
S315080035E09847D8F8007082464FF00009002E31D06F
S315080035F06268A3689A4206D06368A568F218AA4268
S3150800360007D8354606E02046154B98470028F3D1DB
S31508003610DDE7ED1A9AF80020920709D5B9F1000FEF
S3150800362012D121681944C8F800104FF001090BE0BF
S31508003630626A216890681944D0F80CC0D0683B4685
S315080036402A46E0470028C2D06368761B2F441D44EB
S315080036506560CBE70120BDE8F08700BFAD03000831
S3150800366055340008012A38B5054604D005D3022A80
S315080036702ED1846802E0446800E0002401F100438A
S315080036800233012B0ED8EA68B4FBF2F36FF0004060
S31508003690814202FB134301D1D11A03E00BB159420F
S315080036A000E051420C44AB689C420CDBE41A284605
S315080036B0084B98470028F6D10AE02846064B984753
S315080036C030B1AB681C44002CF7DB6C60012038BDB8
S315080036D0002038BD5534000895320008F7B5089D16
S315080036E0002414601C602C600095024CA04703B0AF
S315080036F0F0BD00BFE3330008F0B51A4E346887B052
S315080037001CB91948194B984703E0F3680BB901250A
S3150800371015E0002023E0A368E0681B68984790B18D
S31508003720003518BF0125124B124F2046984704ABA7
S315080037300093302105AA03ABB84730B9246823683B
S31508003740002BE8D107E00546EDE7F368002BE0D14A
S31508003750044BDC60F2E7F368002BDAD0284607B0A2
S31508003760F0BD00BF785F0010C9AC00086D2C0008DA
S31508003770AD030008DD360008054B1A68824201D100
S3150800378058687047034A08339342F6D300207047B7
S315080037902C4000105C400010F7B51F4B07460C463E
S315080037A06846002198471D4BD3F80C0227EA000506
S315080037B004EA000155EA01021DD01A689C68184EF1
S315080037C00132402A944608BF0022B4B95C681A60E0
S315080037D0A24240EA070003EBCC0220EA010008BF38
S315080037E04FF0010E5560916008BFC3F808E0C3F8B2
S315080037F00C028020B047012408E00A480A4B984783
S315080038000A480B4B98478020B04700246846094B66
S315080038109847204603B0F0BDA9B100088C5F001098
S315080038202D4F0008FAAC0008B52C0008FBAC0008C0
S315080038306D2C0008B5B1000808B5014B984708BDBE
S315080038409937000873B53422114B12481249134CA4
S315080038509847134B00221A605A609A6025686B1CB9
S315080038600FD00223012100930E4A0F4E0323284648
S31508003870B04728460D4B9847014610B960680C4B6F
S3150800388098470C4B08349C42E8D3012002B070BD1F
S31508003890BD4B00080FAD0008284000102C40001052
S315080038A08C5F0010C5380008D9270008ED250008E8
S315080038B0393800085C40001008B5014B984708BD28
S315080038C04538000810B5054B0C469847044B014689
S315080038D00CB1002000E02146984710BD7937000852
S315080038E03938000800F47F43B3F5007F37B504463E
S315080038F011D0B3F5407F20D0B3F5807F22D10123C4
S3150800390000930022114B0192C0B21969104C08238A
S315080039100138A04717E0C0F34215284600210D4B91
S31508003920984778B928460C4B984758B1E0B2012118
S3150800393002220A4B0138984705E0C0B2084B013805
S31508003940984700E0002003B030BD00BF00400010DB
S31508003950D13A0008A5450008FD460008353C000890
S315080039603D50000800F47F43B3F5007F10B50446C8
S3150800397009D0B3F5407F0ED0B3F5807F10D1C0B221
S315080039800138084B0AE0C0B2074B01389847C4F320
S315080039904210064B02E0C0B2054B0138984710BDED
S315080039A0002010BDD53A0008C53C00087D3D00083A
S315080039B0415000082DE9F84307460D46144600F421
S315080039C07F4964264FF0000874B36EB3B9F5007FDB
S315080039D021D1F8B2013829462246154B07E0B9F538
S315080039E0807F08D1F8B2134B0138294622469847FA
S315080039F0002819DB0AD100200F4B9847A0B10021F7
S31508003A0001220E4B2020013E9847DDE7241A054483
S31508003A1080443226D8E7B9F5407FE0D1F8B20138BC
S31508003A2029462246064BE2E74046BDE8F88300BF32
S31508003A30F5480008D93A0008F1B100088D4F00088A
S31508003A404550000808B500F47F43B3F5007F09D058
S31508003A50B3F5407F0AD0B3F5807F0CD1C0B20138E8
S31508003A60064B06E0C0B20138054B02E0C0B2054B72
S31508003A700138984708BD002008BD00BFDD3A000898
S31508003A80914A00084950000808B500F47F43B3F589
S31508003A90007F09D0B3F5407F0AD0B3F5807F0CD1FB
S31508003AA0C0B20138064B06E0C0B20138054B02E049
S31508003AB0C0B2054B0138984708BD002008BD00BFB5
S31508003AC0E13A0008AD4B00084D5000080020704749
S31508003AD0012070470120704700207047002070477A
S31508003AE00120704738B5B0F8643090F8475004465E
S31508003AF09D4228BF1D46216E0F4B006C2A469847EB
S31508003B00236EB4F8642084F844502B44236694F852
S31508003B1047309D4208BFB4F86630A9B20CBF5B1A9D
S31508003B200023A4F86630B4F86630521AA4F8642064
S31508003B3003B1024BE36538BDB9590008E53A0008F8
S31508003B4073B5394B0546C0F342100C4616469847DE
S31508003B50014658B30068002864D005F01F05032DF8
S31508003B602EDCFF2E02D1FF2C05D129E0731E022B75
S31508003B7026D8FF2C02D0631E022B21D801EB45055F
S31508003B8095F83830FF2B1BD195F83930FF2B17D114
S31508003B90FF2E04D0331D51F8233053B907E0FF2C0C
S31508003BA017D0231D51F82330CBBB00E03AE0184666
S31508003BB038E0FF2CF5D106F10A0351F823300BB192
S31508003BC000202FE0FF2C04D004F10A0351F823004B
S31508003BD040B301F10803FF2E07D091F83820B2420E
S31508003BE0EED091F83920B242EAD0FF2C07D091F8EE
S31508003BF03820A242E4D091F83920A242E0D002311E
S31508003C009942E8D10021094B6846984785F83860FB
S31508003C1085F839406846064B9847012002E0FF2E92
S31508003C20C9D1D1E702B070BDC1550008A9B10008D5
S31508003C30B5B1000808B5014B984708BD413B0008D7
S31508003C4037B51D4B0446C0F342109847054670B376
S31508003C50006870B304F01F04032C29DC174B684670
S31508003C600021984705EB440090F83830FF2B07D021
S31508003C70043355F823301BB100221A605A609A6043
S31508003C80FF2380F8383090F83930FF2B07D00433FB
S31508003C9055F823301BB100221A605A609A60FF2338
S31508003CA080F839306846064B9847012001E000E065
S31508003CB0002003B030BD00BFC1550008A9B10008F7
S31508003CC0B5B1000808B5014B984708BD413C000846
S31508003CD0F7B5224B064698470546002839D0684668
S31508003CE000211F4B98472C687CB31E4B586800F47C
S31508003CF07F41C0F34214C0B201382B460022B1F509
S31508003D00007F03D1A64201D1824207D093F83870CA
S31508003D10FF2F19D193F83970FF2F15D10132042AD4
S31508003D2003F10203EBD1B1F5007F03D1A64201D11D
S31508003D300D4B984700232B6030460C4B98470C4890
S31508003D400C4B9847012400E0002468460A4B984724
S31508003D5000E00446204603B0F0BD00BFC155000888
S31508003D60A9B1000800400010C53C000885570008A6
S31508003D70A08601005DB20008B5B1000808B5014B80
S31508003D80984708BDD13C000837B50D4B04460D468B
S31508003D9068460021984720460A4B984748B18468E8
S31508003DA045EA04018C42816004D00420064B9847FA
S31508003DB000E004466846054B9847204603B030BDE8
S31508003DC0A9B10008C15500082D4F0008B5B1000873
S31508003DD008B5014B984708BD893D000837B50D4B16
S31508003DE004460D4668460021984720460A4B9847E0
S31508003DF040B1846824EA0501816021B90420074B93
S31508003E00984700E004466846054B9847204603B0A5
S31508003E1030BD00BFA9B10008C1550008614F0008B0
S31508003E20B5B1000808B5014B984708BDDD3D000847
S31508003E30F7B5194B0D4604460021684617469847BC
S31508003E400DB99FB91AE004F10C06002556F8043F8F
S31508003E5043B1B26932B91A605A609A602046294657
S31508003E600E4B98470135042DF0D1EAE704F10C030F
S31508003E701C3453F8042F32B9A342FAD16846084BCA
S31508003E80984703B0F0BD99690029F5D00021116063
S31508003E9051609160F0E700BFA9B100085D560008BF
S31508003EA0B5B1000810B5037990F846209A42044641
S31508003EB01DD0052B03D101210A460D4B984794F8CE
S31508003EC046302371062B10D8DFE803F004111111D0
S31508003ED0110911000023A4F86430E36510BD2046DB
S31508003EE001210022024B984710BD024B984710BD8E
S31508003EF0313E0008052A00084B8882B06BBBCB8888
S31508003F00022B2AD190F84620032A26D00B7803F0F4
S31508003F100F03012B06D002D3022B08D01DE000F1B7
S31508003F20500312E0052A18D10DF106030DE0042A04
S31508003F308B8800D18BB903F07F038B8090F85820CB
S31508003F409A420AD9426D02EB430303660223A0F89C
S31508003F506430034BC365002000E0012002B07047BF
S31508003F60E53A00084B887F2B10B5044619D88A888D
S31508003F70BAB9CA88AAB990F84620042A11D880F88E
S31508003F8045300BB9032300E0042384F84630204665
S31508003F90054B98470023A4F86430044BE3650320D7
S31508003FA010BD012010BD00BFA53E0008E53A000877
S31508003FB010B54B889BB98C888CB9CA88012A0ED152
S31508003FC090F8461003290AD000F148030366054B0A
S31508003FD0A0F86420A0F86620C365204610BD01201D
S31508003FE010BD00BFE53A000838B58B88044615466B
S31508003FF0D3B9CB88C3B990F84630032B14D04B8875
S31508004000012B11D880F848300BB9042300E00523AA
S3150800401084F846302046064B98473DB10023A4F85D
S315080040206430044BE36501E0012038BD052038BD46
S31508004030A53E0008E53A0008C06830B528B930BD85
S3150800404009D82BB38B4209D0204603784488032B22
S315080040500444F5D103E0FF2B09D019E030BD03294C
S31508004060F2D153884578DBB29D42EDD130BD057952
S3150800407013789D42E8D1457953789D42E4D1C588A5
S3150800408053889D42E0D1058993889D42DCD130BD95
S31508004090002030BD10B5CB8804460A46002B38D11F
S315080040A090F84630052B34D10B7813F00F0302D065
S315080040B0022B12D02DE04B88012B2AD10221164B58
S315080040C0984730B3C37A9B0623D5B4F8503023F00B
S315080040D00203A4F85030062015E08B8803F07F030E
S315080040E08B80B3B190F85810994212D9518881B98A
S315080040F0406D30F8131021F0010120F81310938851
S3150800410084F8593004200023A4F86430034BE3658F
S3150800411010BD012010BD00BF39400008E53A00086F
S3150800412010B5CB8804460A46002B3CD190F84610B9
S31508004130032938D0137813F00F0302D0022B11D0BD
S3150800414031E05388012B2ED10221184B984750B3E2
S31508004150C37A9B0620D5B4F8503043F00203A4F87E
S31508004160503019E00429938800D1E3B903F07F039E
S315080041709380C3B194F85810994214D9518891B9CB
S31508004180606D30F8131041F0010120F81310938880
S3150800419084F85930042000E006200023A4F864308F
S315080041A0034BE36510BD012010BD00BF3940000870
S315080041B0E53A000838B5CA884B88A0F86620044650
S315080041C00D46104622B9344BA4F86420E36538BD81
S315080041D094F84620032A0AD8E26C42B10022E26427
S315080041E094F84720904228BF1046A4F8660000229B
S315080041F02266A4F864206A78062A33D1190A0229A5
S3150800420005D003290CD001292CD120461CE02046D4
S315080042102A46224B984728B3031D2366C2881AE00C
S3150800422013F0FF0307D11E4B2366B4F86630042B40
S3150800423028BF042314E0052B04D11A4B1A780AB1B7
S31508004240236608E0204603212A46144B984748B1BE
S31508004250031D23660279B4F86630934228BF1346D5
S31508004260A4F86430236E8BB92046FF212A460B4BEF
S31508004270984778B100F10A0323664388B4F86620A4
S315080042800A3B9A4228BF9AB2A4F86420024BE36517
S31508004290002038BD012038BDE53A0008394000083D
S315080042A05C4000109C61001008B590F84430DBB102
S315080042B0016C4B78092B15D8DFE803F00507140ABB
S315080042C0140C14140E10094B00E0094B984708BD4E
S315080042D0084BFBE7084BF9E7084BF7E70122084BC1
S315080042E0984708BD074BF1E7022008BDF93E0008CC
S315080042F09540000821410008653F0008B13F0008C5
S31508004300E93F0008B5410008F0B500228DB004A9C0
S315080043100023535401321F2AF9D101AEFF229A55C0
S3150800432001330A2BF9D10022144603784188022B5F
S3150800433000EB01052FD003D84BB1012B0DD0DCE0E3
S31508004340032B00F09B80FF2B00F0A180D5E0002C0A
S3150800435000F0BB8082F00100D0E0002C40F0B7806E
S31508004360162940F0B6800379122B40F0B2804379C3
S31508004370012B40F0B080C37A082B06D0102B04D04E
S31508004380202B02D0402B40F0A880447D012C40F021
S31508004390A6802846C9E7002A40F0A3800279092AA0
S315080043A001D00820AAE0C38804339942F9D1437999
S315080043B0022B40F09880077A002F00F09680437A07
S315080043C0012B00F29480C37A03F08F03802B40F010
S315080043D0908000F10D035A78042A69D11A78092ABF
S315080043E068D1DA78002A67D11979002966D0B05CD5
S315080043F093F802E0FF2803D0864503D00132F6E79A
S31508004400002000E01A200DF1300C624402F82CEC72
S3150800441003F109025378052B02D013781A44F9E7F9
S31508004420C1EBC10153189A4221D05178052935D1DB
S315080044301178072934D1917801F07F0101391E29B5
S3150800444030D892F803E01EF0030F2DD01EF0C00FEF
S315080044502AD10DF1300E714411F820ECBEF1000F8F
S3150800446024D14FF0010E01F820EC0732DBE7013FBB
S31508004470FFB2002842D1002FADD121E003790433E1
S31508004480994238D14379032B83D0152036E090F929
S315080044900430002BFFF67DAF16202FE012202DE00A
S315080044A011202BE0182029E0132027E0192025E009
S315080044B00E2023E00D2021E00F201FE010201DE034
S315080044C0AA427FF46EAF012263E7012016E00220BC
S315080044D014E0032012E0042010E005200EE0062078
S315080044E00CE007200AE0104608E00A2006E00B2048
S315080044F004E00C2002E0142000E017200DB0F0BD07
S31508004500F7B500238DF8043055238DF80030532372
S315080045108DF8013042238DF8023000F131038DF811
S315080045200330194B0D469847074650B3174C184B9E
S31508004530002D08BF25462846984718BBA54226469B
S315080045401DD02B461A781AB15A8810441344F9E735
S31508004550041D2946684622460123DFF844C0E04781
S31508004560F868B04201D00B4B98470B4B204698474A
S315080045702946F8602246094B9847002002E0FD606C
S3150800458000E01C2003B0F0BDC1550008E4AD0008EA
S3150800459009430008C11B0008B51B0008B9590008E3
S315080045A0B94B000808B5014B984708BD01450008F6
S315080045B0F0B5454B8BB00546984700210446434B5A
S315080045C0684698470CB9002478E023686BB1404BDD
S315080045D05B6803F47F42B2F5007F06D1C3F342134A
S315080045E09D4202D128463B4B9847E16811B92846B7
S315080045F0394B984702AE20223848394B31469847FE
S31508004600384A88B111460023F05C88700027CF70BD
S3150800461020B10133202B01F10201F5D15B000233F1
S3150800462013700323537000E0107002212046002205
S315080046302D4B9847216806460029C4D10028C2D0C8
S315080046402A4BE768204668229847FF23E76084F8E4
S31508004650383084F8393084F83A3084F83B3084F8B6
S315080046603C3084F83D3084F83E3084F83F3065713C
S315080046702371F37A13F0400FB4F8503014BF43F0A7
S31508004680010323F00103A4F850302846184B984735
S31508004690002898D10E4B586800F47F43B3F5007F85
S315080046A009D1C0F342139D4205D1C0B20138012198
S315080046B00222104B9847012323601C4668460E4B7E
S315080046C0984720460BB0F0BDC1550008A9B10008AF
S315080046D000400010D13C0008014500081BAD000849
S315080046E0BD4B00089C61001039400008B55B000806
S315080046F0B5570008353C0008B5B1000808B5014BA8
S31508004700984708BDB145000838B50C46154602213C
S3150800471000221D4B984708B9002038BD438800F190
S315080047200D011844236813B921602B6016E08B42EB
S31508004730F2D98342F0D22A688A42EDD38242EBD27A
S3150800474059780529E8D119780729E5D15178042936
S31508004750E2D11278092ADFD107330CE023688342B5
S31508004760DAD25A78042A08D11A78092A00D12B6095
S315080047702268137813442360F0E7052AF8D11B78DA
S31508004780072BF5D1012038BD394000080368816838
S315080047905A1C082A08BF002261B9416802608A4289
S315080047A008BF01214FF0440208BF816002FB0300E5
S315080047B00C307047002070472DE9F04F424B85B00A
S315080047C000F01F06C0F3421089461446984705466E
S315080047D0002873D0032E71DC002C6DD0B9F1000FC0
S315080047E06CD090F84630052B68D100EB460696F853
S315080047F03970FF2F62D000EB870BDBF81030002BE7
S315080048005CD002A80021314B98470026A046B24644
S315080048102F4BDBF8100098470346D8B1EA190092E7
S3150800482092F82460464528BF46463EB104304946BC
S315080048303246DFF8BCC00193E047019B009A92F824
S3150800484024201E609642C6EB0808B144B24426D31B
S315080048500026DDE70136642E07D9A04527D1DBF807
S31508004860102010605060906021E00120194B984795
S31508004870E8B902A8184B9847C8B995F84630052BE9
S3150800488015D139462846154B984702A8144B984720
S315080048903220144B984702A8134B9847B8E795F867
S315080048A04630052B03D1284639460C4B984702A8B3
S315080048B00E4B9847504603E0204601E04FF0FF3084
S315080048C005B0BDE8F08F00BFC1550008A9B10008C2
S315080048D08D470008012D0008BFB10008D155000812
S315080048E0D3B10008452B0008CFB10008B5B10008C0
S315080048F0B959000808B5014B984708BDB9470008DB
S315080049002DE9F0410D469046064608B1032901DD1A
S315080049100C4B984706EB850423690BB1A36A0BB1C8
S31508004920084B98472069084B984723699B68C8F83D
S31508004930003001210746A9407079044B984738464C
S31508004940BDE8F081052A00088D470008D13D00081A
S31508004950426803689A4201D183685BB1531C082BED
S3150800496008BF0023436000238360442303FB02003F
S315080049700C307047184670472DE9F04F87B0C0F3E2
S315080049804213019300F01F0418463A4B02928B46D5
S3150800499098470746002834D0032C34DC90F8463074
S315080049A0052B30D11C3410F81480B8F1FF0F2AD02B
S315080049B000EB880ADAF81040002C56D004A800212B
S315080049C02D4B98470024DDF808C02546029B9C42DB
S315080049D013D2D5B9DAF8101091E80500904201D142
S315080049E0886820B1442505FB02150C350DE0012128
S315080049F00198224B01FA08F1984704A8204B9847DA
S31508004A0033E0044631E000242FE007EB08092E685E
S31508004A1099F820101B4BCDF80CC0761A664528BFAE
S31508004A2066462944584604313246984799F8202064
S31508004A30DDF80CC03244D2B289F8202029688A42AF
S31508004A40B3443444C6EB0C0CC0D1002589F8205079
S31508004A500D4ADAF81000CDF80CC0904738464146A2
S31508004A600A4A9047DDF80CC0B0E7204607B0BDE813
S31508004A70F08F00BFC1550008A9B10008253E0008FF
S31508004A80B5B10008B9590008514900085D56000833
S31508004A9008B5014B984708BD7949000870B50E4618
S31508004AA01546044608B1032901DD0E4B984704EB69
S31508004AB0860423690BB1A36A0BB90A4B98471DB143
S31508004AC02069094B984770BD226992E80A00994205
S31508004AD001D1916821B1442000FB03200C3070BD40
S31508004AE0284670BD052A00085149000890E80C00C0
S31508004AF09A4203D202F10800C01A7047816809B9C0
S31508004B00D01A7047082070472DE9F84300F01F05B2
S31508004B10224BC0F342109847044630B3032D24DCD9
S31508004B2090F84630052B1DD100EB450595F83970F0
S31508004B30FF2F1AD000EB8708D8F8100060B3184E7C
S31508004B40B0474FF47A758146D8F8103093E80600D6
S31508004B5091420DD19A685AB9002D03DC00221A60D9
S31508004B605A609A600120BDE8F8830020BDE8F88302
S31508004B70002DF3DD39460B4B2046984764200A4B37
S31508004B809847D8F81000B04781450CBF05F1FF35A6
S31508004B904FF47A758146D7E7BDE8F883C155000812
S31508004BA0ED4A0008D1550008452B000808B5014B09
S31508004BB0984708BD094B0008002070470020704739
S31508004BC0054B81601860002303604360034BC36094
S31508004BD0034B0361704700BFE8610010EFBEADDE0E
S31508004BE00DF0B1BA70B5044600283ED01F4B50F8F8
S31508004BF0041C9942A0F114061D4606D01C4B1D48FC
S31508004C0054F80C2C98471C4B984754F80C2CB3189E
S31508004C1053F8041CA94204D0154B18489847164B5C
S31508004C20984754F8143C164A44F8082C6BB1D968CE
S31508004C3091420AD1996854F80C0C1B6844F8143C44
S31508004C40014444F80C1C03B15E6054F8103C63B18F
S31508004C50D968914209D154F80C2C99680A449A608B
S31508004C6054F8142C1A6002B1536070BD0DF0B1BA35
S31508004C70C94D000849AD0008C0A4000887AD000862
S31508004C80EFBEADDE184B10B51B301C6820F00301D3
S31508004C902CB3E268154B9A4214D1A2688A4211D302
S31508004CA001F12800824223460ED9521A14441A6882
S31508004CB084E80C001C6002B15460A1609868411A2F
S31508004CC0996001E02468E3E7094BE360A368094AB1
S31508004CD02261234404F1140043F8042C10BD064B4A
S31508004CE006489847204610BDE8610010EFBEADDEC5
S31508004CF05EBEADDE0DF0B1BAC94D0008C5AD0008FF
S31508004D00002303600B607047024A034B02609B1A3C
S31508004D100B60704700000120FC7F012070470000EF
S31508004D2030B50C46ADF5017D134605462246684664
S31508004D301A4C4FF40071A04705F47F43B3F5407F42
S31508004D4004460ED006D8B3F5807F0AD0B3F5007FA7
S31508004D501FD106E0B3F5A06F12D0B3F5C06F06D029
S31508004D6017E02846694622460D4B984711E00D4B39
S31508004D701B6873B100220DF800206846984708E0C2
S31508004D800025A54205DA1DF80500074B98470135A9
S31508004D90F7E720460DF5017D30BD00BF2D5D000803
S31508004DA0B5390008EC610010F54E000808B50A464A
S31508004DB00349034648691946024B984708BD00BF90
S31508004DC000400010214D00080FB407B504A9054B93
S31508004DD051F8040B0191984703B05DF804EB04B051
S31508004DE0704700BFAD4D00080EB403B503AA054BC6
S31508004DF052F8041B0192984702B05DF804EB03B021
S31508004E00704700BF214D000810B5014CA04710BDE2
S31508004E102D5D000838B578B172B169B15C1CA14244
S31508004E204FF0000401D2047006E0C45411461A4635
S31508004E30024B9847204638BD012038BD515C000812
S31508004E40034613F8012B002AFBD1181A01387047BC
S31508004E50704770470120704770474FF04A407047C7
S31508004E604FF04A4070474FF07740704708B5024800
S31508004E70024B984708BD00BFF8620010814E000833
S31508004E802DE97043124E33680446CBB901254FF01D
S31508004E9000084FF000098561C561C0E9088904F179
S31508004EA020020C4B183004F11C01984706A3D3E9DD
S31508004EB00023C4E90289C4E90423C4E90023356050
S31508004EC00020BDE8708300BF000095D9EE1FCC0115
S31508004ED0F06100106B2B00084FF04A407047012024
S31508004EE07047012070470120704701207047012054
S31508004EF0704770477047000010B50349034A044CD1
S31508004F0004480023A04710BD88400010BC4000108C
S31508004F10793100088C6A0010034B00221A605A6027
S31508004F201A620120704700BF2063001013B5094BB1
S31508004F300446002168469847074B186A5A6A204370
S31508004F4018620AB1986A90476846044B984702B0B7
S31508004F5010BD00BFA9B1000820630010B5B1000854
S31508004F6013B5074B0446002168469847054B186A4F
S31508004F7020EA040018626846034B984702B010BD41
S31508004F80A9B1000820630010B5B100082DE9FF4754
S31508004F901F4B204C81461046884698471E4B0646AE
S31508004FA00F4602A800219847A04736184F41012509
S31508004FB0A2461A4B1B6A18EA030421D1D047B94204
S31508004FC008BFB0421CD26DB10220154B984748B9AC
S31508004FD002A8144B9847144B9847144B054602A849
S31508004FE09847E6E700230193304639464A46104B70
S31508004FF0CDF80080984702A80E4B98470125D8E7B8
S3150800500002A80D4B9847204604B0BDE8F08700BFBC
S315080050100B2A000839B20008A9B10008206300105D
S31508005020012D0008D3B1000805310008CFB10008EA
S31508005030352F0008DDB10008B5B10008012070471A
S3150800504001207047002070470020704700207047F5
S315080050500FB430B5C3B046ABFF2153F8042B019308
S3150800506002A8094CA047094C05460220A04702A9F8
S315080050702A46074B022098470220A04743B0BDE8BE
S31508005080304004B0704700BF094E0008E13A0008F6
S31508005090D93A000873B5012300220093144C0192F3
S315080050A006460D4602204FF4E1310823A047114C6D
S315080050B01DB111482946A04701E01048A0471048ED
S315080050C0F16BA0470F48B16BA0470F48716BA0471B
S315080050D00E4806F14001A0470025294656F8252026
S315080050E00B480135A0470D2DF7D102B070BD00BFA2
S315080050F0D13A000851500008DEAE0008F2AE0008AA
S31508005100FBAE00080BAF00081BAF00082BAF00086A
S315080051103BAF000808B5024B9847024B984708BDB5
S3150800512095500008F329000813B5084B04460021DA
S315080051306846984720460021054B9847054B9847EF
S315080051406846054B984702B010BD00BFA9B10008D4
S3150800515095500008F3290008B5B1000801207047EA
S3150800516008B591F8463081F8B230062381F8463002
S315080051700846014B984708BDA53E000808B5D0F873
S31508005180043823F00103C0F8043891F8B23081F8E6
S3150800519046300846014B984708BD00BFA53E0008A3
S315080051A0F8B54FF0FF334361402343624FF0401395
S315080051B083620D46002395F858109A1C8B424FEAD5
S315080051C0821214DA03F1400142F4800240F82120E9
S315080051D000EB4312FF21C2F80819C2F8081B4FF06A
S315080051E08041C2F800190133C2F8001BE3E74FF407
S315080051F0866303614FF40043C0F80039B5F8B04040
S31508005200C0F8003B0023C0F810394FF0C043C0F87F
S31508005210103BA41005F12C0E022701224FF00111B4
S3150800522064B314F0030323D0AE1896F824C0DEF84E
S3150800523000604CEA83435EB1960546F0C05646F4D4
S315080052400046334302F148067601394383510FE09D
S315080052504CF4002600EB421C43F01443CCF8106BC8
S3150800526002F15806760143F40043835141EA0741A7
S315080052700132A4087F000EF1040ED1E701260923A6
S31508005280C0F81068C0F814380C4BC0F81C188361B5
S31508005290D0F8003823F4FE63C0F800384FF0FF3129
S315080052A02046074B9847032385F84630EE6485F871
S315080052B045402846034B9847F8BD00BF10180C8098
S315080052C0253E0008A53E000873B505461E46144649
S315080052D02AB901F168020A6481F8443006E00846F2
S315080052E0094B114601AA9847021D0660013405EBD1
S315080052F004341546711B1144002903DD236845F85B
S31508005300043BF7E702B070BD014900082DE9F041FA
S315080053104FEA421800EB08031446D3F80829D207C7
S3150800532048BF012200EB080748BFC3F80829D7F889
S315080053300039002B05460E4636DB44B9CB6D6BB3F8
S3150800534008469847336C96F8440073B926E001EB93
S3150800535084031A6912B39B6A03B3084601222146DD
S31508005360124B9847D0B1031D0068A84440F40022A8
S31508005370C8F81029D7F80029013442F00442C7F8C2
S31508005380002905EB04341946421A1A44002A03DD9B
S3150800539051F8042B2260F7E7BDE8F081D7F8003909
S315080053A043F00063C7F80039BDE8F0819D4A00085C
S315080053B02DE9F041204B044608460D469847022839
S315080053C007461AD003280FD0012818D1D4F8003977
S315080053D043F40013C4F80039D4F8003B43F400132F
S315080053E0C4F8003BBDE8F081D4F8003895F84520AC
S315080053F043EA0213C4F8003801E00023EB650F4EB8
S31508005400204629460022B047052F374612D105F116
S315080054101008012695F858309E420BDA58F8043FD2
S3150800542033B1D8F818301BB1204629463246B8475A
S315080054300136EFE7BDE8F081A94200080D530008E0
S31508005440530170B5C518D5F8084BE60744BF0126C1
S31508005450C5F8086B240742BFC4180825C4F8085BBA
S3150800546082B991F8472042F0C04242F40022C0F8BF
S31508005470102BD0F8003B43F00443C0F8003B0E4B1A
S31508005480984770BD141D51F82440A46864B90A44AD
S31508005490034492F8242042F40022C3F8102BD3F8D0
S315080054A0002B42F0044204E00344D3F8002B42F0F8
S315080054B00062C3F8002B70BDB15300082DE9F04116
S315080054C00446314D01200E46A8470220A8476569C3
S315080054D015F010080ED0236A03F4B012B2F5802F27
S315080054E0F5D103F00F0220463146C3F30A13274DC0
