:020000040800F2
:10000000000002200903000811030008190300087A
:100010009D030008A5030008F50300080000000088
:10002000000000000000000000000000450A000879
:100030004D04000800000000450C0008A50C000855
:100040000103000801030008010300080103000880
:100050000103000801030008010300080103000870
:100060000103000801030008010300080103000860
:100070000103000801030008010300080103000850
:100080000103000801030008010300080103000840
:100090000103000801030008010300080103000830
:1000A0000103000801030008010300080103000820
:1000B0000103000801030008010300080103000810
:1000C0000103000801030008010300080103000800
:1000D00001030008010300080103000801030008F0
:1000E00001030008010300080103000801030008E0
:1000F00001030008010300080103000801030008D0
:1001000001030008010300080103000801030008BF
:1001100001030008010300080103000801030008AF
:10012000010300080103000801030008010300089F
:10013000010300080103000801030008010300088F
:10014000010300080103000801030008010300087F
:10015000010300080103000801030008010300086F
:10016000010300080103000801030008010300085F
:10017000010300080103000801030008000000005B
:10018000010300080103000880B58EB000AF03F042
:10019000EDFF494B494A1A60494B484A1A60494B9E
:1001A0003B63494BFB62494BBB62FB6A7B6207E0E6
:1001B0007B6A1A1D7A623A6B111D396312681A60E4
:1001C000BA6A7B6A9A42F3D83B4B1A68404B9A4210
:1001D00004D13B4B1A683F4B9A4200D0FEE73E4B9E
:1001E000364A1A603D4B354A1A603D4B3B623D4BE7
:1001F000FB613B6ABB6104E0BB691A1DBA61002266
:100200001A60FA69BB699A42F6D8334B1B68002B17
:1002100003D1324B1B68002B00D0FEE703F0B6FF82
:100220003A1D3B461046194603F0C0FE2E4A2F4B9E
:10023000D31A9B107B6100233B6107E02B4B3A698B
:1002400053F8223098473B6901333B617A693B6937
:100250009A42F3DC264A274BD31A9B107B6100237A
:100260003B6107E0234B3A6953F8223098473B69DA
:1002700001333B617A693B699A42F3DC7A683B68F7
:100280001046194600F082F978631B4A1B4BD31ABB
:100290009B10FB60FB68BB6008E0BB685A1E174BF5
:1002A00053F822309847BB68013BBB60BB68002B0A
:1002B000F3DC786B03F036FE00000020BABADECA29
:1002C00080000020386D000800000020840000201D
:1002D000785634123254769884000020BC2E0120C7
:1002E00084000020C02E01209C0400089C0400080B
:1002F0009C0400089C0400089C0400089C0400085E
:1003000080B400AFFEE700BF80B500AFFFF73CFF51
:1003100080B400AFFEE700BF1EF0040F0CBFEFF388
:100320000880EFF3098071464F4A104780B588B0C6
:1003300002AF78603960174B5B6B7B61154B9B6B31
:100340003B61144B9B6AFB60124B1B6B03F0020377
:10035000002B10D00F4BDB6A002B0CDA78684BF6C1
:10036000AB6104F013F80346002B04D0094B4FF0A7
:100370000042DA620BE0084803F05EFE3B6800933F
:100380007868F9687A693B6903F06AFFFEE7183715
:10039000BD4680BD00ED00E05469000880B400AFA8
:1003A000FEE700BF1EF0040F0CBFEFF30880EFF371
:1003B000098071462D4A104780B588B002AF786039
:1003C00039600A4B5B6B7B61084B9B6B3B61074B56
:1003D0009B6AFB60064803F02FFE3B680093786839
:1003E000F9687A693B6903F03BFFFEE700ED00E046
:1003F000646900081EF0040F0CBFEFF30880EFF3F0
:10040000098071461A4A104780B588B002AF7860FB
:1004100039600A4B5B6B7B61084B9B6B3B61074B05
:100420009B6AFB60064803F007FE3B680093786810
:10043000F9687A693B6903F013FFFEE700ED00E01D
:100440007069000880B400AFFEE700BF80B400AF61
:10045000FEE700BF80B400AFFEE700BF80B400AF8E
:10046000BD465DF8047B70472D030008B903000802
:040470000904000873
:10047400386D00080000002084000020386D00085A
:10048400000000100000001084000020C02E012095
:08049400000000100000001040
:1004A0004068003018BF0120704700BF0346406815
:1004B00000225A60704700BF0120704710B582B01B
:1004C000044600F03FFF0190237D83F00103237574
:1004D000A08900F5801080308002E28901219140DE
:1004E00089B20BB1012200E0002202F0EBFE01A86C
:1004F000216900F0ABFDE7E710B586B00D4B196B35
:100500008289012404FA02F20A431A63C38904FAB5
:1005100003F301930294039402230493808900F56A
:1005200080108030800201A902F02CFD204606B028
:1005300010BD00BF0038024010B50446024B0360F6
:1005400000F090F8204610BDC065000810B50446C4
:10055000044B036000F086F8204603F041FF20467C
:1005600010BD00BFC0650008F8B504460F4616462A
:100570001D4600F057F8044B2360A781E6812561F2
:10058000002323752046F8BDC065000810B50E484D
:1005900003F074FD0D480E4B196803F04DFD182053
:1005A00004F062FA044603210C224FF4FA73FFF7B9
:1005B000DBFF204607498222022300F07FF800F08B
:1005C0002DF900F0D1FDFEE7E0650008F4650008B4
:1005D000080000200866000880B500AF00F0DEFAD1
:1005E00080BD00BF80B500AF00F006FB80BD00BF3E
:1005F00080B483B000AF7860012318460C37BD4645
:100600005DF8047B704700BF80B500AF00F0F8FDD7
:1006100080BD00BF80B500AF00F000FE0346184665
:1006200080BD00BF80B582B000AF78607B6818469F
:1006300000F00CF97B680A4A1A607B6800229A6015
:100640007868796800F074F87B6805E07B68184684
:1006500000F012F904F04CF918460837BD4680BD89
:100660001866000880B582B000AF78607B680A4ADF
:100670001A607868796800F079F87B68184600F0AD
:10068000FBF80023002B02D0786803F0A9FE7B68FA
:1006900018460837BD4680BD1866000880B582B090
:1006A00000AF78607868FFF7DDFF786803F098FEA8
:1006B0007B6818460837BD4680BD00BF90B587B03F
:1006C00002AFF860B9603B601346FB80FB681B68B3
:1006D0001C331C68FB88F868B9681A463B68A04759
:1006E0000346002B0FD0FA68FB88F968009139683F
:1006F000019110460649BA6800F012F90346002B32
:1007000001D0012300E0002318461437BD4690BDF8
:100710001507000880B582B000AF78607B681B6861
:1007200018331B68786898470837BD4680BD00BFFE
:1007300080B582B000AF78603960FFF74DFF0A4B9B
:100740001B68002B03D1084B7A681A6006E0064B41
:100750001A687B689A60044B7A681A60FFF742FF58
:100760000837BD4680BD00BF8800002080B584B03A
:1007700000AF78603960FFF72FFF154B1B683A68B0
:100780009A4206D13B689A68114B1A60FFF72AFF1C
:100790001BE0FFF727FFFFF737FF0D4B1B68FB60E0
:1007A00002E0FB689B68FB60FB68002B04D0FB68E1
:1007B0009A683B689A42F4D1FB68002B03D03B68EF
:1007C0009A68FB689A60FFF725FF1037BD4680BD29
:1007D0008800002080B582B000AF0123FB710E4B72
:1007E0001B683B6010E03B681B6814331B6838686B
:1007F00098470346FA791340002B0CBF00230123CE
:10080000FB713B689B683B603B68002BEBD1FB793D
:1008100018460837BD4680BD8800002080B500AF6F
:10082000FFF7D8FF0346184680BD00BF80B483B0F1
:1008300000AF78607B68044A1A607B6818460C3702
:10084000BD465DF8047B7047A066000880B582B0A5
:1008500000AF78607B681846FFF7E8FF7B68054AC1
:100860001A607B6800225A607B6818460837BD46CC
:1008700080BD00BF8066000880B582B000AF7860A0
:100880007B680B4A1A607868FFF70AFE0346002B64
:1008900002D0786800F06EF80023002B02D0786850
:1008A00003F09EFD7B6818460837BD4680BD00BF3B
:1008B0008066000880B582B000AF78607868FFF786
:1008C000DBFF786803F08CFD7B6818460837BD466F
:1008D00080BD00BF80B582B000AF786039603B68F2
:1008E000002B05D10B481B210B4A0C4B03F072FB6C
:1008F0007B681B681B68786898470346002B02D00A
:10090000786800F037F87B683A685A600837BD4667
:1009100080BD00BF54660008DC66000864660008FD
:1009200080B58AB004AFF860B9607A607B807B885C
:100930007A6A009207F110020192002202920022CC
:100940000392B86879681A463B6A00F02DFA0346AC
:100950007B617B69012B07D1FB681B6804331B6833
:100960003A69F868114698477B6918461837BD46BA
:1009700080BD00BF80B584B000AF78607B685B68E5
:10098000002B0BD07B685B68FB607B6800225A60A1
:10099000F86800F0D9FA7B6800225A601037BD462B
:1009A00080BD00BF80B485B000AFF860B9607A60E8
:1009B000FB68043BFB60FB684FF080721A60FB68C9
:1009C000043BFB60BA68FB681A60FB68043BFB6091
:1009D0000C4AFB681A60FB68143BFB607A68FB6892
:1009E0001A60FB68043BFB60FB686FF002021A6050
:1009F000FB68203BFB60FB6818461437BD465DF87A
:100A0000047B7047090A000880B483B000AF0C4B28
:100A10001B68B3F1FF3F09D04FF0500383F31188F7
:100A2000BFF36F8FBFF34F8F7B60FEE74FF0500334
:100A300083F31188BFF36F8FBFF34F8F3B60FEE7E7
:100A400004000020064B19680868B0E8F04F80F3F6
:100A50000988BFF36F8F4FF0000080F31188704753
:100A60009400002006480068006880F3088862B699
:100A700061B6BFF34F8FBFF36F8F00DF00BF000081
:100A800008ED00E080B586B000AF3B4B1A683B4BE9
:100A90009A4209D14FF0500383F31188BFF36F8F4F
:100AA000BFF34F8F3B61FEE7334B1A68344B9A42DA
:100AB00009D14FF0500383F31188BFF36F8FBFF359
:100AC0004F8FFB60FEE72F4B7B617B691B78DBB2AE
:100AD000BB607B69FF221A707B691B78DBB2FB71FC
:100AE000FB79DBB203F05003DAB2274B1A70274BC5
:100AF00007221A6009E0254B1B685A1E234B1A6017
:100B0000FB79DBB25B00DBB2FB71FB79DBB2DBB202
:100B10005BB2002BEFDB1D4B1B681A021B4B1A60EC
:100B20001A4B1B6803F4E062184B1A60BB68DAB218
:100B30007B691A70164B164A126842F470021A60EA
:100B4000134B134A126842F070421A6000F0CCF85E
:100B5000104B00221A6000F0E1F80F4B0E4A1268A9
:100B600042F040421A60FFF77DFFFFF74DFF002380
:100B700018461837BD4680BD00ED00E071C20F4138
:100B800070C20F4100E400E08C00002090000020C3
:100B900020ED00E00400002034EF00E080B483B0DA
:100BA00000AF4FF0500383F31188BFF36F8FBFF393
:100BB0004F8F7B600E4B1B685A1C0D4B1A600C4B01
:100BC0001B68012B0ED10B4B1B68DBB2002B09D02D
:100BD0004FF0500383F31188BFF36F8FBFF34F8F34
:100BE0003B60FEE70C37BD465DF8047B704700BFF5
:100BF0000400002004ED00E080B483B000AF104B8F
:100C00001B68002B09D14FF0500383F31188BFF309
:100C10006F8FBFF34F8F7B60FEE7094B1B685A1E37
:100C2000074B1A60064B1B68002B04D100233B6066
:100C30003B6883F311880C37BD465DF8047B704731
:100C400004000020EFF30980BFF36F8F144B1A6884
:100C50001EF0100F08BF20ED108A20E9F04F106041
:100C60004DF8043D4FF0500080F31188BFF34F8FD3
:100C7000BFF36F8F00F03CFC4FF0000080F3118851
:100C800008BC19680868B0E8F04F1EF0100F08BFE4
:100C9000B0EC108A80F30988BFF36F8F704700BFF4
:100CA0009400002080B584B000AFEFF311824FF0C4
:100CB000500383F31188BFF36F8FBFF34F8FFA6038
:100CC000BB6000F04FFB0346002B03D0054B4FF0F9
:100CD00080521A6000237B607B6883F31188103791
:100CE000BD4680BD04ED00E080B400AF074B084A6C
:100CF0001168084AA2FB01029209013A1A60064BE8
:100D000007221A60BD465DF8047B704714E000E0DE
:100D100008000020D34D621010E000E0DFF80C0066
:100D2000016841F4700101607047000088ED00E047
:100D300080B485B000AFEFF30583FB60FB680F2B39
:100D400013D9154AFB6813441B78FB72134B1B78AD
:100D5000FA7A9A4209D24FF0500383F31188BFF315
:100D60006F8FBFF34F8F7B60FEE70D4B1B6803F463
:100D7000E0620C4B1B689A4209D94FF0500383F391
:100D80001188BFF36F8FBFF34F8F3B60FEE71437BF
:100D9000BD465DF8047B7047F0E300E08C00002066
:100DA0000CED00E09000002080B58CB002AFF86040
:100DB000B9603B601346FB80FB68002B09D14FF004
:100DC000500383F31188BFF36F8FBFF34F8FBB6165
:100DD000FEE73B6B042B09D94FF0500383F31188D6
:100DE000BFF36F8FBFF34F8F7B61FEE7FB88184621
:100DF000B96B00F09FFE38623B6A002B78D03B6AEB
:100E00001A6BFB8803F18043013B9B001344FB6199
:100E1000FB6923F00703FB61FB6903F00703002B69
:100E200009D04FF0500383F31188BFF36F8FBFF3E6
:100E30004F8F3B61FEE7FB880093386AB9683A6BD5
:100E4000FB6B00F077FDF869F9683A68FFF7AAFDD7
:100E500002463B6A1A607B6B002B02D07B6B3A6ABE
:100E60001A60FFF79BFE314B1B685A1C2F4B1A6010
:100E70002F4B1B68002B09D12D4B3A6A1A602B4B64
:100E80001B68012B0FD100F0A7FD0CE0294B1B685C
:100E9000002B08D1264B1B68DA6A3B6B9A4202D8BA
:100EA000234B3A6A1A60244B1B685A1C224B1A6067
:100EB000214B1A683B6A1A643B6ADB6A01229A403A
:100EC0001E4B1B681A431D4B1A603B6ADA6A1346B5
:100ED0009B0013449B001A4A1A443B6A0433104691
:100EE000194601F01BFB01237B62FFF785FE02E040
:100EF0004FF0FF337B627B6A012B11D10D4B1B68D6
:100F0000002B0DD00A4B1B68DA6A3B6B9A4207D262
:100F10000C4B4FF080521A60BFF34F8FBFF36F8FAF
:100F20007B6A18462837BD4680BD00BF6C01002093
:100F30009400002078010020880100207401002026
:100F40009800002004ED00E080B584B000AF786028
:100F5000FFF724FE7B68002B02D1334B1B6800E0B7
:100F60007B68FB60FB680433184601F033FB0346E3
:100F7000002B15D1FB68DA6A2C4913469B001344F9
:100F80009B000B441B68002B0AD1FB68DB6A012223
:100F900002FA03F3DA43264B1B681A40244B1A600B
:100FA000FB689B6A002B04D0FB681833184601F0DD
:100FB00011FBFB6804331F48194601F0AFFA1E4BC2
:100FC0001B685A1C1C4B1A601C4B1B685A1C1B4B81
:100FD0001A60FFF711FE1A4B1B68002B21D0124B31
:100FE0001B68FA689A4216D1164B1B68002B09D071
:100FF0004FF0500383F31188BFF36F8FBFF34F8F10
:10100000BB60FEE7104B4FF080521A60BFF34F8F6A
:10101000BFF36F8F05E0FFF7C1FD00F0D3FDFFF7D1
:10102000EBFD1037BD4680BD9400002098000020E5
:10103000740100204001002054010020880100209C
:10104000780100209001002004ED00E080B58AB016
:1010500000AF7860396000237B627B68002B09D188
:101060004FF0500383F31188BFF36F8FBFF34F8F9F
:101070007B61FEE73B68002B09D14FF0500383F3FF
:101080001188BFF36F8FBFF34F8F3B61FEE7314B8A
:101090001B68002B09D04FF0500383F31188BFF376
:1010A0006F8FBFF34F8FFB60FEE700F0A9F82A4B6C
:1010B0001B683B627B681A683B681344FB617B6872
:1010C0001A683B6A9A420BD97B681A68FB699A4294
:1010D00011D9FA693B6A9A420DD901237B620AE071
:1010E0007B681A68FB699A4203D8FA693B6A9A429C
:1010F00001D901237B627B68FA691A607B6A002B45
:1011000017D0164B1B680433184601F063FA0346E8
:10111000002B0BD1114B1B68DB6A012202FA03F38F
:10112000DA430F4B1B681A400D4B1A60F86900F048
:10113000CBFC00F073F8B861BB69002B07D1094BF9
:101140004FF080521A60BFF34F8FBFF36F8F283775
:10115000BD4680BD90010020700100209400002059
:101160007401002004ED00E080B588B004AF0023D6
:1011700000930023019300230293002303931B4851
:101180001B4982220023FFF70FFEF860FB68012B4A
:1011900002D100F067FEF860FB68012B15D14FF01B
:1011A000500383F31188BFF36F8FBFF34F8FBB6082
:1011B000104B4FF0FF321A600F4B01221A600F4B99
:1011C00000221A60FFF75EFC0CE0FB68002B09D1DF
:1011D0004FF0500383F31188BFF36F8FBFF34F8F2E
:1011E0007B60FEE71037BD4680BD00BF01190008D7
:1011F000086700088C0100207801002070010020A1
:1012000080B400AF044B1B685A1C034B1A60BD46E8
:101210005DF8047B704700BF9001002080B584B06A
:1012200000AF0023FB603E4B1B68002B09D14FF041
:10123000500383F31188BFF36F8FBFF34F8F7B6031
:10124000FEE7FFF7ABFC364B1B685A1E344B1A60A7
:10125000334B1B68002B5BD1324B1B68002B57D0E4
:101260002EE0314BDB68DB68BB60BB681833184687
:1012700001F0B0F9BB680433184601F0ABF9BB6864
:10128000DB6A01229A40294B1B681A43274B1A60DC
:10129000BB68DA6A13469B0013449B00244A1A4435
:1012A000BB6804331046194601F038F9BB68DA6AA6
:1012B000204B1B68DB6A9A4202D31F4B01221A6043
:1012C000194B1B68002BCCD11C4B1B68002B11D079
:1012D0000CE000F047F80346002B02D0164B012229
:1012E0001A60164B1B685A1E144B1A60134B1B686E
:1012F000002BEED1104B1B68012B09D10123FB60A1
:101300000F4B4FF080521A60BFF34F8FBFF36F8FB8
:10131000FFF772FCFB6818461037BD4680BD00BF62
:10132000900100206C0100202C010020740100209D
:101330009800002094000020800100207C01002003
:1013400004ED00E080B483B000AF054B1B687B6008
:101350007B6818460C37BD465DF8047B704700BFBC
:101360007001002080B586B000AF00237B61554B33
:101370001B68002B40F09380534B1B685A1C524B48
:101380001A60514B1B683B613B69002B1FD14F4BCF
:101390001B681B68002B09D04FF0500383F31188A2
:1013A000BFF36F8FBFF34F8F3B60FEE7474B1B6868
:1013B000FB60474B1A68454B1A60454BFA681A6048
:1013C000444B1B685A1C434B1A6000F0FBFB424B1A
:1013D0001B683A699A424DD33C4B1B681B68002B33
:1013E00001D1012300E00023002B04D03A4B4FF041
:1013F000FF321A603EE0354B1B68DB68DB68BB6080
:10140000BB685B687B603A697B689A4203D2324B67
:101410007A681A602EE0BB680433184601F0DAF8E7
:10142000BB689B6A002B04D0BB681833184601F0D8
:10143000D1F8BB68DB6A01229A40284B1B681A432B
:10144000264B1A60BB68DA6A13469B0013449B0064
:10145000234A1A44BB6804331046194601F05EF86B
:10146000BB68DA6A1F4B1B68DB6A9A4201D301230F
:101470007B61B1E71B4B1B68DA6A194913469B0075
:1014800013449B000B441B68012B01D901237B6192
:10149000154B1B68002B09D102F0D6FE06E0124B5B
:1014A0001B685A1C104B1A6002F0CEFE0F4B1B68D3
:1014B000002B01D001237B617B6918461837BD469C
:1014C00080BD00BF90010020700100202401002099
:1014D00028010020840100208C01002074010020DC
:1014E00098000020940000207C0100208001002052
:1014F00080B586B000AF374B1B68002B03D0364B4E
:1015000001221A6063E0344B00221A60334B1B68DF
:101510001A68324B1B681B6B9A4208D82F4B1A680B
:101520002E4B1B6834331046194602F087FE2B4BB6
:101530001B681B6B18462A49142204F0FDFB034666
:10154000002B08D0254B1A68244B1B6834331046F7
:10155000194602F073FE234B1B68FB60FB68B3FA6D
:1015600083F3FB72FB7AC3F11F037B611E497A6927
:1015700013469B0013449B000B441B68002B09D1AE
:101580004FF0500383F31188BFF36F8FBFF34F8F7A
:101590007B60FEE77A6913469B0013449B00124A66
:1015A00013443B613B695B685A683B695A603B691D
:1015B0005A683B6908339A4204D13B695B685A68B0
:1015C0003B695A603B695B68DA68044B1A601837FC
:1015D000BD4680BD900100208001002094000020C5
:1015E00010670008740100209800002080B584B0C6
:1015F00000AF786039607B68002B09D14FF0500351
:1016000083F31188BFF36F8FBFF34F8FBB60FEE78B
:10161000194B1B6818337868194600F0A3FF164B66
:101620001B680433184600F0D5FF0346002B0BD18E
:10163000114B1B68DB6A012202FA03F3DA430F4BFA
:101640001B681A400D4B1A603B68B3F1FF3F07D18E
:10165000094B1B6804330A48194600F05FFF07E096
:10166000084B1A683B681344FB60F86800F02CFADA
:101670001037BD4680BD00BF9400002074010020DB
:10168000580100207001002080B586B000AFF860DE
:10169000B9607A60FB68002B09D14FF0500383F3E7
:1016A0001188BFF36F8FBFF34F8F3B61FEE7194B7C
:1016B0001B681833F868194600F030FF154B1B689B
:1016C0000433184600F086FF0346002B0BD1114B64
:1016D0001B68DB6A012202FA03F3DA430E4B1B6834
:1016E0001A400D4B1A607B68012B07D1094B1B6810
:1016F00004330A48194600F011FF07E0084B1A6846
:10170000BB6813447B61786900F0DEF91837BD4689
:1017100080BD00BF9400002074010020580100200B
:101720007001002080B586B000AF78607B68DB6810
:10173000DB683B613B69002B09D14FF0500383F319
:101740001188BFF36F8FBFF34F8FFB60FEE73B69DC
:101750001833184600F03EFF1D4B1B68002B1CD1B0
:101760003B690433184600F035FF3B69DB6A012210
:101770009A40184B1B681A43164B1A603B69DA6A89
:1017800013469B0013449B00134A1A443B690433DD
:101790001046194600F0C2FE05E03B6918330F48B9
:1017A000194600F0BBFE3B69DA6A0D4B1B68DB6A29
:1017B0009A4205D901237B610A4B01221A6001E09C
:1017C00000237B617B6918461837BD4680BD00BF8A
:1017D0009001002074010020980000202C010020BE
:1017E000940000208001002080B485B000AF7860B4
:1017F0007B68002B09D14FF0500383F31188BFF3AE
:101800006F8FBFF34F8FFB60FEE7064B1A687B6854
:101810001A60054B1A687B685A601437BD465DF83C
:10182000047B7047840100207001002080B586B0E1
:1018300000AF786039607B68002B09D14FF050030E
:1018400083F31188BFF36F8FBFF34F8FFB60FEE709
:101850003B68002B09D14FF0500383F31188BFF38D
:101860006F8FBFF34F8FBB60FEE7FFF797F91C4BFD
:101870001B683B613B681B68B3F1FF3F02D100234B
:101880007B6126E07B681A68164B1B689A4207D07A
:101890007B685A683B699A4202D801237B6118E051
:1018A0007B685B683A69D21A3B681B689A420ED221
:1018B0003B681A687B6859683B69CB1A1A443B68D5
:1018C0001A607868FFF790FF00237B6101E0012335
:1018D0007B61FFF791F97B6918461837BD4680BDDB
:1018E000700100208401002080B400AF034B01226E
:1018F0001A60BD465DF8047B704700BF8001002080
:1019000080B582B000AF786000F0A4F8074B1B6888
:10191000012B07D9064B4FF080521A60BFF34F8F4F
:10192000BFF36F8F02F096FCEEE700BF9800002037
:1019300004ED00E080B586B000AFF860B9607A6071
:101940003B6000237B6112E0BA687B6913441A781C
:10195000F9687B690B4430331A71BA687B691344A8
:101960001B78002B00D105E07B6901337B617B692B
:10197000092BE9D9FB68002283F83D207B68042B02
:1019800001D904237B60FB687A68DA62FB687A68B5
:101990009A64FB680022DA64FB680433184600F09E
:1019A000B1FDFB681833184600F0ACFDFB68FA681F
:1019B0001A617B68C3F10502FB689A61FB68FA68EB
:1019C0005A62FB6800221A65FB68002283F85420E3
:1019D0001837BD4680BD00BF80B582B000AF002380
:1019E0007B600CE07A6813469B0013449B00114A0D
:1019F0001344184600F066FD7B6801337B607B680A
:101A0000042BEFD90C4800F05DFD0C4800F05AFDA6
:101A10000B4800F057FD0B4800F054FD0A4800F059
:101A200051FD0A4B044A1A60094B044A1A600837F0
:101A3000BD4680BD98000020FC0000201001002061
:101A40002C0100204001002058010020240100202A
:101A50002801002080B582B000AF28E0FFF7D0FB5E
:101A6000164B1B68002B14BF00230123DBB27B60E5
:101A7000FFF7D4FB7B68002B19D1FFF78FF80F4BD2
:101A8000DB68DB683B603B680433184600F0A2FD6E
:101A90000B4B1B685A1E0A4B1A600A4B1B685A1ED6
:101AA000084B1A60FFF7A8F8386800F07BF8054B80
:101AB0001B68002BD2D10837BD4680BD40010020F5
:101AC0006C0100205401002080B582B000AF786026
:101AD000134B1B687A685A60124B1B687A689A42EB
:101AE00009D2114B1A680E4B1B6804331046194675
:101AF00000F038FD10E00D4B1A68094B1B680433E9
:101B00001046194600F02EFD094B1B687A689A4270
:101B100002D2074B7A681A600837BD4680BD00BF05
:101B200094000020700100202801002024010020E2
:101B30008C01002080B584B000AF03463960FB8083
:101B40003B68002B06D1FB889B00184600F058FC30
:101B5000034600E03B68BB60BB68002B0ED05820FA
:101B600000F04EFCF860FB68002B03D0FB68BA68FD
:101B70001A6305E0B86800F08FFC01E00023FB6009
:101B8000FB68002B08D0FB681A6BFB889B00104693
:101B9000A5211A4604F0E8F8FB6818461037BD4640
:101BA00080BD00BF80B582B000AF78607B681B6BE2
:101BB000184600F071FC786800F06EFC0837BD46EE
:101BC00080BD00BF80B483B000AF0E4B1B681B68A4
:101BD000002B01D1012300E00023002B04D00A4B8D
:101BE0004FF0FF321A6008E0064B1B68DB68DB68C9
:101BF0007B607B685A68044B1A600C37BD465DF801
:101C0000047B7047240100208C01002080B483B045
:101C100000AF0B4B1B68002B02D101237B6008E057
:101C2000084B1B68002B02D102237B6001E00023DC
:101C30007B607B6818460C37BD465DF8047B7047B7
:101C4000780100209001002080B584B000AF78605A
:101C50007B68FB607B68002B62D0FB68DA6A324BE2
:101C60001B68DB6A9A425BD2FB689B69002B06DB30
:101C70002D4B1B68DB6AC3F10502FB689A61FB68A8
:101C80005969FB68DA6A13469B0013449B00274A94
:101C90001344994201D1012300E00023002B3AD0E4
:101CA000FB680433184600F095FC0346002B15D161
:101CB000FB68DA6A1D4913469B0013449B000B44E2
:101CC0001B68002B0AD1FB68DB6A012202FA03F3CE
:101CD000DA43174B1B681A40154B1A60124B1B68EE
:101CE000DA6AFB68DA62FB68DB6A01229A40104B11
:101CF0001B681A430E4B1A60FB68DA6A13469B0096
:101D000013449B00094A1A44FB68043310461946E1
:101D100000F004FC04E0044B1B68DA6AFB68DA623A
:101D20001037BD4680BD00BF940000209800002001
:101D30007401002080B586B000AF78607B683B619D
:101D400000237B617B68002B6CD0394B1B683A69A0
:101D50009A4209D04FF0500383F31188BFF36F8F7D
:101D6000BFF34F8FFB60FEE73B69DB6C002B09D1B3
:101D70004FF0500383F31188BFF36F8FBFF34F8F82
:101D8000BB60FEE73B69DB6C5A1E3B69DA643B696A
:101D9000DA6A3B699B6C9A4244D03B69DB6C002B4E
:101DA00040D13B690433184600F014FC0346002B75
:101DB00015D13B69DA6A1F4913469B0013449B0007
:101DC0000B441B68002B0AD13B69DB6A012202FA33
:101DD00003F3DA43184B1B681A40174B1A603B6930
:101DE0009A6C3B69DA623B69DB6AC3F105023B69C5
:101DF0009A613B69DB6A01229A400F4B1B681A43C8
:101E00000D4B1A603B69DA6A13469B0013449B0032
:101E1000084A1A443B6904331046194600F07EFB19
:101E200001237B617B6918461837BD4680BD00BF22
:101E300094000020980000207401002080B400AFBE
:101E4000074B1B68002B04D0054B1B68DA6C013272
:101E5000DA64034B1B681846BD465DF8047B704787
:101E60009400002080B586B004AF00237B6000F0B2
:101E700081FA134B1B68002B0FD002230093002321
:101E8000019300230293002303930E480E494FF45D
:101E900082720023FEF788FF78607B68002B09D1EF
:101EA0004FF0500383F31188BFF36F8FBFF34F8F51
:101EB0003B60FEE77B6818460837BD4680BD00BF23
:101EC000C4010020D91F00082467000880B588B02D
:101ED00000AFF860B9607A603B600023FB611D4B86
:101EE0001B68002B30D0BB683B617B687B61FB6863
:101EF000BB61BB68052B1CDCFFF788FE0346022B89
:101F00000BD1144B1A6807F1100310461946BA6A30
:101F1000002300F04BFCF86116E00E4B1A6807F145
:101F20001003104619460022002300F03FFCF86120
:101F30000AE0084B1A6807F11003104619463A6880
:101F4000002300F029FDF861FB6918462037BD46E3
:101F500080BD00BFC401002080B588B002AF7860AA
:101F600039601C4B1B68DB68DB687B617B69043371
:101F7000184600F02FFB7B69DB69012B22D17B69BE
:101F80009A697B681344786919463A687B6800F05F
:101F9000B9F80346012B15D100230093786900217D
:101FA0007A680023FFF792FF38613B69002B09D163
:101FB0004FF0500383F31188BFF36F8FBFF34F8F40
:101FC000FB60FEE77B695B6A786998471837BD4616
:101FD00080BD00BFBC01002080B584B000AF786038
:101FE00007F10803184600F049F8F860BB68F86884
:101FF000194600F003F800F0C7F8F1E780B584B0A7
:1020000000AF78603960FFF7FBF807F10803184666
:1020100000F058F8F860BB68002B25D13B68002B16
:102020000AD17A68FB689A4206D8FFF7F7F8786811
:10203000F968FFF791FF19E00E4B1A687968FB68A1
:10204000CB1A104619463A6800F06EFFFFF7E6F823
:102050000346002B0AD1084B4FF080521A60BFF3A1
:102060004F8FBFF36F8F01E0FFF7D8F81037BD46F1
:1020700080BD00BFC401002004ED00E080B485B045
:1020800000AF78600E4B1B681B68002B14BF002349
:102090000123DBB21A467B681A607B681B68002B41
:1020A00005D1074B1B68DB681B68FB6001E0002360
:1020B000FB60FB6818461437BD465DF8047B70472B
:1020C000BC01002080B584B000AF7860FFF73AF91A
:1020D000F8600B4B1B68FA689A4205D200F0EAF8E8
:1020E0007B6801221A6002E07B6800221A60044BC0
:1020F000FA681A60FB6818461037BD4680BD00BFFD
:10210000C801002080B586B000AFF860B9607A6081
:102110003B6000237B61FB68BA685A60FB68FA6821
:102120001A61BA687B689A4212D87A683B68D21AF8
:10213000FB689B699A4202D301237B611BE0104B31
:102140001A68FB6804331046194600F00BFA12E0D7
:102150007A683B689A4206D2BA683B689A4202D3D0
:1021600001237B6107E0074B1A68FB6804331046C4
:10217000194600F0F7F97B6918461837BD4680BD4F
:10218000C0010020BC01002080B58CB002AF7EE011
:10219000BB68002B7BDB3B697B627B6A5B69002B46
:1021A00004D07B6A0433184600F014FA3B1D18462D
:1021B000FFF788FF3862BB68092B67D801A252F885
:1021C00023F000BFED210008ED210008ED210008FB
:1021D0008D2200084D22000885220008ED2100080C
:1021E000ED2100088D2200084D220008FA687B6A64
:1021F0009B691A44FB68786A11463A6AFFF782FFC6
:102200000346012B21D17B6A5B6A786A98477B6A17
:10221000DB69012B19D1FA687B6A9B6913440022A0
:102220000092786A00211A460023FFF74FFEF861FA
:10223000FB69002B09D14FF0500383F31188BFF3E2
:102240006F8FBFF34F8FBB61FEE720E0FA687B6AB8
:102250009A617B6A9B69002B09D14FF0500383F38D
:102260001188BFF36F8FBFF34F8F7B61FEE77B6AEF
:102270009A693B6A1344786A19463A6A3B6AFFF7DF
:1022800041FF04E0786A00F007F900E000BF084B66
:102290001A6807F10803104619460022002300F0CF
:1022A00007FC0346002B7FF473AF2837BD4680BD83
:1022B000C401002080B588B002AF44E02B4B1B68FE
:1022C000DB681B687B61294B1B68DB68DB683B6153
:1022D0003B690433184600F07DF93B695B6A386955
:1022E00098473B69DB69012B2DD13B699A697B6972
:1022F0001344FB60FA687B699A420ED93B69FA681D
:102300005A603B693A691A61184B1A683B69043391
:102310001046194600F026F915E0002300933869AD
:1023200000217A690023FFF7D1FDB860BB68002B5C
:1023300009D14FF0500383F31188BFF36F8FBFF3C0
:102340004F8F3B60FEE7094B1B681B68002BB5D124
:10235000064B1B687B60064B1A68044B1A60044BE3
:102360007A681A601837BD4680BD00BFBC010020E6
:10237000C001002080B582B000AFFEF70FFC1A4B01
:102380001B68002B2BD1194800F09CF8184800F06E
:1023900099F8184B154A1A60174B154A1A600A200B
:1023A0000C21002200F0A8F902460F4B1A600E4BD8
:1023B0001B68002B09D14FF0500383F31188BFF342
:1023C0006F8FBFF34F8F7B60FEE7074B1B68002BBF
:1023D00005D0054B1B681846084900F07DFDFEF747
:1023E0000BFC0837BD4680BDC401002094010020CD
:1023F000A8010020BC010020C00100202C670008BB
:1024000080B584B000AF78600023FB607B6803F088
:102410000703002B04D07B6823F0070308337B609D
:10242000FEF7EEFE184B1B68002B05D1174B23F06F
:1024300007031A46144B1A60154B1A687B681A4436
:10244000144B9A4213D8124B1A687B681A44104BEB
:102450001B689A420BD90C4B1A680D4B1B6813442E
:10246000FB600B4B1A687B681A44094B1A60FEF735
:10247000D5FEFB68002B01D101F0DCFEFB6818469D
:102480001037BD4680BD00BFD02D0120D4010020F3
:10249000CC2D0120F72B010080B485B000AF78600F
:1024A0007B68002B09D04FF0500383F31188BFF3F2
:1024B0006F8FBFF34F8FFB60FEE71437BD465DF8AB
:1024C000047B704780B483B000AF78607B6803F111
:1024D00008027B685A607B684FF0FF329A607B6825
:1024E00003F108027B68DA607B6803F108027B680D
:1024F0001A617B6800221A600C37BD465DF8047BC8
:10250000704700BF80B483B000AF78607B68002262
:102510001A610C37BD465DF8047B704780B485B006
:1025200000AF786039607B685B68FB603B68FA6885
:102530005A60FB689A683B689A60FB689B683A68D7
:102540005A60FB683A689A603B687A681A617B68EF
:102550001B685A1C7B681A601437BD465DF8047B03
:10256000704700BF80B485B000AF786039603B68C9
:102570001B68BB60BB68B3F1FF3F03D17B681B697D
:10258000FB600CE07B680833FB6002E0FB685B6883
:10259000FB60FB685B681A68BB689A42F6D9FB6807
:1025A0005A683B685A603B685B683A689A603B6867
:1025B000FA689A60FB683A685A603B687A681A6100
:1025C0007B681B685A1C7B681A601437BD465DF82F
:1025D000047B704780B485B000AF78607B681B696E
:1025E000FB607B685B687A6892689A607B689B682E
:1025F0007A6852685A60FB685A687B689A4203D1CD
:102600007B689A68FB685A607B6800221A61FB68E5
:102610001B685A1EFB681A60FB681B681846143753
:10262000BD465DF8047B704780B584B000AF78602C
:1026300039607B68FB60FB68002B09D14FF05003C9
:1026400083F31188BFF36F8FBFF34F8FBB60FEE73B
:10265000FEF7A4FAFB681A68FB68DB6BF968096C83
:1026600001FB03F31A44FB685A60FB6800229A637B
:10267000FB681A68FB689A60FB681A68FB68DB6B8A
:10268000013BF968096C01FB03F31A44FB68DA604B
:10269000FB684FF0FF325A64FB684FF0FF329A64D8
:1026A0003B68002B14D1FB681B69002B1AD0FB6818
:1026B00010331846FFF736F80346012B12D10D4BA5
:1026C0004FF080521A60BFF34F8FBFF36F8F09E056
:1026D000FB6810331846FFF7F5FEFB6824331846F5
:1026E000FFF7F0FEFEF788FA012318461037BD46C3
:1026F00080BD00BF04ED00E080B58AB000AFF86097
:10270000B9601346FB7100233B62FB68002B09D1C3
:102710004FF0500383F31188BFF36F8FBFF34F8FD8
:10272000BB61FEE7BB68002B02D100237B6205E0A2
:10273000FB68BA6802FB03F301337B627B6A5433A4
:102740001846FFF75DFEF861FB69002B1BD0BB68E4
:10275000002B03D1FB69FA691A6004E0FB6903F1FD
:102760005402FB691A60FB69FA68DA63FB69BA68AC
:102770001A64F8690121FFF757FFFB69FA7983F8BA
:102780005020FB693B623B6A002B09D14FF050039C
:1027900083F31188BFF36F8FBFF34F8F7B61FEE729
:1027A0003B6A18462837BD4680BD00BF80B58EB055
:1027B00000AFF860B9607A603B6000237B63FB6820
:1027C0003B633B6B002B09D14FF0500383F311881F
:1027D000BFF36F8FBFF34F8FBB62FEE7BB68002B69
:1027E00003D13B6B1B6C002B01D1012300E00023C4
:1027F000002B09D14FF0500383F31188BFF36F8F83
:10280000BFF34F8F7B62FEE73B68022B03D13B6B2C
:10281000DB6B012B01D1012300E00023002B09D148
:102820004FF0500383F31188BFF36F8FBFF34F8FC7
:102830003B62FEE7FFF7EAF90346002B02D17B6813
:10284000002B01D1012300E00023002B09D14FF020
:10285000500383F31188BFF36F8FBFF34F8FFB617A
:10286000FEE7FEF79BF93B6B9A6B3B6BDB6B9A4287
:1028700002D33B68022B29D1386BB9683A6800F063
:102880001DFAF8623B6B5B6A002B10D03B6B243364
:102890001846FEF747FF0346012B13D13D4B4FF07F
:1028A00080521A60BFF34F8FBFF36F8F0AE0FB6A4D
:1028B000002B07D0374B4FF080521A60BFF34F8F79
:1028C000BFF36F8FFEF798F901235FE07B68002B61
:1028D00003D1FEF791F9002358E07B6B002B06D162
:1028E00007F114031846FEF77FFF01237B63FEF711
:1028F00083F9FEF785FCFEF751F93B6B5B6CB3F196
:10290000FF3F02D13B6B00225A643B6B9B6CB3F1DF
:10291000FF3F02D13B6B00229A64FEF76DF907F18D
:1029200014023B1D10461946FEF780FF0346002B9C
:1029300024D1386B00F0B8FA0346002B18D03B6B5B
:1029400003F110027B6810461946FEF74FFE386B04
:1029500000F048FAFEF762FC0346002B15D10D4B40
:102960004FF080521A60BFF34F8FBFF36F8F0CE0B0
:10297000386B00F037FAFEF751FC72E7386B00F065
:1029800031FAFEF74BFC002300E06AE718463837BF
:10299000BD4680BD04ED00E080B58EB000AFF860AC
:1029A000B9607A603B60FB683B633B6B002B09D1ED
:1029B0004FF0500383F31188BFF36F8FBFF34F8F36
:1029C000BB62FEE7BB68002B03D13B6B1B6C002B8B
:1029D00001D1012300E00023002B09D14FF0500367
:1029E00083F31188BFF36F8FBFF34F8F7B62FEE7D6
:1029F0003B68022B03D13B6BDB6B012B01D1012325
:102A000000E00023002B09D14FF0500383F311881D
:102A1000BFF36F8FBFF34F8F3B62FEE7FEF788F97E
:102A2000EFF311824FF0500383F31188BFF36F8FE0
:102A3000BFF34F8FFA61BB61FB69FB623B6B9A6B23
:102A40003B6BDB6B9A4202D33B68022B24D1386B81
:102A5000B9683A6800F032F93B6B9B6CB3F1FF3F09
:102A600012D13B6B5B6A002B13D03B6B24331846AF
:102A7000FEF758FE0346002B0BD07B68002B08D0D6
:102A80007B6801221A6004E03B6B9B6C5A1C3B6B19
:102A90009A6401237B6301E000237B63FB6A7B6113
:102AA0007B6983F311887B6B18463837BD4680BD40
:102AB00080B58CB000AFF860B9607A603B600023ED
:102AC000FB62FB68BB62BB6A002B09D14FF050036D
:102AD00083F31188BFF36F8FBFF34F8F3B62FEE725
:102AE000BB68002B03D1BB6A1B6C002B01D10123F7
:102AF00000E00023002B09D14FF0500383F311882D
:102B0000BFF36F8FBFF34F8FFB61FEE7FFF77EF8D8
:102B10000346002B02D17B68002B01D1012300E08A
:102B20000023002B09D14FF0500383F31188BFF32A
:102B30006F8FBFF34F8FBB61FEE7FEF72FF8BB6AC5
:102B40009B6B002B47D0BB6ADB687B62B86AB968B5
:102B500000F022F93B68002B22D1BB6A9B6B5A1E06
:102B6000BB6A9A63BB6A1B68002B04D1FFF766F946
:102B70000246BB6A5A60BB6A1B69002B27D0BB6A3E
:102B800010331846FEF7CEFD0346012B1FD14A4BEA
:102B90004FF080521A60BFF34F8FBFF36F8F16E074
:102BA000BB6A7A6ADA60BB6A5B6A002B0FD0BB6AC9
:102BB00024331846FEF7B6FD0346002B07D03E4BE4
:102BC0004FF080521A60BFF34F8FBFF36F8FFEF745
:102BD00013F801236CE07B68002B03D1FEF70CF89F
:102BE000002365E0FB6A002B06D107F110031846AD
:102BF000FEF7FAFD0123FB62FDF7FEFFFEF700FB87
:102C0000FDF7CCFFBB6A5B6CB3F1FF3F02D1BB6A3F
:102C100000225A64BB6A9B6CB3F1FF3F02D1BB6ACE
:102C200000229A64FDF7E8FF07F110023B1D1046F1
:102C30001946FEF7FBFD0346002B31D1B86A00F0C0
:102C40001DF90346002B25D0BB6A1B68002B08D159
:102C5000FDF7A4FFBB6A5B681846FEF7F5FFFDF7BA
:102C6000CBFFBB6A03F124027B6810461946FEF7CE
:102C7000BDFCB86A00F0B6F8FEF7D0FA0346002BA8
:102C800015D10D4B4FF080521A60BFF34F8FBFF339
:102C90006F8F0CE0B86A00F0A5F8FEF7BFFA4CE7BA
:102CA000B86A00F09FF8FEF7B9FA002300E044E7A5
:102CB00018463037BD4680BD04ED00E080B586B0D3
:102CC00000AFF860B9607A6000237B61FB681B6C21
:102CD000002B0DD1FB681B68002B52D1FB685B6891
:102CE0001846FFF727F87861FB6800225A6048E031
:102CF0007B68002B1AD1FB689A68FB681B6C104636
:102D0000B9681A4603F027F8FB689A68FB681B6CE1
:102D10001A44FB689A60FB689A68FB685B689A4291
:102D20002FD3FB681A68FB689A602AE0FB68DA68B0
:102D3000FB681B6C1046B9681A4603F00CF8FB6878
:102D4000DA68FB681B6C5B421A44FB68DA60FB685C
:102D5000DA68FB681B689A4207D2FB685A68FB680E
:102D60001B6C5B421A44FB68DA607B68022B08D15B
:102D7000FB689B6B002B04D0FB689B6B5A1EFB68A7
:102D80009A63FB689B6B5A1CFB689A637B691846C5
:102D90001837BD4680BD00BF80B582B000AF7860F7
:102DA00039607B681B6C002B19D07B68DA687B6804
:102DB0001B6C1A447B68DA607B68DA687B685B6846
:102DC0009A4203D37B681A687B68DA607B68DA68AA
:102DD0007B681B6C386811461A4602F0BCFF083746
:102DE000BD4680BD80B582B000AF7860FDF7D6FEED
:102DF00014E07B685B6A002B0AD07B68243318469A
:102E0000FEF790FC0346002B03D0FEF76DFD00E0BB
:102E100008E07B689B6C5A1E7B689A647B689B6C9D
:102E2000002BE6DC7B684FF0FF329A64FDF7E4FE8E
:102E3000FDF7B4FE14E07B681B69002B0FD07B68A4
:102E400010331846FEF76EFC0346002B01D0FEF748
:102E50004BFD7B685B6C5A1E7B685A6400E003E0A4
:102E60007B685B6C002BE6DC7B684FF0FF325A64BA
:102E7000FDF7C2FE0837BD4680BD00BF80B584B0F7
:102E800000AF7860FDF78AFE7B689B6B002B02D158
:102E90000123FB6001E00023FB60FDF7ADFEFB6852
:102EA00018461037BD4680BD80B584B000AF78604D
:102EB000FDF774FE7B689A6B7B68DB6B9A4202D1EC
:102EC0000123FB6001E00023FB60FDF795FEFB683A
:102ED00018461037BD4680BD80B485B000AF78601D
:102EE00039600023FB6014E00E4BFA6853F832306F
:102EF000002B0BD10B4BFA68396843F83210094AA2
:102F0000FB68DB0013447A685A6005E0FB68013314
:102F1000FB60FB68072BE7D91437BD465DF8047BDF
:102F2000704700BF782E012080B586B000AFF860F2
:102F3000B9607A60FB687B61FDF730FE7B695B6C92
:102F4000B3F1FF3F02D17B6900225A647B699B6C1D
:102F5000B3F1FF3F02D17B6900229A64FDF74CFE7A
:102F60007B699B6B002B06D17B6924331846B968BB
:102F70007A68FEF789FB7869FFF734FF1837BD469A
:102F800080BD00BF80B489B000AF78603960002395
:102F90007B6100233B610023BB610023FB616FE188
:102FA000FB69012202FA03F37B613B681A687B69C3
:102FB00013403B613A697B699A4240F05E813B680D
:102FC0005B68022B03D03B685B68122B23D1FB6943
:102FD000DA087B68083253F82230BB61FB6903F0E2
:102FE00007039B000F2202FA03F3DB43BA69134085
:102FF000BB613B681A69FB6903F007039B0002FA97
:1030000003F3BA691343BB61FB69DA087B680832D2
:10301000B96943F822107B681B68BB61FB695B00E0
:10302000032202FA03F3DB43BA691340BB613B6836
:103030005B6803F00302FB695B0002FA03F3BA6901
:103040001343BB617B68BA691A603B685B68012BFC
:103050000BD03B685B68022B07D03B685B68112B89
:1030600003D03B685B68122B30D17B689B68BB61E7
:10307000FB695B00032202FA03F3DB43BA691340E6
:10308000BB613B68DA68FB695B0002FA03F3BA696B
:103090001343BB617B68BA699A607B685B68BB61FC
:1030A000FB69012202FA03F3DB43BA691340BB61F7
:1030B0003B685B6803F010031A09FB6902FA03F32B
:1030C000BA691343BB617B68BA695A607B68DB6885
:1030D000BB61FB695B00032202FA03F3DB43BA69BD
:1030E0001340BB613B689A68FB695B0002FA03F31B
:1030F000BA691343BB617B68BA69DA603B685B6895
:1031000003F08053002B00F0B880624B614A526C90
:1031100042F480425A645F4B5B6C03F48043FB6073
:10312000FB685D4BFA699208023253F82230BB61AA
:10313000FB6903F003039B000F2202FA03F3DB4356
:10314000BA691340BB617A68544B9A4231D07A68AD
:10315000534B9A422BD07A68524B9A4225D07A68C8
:10316000514B9A421FD07A68504B9A4219D07A68D4
:103170004F4B9A4213D07A684E4B9A420DD07A68E0
:103180004D4B9A4207D07A684C4B9A4201D10823A2
:1031900010E009230EE007230CE006230AE00523D4
:1031A00008E0042306E0032304E0022302E00123F5
:1031B00000E00023FA6902F0030292009340BA692A
:1031C0001343BB61344BFA6992080232B96943F880
:1031D00022103B4B1B68BB613B69DB43BA69134060
:1031E000BB613B685B6803F48033002B03D0BA6992
:1031F0003B691343BB61324BBA691A60304B5B6861
:10320000BB613B69DB43BA691340BB613B685B68E8
:1032100003F40033002B03D0BA693B691343BB614D
:10322000274BBA695A60264B9B68BB613B69DB43FD
:10323000BA691340BB613B685B6803F48013002BE1
:1032400003D0BA693B691343BB611D4BBA699A60ED
:103250001B4BDB68BB613B69DB43BA691340BB6155
:103260003B685B6803F40013002B03D0BA693B6929
:103270001343BB61124BBA69DA60FB690133FB612E
:10328000FB690F2B7FF68CAE2437BD465DF8047BBF
:10329000704700BF00380240003801400000024083
:1032A0000004024000080240000C024000100240EE
:1032B0000014024000180240001C0240002002409E
:1032C000003C014080B483B000AF786013460A46EA
:1032D0007A807B707B78002B03D07A887B689A6138
:1032E00003E07B881A047B689A610C37BD465DF861
:1032F000047B704780B58EB000AF786000237B639D
:103300007B681B6803F00103002B6AD0A24B9B680B
:1033100003F00C03042B0BD09F4B9B6803F00C03B2
:10332000082B12D19C4B5B6803F48003002B0CD05C
:10333000994B1B6803F40033002B05D07B685B6856
:10334000002B01D101230FE24BE0944B00221A70B5
:1033500000F014FD78630AE000F010FD02467B6B7C
:10336000D21A41F288339A4201D90323FCE18A4BF5
:103370001B6803F40033002BEED1884B7A68526847
:10338000D2B21A707B685B68002B15D000F0F6FC97
:1033900078630AE000F0F2FC02467B6BD21A41F23D
:1033A00088339A4201D90323DEE17B4B1B6803F487
:1033B0000033002BEED014E000F0E0FC78630AE06C
:1033C00000F0DCFC02467B6BD21A41F288339A4251
:1033D00001D90323C8E1704B1B6803F40033002BB1
:1033E000EED17B681B6803F00203002B77D06A4B99
:1033F0009B6803F00C03002B0BD0674B9B6803F01A
:103400000C03082B26D1644B5B6803F48003002B6C
:1034100020D1614B1B6803F00203002B05D07B68B1
:10342000DB68012B01D001239EE15B4B5A4A1268F5
:1034300022F0F8017A681069F8223A633A6B92FA3E
:10344000A2F2FA62FA6AB2FA82F200FA02F20A43CD
:103450001A6044E07B68DB68002B2AD0504B0122C5
:103460001A6000F08BFC786308E000F087FC0246ED
:103470007B6BD31A642B01D9032375E1464B1B6880
:1034800003F00203002BF0D0434B434A126822F0B2
:10349000F8017A681069F822BA62BA6A92FAA2F25E
:1034A0007A627A6AB2FA82F200FA02F20A431A6087
:1034B00015E03B4B00221A6000F060FC786308E0E6
:1034C00000F05CFC02467B6BD31A642B01D903230A
:1034D0004AE1314B1B6803F00203002BF0D17B68FB
:1034E0001B6803F00803002B30D07B685B69002B5E
:1034F00016D02C4B01221A6000F040FC786308E0E3
:1035000000F03CFC02467B6BD31A642B01D90323E9
:103510002AE1214B5B6F03F00203002BF0D015E092
:10352000204B00221A6000F029FC786308E000F0CC
:1035300025FC02467B6BD31A642B01D9032313E1CC
:10354000154B5B6F03F00203002BF0D17B681B6807
:1035500003F00403002B7BD00F4B0F4A126C42F098
:1035600080521A640C4B1B6C03F08053BB60BB6829
:103570000D4B0D4A126842F480721A6000F0FEFB97
:10358000786313E000F0FAFB02467B6BD31A642BDE
:103590000CD90323E8E000BF0038024002380240A3
:1035A00000004742800E474200700040704B1B688D
:1035B00003F48073002BE5D06E4B00221A7000F0EC
:1035C000DDFB78630AE000F0D9FB02467B6BD21A80
:1035D00041F288339A4201D90323C5E0664B1B6F41
:1035E00003F00203002BEED1624B7A689268D2B2EC
:1035F0001A707B689B68002B15D000F0BFFB7863C6
:103600000AE000F0BBFB02467B6BD21A41F2883322
:103610009A4201D90323A7E0574B1B6F03F0020323
:10362000002BEED014E000F0A9FB78630AE000F074
:10363000A5FB02467B6BD21A41F288339A4201D92C
:10364000032391E04C4B1B6F03F00203002BEED1E0
:103650007B689B69002B00F08680474B9B6803F0DA
:103660000C03082B7DD07B689B69022B62D1434BF6
:1036700000221A6000F082FB786308E000F07EFB15
:1036800002467B6BD31A642B01D903236CE03A4BBF
:103690001B6803F00073002BF0D1374B7A68D169B7
:1036A0007A68126A11437A68506A47F6C0723A62C1
:1036B0003A6A92FAA2F2FA61FA69B2FA82F200FA6E
:1036C00002F211437A68926A5208501E4FF4403257
:1036D000BA61BA6992FAA2F27A617A69B2FA82F2AE
:1036E00000FA02F211437A68D06A4FF070623A61D0
:1036F0003A6992FAA2F2FA60FA68B2FA82F200FA31
:1037000002F20A435A601D4B01221A6000F036FB98
:10371000786308E000F032FB02467B6BD31A642B1F
:1037200001D9032320E0144B1B6803F00073002B26
:10373000F0D018E0114B00221A6000F01FFB7863F4
:1037400008E000F01BFB02467B6BD31A642B01D907
:10375000032309E0084B1B6803F00073002BF0D132
:1037600001E0012300E0002318463837BD4680BD44
:10377000007000407038024000380240600047424C
:1037800080B584B000AF786039600023FB60A24B45
:103790001B6803F00F023B689A4280F0A8809E4BA2
:1037A0003A68D2B21A709C4B1B6803F00F023B6858
:1037B0009A4201D0012369E17B681B6803F0020390
:1037C000002B08D0954B954A926822F0F0017A6858
:1037D00092680A439A607B681B6803F00103002B20
:1037E00000F031817B685B68012B07D18B4B1B6834
:1037F00003F40033002B1AD1012347E17B685B6897
:10380000022B03D07B685B68032B08D1834B1B68BA
:1038100003F00073002B01D1012337E107E07F4B58
:103820001B6803F00203002B01D101232EE17B4B27
:103830007A4A926822F003017A6852680A439A60D1
:1038400000F09CFAF8607B685B68012B12D10AE0FB
:1038500000F094FA0246FB68D21A41F288339A4289
:1038600001D9032312E16D4B9B6803F00C03042B79
:10387000EED1E8E07B685B68022B12D10AE000F031
:103880007DFA0246FB68D21A41F288339A4201D986
:103890000323FBE0614B9B6803F00C03082BEED184
:1038A000D1E07B685B68032B0ED101E00323EDE0E0
:1038B0005A4B9B6800F062FA0246FB68D21A41F24A
:1038C00088339A42F4D9F1E70AE000F057FA024649
:1038D000FB68D21A41F288339A4201D90323D5E01A
:1038E0004E4B9B6803F00C03002BEED1ABE07B68E2
:1038F0001B6803F00203002B08D0484B474A92682C
:1039000022F0F0017A6892680A439A607B681B682B
:1039100003F00103002B00F089807B685B68012BBA
:1039200007D13E4B1B6803F40033002B1AD101234F
:10393000ACE07B685B68022B03D07B685B68032B81
:1039400008D1364B1B6803F00073002B01D1012313
:103950009CE007E0314B1B6803F00203002B01D110
:10396000012393E02D4B2D4A926822F003017A68DF
:1039700052680A439A6000F001FAF8607B685B685D
:10398000012B12D10AE000F0F9F90246FB68D21AC5
:1039900041F288339A4201D9032377E01F4B9B6899
:1039A00003F00C03042BEED140E07B685B68022B34
:1039B00012D10AE000F0E2F90246FB68D21A41F2A5
:1039C00088339A4201D9032360E0144B9B6803F0CB
:1039D0000C03082BEED129E07B685B68032B0ED12A
:1039E00001E0032352E00D4B9B6800F0C7F902464B
:1039F000FB68D21A41F288339A42F4D9F1E70FE01A
:103A000000F0BCF90246FB68D21A41F288339A42B0
:103A100006D903233AE000BF003C024000380240D0
:103A20001C4B9B6803F00C03002BE9D11A4B3A683E
:103A3000D2B21A70184B1B6803F00F023B689A420F
:103A400001D0012322E07B681B6803F00403002BF4
:103A500008D0104B0F4A926822F4E0517A68D2687D
:103A60000A439A607B681B6803F00803002B09D0A7
:103A7000084B084A926822F460417A681269D200C1
:103A80000A439A600F2000F05DF9002318461037B2
:103A9000BD4680BD00380240003C024080B48BB07F
:103AA00000AF0023FB6100237B620023BB61002386
:103AB0003B62364B9B6803F00C03042B06D0082BAB
:103AC00007D0002B58D1324B3B6258E0314B3B6260
:103AD00055E02E4B5B6803F03F03FB612B4B5B68AB
:103AE00003F48003002B17D02A4AFB69B2FBF3F2E0
:103AF000264B596847F6C0730B4047F6C071796191
:103B0000796991FAA1F139613969B1FA81F1CB4052
:103B100003FB02F37B6216E01D4AFB69B2FBF3F282
:103B20001A4B596847F6C0730B4047F6C071F960ED
:103B3000F96891FAA1F1B960B968B1FA81F1CB40A5
:103B400003FB02F37B62114B5B6803F440324FF4DA
:103B500040337B607B6893FAA3F33B603B68B3FA26
:103B600083F322FA03F301335B00BB617A6ABB691A
:103B7000B2FBF3F33B6202E0054B3B6200BF3B6AE2
:103B800018462C37BD465DF8047B7047003802406C
:103B90000024F40000127A0080B582B000AFFFF775
:103BA0007DFF02460C4B9B6803F0F001F0237B6025
:103BB0007B6893FAA3F33B603B68B3FA83F321FA83
:103BC00003F30649CB5CDA40054B1A60044B1B68D3
:103BD00018460837BD4680BD0038024034670008EB
:103BE0000800002080B400AF164B164AD2F8882097
:103BF00042F47002C3F88820134B134A126842F053
:103C000001021A60104B00229A600F4A0E4B1B688B
:103C100023F0847323F4803313600B4B0B4A5A60F8
:103C2000094B094A126822F480221A60064B0022CE
:103C3000DA60044B4FF000629A60BD465DF8047B89
:103C4000704700BF00ED00E0003802401030002453
:103C500080B487B000AF00233B6100237B61022367
:103C6000FB600023BB6002237B60314B9B6803F049
:103C70000C033B613B69042B07D0082B09D0002BB8
:103C80003FD12C4B2C4A1A603FE02A4B2B4A1A603A
:103C90003BE0274B5B6803F480039B0DBB60244B28
:103CA0005B6803F03F037B60BB68002B0DD0234AA9
:103CB0007B68B2FBF3F21E4B596847F6C0730B40AA
:103CC0009B0903FB02F37B610CE01B4A7B68B2FBA0
:103CD000F3F2174B596847F6C0730B409B0903FB7F
:103CE00002F37B61124B5B6803F440331B0C01331E
:103CF0005B00FB607A69FB68B2FBF3F20D4B1A6064
:103D000003E00C4B0C4A1A6000BF094B9B6803F0A0
:103D1000F0031B090A4AD35C3B61064B1A683B69F6
:103D2000DA40044B1A601C37BD465DF8047B7047CF
:103D300000380240080000200024F40000127A003D
:103D40004467000880B582B000AF7860FFF724FFB9
:103D50000246094BA3FB02139B09184600F0C2F868
:103D60004FF0FF307968002200F0A0F800231846D9
:103D70000837BD4680BD00BFD34D621080B400AF90
:103D8000034B1B681846BD465DF8047B704700BFB7
:103D9000D42D012080B400AF044BDB6803F4E06352
:103DA0001B0A1846BD465DF8047B704700ED00E035
:103DB00080B483B000AF03463960FB7197F90730D8
:103DC000002B0BDA0D49FB7903F00F03043B3A6833
:103DD000D2B21201D2B20B441A7609E0084997F91F
:103DE00007303A68D2B21201D2B20B4483F80023F2
:103DF0000C37BD465DF8047B704700BF00ED00E066
:103E000000E100E080B489B000AFF860B9607A608A
:103E1000FB6803F00703FB61FB69C3F10703042B95
:103E200028BF0423BB61FB690433062B02D9FB695D
:103E3000033B00E000237B61BB69012202FA03F32C
:103E40005A1EBB681A407B699A407B69012101FABE
:103E500003F3591E7B680B40134318462437BD46B5
:103E60005DF8047B704700BF80B582B000AF78601A
:103E70007B68013BB3F1807F01D301230FE00A4B44
:103E80007A68013A5A604FF0FF300F21FFF790FF38
:103E9000054B00229A60044B07221A600023184643
:103EA0000837BD4680BD00BF10E000E080B586B099
:103EB00000AF0346B9607A60FB7300237B61FFF7B4
:103EC00069FF78617869B9687A68FFF79BFF0346F4
:103ED00097F90F2010461946FFF76AFF1837BD46BD
:103EE00080BD00BF80B582B000AF78607868FFF712
:103EF000BBFF034618460837BD4680BD80B500AFFE
:103F0000024800F0BBF800F013F800BF5467000847
:103F100080B500AF024800F0B1F800F009F800BF2A
:103F20007067000880B483B000AF7860FEE700BF20
:103F300080B500AF024800F0A1F80120FFF7F2FFC2
:103F40008467000880B584B000AF7860144B1B68AC
:103F5000002B02D1124B134A1A60114B1B68FB60F5
:103F60007B68033323F003037B600D4B1A687B6887
:103F70001A440D4B9A4207D901F0C8FE03460C22A1
:103F80001A604FF0FF3306E0054B1A687B681A444D
:103F9000034B1A60FB6818461037BD4680BD00BF52
:103FA000D82D0120C02E012000FC012080B483B058
:103FB00000AF786039607B6801221A603B68044A70
:103FC0001A6000BF0C37BD465DF8047B704700BF28
:103FD0000C00002080B586B002AFF860B9607A604E
:103FE0003B607B68002B01D0094A00E0094A7B68EE
:103FF000002B01D07B6800E0064B0092019306483D
:104000003968FA68BB6800F017F8FFF791FF00BF46
:1040100098670008A8670008AC67000880B582B000
:1040200000AF78603960034879683A6800F004F8B6
:10403000FFF77EFFDC6700080FB480B582B000AFE9
:1040400007F114033B600C4880213A693B6801F09A
:1040500077FF78607B68002B05DD7B680648194692
:1040600000F024F878607B6818460837BD46BDE844
:10407000804004B0704700BFE02D012080B582B0C1
:1040800000AF7860786801F029FF03467868194628
:1040900000F00CF80448012100F008F80346184627
:1040A0000837BD4680BD00BF0868000880B582B0F3
:1040B00000AF786039607868396800F005F8034629
:1040C00018460837BD4680BDB0B590B000AF7860E7
:1040D00039607A683B6813441B78002B0BD10423AA
:1040E0003B637B68FB623C6BFD6A20462946ABBEA6
:1040F0000446BC6234E03B68FB632EE0FB6B102B94
:1041000028BF10237B630023BB630CE07B681A7815
:1041100007F10C01BB6B0B441A70BB6B0133BB6323
:104120007B6801337B60BA6B7B6B9A42EED307F1FD
:104130000C02BB6B134400221A7004237B6207F14C
:104140000C033B627C6A3D6A20462946ABBE0446AE
:10415000FC61FA6B7B6BD31AFB63FB6B002BCDD13D
:104160003B6818464037BD46B0BD00BF80B500AFC4
:10417000FFF738FD044B044AD2F8882042F470025D
:10418000C3F8882080BD00BF00ED00E080B500AF1F
:1041900000F004F8FFF75CFD80BD00BF80B594B06F
:1041A00000AF224B214A126C42F080521A641F4B1E
:1041B0001B6C03F08053BB60BB681D4B1C4A12682C
:1041C00042F480421A601A4B1B6803F480437B6000
:1041D0007B680123FB6001233B6102237B624FF478
:1041E0008003BB620823FB624FF4A8733B63022386
:1041F0007B630723BB6307F10C031846FFF77AF8CC
:104200000F23FB6302233B6400237B644FF4A05322
:10421000BB644FF48053FB6407F13C03184605214F
:10422000FFF7AEFA5037BD4680BD00BF00380240F0
:104230000070004080B400AFFEE700BF80B483B0E0
:1042400000AF78603960FEE780B400AFBD465DF82E
:10425000047B704780B400AFBD465DF8047B7047B7
:1042600080B584B000AFF860B9607A603B603448D4
:10427000FFF7E2FEFB681B6832481946FFF7DCFED9
:10428000FB685B6830481946FFF7D6FEFB689B6801
:104290002E481946FFF7D0FEFB68DB682C4819460C
:1042A000FFF7CAFEFB681B692A481946FFF7C4FEE0
:1042B000FB685B6928481946FFF7BEFEFB689B69EF
:1042C00026481946FFF7B8FEFB68DB692448194603
:1042D000FFF7B2FE2348FFF7AFFE2348B968FFF7A8
:1042E000ABFE224BDB6A22481946FFF7A5FE1F4BA7
:1042F0001B6B20481946FFF79FFE1C4BDB6B1E48CB
:104300001946FFF799FEBB6803F08003002B03D02A
:104310001A487968FFF790FEBB6803F40043002B4E
:1043200003D017483968FFF787FE1648FFF784FE69
:104330001548B969FFF780FE1037BD4680BD00BF44
:10434000386800084868000858680008686800086D
:10435000786800088868000898680008A86800085D
:10436000B8680008C8680008D468000800ED00E0DC
:10437000E4680008F468000804690008146900088B
:1043800024690008346900083C69000880B485B0DD
:1043900000AF78600B467B807B689B69FB60FB68A5
:1043A0001B887A889A4213D17B681B68BB60BB6804
:1043B000032B03D0042B03D000230AE000BF00E04E
:1043C00000BF7B689B699A1C7B689A61012300E0AF
:1043D000002318461437BD465DF8047B704700BFC4
:1043E00008B101F0A1BC704730B500231A4610F89F
:1043F000014B04F07F059540240643EA050302F1D2
:104400000702F4D40B6030BD30B500231A4610F813
:10441000014B04F07F0595402B43250602F107026E
:10442000F5D41F2A06D8640604D54FF0FF3404FAE9
:1044300002F213430B6030BD50282DE9F74381464B
:10444000884616461F4605D1D01C20F0030050F8C0
:10445000044B34E000F00F030C2B23D8DFE803F00B
:104460001A07121A1E222222220C161A1E00304689
:1044700001A9FFF7B9FF03E0304601A9FFF7C4FF28
:10448000019C11E0304630F8024B0DE0304630F927
:10449000024B09E0304650F8044B05E0346806F161
:1044A000080001E0FFF744FD4CB109F07003102B48
:1044B00018BF4646344419F0800F18BF24683C608A
:1044C00003B0BDE8F08308B50346FF2B08461CD0B7
:1044D00003F07003202B0ED003D8B3B1102B12D1F0
:1044E00013E0402B0BD0502B0FD0302B0BD1BDE85D
:1044F000084001F003BCBDE8084001F003BCBDE882
:10450000084001F0EBBBFFF713FD002008BD2DE9CB
:10451000F04107460C460846394616461D46FFF749
:10452000D2FF324601462B462046BDE8F041FFF758
:1045300083BF73B50D461446064610B101F0CEFB9D
:10454000FFE720602978FF2905F1010205D03046F8
:10455000231DFFF7DCFF024600E06060137823753F
:10456000FF2B02F1010007D01023237501A9FFF7EB
:104570003BFF019B034400E00023E3600378637585
:1045800001A90130FFF730FF019B0344236102B012
:1045900070BD1FB50A4603AB002100930B4600F027
:1045A00015FE039805B05DF804FB00002DE9F04FFF
:1045B00091B00023049300F00303012B06460C4640
:1045C000154603D028D3022B1DD0DBE0030725D4EA
:1045D0000F6A10460D21FFF7DCFF87421ED106232C
:1045E0001DE0079A13449F424ED2089B002B6ED0C9
:1045F0000B9A03EB0208099810B10E9B013818447E
:10460000B8F1000F69D12046294601F051FB08B1ED
:10461000092069E1082067E1012300E0022306F098
:10462000080943EA090910AB002143F82C4D28463C
:1046300000930C220B4600F0F1FDB9F1060F0AD1F0
:10464000D4F83080A66AD4F82CA0B8F1000F0CBFC3
:1046500001270327D3E0284601F046FB82460028C5
:10466000D1D00AAA51462846FFF763FF29460646DD
:104670009DF83C00FFF727FF0F210C902846FFF71D
:1046800088FF20F00100471E0E9B9E4221D2324639
:104690009DF83D1006AB0020FFF739FF9DF83D1057
:1046A000024607AB0020FFF732FF08AB02469DF839
:1046B0003D100020FFF72BFF09A9FFF795FE0A9B8D
:1046C000069A13449F4206468BD20E9EDCE798461C
:1046D00091E74FF00008012704E1002800F0018174
:1046E00019F00801039111D0472323704E23637002
:1046F0005523A3704323E370462323714F23637133
:104700005223A3710023E371002719E0E379012B01
:104710000CBF54F8203C04F158030493F4E704233D
:104720000D9E0C9902FB136209ABFFF785FE0999F8
:1047300000295FD064BB0898002800F0CC80584462
:1047400007A9FFF761FE08A98346FFF75DFE079AF8
:10475000002A4DD023DD9DF83C00FF2814D000F046
:104760000703042B0ED801A151F823F01F470008BE
:10477000854700088D4700081F470008814700084B
:104780000823CDE7FFF7D4FB0023C9E70223C7E7DF
:104790002046002204AB00F0CFF858BBCBE70D9BBE
:1047A00002F1010EBCB1039AAAB9049A0692A3EBD6
:1047B0008E0EAEF1040656F8041F41B12046314476
:1047C000002206AB00F0B8F80028F4D0012181F0F7
:1047D0000101C9B209E06FF0030C0CFB0EFE53F8A7
:1047E0000E10D1F1010138BF00210029A3D001E052
:1047F0000127A0E7079E032719F0010F5AD119F0EE
:10480000080907D0012F01D100F074FA002E24DA34
:1048100000F07CFA012F02D1204600F056F9002E5C
:104820001BDA0AAA51462846FFF783FE9DF83C0092
:104830002946FFF748FE0D9B0C906FF0030206FB24
:1048400002221A444B4652F8231009B10133FAE709
:10485000A3620423E0622363626310AB002143F888
:10486000244D0A46009328460B4600F0D7FC10ABB7
:10487000002143F8206D0122009328460B4600F0EA
:10488000CDFC0F212846FFF784FE10AB00F001009D
:1048900040EA080043F81C0D0021009328460F222F
:1048A0000B4600F0BBFC022F02D1204600F0A2F81C
:1048B000072019E0022F3FF4A6AE28460D21049FE1
:1048C000FFF767FE67622062A662C4F82CA0C4F8F6
:1048D0003080062008E0002F3FF495AE0646022700
:1048E0008AE70227002687E711B0BDE8F08F00BFF6
:1048F0001EB400F09CF81EBC01F022F80378472B90
:1049000017D143784E2B14D18378552B11D1C3780E
:10491000432B0ED10379432B0BD143792B2B08D199
:1049200083792B2B05D1C07901288CBF0020012071
:1049300070470020704700002DE9F3419846037846
:10494000C679472B04460F4614D143784E2B11D11C
:104950008378552B0ED1C378432B0BD10379462B8B
:1049600008D143794F2B05D18379522B02D10EB94F
:10497000012205E02046FFF7C1FF002830D00022C9
:1049800000230021019182B98BB9012E0ABF54F88E
:10499000203CA4F12003783B012E08BF54F8204CA2
:1049A0001D6818BF5834019402E0104D00E0104D0E
:1049B0002B6828469B68984720B1019B1B68019390
:1049C000022400E001243B6838461E69294601AAFA
:1049D0000123B04738B1019BC8F80030204602E0FF
:1049E00002460123CDE702B0BDE8F081E06900088E
:1049F0000C6A000870B5044600F032F805462046FF
:104A0000A4F12006FFF77AFF50B154F8043C0133BB
:104A1000012B44F8043C08D1AB6844F8083C03E09F
:104A2000AB680BB100F066F9AE60012070BD70B5E7
:104A300000F016F8846805460CB900F05BF904F143
:104A400020063046FFF75AFF38B1E369013BE361C6
:104A500023B9A269AA60A36100E0A860304670BDD6
:104A600000487047602E012010B5002814BF04468E
:104A70000124204601F050F930B9044B1B680BB9F2
:104A8000FFF756FA9847F4E710BD00BF6C2E0120DF
:104A90000378472B17D143784E2B14D18378552BAD
:104AA00011D1C378432B0ED10379432B0BD143791A
:104AB0002B2B08D183792B2B05D1C07901288CBFF2
:104AC0000020012070470020704710B5044648B10F
:104AD00000F041F92046FFF7DBFF18B154F8140C41
:104AE00000F003F900F006F970B50646FFF7D0FFB5
:104AF00018B156F8184C002501E00446012530464F
:104B000000F029F90DB100F001F9204600F0FAF8A3
:104B10007FB5102302930368002415469E69009414
:104B20006B468DF8044003941268B0479DF804303A
:104B300003F00603062B03BF009B2B6001202046D9
:104B400004B070BD0098904214BF01200620704749
:104B500010B5034B0360044600F026F9204610BD53
:104B60008869000810B50446FFF7F2FF2046FFF7FA
:104B700037FC204610BD38B515461C4600F02AF912
:104B800028B10823E360062325602371012038BD86
:104B9000F8B505460C4616461F4600F01BF940B90D
:104BA000032F07D8236820465B6929463246984779
:104BB000F8BD0120F8BD2DE9F041069E099C15467F
:104BC000089A96420746984603D1079900F002F9E1
:104BD00048B93846414600F0FDF828B10123266067
:104BE0002571A37100E065710020BDE8F08100002F
:104BF00010B5034B03600446FFF7AAFF204610BD23
:104C0000406A000810B50446FFF7F2FF2046FFF7A0
:104C1000E7FB204610BD2DE9F341089C944207466E
:104C2000884616461D4605D1194600F0D3F808B14E
:104C3000062007E0B868036800941C6A41463246C3
:104C40002B46A04702B0BDE8F0812DE9F04F85B0BA
:104C50000E4619468346904699460E9D109F119C1C
:104C600000F0B8F8824680B1002E256084F80480F8
:104C700006DB3544AF4214BF01270627A7710CE0BD
:104C800002360AD10123A37107E0BD4207D158467D
:104C90000F9900F09FF880B901E0002010E0DBF8E8
:104CA00008000F9A03680192009502970394DC694B
:104CB000314642464B46A04702E084F80580504604
:104CC00005B0BDE8F08FF8B504460F4616461D4600
:104CD000FFF751FF38B9A06804683946A469324625
:104CE0002B46A047F8BD0120F8BD08B58047FFF767
:104CF0001FF9000008B5024B1868FFF7F6FF00BF68
:104D00001400002008B58047FFF7F4FF08B5024BF8
:104D10001868FFF7F7FF00BF180000200378472B43
:104D200017D143784E2B14D18378552B11D1C378EA
:104D3000432B0ED10379432B0BD143792B2B08D175
:104D400083792B2B05D1C07901288CBF002001204D
:104D5000704700207047F8B50446FFF781FE05460E
:104D600006682046A4F12007FFF7D8FF20B90EB14E
:104D7000FFF7C0FF2F6015E054F80C3C002BB4BFC8
:104D8000C3F10103013344F80C3C6B68B74203F1F3
:104D9000FF336B6020461CBF44F8106C2F60666ABE
:104DA00000F00AFA3046F8BD014B0360704700BFBF
:104DB000C06A00080020704700207047002070473C
:104DC00010B5034B03600446FFF70AFB204610BDF5
:104DD000C06A0008814208B50FD0406803782A2BCA
:104DE0000DD049680B782A2B08BF013101F06CF80F
:104DF000D0F1010038BF002008BD012008BD00200F
:104E000008BDFFF7E7BF000003685A004CBF43F03E
:104E1000004323F000431844704700BF2DE9F04FD2
:104E2000064683B0914621B3013901918846002797
:104E300007EB080404EBD4746410E50006EB050BE3
:104E40005846FFF7E1FF019B8246A34205F10800A7
:104E5000304419D0FFF7D8FFCA4500F1FF3004D91C
:104E6000BC420BD004F1FF38E2E7484502D2671C90
:104E7000DEE78B46584603B0BDE8F08F4FF0000BDD
:104E8000584603B0BDE8F08FCA45E9D8F2E700BF45
:104E9000012807D0022807D0044B00280CBF184671
:104EA000002070470248704702487047C15500080B
:104EB000C9550008D155000830B5274B83B00446CA
:104EC0008D1E002B42D0284601A9AFF30080034677
:104ED00023B32A460199FFF7A1FF054618B3FFF750
:104EE00093FF6B68A064012B12D0002B05F1040026
:104EF00028DBFFF789FF0023E06423650368002BAC
:104F000016DBFFF781FF00232061184603B030BD98
:104F1000002323610523184603B030BD2361092314
:104F2000184603B030BD09232061184603B030BDD8
:104F3000C3F30360FFF7ACFF0028206114BF002318
:104F40000923E2E70123E0642365D7E7034B044824
:104F50001B1ADB100193BCE700000000386D00084D
:104F6000D06B00080368DA0710B5044606D49B0727
:104F700000F1480009D500F069FC2368590709D5FC
:104F80001A070ED5DB0613D510BD00F057FC2368B9
:104F90005907F5D404F1D00000F060FC23681A072B
:104FA000F0D404F5A87000F061FC2368DB06EBD4B4
:104FB00004F5E870BDE8104000F09CBC03680BB13C
:104FC000184470471846704709207047704700BF63
:104FD00070B504460D4608E02B6C6361012023691F
:104FE00021462A469847082808D12046296CFFF711
:104FF00063FF06460028EFD0FEF79AFF0728FBD193
:105000003046296CFFF7E2FF281D00F00BFC00BFC3
:105010002DE9F0470C1D054617460FCCADF5727D06
:1050200003AE0FC60FCC0FC60FCC0FC694E80F000F
:1050300002AC4FF0000ED5F80C80D5F8189086E839
:105040000F002846216CC4F800E0FFF735FF002F61
:10505000064614BF0A27092786B1A06B2A468DE8A9
:10506000100247F0100160642B460120C047002861
:105070002FD130460DF5727DBDE8F087236C6B6152
:1050800021464FF4F0727AA800F065FE2B6929469C
:105090007AAA38469847889B82468DE8100239469E
:1050A000636401202A462B46C04790B920467AA95E
:1050B0004FF4F07200F04FFEBAF1080F06D1284607
:1050C000216CFFF7F9FE09270646C5E7BAF1070F7D
:1050D00004D009200DF5727DBDE8F0873046216CC3
:1050E000FFF774FF03A800F09DFB00BF406C704702
:1050F000F0B5CB6B0B640E1D0F4604460FCEF9B016
:1051000001AD0FC50FCE0FC50FCE0FC596E80F002E
:105110004FF0FF3685E80F00009606E02369214630
:105120006A4698470828054608D120461099FFF797
:10513000C3FE0028F2D0092079B0F0BD6846FFF721
:1051400011FF062DF7D120463946FFF741FF00BF7A
:1051500030B4DD6BC160826119461D64002230BC31
:10516000FFF756BF70B5C66843690B6404460D4629
:1051700026B10122FFF74CFFFEF7DAFE0369214654
:1051800002202A469847072807D0082803D120463E
:105190002946FFF71DFFFEF7CBFE3046296CFFF7CF
:1051A00015FF281D00F03EFBC26822B1CA6B0A64DD
:1051B0000022FFF72DBF9BE7704700BF08B583684B
:1051C00013B101460120984708BD00BF10B404295F
:1051D00009D8DFE801F007030803030001205DF8A8
:1051E000044B70471BB102205DF8044B70470F2A37
:1051F000F9D800EB820218465368019A1360EEE773
:1052000000B585B00A4603AB002100930B46FFF7BB
:10521000DDFF039805B05DF804FB00BF10B404295E
:1052200009D8DFE801F007030803030001205DF857
:10523000044B70471BB102205DF8044B70470F2AE6
:10524000F9D800EB82020198016851601846EEE738
:1052500010B584B004AB0C4643F8042D0021009334
:1052600022460B46FFF7DAFF04B010BDF0B5D36B52
:105270001364151D07460E460FCDADF50F7D17AC17
:105280000FC40FCD0FC40FCD0FC495E80F004FF022
:10529000FF3584E80F00169510E016A8FFF7D8FF39
:1052A000314616A8B847694616AA78B9049B082063
:1052B0009847052804460AD0092807D02699684649
:1052C000FFF7FAFD6A460C210028E6D0092416A84B
:1052D000FFF748FE20460DF50F7DF0BD2DE9F04F9C
:1052E0000C46C96C8BB01D460E1D0B68079390468B
:1052F000089600F00309002D40F089801B0203226C
:1053000007938DF825508DF82420236DB9F1020FF5
:1053100008BFA66B13F0010342D100F00800C0B231
:10532000039002933768002F3CD0022D6BD0378852
:10533000B6F802A00436A36C2AF0010B40460F21F8
:105340009B44FFF75DFF834536D827F001039B445C
:105350000AF0010A07F00107584547EA4A072CBF3F
:1053600000200120012F31D060D3022F20D13368DB
:1053700023F000410191B9F1000F40F0858030B178
:10538000039A002A00F08D80002900F0B080002BE5
:10539000C0F28580019B03F1010A06EB8A06C1E792
:1053A00000210291022D49DDFFF70EFE00284BD0AF
:1053B00009200BB0BDE8F08F0AF0010A07F00107E1
:1053C00047EA4A07012F4FF00000CDD1B9F1000F95
:1053D00041D1B0B196E80C00D70F9A1CE8D004F187
:1053E00058010133069100F0AD80301DFFF7E6FD56
:1053F0003A46014606AB2046FFF79EFA002840F0E9
:10540000CF8008368EE7D6F804A0083693E7022D41
:105410003FF77BAF1A0CD7B21B0402218DF8252071
:1054200006EB870607938DF824106EE7B9F1000F9D
:1054300002D0002840F09080043673E7404607A968
:1054400000F0F0FA0028B3D1029A002A59D10820BE
:105450000BB0BDE8F08F40460D21276AFFF7D0FE64
:105460008742CED1A36A9E42CBD13046FFF7CCFC17
:105470000F2102464046FFF7EBFE40462246002140
:10548000FFF7E6FE072094E740460D21276AFFF765
:10549000B7FE874245D03368002BBFF67BAF04369A
:1054A00078E7019919B304F1580CCDF810900595DF
:1054B000371DDDF80CB0DDF80490654602E0CA4502
:1054C00015D0D34638460695FFF778FD00220146F1
:1054D00006AB2046FFF730FA0BF1010A043700282B
:1054E000EDD0019BDDF81090059D5B45D3D1404682
:1054F0000D21FFF785FE069B2062A66263620620EF
:1055000057E70F214046FFF77BFE0E21024640463B
:10551000FFF79EFE40460F21284AFFF799FE07201D
:1055200047E7A36A9E42B6D104220027B318019927
:10553000A162E762226363633368BB421FDB01221F
:10554000029227E740460D21FFF75AFE2062069B94
:105550006362A66206202CE73046FFF755FC04364E
:105560000546A6632046FFF745FA00283FF420AF22
:1055700040462A460F21FFF76BFE072019E7481C1B
:1055800006EB8000FFF740FC0F2102464046FFF784
:105590005FFE404639462246FFF75AFE072008E7DD
:1055A00007460D214046FFF72BFE022F2062CED189
:1055B0002346069A43F82C2F6362CAE7E94A00089B
:1055C0000023FFF78BBE00BF0123FFF787BE00BF9C
:1055D0000223FFF783BE00BF2DE9F0410446C4B0AB
:1055E00004290BD8DFE801F059030A300E00012B23
:1055F0004FEA124596B266D0052B6BD0022044B01C
:10560000BDE8F081002BF9D1102AF7D82368D9061C
:1056100000F1D38022AE3046019200F075F9A56BFF
:10562000019A0023012000FA03F1114203D02968F6
:1056300046F8231004350133042BF4D13046A5631A
:1056400000F058F90020DAE7032BD7D1150C97B2F8
:105650007B19102BD2D823681E0700F1BF8022AE21
:10566000304600F025F9D4F838E07F0006EBC5009D
:105670007B1E72465FB1CEEB0000AEF10402013B2F
:1056800052F8041F81505D1CF9D10EEB87023046A1
:10569000A26300F0EBF80020B1E7002BAED1A56BC0
:1056A00096B2012000FA03F1314204D004EB8307E3
:1056B0002968796004350133102BF3D112F40050BE
:1056C00075D1A5639BE77219102A97D80F2D95D82D
:1056D000002708E07719202F90D80F2D69D9374679
:1056E00046B30F2D11D82268D0070ED522F0010144
:1056F000052B2160204600F08B8022F0030240F849
:10570000482B019300F09EF8019B17B122685107C6
:105710006CD4012B74D00F2D04D822A8019300F073
:1057200099F8019B37B102A8019300F09BF8019B07
:10573000C5F11006D4F83880002EC44612DD22AA26
:105740004FEA460C02EBC506C8EB06060CF1FF312A
:10575000A8F1040252F8040FB0500139481CF9D1E5
:1057600008EB8C0CB7B144AA102D2CBF2846102092
:1057700002EBC0004FEA4708A0F5C47008F1FF3201
:10578000614651F8046B40F8046B013A561CF8D19D
:105790000CEB880C012B1AD00F2DC4F838C002D89E
:1057A00022A800F053F817B102A800F057F8002023
:1057B00025E7102F8CD9103F93E723F010032360C7
:1057C00004F5E870019200F09FF8019A22E70CF1CD
:1057D0000403A36322A800F031F8E8E723F00803EC
:1057E000236004F5A87000F063F838E7204622F043
:1057F000040240F8D02B019300F034F8019B88E7B5
:1058000022A8019300F01EF8019B002F90D191E790
:1058100041F0020140F8481B019300F01BF8019B86
:1058200073E700BF00F1340191E838009C46A646BA
:105830004CF8045D90E8FF0FE54600BD90EC210BAD
:10584000704700BF80EC210B704700BF90EC200B2D
:10585000704700BF80EC200B704700BFD0EC200BDE
:10586000704700BFC0EC200B704700BFF0EC020196
:10587000F0EC0211F0EC0221F0EC0231F0EC02410C
:10588000F0EC0251F0EC0261F0EC0271F0EC0281FC
:10589000F0EC0291F0EC02A1F0EC02B1F0EC02C1EC
:1058A000F0EC02D1F0EC02E1F0EC02F1704700BF45
:1058B000E0EC0201E0EC0211E0EC0221E0EC02314C
:1058C000E0EC0241E0EC0251E0EC0261E0EC02713C
:1058D000E0EC0281E0EC0291E0EC02A1E0EC02B12C
:1058E000E0EC02C1E0EC02D1E0EC02E1E0EC02F11C
:1058F000704700BFB0FC0181B0FC0191B0FC01A178
:10590000B0FC01B1704700BFA0FC0181A0FC019177
:10591000A0FC01A1A0FC01B1704700BFEC4600B59E
:105920002DE900502DE9FF1F4FF000032DE90C0079
:1059300001A9FFF7DDFBDDF840E012B0704700BFC2
:10594000EC4600B52DE900502DE9FF1F4FF0000394
:105950002DE90C0001A9FFF705FCDDF840E012B0CD
:10596000704700BFEC4600B52DE900502DE9FF1F40
:105970004FF000032DE90C0001A9FFF715FCDDF83D
:1059800040E012B0704700BFEC4600B52DE9005072
:105990002DE9FF1F4FF000032DE90C0001ABFFF7CD
:1059A000D7FBDDF840E012B0704700BFEC4600B511
:1059B0002DE900502DE9FF1F4FF000032DE90C00E9
:1059C00001AAFFF753FCDDF840E012B0704700BFBA
:1059D000037A1BB9437A43B9B02070470268013B90
:1059E000037213020360100E70474268013B43725A
:1059F000111D126841600323037213020360100E2D
:105A0000704700BF00B585B003AB002100930C22A6
:105A10000B46FFF7DBFB039805B05DF804FB00BF06
:105A2000FFF7F0BF2DE9F043064685B00D464FF075
:105A300000082846FFF7CCFFB028044600F0AC80F1
:105A400020F07F0212F0FF0120D000F0F002802A47
:105A500073D0902A36D0A02A42D0B02A56D0C02A7D
:105A600000F0828000F0F803D02B0BD100F0070487
:105A7000621C42F40022304601210523FFF7ACFDF1
:105A80000028D6D0092005B0BDE8F08303AF4FEA67
:105A900080090B46009730460D22FFF797FB5FFA0F
:105AA00089F9039B09F1040960064CBFC9EB0303A4
:105AB0004B440393002100970B4630460D22FFF71D
:105AC000ADFBB6E700F00D030D2BDBD003AF0021DB
:105AD00000F00F0200970B463046FFF777FBE9E72F
