:020000040800F2
:10000000000002200903000811030008190300087A
:10001000A1030008A9030008F9030008000000007C
:10002000000000000000000000000000ED360008A5
:100030005104000800000000ED3800084D390008A8
:100040000103000801030008010300080103000880
:100050000103000801030008010300080103000870
:100060000103000801030008010300080103000860
:100070000103000801030008010300080103000850
:100080000103000801030008010300080103000840
:100090000103000801030008010300080103000830
:1000A0000103000801030008010300080103000820
:1000B0000103000801030008010300080103000810
:1000C0000103000801030008010300080103000800
:1000D00001030008010300080103000801030008F0
:1000E00001030008010300080103000801030008E0
:1000F00001030008010300080103000801030008D0
:1001000001030008010300080103000801030008BF
:1001100001030008010300080103000801030008AF
:10012000010300080103000801030008010300089F
:10013000010300080103000801030008010300088F
:10014000010300080103000801030008010300087F
:10015000010300080103000801030008010300086F
:10016000010300080103000801030008010300085F
:10017000010300080103000801030008000000005B
:10018000010300080103000880B58EB000AF06F03F
:1001900073FF494B494A1A60494B484A1A60494B18
:1001A0003B63494BFB62494BBB62FB6A7B6207E0E6
:1001B0007B6A1A1D7A623A6B111D396312681A60E4
:1001C000BA6A7B6A9A42F3D83B4B1A68404B9A4210
:1001D00004D13B4B1A683F4B9A4200D0FEE73E4B9E
:1001E000364A1A603D4B354A1A603D4B3B623D4BE7
:1001F000FB613B6ABB6104E0BB691A1DBA61002266
:100200001A60FA69BB699A42F6D8334B1B68002B17
:1002100003D1324B1B68002B00D0FEE706F03CFFF9
:100220003A1D3B461046194606F0E2FD2E4A2F4B7A
:10023000D31A9B107B6100233B6107E02B4B3A698B
:1002400053F8223098473B6901333B617A693B6937
:100250009A42F3DC264A274BD31A9B107B6100237A
:100260003B6107E0234B3A6953F8223098473B69DA
:1002700001333B617A693B699A42F3DC7A683B68F7
:100280001046194600F00CFA78631B4A1B4BD31A30
:100290009B10FB60FB68BB6008E0BB685A1E174BF5
:1002A00053F822309847BB68013BBB60BB68002B0A
:1002B000F3DC786B06F058FD00000020BABADECA05
:1002C0008C02002078AA0008000000209002002084
:1002D00078563412325476989002002078350120F6
:1002E000900200207C350120A0040008A004000832
:1002F000A0040008A0040008A0040008A00400084E
:1003000080B400AFFEE700BF80B500AFFFF73CFF51
:1003100080B400AFFEE700BF1EF0040F0CBFEFF388
:100320000880EFF30980854601BE71464F4A1047A9
:1003300080B588B002AF78603960174B5B6B7B612A
:10034000154B9B6B3B61144B9B6AFB60124B1B6B09
:1003500003F00203002B10D00F4BDB6A002B0CDAEA
:1003600078684BF6AB6106F097FF0346002B04D08C
:10037000094B4FF00042DA620BE0084806F0E2FD5C
:100380003B6800937868F9687A693B6906F0EEFE8D
:10039000FEE71837BD4680BD00ED00E080A60008EE
:1003A00080B400AFFEE700BF1EF0040F0CBFEFF3F8
:1003B0000880EFF3098071462D4A104780B588B058
:1003C00002AF786039600A4B5B6B7B61084B9B6BBB
:1003D0003B61074B9B6AFB60064806F0B3FD3B6838
:1003E00000937868F9687A693B6906F0BFFEFEE71A
:1003F00000ED00E090A600081EF0040F0CBFEFF324
:100400000880EFF3098071461A4A104780B588B01A
:1004100002AF786039600A4B5B6B7B61084B9B6B6A
:100420003B61074B9B6AFB60064806F08BFD3B680F
:1004300000937868F9687A693B6906F097FEFEE7F1
:1004400000ED00E09CA6000880B400AFFEE700BF0E
:1004500080B400AFFEE700BF80B400AFFEE700BF8E
:1004600080B400AFBD465DF8047B704731030008DF
:08047000BD0300080D040008A3
:1004780078AA0008000000209002002078AA00084E
:100488000000001000000010900200207C350120C0
:0804980000000010000000103C
:1004A0004068003018BF01207047034640680022B2
:1004B0005A607047012070472DE9F0419EB0454BCE
:1004C0001A6B42F002021A631A6B02F002020192E6
:1004D000019A1A6B42F008021A631A6B02F00802C2
:1004E0000292029A1A6B42F010021A631A6B02F01F
:1004F00010020392039A9A6B42F001029A639B6B7B
:1005000003F001030493049B4FF00308CDF820800F
:10051000002407940C230993022606961EAD80231F
:1005200045F8643D29462C4805F044FB4FF6FB771F
:1005300005972946294805F03DFB05972946284897
:1005400005F038FB4FF400431C93159412961B944E
:10055000102314930425139511941A944FF40063F7
:100560001893169417941D944FF4805319931D4FAC
:10057000224639464FF0204006F082F911A94FF08B
:10058000204006F02FF94FF0405310930B950723AE
:100590000A9301250D95CDF838800F960F230C9303
:1005A00022460AA94FF0204006F09EF92346224633
:1005B0000AA9384606F0D6F921464FF0204006F049
:1005C00019FA4FF0204213682B43136028461EB0DF
:1005D000BDE8F0810038024000040240000C0240F7
:1005E00000100240040100A008B500F013FC00F068
:1005F00005FA30B901F096F84FF47A7003F07AFBFF
:10060000FAE700F015F900220721012000F078F93F
:100610004FF0C07000F0E0F80D4800F0EFFD4FF42F
:10062000400000F07FF800220621022000F068F967
:100630004FF0207000F0D0F8064800F0DFFD0648CB
:1006400000F0DCFD4FF0207000F06CF8D2E700BF46
:100650004CA1000860A1000890A1000810B5044654
:10066000024B036002F052FE204610BDD8A10008E4
:1006700010B50446044B036002F048FE204607F024
:10068000B8FA204610BD00BFD8A1000810B5044636
:1006900002F01CFE014B2360204610BDD8A10008CB
:1006A00010B50D4806F070FC0C4B19680C4806F0AC
:1006B00049FC0C2006F08BFE0446FFF7E7FF0223FF
:1006C0004FF400620749204602F04CFE02F0FAFEA9
:1006D00003F062FBFEE700BFF8A100081002002053
:1006E0000CA2000820A2000880B483B000AF78609C
:1006F00039607B68002B02D14FF0FF330BE07B6841
:10070000DA693B68DB43134023F4FF5323F01F03F4
:100710007A68D361002318460C37BD465DF8047B28
:10072000704700BF80B582B000AF7860054B1B6892
:1007300018467968FFF7D8FF034618460837BD46C4
:1007400080BD00BFA803002080B487B000AF7860F0
:1007500039607B68002B02D14FF0FF3335E07B68B6
:10076000DB6903F07F43002B24D03B6803F07F4319
:10077000002B1FD07B68DB6903F07F437B617B68C4
:10078000DA697B6953403B613B6803F07F43FB6060
:100790003B6823F4FF5323F01F03FA685340BB6008
:1007A000BA683B691343BB60BA68FB681A437B684D
:1007B000DA6109E07B68DA693B6823F4FF5323F0D0
:1007C0001F031A437B68DA61002318461C37BD46B5
:1007D0005DF8047B704700BF80B582B000AF7860E1
:1007E000054B1B6818467968FFF7AEFF03461846AD
:1007F0000837BD4680BD00BFA803002080B483B089
:1008000000AF786039607B68002B02D14FF0FF3376
:1008100007E03B6823F4FF5323F01F037A68D3619A
:10082000002318460C37BD465DF8047B704700BFB7
:1008300080B500AF154B1B68DB79002B02D04FF061
:10084000FF3320E0124B01221A70002002F0E4FC7A
:10085000104B1B78002B0DD10C4B1B685B7A002BC7
:1008600008D00D4808F0F0FB0346002B02D0094BDE
:1008700001221A7000F0D4F8084800214FF4807269
:1008800008F0BCFC0023184680BD00BFA003002078
:10089000980200209C0300202CA200089C0200204B
:1008A00080B483B000AF786039607B681B881BB26E
:1008B000B3F1FF3F0BD1114B1B685B7A002B03D0C8
:1008C0000E4B1B685B8900E007237A6813803B6846
:1008D0001B881BB2B3F1FF3F0BD1084B1B685B7A3F
:1008E000002B03D0054B1B689B8900E000233A686E
:1008F00013800C37BD465DF8047B7047A0030020D1
:1009000080B584B000AF13460246FA800A46BA802A
:100910007B80344B1B78002B23D0B7F90630002B9B
:100920001FDDB7F90620304B1B689A4219DABA88E6
:100930002E4B1B8812B21BB29A4212DBBB881AB232
:100940002B4B1B689A420CDA7A88284B1B8812B210
:100950001BB29A4205DB7B881AB2254B1B689A4270
:1009600002DB4FF0FF3338E03A1DBB1C104619463E
:10097000FFF796FFB7F906301E4AD35C002B1BD059
:10098000B7F9061007F10E0207F10C0308461146ED
:100990001A4602F06FFBFA89BB8812B21BB29A4268
:1009A00005D1BA897B8812B21BB29A4204D0124B8D
:1009B0001B68012283F82420BA887B88B7F90610C7
:1009C00012B21BB2084611461A4602F031FBB7F9C3
:1009D0000630084A0121D154002318461037BD467D
:1009E00080BD00BF98020020040000209E0300206C
:1009F000940200209C020020A403002080B400AFD9
:100A0000064B1B68DB79002B14BF00230123DBB2EC
:100A10001846BD465DF8047B704700BFA003002068
:100A200080B582B000AF184B1B78002B08D0174B55
:100A30001B78002B04D107237B8000233B8004E03C
:100A40004FF6FF733B803B887B80BA1C3B461046C9
:100A50001946FFF725FF00237B600EE07B6899B203
:100A60007A883B8809B212B21BB2084611461A4670
:100A700002F0DEFA7B6801337B607B68FF2BEDDDE3
:100A80000837BD4680BD00BF980200209C030020AF
:100A900090B585B000AF78603960794B1B68002B4A
:100AA00006D0774B1B681B78002B01D0002394E104
:100AB0007868396802F036FB0346B3F1FF3F0AD18C
:100AC000704B1B68DB68704801211F2208F0AEFAEA
:100AD000082008F0BBF86A4B1B6801225A70684B6B
:100AE0001B6800225A71664B1B6800221A71644B06
:100AF0001B6801229A70624B1B68002283F8502009
:100B00005F4B1B68002283F851205D4B1B6801225C
:100B1000DA705B4B1B6801229A61594B1B680022FB
:100B20001A72574B1B6800229A62554B1B680022B1
:100B3000DA62534B1B680022DA63514B1B680022B8
:100B40001A644F4B1B6800225A644D4B1B684FF6CA
:100B5000FF72A3F854204A4B1C6802F057FA034670
:100B6000E361474B1B681A6A484B1A60444B1B6889
:100B70005A6A474B1A60454B1B68012B03DD444BF7
:100B80001B68012B0DDC3F4B1B68D9683F4B1A6873
:100B90003F4B1B6808463F4908F0CAF9042008F09B
:100BA00055F83A4B1A683A4B1B6810461946002212
:100BB000002301F059F90246374B1A60364B1B6887
:100BC000002B0AD12F4B1B68DB68344801212422FB
:100BD00008F02CFA022008F039F82C4B1A682C4B3C
:100BE0001B68104619460022002301F03DF9024619
:100BF0002B4B1A602A4B1B68002B0AD1214B1B6818
:100C0000DB6828480121292208F010FA022008F0A8
:100C10001DF8234B1B6818464FF0FF31FFF7EEFD20
:100C20001F4B1B68184601F0B9FE00F03BFF174B45
:100C30001A68134B1B685B6BD21A144B1A600023A3
:100C4000FB6057E0184BFA6853F83230002B2DDA6E
:100C5000154AFB68DB0013445C680D4B1A680B4BAC
:100C60001B68013B012011461A46002301F0FCF8E5
:100C70000246074B1B6810461946A0472DE000BFEF
:100C8000A00300202802002064A20008B003002076
:100C9000B403002084A20008A4030020B0A200082E
:100CA000AC030020D8A200080C3401204D4AFB6898
:100CB000DB0013445C684C4B19684C4B1A68136C8E
:100CC000581C106401201A46002301F0CDF802469A
:100CD000454B1B6810461946A047444B1B68DA6B0E
:100CE0000132DA63424B1B685A1E414B1A60FB68A3
:100CF0000133FB603F4B1B785AB2FB689A42A1DC80
:100D00003C4B00221A703A4B1968374B1A68374B24
:100D10001B681B6C084611461A46002301F0A4F814
:100D20000246354B1A60344B1B68002B0AD1334BFB
:100D30001B68DB6832480121242208F077F9012082
:100D400007F084FF2C4B1B68184601F0E7FD274B8A
:100D50001B6893F84830002B14D02A4B1B681846A8
:100D600000F05AFF244B1B68184600F055FF224B39
:100D70001B68002283F82420224B1B68002283F882
:100D8000242004E01F4B1B68012283F82420FFF776
:100D900047FE1D4B4FF0FF325A601B4B5A681A4BEF
:100DA0001A60194B00221A81174B00225A81164BE8
:100DB00000229A81144B00221A610C4B1B680122FD
:100DC0001A7000F0B1F902F051FA03460F481049C9
:100DD0001A4608F0BBFD084B1B6818461437BD4681
:100DE00090BD00BF0C340120B4030020A0030020FC
:100DF000B0030020B8030020A80300202802002030
:100E000004A30008A4030020EC3301204C3301208C
:100E10002CA3000880B500AF00200021FFF738FEAA
:100E20000346184680BD00BF80B400AF084B1B6866
:100E3000002B06D0064B1B681B78002B01D1012329
:100E400000E00023DBB21846BD465DF8047B704726
:100E5000A003002090B583B000AF78603960786857
:100E6000396802F03DF90346B3F1FF3F02D14FF07C
:100E7000FF3396E04D4B1B68002B01D1002390E01F
:100E80004B4B1C6802F0BAF803462362484B1B68C0
:100E90001A6A474B1B68DB6BD21A454B1B685B6BAE
:100EA000D21A444B1A60424B1C6802F09FF802466B
:100EB000414B1A60404B1B686362404B19683C4BC6
:100EC0001B681A6A3A4B1B685B6A084611461A4649
:100ED00001F012FA0346B3F1FF3F1FD0334B1968FC
:100EE000344B1A68344B1B68084611461A4601F009
:100EF00003FA0346B3F1FF3F10D0314B19682C4B76
:100F00001B681A6A2A4B1B685B6A084611461A4618
:100F100001F0F2F90346B3F1FF3F02D14FF0FF3386
:100F20003FE0274B1B68184601F038FD234B1B6838
:100F3000012283F824201E4B1B689B6B002B25D0BD
:100F40001B4B1B68996B1A4B1B685A6B1A4B1B681F
:100F5000084611461A4601F0CFF90346B3F1FF3FA8
:100F600002D14FF0FF331CE0114B1B689B6B1846FE
:100F70000021002200F0EAF80D4B1B689B6B18461D
:100F800001F0CCFC00F08EFD00F0D2FC074B1B689A
:100F9000184600F0D9FD054B1B68184600F06CF9A7
:100FA000002318460C37BD4690BD00BFA8030020A3
:100FB000A0030020B0030020B4030020A4030020FD
:100FC000AC03002080B582B000AF78600D4A7B682A
:100FD0005C2101FB03F3134401221A707B685C223D
:100FE00002FB03F2074B13441A1D074B1B68104604
:100FF0001946582208F0F7F8786802F089F808379F
:10100000BD4680BDBC030020A003002080B582B097
:1010100000AF7860404A7B685C2101FB03F3134416
:101020001B78012B66D13D4B1A687B685C2101FB64
:1010300003F1394B0B44043310461946582208F08B
:10104000D2F8354A7B685C2101FB03F313445B7AD9
:10105000002B01D001F0BAFC786802F04FF82E4A5C
:101060007B685C2101FB03F3134420335A682C4B4B
:101070001B689A420BD1284A7B685C2101FB03F371
:10108000134420339A68274B1B689A4213D0224A94
:101090007B685C2101FB03F3134420335A681E492B
:1010A0007B685C2000FB03F30B4420339B681046F5
:1010B0001946FFF7CFFE184A7B685C2101FB03F35A
:1010C000134418335B68184602F074F8124A7B68C0
:1010D0005C2101FB03F3134410335A680E497B680B
:1010E0005C2000FB03F30B4410339B681046194649
:1010F00001F0DAFE084A7B685C2101FB03F313442C
:101100001B78002B01D0002301E04FF0FF3318467D
:101110000837BD4680BD00BFBC030020A0030020EF
:10112000B0030020B403002080B500AF0020FFF71B
:1011300049FF0023184680BD80B500AF0120FFF7AE
:1011400065FF01F0C7FF0023184680BD80B485B05D
:1011500000AFF860B9607A60FB68002B0FD07B6845
:10116000002B0CDBBB68002B09DBFB68DA687B68B3
:101170009A4204DDFB689A68BB689A4202DC4FF031
:10118000FF3306E0FB687A685A60FB68BA681A6049
:10119000002318461437BD465DF8047B704700BF36
:1011A00080B5ADF5067D00AF07F10C03186007F1BF
:1011B000080319603B1D1A6007F1100107F10802CE
:1011C0003B1D084611681A6808F09EFCC7F8140217
:1011D00007F10C0207F110031068194601F086FAB6
:1011E0000346B3F1FF3F02D0D7F8143201E04FF0CD
:1011F000FF33184607F50677BD4680BD0FB480B5AE
:1012000082B000AF07F114033B60084B1B6818461F
:1012100039693A68FFF7C4FF78607B681846083779
:10122000BD46BDE8804004B0704700BFA803002061
:1012300008B480B587B000AFF860B9607A60F8682C
:10124000B9687A68FFF782FF0346B3F1FF3F02D126
:101250004FF0FF3309E007F128033B61F868796A32
:101260003A69FFF79DFF78617B6918461C37BD46D8
:10127000BDE8804001B0704780B58AB000AF7860AB
:101280007B68002B05D07B689B6903F03003002B43
:1012900002D04FF0FF33E1E07B681B697B617B6824
:1012A0005B693B6100237B627B693B62B3E07B68E7
:1012B0001A6B7B6A9B0013441B68B3F1FF3F00F07D
:1012C0009C807B68DA6A7B6A9B0013441B68FB6026
:1012D000644B1B68DA6A3B6A9B0013441A683B69DB
:1012E0009B001344BB607B681A6B7B6A9B001344B2
:1012F0001B68FB617B685A6B7B6A9B0013441B680D
:10130000BB6102E0FB690133FB61FA69BB699A4288
:101310000BDCFB699B00FA6813441A68FB699B00AD
:10132000B9680B441B689A42ECD002E0BB69013BF0
:10133000BB61BA69FB699A420BDBBB699B00FA6827
:1013400013441A68BB699B00B9680B441B689A4236
:10135000ECD0FA69BB699A4247DCFB699B00BA682A
:10136000D118FB699B00FA681A44B869FB69C31A73
:1013700001339B00084611461A4607F034FFFA690C
:101380003B691344FB61BA693B691344BB61354B4C
:101390001B681A6B3B6A9B0013441A68FB699A42EC
:1013A00009DC304B1B681A6B3B6A9B0013441B68BB
:1013B000B3F1FF3F07D12B4B1B681A6B3B6A9B00B5
:1013C0001344FA691A60274B1B685A6B3B6A9B00EF
:1013D00013441A68BB699A4207DA224B1B685A6B9E
:1013E0003B6A9B001344BA691A607B681A6B7B6A7C
:1013F0009B0013444FF0FF321A607B685A6B7B6A84
:101400009B0013444FF0FF321A607B6A01337B620A
:101410003B6A01333B627B689A687B6A9A423FF77A
:1014200046AF7B6893F82430002B03D07B68002202
:1014300083F824207B6893F82530002B0DD1094BCD
:101440001B687A6811687A690A441A60054B1B6840
:101450007A6851683A690A445A6000231846283766
:10146000BD4680BDA403002080B588B000AF874B87
:101470001B68002B02D14FF0FF3303E1FFF7D4FCD0
:101480000346002B08D0FFF757FE0123FB76804B65
:101490001B6801221A7004E07C4B1B6893F824300F
:1014A000FB760023FB61C5E0FB7E002B0AD1774B66
:1014B0001B681A6BFB699B0013441B68B3F1FF3F69
:1014C00000F0B580714B1B68DA6AFB699B0013441E
:1014D0001B68BB606F4B1B68DA6AFB699B00134497
:1014E0001B687B60FB7E002B06D000237B616A4B70
:1014F0001B68013B3B6184E0644B1B681A6BFB6912
:101500009B0013441B687B61604B1B685A6BFB6933
:101510009B0013441B683B6173E00023FB60FB7E70
:10152000002B05D03A697B69D31A0133FB6034E0A4
:1015300002E0FB680133FB607A69FB681A443B698F
:101540009A422ADC7A69FB6813449B00BA68134408
:101550001A687969FB680B449B0079680B441B6827
:101560009A42E6D1FB68002B17D07A69FB681A44CF
:101570003B699A4211DA7A69FB68134401339B0094
:10158000BA6813441A687969FB680B4401339B00FD
:1015900079680B441B689A42CBD1FB68002B1CD0A6
:1015A0007B699B00BA681344F8697969FA6801F0AD
:1015B00085FC7B699B007A68D1187B699B00BA68BF
:1015C0001A44FB689B00084611461A4607F00BFEBA
:1015D0007A69FB6813447B6103E002E07B690133B5
:1015E0007B617A693B699A420BDC7B699B00BA6834
:1015F00013441A687B699B0079680B441B689A4204
:10160000ECD07A693B699A4287DD204B1B681A6BE4
:10161000FB699B0013444FF0FF321A601B4B1B68A1
:101620005A6BFB699B0013444FF0FF321A60FB6951
:101630000133FB61164B1B681A6AFB699A423FF73C
:1016400033AF124B1B68002283F82420104B1B6819
:101650009B69002B09D00D4B1B681A680B4B1B684C
:101660005B681046194601F01FFC094B1B68074ACE
:10167000126812681A61064B1B68044A12685268A5
:101680005A61002318462037BD4680BDA4030020C0
:10169000A0030020AC030020B403002080B584B078
:1016A00000AF78607B68002B05D07B689B6903F0F6
:1016B0003003002B02D04FF0FF332AE07B6893F811
:1016C0002430FB73154B1B687A689A4205D1134B83
:1016D0001B68012283F8242002E07868FFF7CCFD24
:1016E000FB7B002B12D07B689A680D4B1B681B6A32
:1016F0009A420BD17B68DA68094B1B685B6A9A4295
:1017000004D1064B1B68012283F82420FFF7ACFEAE
:10171000034618461037BD4680BD00BFA403002015
:10172000A003002080B500AF034B1B681846FFF7ED
:10173000B5FF0346184680BDA803002090B587B0CA
:1017400000AF78603E4B1B78002B00D075E03D4B1E
:101750001A687B688C2101FB03F31344D3F88030B3
:10176000FB60384B1A687B688C2101FB03F3134440
:10177000D3F88430002B02D0012B03D016E00023D5
:101780003B6118E0304B1A68FB68D31ADA0F134438
:101790005B103B613A69FB681A442B4B1B689A4209
:1017A00003DD3B69013B3B6105E004E0264B1A6821
:1017B000FB68D31A3B613B69002B01DA00233B61D4
:1017C000224B1B68996B224B1A681E4B18687B686A
:1017D0008C2404FB03F30344D3F8883008461146F5
:1017E0001A46FFF7B3FC00237B6121E0174B1B680F
:1017F0009A6B79693B69994212DB3969FB68194434
:101800007B6999420CDD0F4B19687B688C2000FBCB
:1018100003F30B4478693969411A53F8213000E029
:1018200020231046194600F091FD7B6901337B614E
:10183000054B1B687A699A42D8DB1C37BD4690BDC0
:10184000E0040020E4040020D0040020A0030020D5
:10185000DC04002080B584B002AF2E4B1B78002B37
:1018600054D100237B6005E07868FFF767FF7B6851
:1018700001337B60284B1B687A689A42F4DB274B64
:101880001B68002B42DA264B1B689B6BDB693B60B5
:10189000234B1B689B6B18460021FEF7AFFF204BC4
:1018A0001B689B6B184600210022FFF74FFC1C4B66
:1018B0001B689A6B1B4B1B68104600211A4600F0F0
:1018C0005FFF00237B6017E0154B1B689A6B164B7C
:1018D00019687B688C2000FB03F30B44D3F8883035
:1018E000796801310091104600211A460F4BFFF72D
:1018F0009FFC7B6801337B60074B1B687A689A42C8
:10190000E2DB074B1B689B6B3A68DA610837BD4620
:1019100080BD00BFE0040020D4040020D8040020D3
:10192000A0030020B4030020E404002048A3000822
:1019300080B500AF044B1B689B6B1846FFF79CFCFF
:101940000346184680BD00BFA003002080B590B0BC
:1019500000AF0023FB624D4B1A684D4B1B6892FB96
:10196000F3F24C4B1A604B4B1B681F2B02DD494BAB
:101970001F221A60454B1A68464B1B684449096888
:1019800001FB03F3D31A01333B63434B1B68002B6A
:10199000B8BF5B42FB6318E0FA6A531CFB62F96B49
:1019A0003E4B0B40002B03DA013B63F00F03013386
:1019B0001946930007F14002134443F83C1CFB6BAB
:1019C000002B00DA0F331B11FB63FB6B002BE3D101
:1019D00009E0304B1B685A1E2E4B1A602C4B1B68BB
:1019E0003A6B13443B632B4B1B68012B04DDFB6AF2
:1019F0005A1E3B6B9A42ECDC00237B637B6BFB63E0
:101A000031E00023BB6321E0254B1A687B6B8C21FE
:101A100001FB03F31A441F4B1B68796B01FB03F1B5
:101A2000FB6B002B08D0FB6B386B00FB03F0FB6AF1
:101A3000013B90FBF3F300E000230B44C2F8883035
:101A4000BB6B0133BB637B6B01337B63FB6B9B0025
:101A500007F14002134453F83C2CBB6B9A42D3DC91
:101A6000FB6B0133FB63FA6BFB6A9A42C9DB094BE0
:101A70001B68002B04D0074B1B685A1E054B1A60CD
:101A8000FFF7E8FE4037BD4680BD00BFB40300202D
:101A9000D4040020D0040020D80400200F000080CF
:101AA000E404002098B500AF214B1B68002B3DD00B
:101AB000204B1B68002B07DA1F4B1B6802225A635E
:101AC0001E4B01221A6003E01B4B1B6801225A6364
:101AD000194B1B689B6B002B20D1174B1C68164BB6
:101AE0001B68596B164B1A68164B1868124B1B680B
:101AF0005B6BC31A084611461A46002300F0B4F97E
:101B00000346A363A36B002B00D10FE00A4B1B68B5
:101B10009B6B18464FF40011FEF770FEFFF716FF9F
:101B2000054B1B689B6B184600F00EF898BD00BF74
:101B3000E4040020D8040020A0030020DC040020DE
:101B4000B4030020B003002080B485B000AF7860FB
:101B50007B68002B02D14FF0FF331BE00023FB60BA
:101B600012E07B681A6BFB689B00134400221A602A
:101B70007B685A6BFB689B0013447A68D268013A11
:101B80001A60FB680133FB607B689A68FB689A42C5
:101B9000E7DC002318461437BD465DF8047B704728
:101BA00080B487B000AFF860B9607A60FB68002B42
:101BB0000BD0FB689A68BB689A4206DBBA687B6800
:101BC0001A44FB689B689A4202DD4FF0FF331CE029
:101BD000BB687B6112E0FB681A6B7B699B00134456
:101BE00000221A60FB685A6B7B699B001344FA68F9
:101BF000D268013A1A607B6901337B61BA687B68FD
:101C00001A447B699A42E6DC002318461C37BD461D
:101C10005DF8047B704700BF80B485B000AF78608A
:101C20007B68002B02D14FF0FF331BE00023FB60E9
:101C300012E07B681A6BFB689B0013444FF0FF3285
:101C40001A607B685A6BFB689B0013444FF0FF32AD
:101C50001A60FB680133FB607B689A68FB689A42F4
:101C6000E7DC002318461437BD465DF8047B704757
:101C700080B586B000AFF860B9607A603B60012043
:101C8000502106F0D5FF03467B617B69002B01D113
:101C90007B6974E0FB689B00184607F085FA0346F1
:101CA0001A467B69DA627B69DB6A002B04D17869AA
:101CB00007F082FA002362E0FB689B00184607F0F9
:101CC00073FA03461A467B691A637B691B6B002B08
:101CD00009D17B69DB6A184607F06EFA786907F06C
:101CE0006BFA00234BE0FB689B00184607F05CFA98
:101CF00003461A467B695A637B695B6B002B0ED1E6
:101D00007B691B6B184607F057FA7B69DB6A18463C
:101D100007F052FA786907F04FFA00232FE07B6949
:101D2000FA689A607B69BA68DA607B697A681A61D6
:101D30007B693A685A617B6920221A62124B1B68E0
:101D4000FA689A4206D1114B1B68BA689A4201D1CF
:101D5000012300E00023DAB27B6983F82420FB68CA
:101D60005A1E7B69DA637B694FF0FF329A647B69A4
:101D70009A6C7B695A647869FFF7E6FE7B691846BE
:101D80001837BD4680BD00BFB0030020B40300205B
:101D900090B587B000AF78607B68002B01D100233D
:101DA00046E07B689B68FB607B68DB68BB60002368
:101DB0007B6138E07B68DA6A7B699B00D418BB687A
:101DC0009B00184607F0F0F9034623602368002BB8
:101DD00026D100233B610BE07B68DA6A3B699B00FC
:101DE00013441B68184607F0E7F93B6901333B6170
:101DF0003A697B699A42EFDB7B681B6B184607F0F8
:101E0000DBF97B685B6B184607F0D6F97B68DB6A09
:101E1000184607F0D1F9786807F0CEF9002307E0FB
:101E20007B6901337B617A69FB689A42C2DB7B681C
:101E300018461C37BD4690BD80B582B000AF7860B3
:101E40007B6893F82830002B02D07868FFF726FCD7
:101E50007B6893F82930002B02D0786800F062FA92
:101E60000837BD4680BD00BF80B586B000AFF860C2
:101E7000B9607A603B60FB68002B04D11B4B1A6889
:101E80007B68D31AFB60BB68002B04D1184B1A681F
:101E90003B68D31ABB607A68FB681A44154B1B6811
:101EA0001B6A9A4218DC3A68BB681A44114B1B68DB
:101EB0005B6A9A4210DCF868B9687A683B68FFF799
:101EC000D7FE78617B69002B06D07869FFF760FF49
:101ED00078617B69002B01D1002303E0786900F071
:101EE0005DFD7B6918461837BD4680BDB0030020F4
:101EF000B4030020A003002080B588B000AFF860D4
:101F0000B9607A603B60FB681B693A68D31ABB61B1
:101F1000FB685B69BA6AD31A7B61FB68002B1DD032
:101F2000FB681A693B689A4218DCFB685A69BB6A0D
:101F30009A4213DC3A68BB681A44FB681969FB686B
:101F40009B680B449A4209DCBA6A7B681A44FB68B6
:101F50005969FB68DB680B449A4201DD002379E094
:101F6000BB68002B05D1FB689B685A1EBB69D31A5E
:101F7000BB607B68002B05D1FB68DB685A1E7B6960
:101F8000D31A7B60B86879683A68BB6AFFF770FE5D
:101F900038613B69002B01D100235BE0FB68DA6903
:101FA0003B69DA61FB681A6A3B691A62FB6893F85D
:101FB00025203B6983F82520FB6893F826203B69A0
:101FC00083F82620FB6893F827203B6983F82720B5
:101FD000FB681A6C3B691A64FB6893F82A203B691A
:101FE00083F82A20FB6893F828203B6983F828208F
:101FF000FB6893F829203B6983F829203B69BA697B
:102000009A643B697A695A643B69FA68DA64002326
:10201000FB6114E03B69DA6AFB699B001344FA68D0
:10202000D16ABA6992000A4411687A6992000A4436
:102030001A60FB690133FB61BB690133BB61FA695B
:10204000BB689A42E6DB3B699B6943F001023B694E
:102050009A613B6918462037BD4680BD80B590B077
:1020600006AFF860B9607A60FB68002B01D10023ED
:102070003BE1FB689B6903F02003002B11D0FB6858
:10208000DA6CFB681B69F968496900911046B96808
:102090007A6800F0C1FD78627B6A002B3CD1002396
:1020A00023E1FB689B6903F00103002B11D0FB685F
:1020B000DA6CFB681B69F968496900911046B968D8
:1020C0007A68FFF719FF78627B6A002B24D100231E
:1020D0000BE1884B1B689A6BFB689A420AD1854BCF
:1020E0001B681A6A834B1B685B6BD31AFB61002366
:1020F000BB6105E0FB681B69FB61FB685B69BB6159
:10210000B8687968FA69BB69FFF7B2FD78627B6AE3
:10211000002B01D10023E8E07B6ADB685A1EFB68D4
:102120005B689A42B8BF13467B617B6A9B685A1E04
:10213000FB681B689A42B8BF13463B61FB689B690A
:1021400003F02103002B4DD1786AFFF721FE78625E
:102150007B6A002B01D10023C7E0786A00F01EFCE7
:102160007B6A9A68FB689B689A42B8BF13465A1EFE
:102170007B6AD968FB68DB689942B8BF0B46013BB4
:102180000021009100210191029203930023049306
:10219000F868796A0022002300F0D8FC00233B6233
:1021A00013E0FB68DA6A3B6A9B0013441B68002B50
:1021B00008D0FB68DA6A3B6A9B0013441B68184628
:1021C00006F0FAFF3B6A01333B62FB689A683B6AA0
:1021D0009A4207DDFB68DA6A3B6A9B0013441B687E
:1021E000002BDED1FB689A697B6A9A61FB68DA6929
:1021F0007B6ADA61FB6893F824207B6A83F82420E9
:10220000FB6893F825207B6A83F82520FB6893F808
:1022100026207B6A83F82620FB6893F827207B6AB8
:1022200083F82720FB681A6C7B6A1A64FB6893F8B2
:102230002A207B6A83F82A20FB689A6B7B6A9B685A
:10224000013B9A4202DCFB689B6B00E000237A6A48
:102250009363FB68DA6BFB689B68013B9A4203D18E
:102260007B6A9B68013B07E07B6A9B685A1EFB68A0
:10227000DB6B9A42B8BF13467A6AD363FB68DA6CA9
:102280007B6ADA64FB6893F828207B6A83F828204D
:10229000FB6893F829207B6A83F82920FB681A6A77
:1022A0007B6A1A627B6A7A695A607B6A3A691A6049
:1022B000FB681B6B184606F07FFFFB685B6B1846DC
:1022C00006F07AFFFB68DB6A184606F075FFFA68CD
:1022D0007B6A11461A465023084611461A4606F0F4
:1022E00082FF786A06F068FFFB6818462837BD460B
:1022F00080BD00BFA003002080B584B000AFF860AF
:10230000B9607A60F868B9687A68FFF7A7FE034693
:10231000002B01D0002301E04FF0FF3318461037A7
:10232000BD4680BD80B584B000AF78607B68FB603F
:1023300005E0F868FFF708FCFB68DB6CFB60FB68F6
:10234000002BF6D11037BD4680BD00BF80B588B0E8
:1023500000AF786039607B68002B02D14FF0FF330B
:1023600087E17B685B68FB617B681B68BB617B689E
:102370009A68BB699A420ADB7B68DA68FB699A4211
:1023800005DBBB69002B02DBFB69002B02DA4FF097
:10239000FF336EE1894B1B685B79002B06D13B68EC
:1023A00003F48033002B01D1012300E00023FB73F1
:1023B0003B68DBB27B613B6823F4FF5323F01F03D0
:1023C0003B61FB7B002B00F097807B691F2B03D9BF
:1023D0007B697F2B40F090807B690A2B33D00A2BDE
:1023E00004DC082B50D0092B05D06EE00D2B51D00A
:1023F0007F2B53D069E0724B1B68FA6992FBF3F3B1
:1024000001336F4A126802FB03F3BB6015E03B69BE
:1024100043F0200378681946FFF798FF0346B3F1AD
:10242000FF3F02D14FF0FF3323E17B685B68002B55
:1024300000D106E0FB690133FB61FA69BB689A428F
:10244000E5DB002315E15D4B1B685B79002B01D1B7
:102450000023FB61786800F009FABB690133BB61B6
:102460007B68DB6BBA699A420DDDBB69013BBB61DE
:102470007868012100F094FC0346B3F1FF3F02D1DC
:102480004FF0FF33F5E036E0FB69013BFB61FB6990
:10249000002B02DA0023FB612DE02CE03B6943F0C6
:1024A0005E0378681946FFF751FF0346B3F1FF3F1B
:1024B00002D14FF0FF33DCE03B6943F03F03786823
:1024C0001946FFF743FF0346D3E03B6943F05E0341
:1024D00078681946FFF73AFF0346B3F1FF3F02D190
:1024E0004FF0FF33C5E03B68403378681946FFF78B
:1024F0002DFF0346BDE0A5E03B6903F07F43002BC1
:1025000004D17B68DB693A6913433B613B6903F0A3
:102510007F43002B09D17B681B6A23F4FF5323F010
:102520001F033A6913433B6106E07B681A6A254B37
:1025300013403A6913433B617B69202B03D17B68CD
:102540001B6ADBB27B617A693B6913437B617B6801
:10255000DA6ABB699B0013441A68FB699B00134449
:102560001A687B699A424AD07B681A6BBB699B00E8
:1025700013441B68B3F1FF3F0ED17B681A6BBB6934
:102580009B001A447B68596BBB699B000B44F9693B
:1025900019601B68136027E07B681A6BBB699B009E
:1025A00013441A68FB699A420EDD7B681A6BBB699B
:1025B0009B001344FA691A6016E000BFA0030020D4
:1025C0000800002000E0FF007B685A6BBB699B009D
:1025D00013441A68FB699A4206DA7B685A6BBB6936
:1025E0009B001344FA691A607B68DA6ABB699B0036
:1025F00013441A68FB699B0013447A691A60FB69EB
:102600000133FB617B68DB68FA699A421ADB0023BD
:10261000FB61BB690133BB617B68DB6BBA699A42C2
:1026200010DDBB69013BBB617868012100F0B8FB9C
:102630000346B3F1FF3F05D17868FFF7FDFB4FF08C
:10264000FF3316E07B68FA695A607B68BA691A60E2
:102650007B6893F82830002B02D07868FFF71EF8CB
:102660007B6893F82930002B02D07868FFF75AFE78
:10267000002318462037BD4680BD00BF80B586B018
:1026800000AFF860B9607A6000237B61FB68002BC3
:1026900002D0BB68002B02D14FF0FF3321E012E0E3
:1026A0007B695A1C7A61BA6813441B78DBB23B61C0
:1026B000F8683969FFF74AFE0346B3F1FF3F02D1DC
:1026C0004FF0FF330DE07B69BA6813441B78002B91
:1026D00006D07A697B689A42E2DB7B68002BDFDBFD
:1026E000002318461837BD4680BD00BF80B582B0B4
:1026F00000AF78603960786839684FF0FF32FFF7D3
:10270000BDFF034618460837BD4680BD80B485B07E
:1027100000AF786039603B6823F4FF5323F01F0358
:10272000FB60FB6803F07F43002B04D17B68DB690F
:10273000FA681343FB60FB6803F07F43002B09D169
:102740007B681B6A23F4FF5323F01F03FA681343CB
:10275000FB6006E07B681A6A084B1340FA68134373
:10276000FB603B68DAB2FB6813433B603B6818468A
:102770001437BD465DF8047B704700BF00E0FF00E2
:1027800080B588B000AFF860B9607A60FB68002B54
:1027900002D07B68002B02DC4FF0FF335FE0FB6868
:1027A0005B68FB61FB68DA68F9697B680B449A42F5
:1027B000B8BF1346013BBB61FB68DA6AFB681B6864
:1027C0009B0013441B687B61BB68002B01D0BB6876
:1027D00000E0254BF8681946FFF798FFB860FB69E1
:1027E0007B6008E07B689B007A691344BA681A60D2
:1027F0007B6801337B607A68BB699A42F2DDFB68D3
:102800001B687B60FB681A6B7B689B0013441A682B
:10281000FB699A4208DCFB681A6B7B689B001344D7
:102820001B68B3F1FF3F06D1FB681A6B7B689B0006
:102830001344FA691A60FB685A6B7B689B00134467
:102840001A68BB699A4206DAFB685A6B7B689B0080
:102850001344BA691A60F868FFF7EEFA00231846C5
:102860002037BD4680BD00BF5F00010080B588B045
:1028700000AF78607B68002B02D14FF0FF3349E056
:102880007B681B687B617B685B683B617B681B6A5C
:10289000FB603B69FB617B68DA6A7B699B001344E0
:1028A0001A683B699B001344BB6108E0BB69FA6886
:1028B0001A60FB690133FB61BB690433BB617B6850
:1028C000DA68FB699A42F1DC7B681A6B7B699B00D2
:1028D00013441A683B699A4208DC7B681A6B7B696F
:1028E0009B0013441B68B3F1FF3F06D17B681A6B52
:1028F0007B699B0013443A691A607B685A6B7B6959
:102900009B0013447A68D268013A1A607868FFF72E
:1029100093FA002318462037BD4680BD80B584B0A9
:1029200000AF78607B68002B02D14FF0FF3330E0BE
:102930007B681B68FB607B685B68BB607B681B68AF
:102940005A1C7B689B689A421CDA7B6800225A609A
:102950007B681B685A1C7B681A6007E07868FFF781
:1029600085FF7B681B685A1C7B681A607B689A68C5
:102970007B681B689A42F1DC7B68FA681A607B68A6
:10298000BA685A607868FFF771FF7868FFF754FA01
:10299000002318461037BD4680BD00BF80B582B009
:1029A00000AF7860786800210022FEF7CFFB034675
:1029B000B3F1FF3F02D14FF0FF3303E07868FFF738
:1029C000ADFF034618460837BD4680BD80B500AF51
:1029D000012000F023FB034B1B6801221A71002326
:1029E000184680BDA003002080B491B000AFF8600D
:1029F000B9607A603B600023FB61FA6C3B68D31AD4
:102A0000BB61BA6C7B68D31A7B61FB68002B02D078
:102A1000BB68002B02D14FF0FF3390E0BB681B6B0B
:102A2000FB62BB685B6BBB6200237B6308E0FB6AF5
:102A30000433FB62BB6A0433BB627B6B01337B6391
:102A40007A6B3B6D9A42F2DB0023BB6372E0FB685A
:102A5000DA6AB96B7B680B449B0013441A683B68C5
:102A60009B0013447B62BB68DA6AB96B3B6D0B4415
:102A70009B0013441A687B6D9B0013443B624FF02C
:102A8000FF333B630023FB6327E07B6A1A683B6AE2
:102A90001B689A4218D07B6A1B68DBB2202B03D1DB
:102AA00097F85830002B0FD17B6A1A683B6A1A607E
:102AB0003B6BB3F1FF3F03D1FA6B7B6D13443B6378
:102AC000FA6B7B6D1344FB617B6A04337B623B6A68
:102AD00004333B62FB6B0133FB63FA6BBB699A42C5
:102AE000D3DBFB6A1B68B3F1FF3F06D1FB6A3A6B8D
:102AF0001A60BB6AFA691A6013E03B6BB3F1FF3FDF
:102B00000FD0FB6A1A683B6B9A4202DDFB6A3A6B94
:102B10001A60BB6A1A68FB699A4202DABB6AFA69F0
:102B20001A60FB6A0433FB62BB6A0433BB62BB6B93
:102B30000133BB63BA6B7B699A4288DB002318467A
:102B40004437BD465DF8047B704700BF80B592B046
:102B500006AFF860B9607A603B60FB68002B17D065
:102B6000BB68002B14D02B4B1B68BA689A420FD05D
:102B7000BB689A683B6C9A420ADDBB68DA687B6C7A
:102B80009A4205DDBB6B002B02DBFB6B002B02DAEC
:102B90004FF0FF3339E0FB689A687B68D31AFB6219
:102BA000FB68DA683B68D31ABB623A6CBB6BD31A1A
:102BB00001337B627A6CFB6BD31A01333B627A6A16
:102BC000FB6A9A42B8BF1346FB613A6ABB6A9A42F3
:102BD000B8BF1346BB617A68FB6913447B613A68EE
:102BE000BB6913443B61BB6CDBB27A6900923A6902
:102BF0000192BA6B0292FA6B03920493F868B96877
:102C00007A683B68FFF7F0FE034618463037BD464A
:102C100080BD00BFA403002080B588B000AFF8607D
:102C2000B9607A603B603B68BB61BB6A7B61FB68F3
:102C3000002B05D0FB689B6903F01003002B01D12A
:102C4000002399E0FB681A693B689A4218DCFB682C
:102C50005A69BB6A9A4213DC3A68BB681A44FB683B
:102C60001969FB689B680B449A4209DCBA6A7B6865
:102C70001A44FB685969FB68DB680B449A4201DD22
:102C8000002379E0BB68002B05D1FB689B685A1EC6
:102C9000BB69D31ABB607B68002B05D1FB68DB687E
:102CA0005A1E7B69D31A7B60B86879683A68BB6A38
:102CB000FEF7DEFF38613B69002B01D100235BE0AA
:102CC000FB68DA693B69DA61FB6893F825203B69A8
:102CD00083F82520FB6893F826203B6983F826209B
:102CE000FB6893F827203B6983F82720FB6893F85B
:102CF0002A203B6983F82A203B69FA68DA640023BA
:102D0000FB6113E03B69DA6AFB699B001A44FB68CC
:102D1000D96ABB69581CB8619B000B4419687B6970
:102D20009B000B441360FB690133FB61FA69BB68CC
:102D30009A42E7DB3B6920229A61114B00221A601C
:102D4000104B00221A60104B00221A600F4B002219
:102D50001A600F4B1A68BB689A42B8BF13465A1ED6
:102D60000C4B1A600C4B1A687B689A42B8BF13462A
:102D70005A1E0A4B1A603B6918462037BD4680BD73
:102D8000E8040020EC040020F0040020F4040020FB
:102D9000B0030020F8040020B4030020FC0400204D
:102DA00080B58AB000AF786039607B68002B07D0AF
:102DB0007B6893F82630002B02D03B68002B02D1B1
:102DC0004FF0FF336CE07B681B6AFB603B68002BB5
:102DD00008DD7B689B6BBB617B68DB6B7B610123E0
:102DE000FB6108E07B68DB6BBB617B689B6B7B6195
:102DF0004FF0FF33FB6100233B6239E07B68DA6A06
:102E0000BB699B0013441B683B61BB697B6211E09B
:102E10007B68DA6A7B6A9B0013447A68D16A786AB5
:102E2000FA69024492000A4412681A607A6AFB69DD
:102E300013447B627A6A7B699A42E9D17B68DA6AD9
:102E40007B699B0013443A691A6000237B6207E0A8
:102E50003B691A1D3A61FA681A607B6A01337B622A
:102E60007B68DA687B6A9A42F2DC3B6A01333B6238
:102E70003B68FA6902FB03F23B6A9A42BEDC7B685C
:102E80009A6B7B68D96B7B689B6BCB1A0133786834
:102E900011461A46FEF784FE7868FEF7CDFF002340
:102EA00018462837BD4680BD80B483B000AF786037
:102EB00039600C37BD465DF8047B704780B48BB039
:102EC00000AFF860B9607A603B6000237B627EE00F
:102ED000BA687B6A1344BB617B6A9B003A681344FF
:102EE0001B683B623B6A03F48033002B0CD03A6AC8
:102EF0004FF680731340002B06D13B6A03F07F022C
:102F0000384B53F822303B623B6A9BB2DBB2FB8208
:102F10003B6A1B0E344AD35C1B097B753B6A1B0E54
:102F2000314AD35C03F00F033B757B7D1B01DAB2A2
:102F30003B7D1343DBB2FB773B6A03F40013002BAA
:102F400006D03B7D1B01DAB27B7D1343DBB2FB77FE
:102F50003B6A03F48013002B01D00123FB773B6A0B
:102F600003F40023002B09D0FB7F1B09FB74FB7CBF
:102F70001B01DAB2FB7C1343DBB2FB773B6A03F441
:102F80000003002B03D0FB7F43F00803FB773B6A71
:102F900003F48003002B03D0FB7F63F07F03FB77F8
:102FA000FB7F1B029AB2FB8A13439BB2FB824FF05A
:102FB000C042FB680133802101FB03F1BB690B4474
:102FC0005B001344FA8A1A807B6A01337B627A6A57
:102FD0007B689A42FFF67CAF2C37BD465DF8047BD8
:102FE000704700BF0C0000203434012080B400AFD3
:102FF00050231846BD465DF8047B704780B400AF8F
:1030000019231846BD465DF8047B704780B400AFB5
:1030100000231846BD465DF8047B704780B483B03A
:1030200000AF0346FB710C37BD465DF8047B70476B
:1030300080B483B000AF13460246FA800A46BA80D5
:103040007B80FB88FF2B0ED8B7F90630BA88D2B246
:1030500002F00F02D1B27A881201D2B20A43D2B280
:10306000D1B2034AD1540C37BD465DF8047B70479A
:103070003434012080B487B000AF0346B9607A6071
:10308000FB814FF0FF337B61FB89FF2B19D8BB68B5
:10309000002B16D07B68002B13D0B7F90E300C4AEA
:1030A000D35C03F00F039AB2BB681A80B7F90E30F5
:1030B000074AD35C1B09DBB203F00F039AB27B68AB
:1030C0001A807B6918461C37BD465DF8047B704743
:1030D0003434012080B400AFBD465DF8047B7047F6
:1030E00080B483B000AF786039604FF0FF3318468A
:1030F0000C37BD465DF8047B704700BF80B483B0D9
:1031000000AF78600C37BD465DF8047B704700BFA8
:1031100080B483B000AF78600C37BD465DF8047BA7
:10312000704700BF90B583B000AF786039601E4B28
:103130001E4A1A601D480021582206F05FF81C48FC
:1031400000214FF4807206F059F8174B1C68FFF706
:1031500055FF03462362144B1C68FFF747FF0346E5
:103160006362114B1B6896221A630F4B1B68002287
:103170005A720D4B1B680022DA710B4B1B6801223F
:103180009A71094B1B680022DA64074B1B68002206
:1031900083F84820044B1B684FF40072DA61002367
:1031A00018460C37BD4690BDA00300200005002046
:1031B0003434012080B487B000AF7860154B1B68B1
:1031C0009B697B61134B1B687A689A617B68002B53
:1031D00002D0022B05D009E020233B610023FB60D5
:1031E00010E000233B610723FB600BE0094B1B68E9
:1031F000DB691B12DBB23B61064B1B68DB69DBB290
:10320000FB6000BF7B6918461C37BD465DF8047B38
:10321000704700BFA003002080B483B000AF034616
:10322000FB71104B1B78002B07D0FB79002B01D0D2
:10323000082300E010230C4A1360FA7913465B0759
:103240009B1ADB001A46084B1B681344082B01D05D
:10325000002301E04FF0FF3318460C37BD465DF800
:10326000047B7047980200209402002080B400AFD5
:10327000024B1846BD465DF8047B70474CA300081E
:1032800080B500AF00F0DEFA80BD00BF80B500AFB2
:1032900000F006FB80BD00BF80B483B000AF786053
:1032A000012318460C37BD465DF8047B704700BF0C
:1032B00080B500AF00F0BCFD80BD00BF80B500AFA1
:1032C00000F0C4FD0346184680BD00BF80B582B043
:1032D00000AF78607B68184600F00CF97B680A4AFA
:1032E0001A607B6800229A607868796800F074F848
:1032F0007B6805E07B68184600F012F904F078F866
:1033000018460837BD4680BD60A3000880B582B06E
:1033100000AF78607B680A4A1A607868796800F0C4
:1033200079F87B68184600F0FBF80023002B02D0E8
:10333000786804F05EFC7B6818460837BD4680BD9F
:1033400060A3000880B582B000AF78607868FFF7AE
:10335000DDFF786804F04DFC7B6818460837BD46F1
:1033600080BD00BF90B587B002AFF860B9603B6028
:103370001346FB80FB681B681C331C68FB88F868DD
:10338000B9681A463B68A0470346002B0FD0FA687D
:10339000FB88F96800913968019110460649BA68BE
:1033A00000F012F90346002B01D0012300E00023B6
:1033B00018461437BD4690BDBD33000880B582B0B5
:1033C00000AF78607B681B6818331B687868984783
:1033D0000837BD4680BD00BF80B582B000AF7860C1
:1033E0003960FFF74DFF0A4B1B68002B03D1084BD8
:1033F0007A681A6006E0064B1A687B689A60044B8C
:103400007A681A60FFF742FF0837BD4680BD00BFEB
:103410005805002080B584B000AF78603960FFF7B0
:103420002FFF154B1B683A689A4206D13B689A6891
:10343000114B1A60FFF72AFF1BE0FFF727FFFFF78A
:1034400037FF0D4B1B68FB6002E0FB689B68FB606D
:10345000FB68002B04D0FB689A683B689A42F4D161
:10346000FB68002B03D03B689A68FB689A60FFF703
:1034700025FF1037BD4680BD5805002080B582B0BD
:1034800000AF0123FB710E4B1B683B6010E03B68F3
:103490001B6814331B68386898470346FA79134051
:1034A000002B0CBF00230123FB713B689B683B6032
:1034B0003B68002BEBD1FB7918460837BD4680BD31
:1034C0005805002080B500AFFFF7D8FF0346184627
:1034D00080BD00BF80B483B000AF78607B68044AD1
:1034E0001A607B6818460C37BD465DF8047B704750
:1034F000E8A3000880B582B000AF78607B6818460A
:10350000FFF7E8FF7B68054A1A607B6800225A6073
:103510007B6818460837BD4680BD00BFC8A30008B9
:1035200080B582B000AF78607B680B4A1A6078681B
:10353000FCF7B6FF0346002B02D0786800F06EF867
:103540000023002B02D0786804F053FB7B681846F8
:103550000837BD4680BD00BFC8A3000880B582B053
:1035600000AF78607868FFF7DBFF786804F041FB14
:103570007B6818460837BD4680BD00BF80B582B065
:1035800000AF786039603B68002B05D10B481B21E8
:103590000B4A0C4B03F0A4FC7B681B681B68786823
:1035A00098470346002B02D0786800F037F87B6814
:1035B0003A685A600837BD4680BD00BF9CA300082A
:1035C00024A40008ACA3000880B58AB004AFF8605A
:1035D000B9607A607B807B887A6A009207F110027A
:1035E00001920022029200220392B86879681A467A
:1035F0003B6A00F02DFA03467B617B69012B07D102
:10360000FB681B6804331B683A69F86811469847E1
:103610007B6918461837BD4680BD00BF80B584B0B1
:1036200000AF78607B685B68002B0BD07B685B68C1
:10363000FB607B6800225A60F86800F0D9FA7B686A
:1036400000225A601037BD4680BD00BF80B485B0EF
:1036500000AFF860B9607A60FB68043BFB60FB6810
:103660004FF080721A60FB68043BFB60BA68FB682D
:103670001A60FB68043BFB600C4AFB681A60FB683D
:10368000143BFB607A68FB681A60FB68043BFB60D4
:10369000FB686FF002021A60FB68203BFB60FB686E
:1036A00018461437BD465DF8047B7047B1360008F4
:1036B00080B483B000AF0C4B1B68B3F1FF3F09D05F
:1036C0004FF0500383F31188BFF36F8FBFF34F8F19
:1036D0007B60FEE74FF0500383F31188BFF36F8FD9
:1036E000BFF34F8F3B60FEE70C020020064B1968CA
:1036F0000868B0E8F04F80F30988BFF36F8F4FF090
:10370000000080F3118870476405002006480068B7
:10371000006880F3088862B661B6BFF34F8FBFF3CD
:103720006F8F00DF00BF000008ED00E080B586B0BD
:1037300000AF3B4B1A683B4B9A4209D14FF0500304
:1037400083F31188BFF36F8FBFF34F8F3B61FEE7A9
:10375000334B1A68344B9A4209D14FF0500383F32C
:103760001188BFF36F8FBFF34F8FFB60FEE72F4BC6
:103770007B617B691B78DBB2BB607B69FF221A70BF
:103780007B691B78DBB2FB71FB79DBB203F0500382
:10379000DAB2274B1A70274B07221A6009E0254B33
:1037A0001B685A1E234B1A60FB79DBB25B00DBB24D
:1037B000FB71FB79DBB2DBB25BB2002BEFDB1D4BA5
:1037C0001B681A021B4B1A601A4B1B6803F4E06259
:1037D000184B1A60BB68DAB27B691A70164B164A2E
:1037E000126842F470021A60134B134A126842F0D6
:1037F00070421A6000F0CCF8104B00221A6000F002
:10380000E1F80F4B0E4A126842F040421A60FFF78F
:103810007DFFFFF74DFF002318461837BD4680BDDA
:1038200000ED00E071C20F4170C20F4100E400E002
:103830005C0500206005002020ED00E00C02002067
:1038400034EF00E080B483B000AF4FF0500383F357
:103850001188BFF36F8FBFF34F8F7B600E4B1B68D8
:103860005A1C0D4B1A600C4B1B68012B0ED10B4BD5
:103870001B68DBB2002B09D04FF0500383F3118893
:10388000BFF36F8FBFF34F8F3B60FEE70C37BD4632
:103890005DF8047B704700BF0C02002004ED00E0DF
:1038A00080B483B000AF104B1B68002B09D14FF0E0
:1038B000500383F31188BFF36F8FBFF34F8F7B608B
:1038C000FEE7094B1B685A1E074B1A60064B1B6824
:1038D000002B04D100233B603B6883F311880C3735
:1038E000BD465DF8047B70470C020020EFF30980B1
:1038F000BFF36F8F144B1A681EF0100F08BF20ED36
:10390000108A20E9F04F10604DF8043D4FF0500050
:1039100080F31188BFF34F8FBFF36F8F00F000FC6F
:103920004FF0000080F3118808BC19680868B0E8FF
:10393000F04F1EF0100F08BFB0EC108A80F309881A
:10394000BFF36F8F704700BF6405002080B584B05F
:1039500000AFEFF311824FF0500383F31188BFF3F0
:103960006F8FBFF34F8FFA60BB6000F013FB03460D
:10397000002B03D0054B4FF080521A6000237B6070
:103980007B6883F311881037BD4680BD04ED00E0ED
:1039900080B400AF074B084A1168084AA2FB010235
:1039A0009209013A1A60064B07221A60BD465DF87B
:1039B000047B704714E000E010020020D34D621039
:1039C00010E000E0DFF80C00016841F470010160D4
:1039D0007047000088ED00E080B485B000AFEFF3E1
:1039E0000583FB60FB680F2B13D9154AFB68134452
:1039F0001B78FB72134B1B78FA7A9A4209D24FF06C
:103A0000500383F31188BFF36F8FBFF34F8F7B6039
:103A1000FEE70D4B1B6803F4E0620C4B1B689A42F7
:103A200009D94FF0500383F31188BFF36F8FBFF3B1
:103A30004F8F3B60FEE71437BD465DF8047B70474F
:103A4000F0E300E05C0500200CED00E060050020E4
:103A500080B58CB002AFF860B9603B601346FB8064
:103A6000FB68002B09D14FF0500383F31188BFF39B
:103A70006F8FBFF34F8FBB61FEE73B6B042B09D900
:103A80004FF0500383F31188BFF36F8FBFF34F8F55
:103A90007B61FEE7FB881846B96B00F063FE386275
:103AA0003B6A002B78D03B6A1A6BFB8803F180439A
:103AB000013B9B001344FB61FB6923F00703FB619F
:103AC000FB6903F00703002B09D04FF0500383F389
:103AD0001188BFF36F8FBFF34F8F3B61FEE7FB8809
:103AE0000093386AB9683A6BFB6B00F03BFDF869EC
:103AF000F9683A68FFF7AAFD02463B6A1A607B6BD9
:103B0000002B02D07B6B3A6A1A60FFF79BFE314BA9
:103B10001B685A1C2F4B1A602F4B1B68002B09D1B6
:103B20002D4B3A6A1A602B4B1B68012B0FD100F00A
:103B30006BFD0CE0294B1B68002B08D1264B1B6842
:103B4000DA6A3B6B9A4202D8234B3A6A1A60244BDA
:103B50001B685A1C224B1A60214B1A683B6A1A6474
:103B60003B6ADB6A01229A401E4B1B681A431D4BBD
:103B70001A603B6ADA6A13469B0013449B001A4A98
:103B80001A443B6A04331046194601F0DFFA012358
:103B90007B62FFF785FE02E04FF0FF337B627B6ABA
:103BA000012B11D10D4B1B68002B0DD00A4B1B684C
:103BB000DA6A3B6B9A4207D20C4B4FF080521A6084
:103BC000BFF34F8FBFF36F8F7B6A18462837BD4610
:103BD00080BD00BF3C060020640500204806002090
:103BE00058060020440600206805002004ED00E08F
:103BF00080B584B000AF7860FFF724FE7B68002BAF
:103C000002D1334B1B6800E07B68FB60FB68043328
:103C1000184601F0F7FA0346002B15D1FB68DA6A63
:103C20002C4913469B0013449B000B441B68002B3C
:103C30000AD1FB68DB6A012202FA03F3DA43264B5E
:103C40001B681A40244B1A60FB689B6A002B04D047
:103C5000FB681833184601F0D5FAFB6804331F4897
:103C6000194601F073FA1E4B1B685A1C1C4B1A6054
:103C70001C4B1B685A1C1B4B1A60FFF711FE1A4B9A
:103C80001B68002B21D0124B1B68FA689A4216D190
:103C9000164B1B68002B09D04FF0500383F311889B
:103CA000BFF36F8FBFF34F8FBB60FEE7104B4FF03A
:103CB00080521A60BFF34F8FBFF36F8F05E0FFF79D
:103CC000C1FD00F097FDFFF7EBFD1037BD4680BD4D
:103CD000640500206805002044060020100600202E
:103CE0002406002058060020480600206006002018
:103CF00004ED00E080B586B000AF786000237B6102
:103D00007B68002B2FD01F4B1B68002B09D04FF076
:103D1000500383F31188BFF36F8FBFF34F8FFB60A6
:103D2000FEE700F085F8184B1A687B6813443B6186
:103D3000164B1B680433184601F064FA0346002B47
:103D40000BD1124B1B68DB6A012202FA03F3DA4340
:103D50000F4B1B681A400E4B1A60386900F0CCFC00
:103D600000F074F878617B69002B07D1094B4FF0A4
:103D700080521A60BFF34F8FBFF36F8F1837BD4665
:103D800080BD00BF600600204006002064050020C2
:103D90004406002004ED00E080B588B004AF0023A5
:103DA00000930023019300230293002303931B48F5
:103DB0001B4982220023FFF74BFEF860FB68012BB2
:103DC00002D100F067FEF860FB68012B15D14FF0BF
:103DD000500383F31188BFF36F8FBFF34F8FBB6026
:103DE000104B4FF0FF321A600F4B01221A600F4B3D
:103DF00000221A60FFF79AFC0CE0FB68002B09D147
:103E00004FF0500383F31188BFF36F8FBFF34F8FD1
:103E10007B60FEE71037BD4680BD00BF314500081E
:103E200050A400085C060020480600204006002040
:103E300080B400AF044B1B685A1C034B1A60BD468C
:103E40005DF8047B704700BF6006002080B584B039
:103E500000AF0023FB603E4B1B68002B09D14FF0E5
:103E6000500383F31188BFF36F8FBFF34F8F7B60D5
:103E7000FEE7FFF7E7FC364B1B685A1E344B1A600F
:103E8000334B1B68002B5BD1324B1B68002B57D088
:103E90002EE0314BDB68DB68BB60BB68183318462B
:103EA00001F0B0F9BB680433184601F0ABF9BB6808
:103EB000DB6A01229A40294B1B681A43274B1A6080
:103EC000BB68DA6A13469B0013449B00244A1A44D9
:103ED000BB6804331046194601F038F9BB68DA6A4A
:103EE000204B1B68DB6A9A4202D31F4B01221A60E7
:103EF000194B1B68002BCCD11C4B1B68002B11D01D
:103F00000CE000F047F80346002B02D0164B0122CC
:103F10001A60164B1B685A1E144B1A60134B1B6811
:103F2000002BEED1104B1B68012B09D10123FB6044
:103F30000F4B4FF080521A60BFF34F8FBFF36F8F5C
:103F4000FFF7AEFCFB6818461037BD4680BD00BFCA
:103F5000600600203C060020FC05002044060020EE
:103F60006805002064050020500600204C06002053
:103F700004ED00E080B483B000AF054B1B687B60AC
:103F80007B6818460C37BD465DF8047B704700BF60
:103F90004006002080B586B000AF00237B61554B02
:103FA0001B68002B40F09380534B1B685A1C524BEC
:103FB0001A60514B1B683B613B69002B1FD14F4B73
:103FC0001B681B68002B09D04FF0500383F3118846
:103FD000BFF36F8FBFF34F8F3B60FEE7474B1B680C
:103FE000FB60474B1A68454B1A60454BFA681A60EC
:103FF000444B1B685A1C434B1A6000F0FBFB424BBE
:104000001B683A699A424DD33C4B1B681B68002BD6
:1040100001D1012300E00023002B04D03A4B4FF0E4
:10402000FF321A603EE0354B1B68DB68DB68BB6023
:10403000BB685B687B603A697B689A4203D2324B0B
:104040007A681A602EE0BB680433184601F0DAF88B
:10405000BB689B6A002B04D0BB681833184601F07C
:10406000D1F8BB68DB6A01229A40284B1B681A43CF
:10407000264B1A60BB68DA6A13469B0013449B0008
:10408000234A1A44BB6804331046194601F05EF80F
:10409000BB68DA6A1F4B1B68DB6A9A4201D30123B3
:1040A0007B61B1E71B4B1B68DA6A194913469B0019
:1040B00013449B000B441B68012B01D901237B6136
:1040C000154B1B68002B09D103F044F806E0124B96
:1040D0001B685A1C104B1A6003F03CF80F4B1B680E
:1040E000002B01D001237B617B6918461837BD4640
:1040F00080BD00BF6006002040060020F4050020BF
:10410000F8050020540600205C060020440600202C
:1041100068050020640500204C06002050060020A1
:1041200080B586B000AF374B1B68002B03D0364BF1
:1041300001221A6063E0344B00221A60334B1B6883
:104140001A68324B1B681B6B9A4208D82F4B1A68AF
:104150002E4B1B6834331046194602F0F5FF2B4BEB
:104160001B681B6B18462A49142205F02DF80346DC
:10417000002B08D0254B1A68244B1B68343310469B
:10418000194602F0E1FF234B1B68FB60FB68B3FAA2
:1041900083F3FB72FB7AC3F11F037B611E497A69CB
:1041A00013469B0013449B000B441B68002B09D152
:1041B0004FF0500383F31188BFF36F8FBFF34F8F1E
:1041C0007B60FEE77A6913469B0013449B00124A0A
:1041D00013443B613B695B685A683B695A603B69C1
:1041E0005A683B6908339A4204D13B695B685A6854
:1041F0003B695A603B695B68DA68044B1A601837A0
:10420000BD4680BD600600205006002064050020E9
:1042100058A40008440600206805002080B584B03A
:1042200000AF786039607B68002B09D14FF05003F4
:1042300083F31188BFF36F8FBFF34F8FBB60FEE72F
:10424000194B1B6818337868194600F0A3FF164B0A
:104250001B680433184600F0D5FF0346002B0BD132
:10426000114B1B68DB6A012202FA03F3DA430F4B9E
:104270001B681A400D4B1A603B68B3F1FF3F07D132
:10428000094B1B6804330A48194600F05FFF07E03A
:10429000084B1A683B681344FB60F86800F02CFA7E
:1042A0001037BD4680BD00BF6405002044060020D5
:1042B000280600204006002080B586B000AFF860D8
:1042C000B9607A60FB68002B09D14FF0500383F38B
:1042D0001188BFF36F8FBFF34F8F3B61FEE7194B20
:1042E0001B681833F868194600F030FF154B1B683F
:1042F0000433184600F086FF0346002B0BD1114B08
:104300001B68DB6A012202FA03F3DA430E4B1B68D7
:104310001A400D4B1A607B68012B07D1094B1B68B3
:1043200004330A48194600F011FF07E0084B1A68E9
:10433000BB6813447B61786900F0DEF91837BD462D
:1043400080BD00BF64050020440600202806002030
:104350004006002080B586B000AF78607B68DB68DF
:10436000DB683B613B69002B09D14FF0500383F3BD
:104370001188BFF36F8FBFF34F8FFB60FEE73B6980
:104380001833184600F03EFF1D4B1B68002B1CD154
:104390003B690433184600F035FF3B69DB6A0122B4
:1043A0009A40184B1B681A43164B1A603B69DA6A2D
:1043B00013469B0013449B00134A1A443B69043381
:1043C0001046194600F0C2FE05E03B6918330F485D
:1043D000194600F0BBFE3B69DA6A0D4B1B68DB6ACD
:1043E0009A4205D901237B610A4B01221A6001E040
:1043F00000237B617B6918461837BD4680BD00BF2E
:10440000600600204406002068050020FC0500200E
:10441000640500205006002080B485B000AF7860AD
:104420007B68002B09D14FF0500383F31188BFF351
:104430006F8FBFF34F8FFB60FEE7064B1A687B68F8
:104440001A60054B1A687B685A601437BD465DF8E0
:10445000047B7047540600204006002080B586B0DB
:1044600000AF786039607B68002B09D14FF05003B2
:1044700083F31188BFF36F8FBFF34F8FFB60FEE7AD
:104480003B68002B09D14FF0500383F31188BFF331
:104490006F8FBFF34F8FBB60FEE7FFF7D3F91C4B65
:1044A0001B683B613B681B68B3F1FF3F02D10023EF
:1044B0007B6126E07B681A68164B1B689A4207D01E
:1044C0007B685A683B699A4202D801237B6118E0F5
:1044D0007B685B683A69D21A3B681B689A420ED2C5
:1044E0003B681A687B6859683B69CB1A1A443B6879
:1044F0001A607868FFF790FF00237B6101E00123D9
:104500007B61FFF7CDF97B6918461837BD4680BD42
:10451000400600205406002080B400AF034B012267
:104520001A60BD465DF8047B704700BF500600204E
:1045300080B582B000AF786000F0A4F8074B1B682C
:10454000012B07D9064B4FF080521A60BFF34F8FF3
:10455000BFF36F8F02F004FEEEE700BF6805002096
:1045600004ED00E080B586B000AFF860B9607A6015
:104570003B6000237B6112E0BA687B6913441A78C0
:10458000F9687B690B4430331A71BA687B6913444C
:104590001B78002B00D105E07B6901337B617B69CF
:1045A000092BE9D9FB68002283F83D207B68042BA6
:1045B00001D904237B60FB687A68DA62FB687A6859
:1045C0009A64FB680022DA64FB680433184600F042
:1045D000B1FDFB681833184600F0ACFDFB68FA68C3
:1045E0001A617B68C3F10502FB689A61FB68FA688F
:1045F0005A62FB6800221A65FB68002283F8542087
:104600001837BD4680BD00BF80B582B000AF002323
:104610007B600CE07A6813469B0013449B00114AB0
:104620001344184600F066FD7B6801337B607B68AD
:10463000042BEFD90C4800F05DFD0C4800F05AFD4A
:104640000B4800F057FD0B4800F054FD0A4800F0FD
:1046500051FD0A4B044A1A60094B044A1A60083794
:10466000BD4680BD68050020CC050020E005002087
:10467000FC0500201006002028060020F40500207C
:10468000F805002080B582B000AF28E0FFF7D0FB2E
:10469000164B1B68002B14BF00230123DBB27B6089
:1046A000FFF7D4FB7B68002B19D1FFF7CBF80F4B3A
:1046B000DB68DB683B603B680433184600F0A2FD12
:1046C0000B4B1B685A1E0A4B1A600A4B1B685A1E7A
:1046D000084B1A60FFF7E4F8386800F07BF8054BE8
:1046E0001B68002BD2D10837BD4680BD10060020C4
:1046F0003C0600202406002080B582B000AF786020
:10470000134B1B687A685A60124B1B687A689A428E
:1047100009D2114B1A680E4B1B6804331046194618
:1047200000F038FD10E00D4B1A68094B1B6804338C
:104730001046194600F02EFD094B1B687A689A4214
:1047400002D2074B7A681A600837BD4680BD00BFA9
:104750006405002040060020F8050020F405002034
:104760005C06002080B584B000AF03463960FB8052
:104770003B68002B06D1FB889B00184600F058FCD4
:10478000034600E03B68BB60BB68002B0ED058209E
:1047900000F04EFCF860FB68002B03D0FB68BA68A1
:1047A0001A6305E0B86800F08FFC01E00023FB60AD
:1047B000FB68002B08D0FB681A6BFB889B00104637
:1047C000A5211A4604F01AFDFB6818461037BD46AD
:1047D00080BD00BF80B582B000AF78607B681B6B86
:1047E000184600F071FC786800F06EFC0837BD4692
:1047F00080BD00BF80B483B000AF0E4B1B681B6848
:10480000002B01D1012300E00023002B04D00A4B30
:104810004FF0FF321A6008E0064B1B68DB68DB686C
:104820007B607B685A68044B1A600C37BD465DF8A4
:10483000047B7047F40500205C06002080B483B040
:1048400000AF0B4B1B68002B02D101237B6008E0FB
:10485000084B1B68002B02D102237B6001E0002380
:104860007B607B6818460C37BD465DF8047B70475B
:10487000480600206006002080B584B000AF786054
:104880007B68FB607B68002B62D0FB68DA6A324B86
:104890001B68DB6A9A425BD2FB689B69002B06DBD4
:1048A0002D4B1B68DB6AC3F10502FB689A61FB684C
:1048B0005969FB68DA6A13469B0013449B00274A38
:1048C0001344994201D1012300E00023002B3AD088
:1048D000FB680433184600F095FC0346002B15D105
:1048E000FB68DA6A1D4913469B0013449B000B4486
:1048F0001B68002B0AD1FB68DB6A012202FA03F372
:10490000DA43174B1B681A40154B1A60124B1B6891
:10491000DA6AFB68DA62FB68DB6A01229A40104BB4
:104920001B681A430E4B1A60FB68DA6A13469B0039
:1049300013449B00094A1A44FB6804331046194685
:1049400000F004FC04E0044B1B68DA6AFB68DA62DE
:104950001037BD4680BD00BF6405002068050020FB
:104960004406002080B586B000AF78607B683B616C
:1049700000237B617B68002B6CD0394B1B683A6944
:104980009A4209D04FF0500383F31188BFF36F8F21
:10499000BFF34F8FFB60FEE73B69DB6C002B09D157
:1049A0004FF0500383F31188BFF36F8FBFF34F8F26
:1049B000BB60FEE73B69DB6C5A1E3B69DA643B690E
:1049C000DA6A3B699B6C9A4244D03B69DB6C002BF2
:1049D00040D13B690433184600F014FC0346002B19
:1049E00015D13B69DA6A1F4913469B0013449B00AB
:1049F0000B441B68002B0AD13B69DB6A012202FAD7
:104A000003F3DA43184B1B681A40174B1A603B69D3
:104A10009A6C3B69DA623B69DB6AC3F105023B6968
:104A20009A613B69DB6A01229A400F4B1B681A436B
:104A30000D4B1A603B69DA6A13469B0013449B00D6
:104A4000084A1A443B6904331046194600F07EFBBD
:104A500001237B617B6918461837BD4680BD00BFC6
:104A600064050020680500204406002080B400AFE3
:104A7000074B1B68002B04D0054B1B68DA6C013216
:104A8000DA64034B1B681846BD465DF8047B70472B
:104A90006405002080B586B004AF00237B6000F081
:104AA00081FA134B1B68002B0FD0022300930023C5
:104AB000019300230293002303930E480E494FF401
:104AC00082720023FEF7C4FF78607B68002B09D157
:104AD0004FF0500383F31188BFF36F8FBFF34F8FF5
:104AE0003B60FEE77B6818460837BD4680BD00BFC7
:104AF00094060020094C00086CA4000880B588B01A
:104B000000AFF860B9607A603B600023FB611D4B29
:104B10001B68002B30D0BB683B617B687B61FB6806
:104B2000BB61BB68052B1CDCFFF788FE0346022B2C
:104B30000BD1144B1A6807F1100310461946BA6AD4
:104B4000002300F04BFCF86116E00E4B1A6807F1E9
:104B50001003104619460022002300F03FFCF861C4
:104B60000AE0084B1A6807F11003104619463A6824
:104B7000002300F029FDF861FB6918462037BD4687
:104B800080BD00BF9406002080B588B002AF786079
:104B900039601C4B1B68DB68DB687B617B69043315
:104BA000184600F02FFB7B69DB69012B22D17B6962
:104BB0009A697B681344786919463A687B6800F003
:104BC000B9F80346012B15D1002300937869002121
:104BD0007A680023FFF792FF38613B69002B09D107
:104BE0004FF0500383F31188BFF36F8FBFF34F8FE4
:104BF000FB60FEE77B695B6A786998471837BD46BA
:104C000080BD00BF8C06002080B584B000AF786006
:104C100007F10803184600F049F8F860BB68F86827
:104C2000194600F003F800F0C7F8F1E780B584B04A
:104C300000AF78603960FFF7FBF807F1080318460A
:104C400000F058F8F860BB68002B25D13B68002BBA
:104C50000AD17A68FB689A4206D8FFF7F7F87868B5
:104C6000F968FFF791FF19E00E4B1A687968FB6845
:104C7000CB1A104619463A6800F06EFFFFF7E6F8C7
:104C80000346002B0AD1084B4FF080521A60BFF345
:104C90004F8FBFF36F8F01E0FFF7D8F81037BD4695
:104CA00080BD00BF9406002004ED00E080B485B014
:104CB00000AF78600E4B1B681B68002B14BF0023ED
:104CC0000123DBB21A467B681A607B681B68002BE5
:104CD00005D1074B1B68DB681B68FB6001E0002304
:104CE000FB60FB6818461437BD465DF8047B7047CF
:104CF0008C06002080B584B000AF7860FFF73AF9E9
:104D0000F8600B4B1B68FA689A4205D200F0EAF88B
:104D10007B6801221A6002E07B6800221A60044B63
:104D2000FA681A60FB6818461037BD4680BD00BFA0
:104D30009806002080B586B000AFF860B9607A6050
:104D40003B6000237B61FB68BA685A60FB68FA68C5
:104D50001A61BA687B689A4212D87A683B68D21A9C
:104D6000FB689B699A4202D301237B611BE0104BD5
:104D70001A68FB6804331046194600F00BFA12E07B
:104D80007A683B689A4206D2BA683B689A4202D374
:104D900001237B6107E0074B1A68FB680433104668
:104DA000194600F0F7F97B6918461837BD4680BDF3
:104DB000900600208C06002080B58CB002AF7EE00B
:104DC000BB68002B7BDB3B697B627B6A5B69002BEA
:104DD00004D07B6A0433184600F014FA3B1D1846D1
:104DE000FFF788FF3862BB68092B67D801A252F829
:104DF00023F000BF1D4E00081D4E00081D4E000888
:104E0000BD4E00087D4E0008B54E00081D4E00083E
:104E10001D4E0008BD4E00087D4E0008FA687B6AF2
:104E20009B691A44FB68786A11463A6AFFF782FF69
:104E30000346012B21D17B6A5B6A786A98477B6ABB
:104E4000DB69012B19D1FA687B6A9B691344002244
:104E50000092786A00211A460023FFF74FFEF8619E
:104E6000FB69002B09D14FF0500383F31188BFF386
:104E70006F8FBFF34F8FBB61FEE720E0FA687B6A5C
:104E80009A617B6A9B69002B09D14FF0500383F331
:104E90001188BFF36F8FBFF34F8F7B61FEE77B6A93
:104EA0009A693B6A1344786A19463A6A3B6AFFF783
:104EB00041FF04E0786A00F007F900E000BF084B0A
:104EC0001A6807F10803104619460022002300F073
:104ED00007FC0346002B7FF473AF2837BD4680BD27
:104EE0009406002080B588B002AF44E02B4B1B68CD
:104EF000DB681B687B61294B1B68DB68DB683B61F7
:104F00003B690433184600F07DF93B695B6A3869F8
:104F100098473B69DB69012B2DD13B699A697B6915
:104F20001344FB60FA687B699A420ED93B69FA68C0
:104F30005A603B693A691A61184B1A683B69043335
:104F40001046194600F026F915E000230093386951
:104F500000217A690023FFF7D1FDB860BB68002B00
:104F600009D14FF0500383F31188BFF36F8FBFF364
:104F70004F8F3B60FEE7094B1B681B68002BB5D1C8
:104F8000064B1B687B60064B1A68044B1A60044B87
:104F90007A681A601837BD4680BD00BF8C060020B5
:104FA0009006002080B582B000AFFEF74BFC1A4B94
:104FB0001B68002B2BD1194800F09CF8184800F012
:104FC00099F8184B154A1A60174B154A1A600A20AF
:104FD0000C21002200F0A8F902460F4B1A600E4B7C
:104FE0001B68002B09D14FF0500383F31188BFF3E6
:104FF0006F8FBFF34F8F7B60FEE7074B1B68002B63
:1050000005D0054B1B681846084900F07DFDFEF7EA
:1050100047FC0837BD4680BD94060020640600208A
:10502000780600208C0600209006002074A400085A
:1050300080B584B000AF78600023FB607B6803F02C
:105040000703002B04D07B6823F0070308337B6041
:10505000FEF7EEFE184B1B68002B05D1174B23F013
:1050600007031A46144B1A60154B1A687B681A44DA
:10507000144B9A4213D8124B1A687B681A44104B8F
:105080001B689A420BD90C4B1A680D4B1B681344D2
:10509000FB600B4B1A687B681A44094B1A60FEF7D9
:1050A000D5FEFB68002B01D102F04AF8FB681846D8
:1050B0001037BD4680BD00BFA0320120A4060020ED
:1050C0009C320120F72B010080B485B000AF7860DE
:1050D0007B68002B09D04FF0500383F31188BFF396
:1050E0006F8FBFF34F8FFB60FEE71437BD465DF84F
:1050F000047B704780B483B000AF78607B6803F1B5
:1051000008027B685A607B684FF0FF329A607B68C8
:1051100003F108027B68DA607B6803F108027B68B0
:105120001A617B6800221A600C37BD465DF8047B6B
:10513000704700BF80B483B000AF78607B68002206
:105140001A610C37BD465DF8047B704780B485B0AA
:1051500000AF786039607B685B68FB603B68FA6829
:105160005A60FB689A683B689A60FB689B683A687B
:105170005A60FB683A689A603B687A681A617B6893
:105180001B685A1C7B681A601437BD465DF8047BA7
:10519000704700BF80B485B000AF786039603B686D
:1051A0001B68BB60BB68B3F1FF3F03D17B681B6921
:1051B000FB600CE07B680833FB6002E0FB685B6827
:1051C000FB60FB685B681A68BB689A42F6D9FB68AB
:1051D0005A683B685A603B685B683A689A603B680B
:1051E000FA689A60FB683A685A603B687A681A61A4
:1051F0007B681B685A1C7B681A601437BD465DF8D3
:10520000047B704780B485B000AF78607B681B6911
:10521000FB607B685B687A6892689A607B689B68D1
:105220007A6852685A60FB685A687B689A4203D170
:105230007B689A68FB685A607B6800221A61FB6889
:105240001B685A1EFB681A60FB681B6818461437F7
:10525000BD465DF8047B704780B584B000AF7860D0
:1052600039607B68FB60FB68002B09D14FF050036D
:1052700083F31188BFF36F8FBFF34F8FBB60FEE7DF
:10528000FEF7E0FAFB681A68FB68DB6BF968096CEB
:1052900001FB03F31A44FB685A60FB6800229A631F
:1052A000FB681A68FB689A60FB681A68FB68DB6B2E
:1052B000013BF968096C01FB03F31A44FB68DA60EF
:1052C000FB684FF0FF325A64FB684FF0FF329A647C
:1052D0003B68002B14D1FB681B69002B1AD0FB68BC
:1052E00010331846FFF736F80346012B12D10D4B49
:1052F0004FF080521A60BFF34F8FBFF36F8F09E0FA
:10530000FB6810331846FFF7F5FEFB682433184698
:10531000FFF7F0FEFEF7C4FA012318461037BD462A
:1053200080BD00BF04ED00E080B58AB000AFF8603A
:10533000B9601346FB7100233B62FB68002B09D167
:105340004FF0500383F31188BFF36F8FBFF34F8F7C
:10535000BB61FEE7BB68002B02D100237B6205E046
:10536000FB68BA6802FB03F301337B627B6A543348
:105370001846FFF75DFEF861FB69002B1BD0BB6888
:10538000002B03D1FB69FA691A6004E0FB6903F1A1
:105390005402FB691A60FB69FA68DA63FB69BA6850
:1053A0001A64F8690121FFF757FFFB69FA7983F85E
:1053B0005020FB693B623B6A002B09D14FF0500340
:1053C00083F31188BFF36F8FBFF34F8F7B61FEE7CD
:1053D0003B6A18462837BD4680BD00BF80B58EB0F9
:1053E00000AFF860B9607A603B6000237B63FB68C4
:1053F0003B633B6B002B09D14FF0500383F31188C3
:10540000BFF36F8FBFF34F8FBB62FEE7BB68002B0C
:1054100003D13B6B1B6C002B01D1012300E0002367
:10542000002B09D14FF0500383F31188BFF36F8F26
:10543000BFF34F8F7B62FEE73B68022B03D13B6BD0
:10544000DB6B012B01D1012300E00023002B09D1EC
:105450004FF0500383F31188BFF36F8FBFF34F8F6B
:105460003B62FEE7FFF7EAF90346002B02D17B68B7
:10547000002B01D1012300E00023002B09D14FF0C4
:10548000500383F31188BFF36F8FBFF34F8FFB611E
:10549000FEE7FEF7D7F93B6B9A6B3B6BDB6B9A42EF
:1054A00002D33B68022B29D1386BB9683A6800F007
:1054B0001DFAF8623B6B5B6A002B10D03B6B243308
:1054C0001846FEF747FF0346012B13D13D4B4FF023
:1054D00080521A60BFF34F8FBFF36F8F0AE0FB6AF1
:1054E000002B07D0374B4FF080521A60BFF34F8F1D
:1054F000BFF36F8FFEF7D4F901235FE07B68002BC9
:1055000003D1FEF7CDF9002358E07B6B002B06D1C9
:1055100007F114031846FEF77FFF01237B63FEF7B4
:10552000BFF9FEF785FCFEF78DF93B6B5B6CB3F1C1
:10553000FF3F02D13B6B00225A643B6B9B6CB3F183
:10554000FF3F02D13B6B00229A64FEF7A9F907F1F5
:1055500014023B1D10461946FEF780FF0346002B40
:1055600024D1386B00F0B8FA0346002B18D03B6BFF
:1055700003F110027B6810461946FEF74FFE386BA8
:1055800000F048FAFEF762FC0346002B15D10D4BE4
:105590004FF080521A60BFF34F8FBFF36F8F0CE054
:1055A000386B00F037FAFEF751FC72E7386B00F009
:1055B00031FAFEF74BFC002300E06AE71846383763
:1055C000BD4680BD04ED00E080B58EB000AFF86050
:1055D000B9607A603B60FB683B633B6B002B09D191
:1055E0004FF0500383F31188BFF36F8FBFF34F8FDA
:1055F000BB62FEE7BB68002B03D13B6B1B6C002B2F
:1056000001D1012300E00023002B09D14FF050030A
:1056100083F31188BFF36F8FBFF34F8F7B62FEE779
:105620003B68022B03D13B6BDB6B012B01D10123C8
:1056300000E00023002B09D14FF0500383F31188C1
:10564000BFF36F8FBFF34F8F3B62FEE7FEF7C4F9E6
:10565000EFF311824FF0500383F31188BFF36F8F84
:10566000BFF34F8FFA61BB61FB69FB623B6B9A6BC7
:105670003B6BDB6B9A4202D33B68022B24D1386B25
:10568000B9683A6800F032F93B6B9B6CB3F1FF3FAD
:1056900012D13B6B5B6A002B13D03B6B2433184653
:1056A000FEF758FE0346002B0BD07B68002B08D07A
:1056B0007B6801221A6004E03B6B9B6C5A1C3B6BBD
:1056C0009A6401237B6301E000237B63FB6A7B61B7
:1056D0007B6983F311887B6B18463837BD4680BDE4
:1056E00080B58CB000AFF860B9607A603B60002391
:1056F000FB62FB68BB62BB6A002B09D14FF0500311
:1057000083F31188BFF36F8FBFF34F8F3B62FEE7C8
:10571000BB68002B03D1BB6A1B6C002B01D101239A
:1057200000E00023002B09D14FF0500383F31188D0
:10573000BFF36F8FBFF34F8FFB61FEE7FFF77EF87C
:105740000346002B02D17B68002B01D1012300E02E
:105750000023002B09D14FF0500383F31188BFF3CE
:105760006F8FBFF34F8FBB61FEE7FEF76BF8BB6A2D
:105770009B6B002B47D0BB6ADB687B62B86AB96859
:1057800000F022F93B68002B22D1BB6A9B6B5A1EAA
:10579000BB6A9A63BB6A1B68002B04D1FFF766F9EA
:1057A0000246BB6A5A60BB6A1B69002B27D0BB6AE2
:1057B00010331846FEF7CEFD0346012B1FD14A4B8E
:1057C0004FF080521A60BFF34F8FBFF36F8F16E018
:1057D000BB6A7A6ADA60BB6A5B6A002B0FD0BB6A6D
:1057E00024331846FEF7B6FD0346002B07D03E4B88
:1057F0004FF080521A60BFF34F8FBFF36F8FFEF7E9
:105800004FF801236CE07B68002B03D1FEF748F8CA
:10581000002365E0FB6A002B06D107F11003184650
:10582000FEF7FAFD0123FB62FEF73AF8FEF700FBF4
:10583000FEF708F8BB6A5B6CB3F1FF3F02D1BB6AAD
:1058400000225A64BB6A9B6CB3F1FF3F02D1BB6A72
:1058500000229A64FEF724F807F110023B1D10465F
:105860001946FEF7FBFD0346002B31D1B86A00F064
:105870001DF90346002B25D0BB6A1B68002B08D1FD
:10588000FDF7E0FFBB6A5B681846FEF7F5FFFEF721
:1058900007F8BB6A03F124027B6810461946FEF73D
:1058A000BDFCB86A00F0B6F8FEF7D0FA0346002B4C
:1058B00015D10D4B4FF080521A60BFF34F8FBFF3DD
:1058C0006F8F0CE0B86A00F0A5F8FEF7BFFA4CE75E
:1058D000B86A00F09FF8FEF7B9FA002300E044E749
:1058E00018463037BD4680BD04ED00E080B586B077
:1058F00000AFF860B9607A6000237B61FB681B6CC5
:10590000002B0DD1FB681B68002B52D1FB685B6834
:105910001846FFF727F87861FB6800225A6048E0D4
:105920007B68002B1AD1FB689A68FB681B6C1046D9
:10593000B9681A4603F057FCFB689A68FB681B6C51
:105940001A44FB689A60FB689A68FB685B689A4235
:105950002FD3FB681A68FB689A602AE0FB68DA6854
:10596000FB681B6C1046B9681A4603F03CFCFB68E8
:10597000DA68FB681B6C5B421A44FB68DA60FB6800
:10598000DA68FB681B689A4207D2FB685A68FB68B2
:105990001B6C5B421A44FB68DA607B68022B08D1FF
:1059A000FB689B6B002B04D0FB689B6B5A1EFB684B
:1059B0009A63FB689B6B5A1CFB689A637B69184669
:1059C0001837BD4680BD00BF80B582B000AF78609B
:1059D00039607B681B6C002B19D07B68DA687B68A8
:1059E0001B6C1A447B68DA607B68DA687B685B68EA
:1059F0009A4203D37B681A687B68DA607B68DA684E
:105A00007B681B6C386811461A4603F0ECFB0837BC
:105A1000BD4680BD80B582B000AF7860FDF712FF53
:105A200014E07B685B6A002B0AD07B68243318463D
:105A3000FEF790FC0346002B03D0FEF76DFD00E05F
:105A400008E07B689B6C5A1E7B689A647B689B6C41
:105A5000002BE6DC7B684FF0FF329A64FDF720FFF5
:105A6000FDF7F0FE14E07B681B69002B0FD07B680C
:105A700010331846FEF76EFC0346002B01D0FEF7EC
:105A80004BFD7B685B6C5A1E7B685A6400E003E048
:105A90007B685B6C002BE6DC7B684FF0FF325A645E
:105AA000FDF7FEFE0837BD4680BD00BF80B584B05F
:105AB00000AF7860FDF7C6FE7B689B6B002B02D1C0
:105AC0000123FB6001E00023FB60FDF7E9FEFB68BA
