:020000040800F2
:10000000000002200903000811030008190300087A
:10001000A1030008A9030008F9030008000000007C
:1000200000000000000000000000000095480008EB
:100030005104000800000000954A0008F54A000835
:100040000103000801030008010300080103000880
:100050000103000801030008010300080103000870
:100060000103000801030008010300080103000860
:100070000103000801030008010300080103000850
:100080000103000801030008010300080103000840
:100090000103000801030008010300080103000830
:1000A0000103000801030008010300080103000820
:1000B0000103000801030008010300080103000810
:1000C0000103000801030008010300080103000800
:1000D00001030008010300080103000801030008F0
:1000E00001030008010300080103000801030008E0
:1000F00001030008010300080103000801030008D0
:1001000001030008010300080103000801030008BF
:1001100001030008010300080103000801030008AF
:10012000010300080103000801030008010300089F
:10013000010300080103000801030008010300088F
:10014000010300080103000801030008C91F00089B
:10015000010300080103000801030008010300086F
:10016000010300080103000801030008010300085F
:10017000010300080103000801030008000000005B
:10018000010300080103000880B58EB000AF0AF03B
:1001900097F9494B494A1A60494B484A1A60494BFA
:1001A0003B63494BFB62494BBB62FB6A7B6207E0E6
:1001B0007B6A1A1D7A623A6B111D396312681A60E4
:1001C000BA6A7B6A9A42F3D83B4B1A68404B9A4210
:1001D00004D13B4B1A683F4B9A4200D0FEE73E4B9E
:1001E000364A1A603D4B354A1A603D4B3B623D4BE7
:1001F000FB613B6ABB6104E0BB691A1DBA61002266
:100200001A60FA69BB699A42F6D8334B1B68002B17
:1002100003D1324B1B68002B00D0FEE70AF060F9D7
:100220003A1D3B46104619460AF06AF82E4A2F4BF3
:10023000D31A9B107B6100233B6107E02B4B3A698B
:1002400053F8223098473B6901333B617A693B6937
:100250009A42F3DC264A274BD31A9B107B6100237A
:100260003B6107E0234B3A6953F8223098473B69DA
:1002700001333B617A693B699A42F3DC7A683B68F7
:100280001046194600F066F978631B4A1B4BD31AD7
:100290009B10FB60FB68BB6008E0BB685A1E174BF5
:1002A00053F822309847BB68013BBB60BB68002B0A
:1002B000F3DC786B09F0E0FF00000020BABADECA78
:1002C000E0000020A0D5000800000020E40000208D
:1002D0007856341232547698E4000020D831012048
:1002E000E4000020DC310120A0040008A004000884
:1002F000A0040008A0040008A0040008A00400084E
:1003000080B400AFFEE700BF80B500AFFFF73CFF51
:1003100080B400AFFEE700BF1EF0040F0CBFEFF388
:100320000880EFF30980854601BE71464F4A1047A9
:1003300080B588B002AF78603960174B5B6B7B612A
:10034000154B9B6B3B61144B9B6AFB60124B1B6B09
:1003500003F00203002B10D00F4BDB6A002B0CDAEA
:1003600078684BF6AB610AF0BBF90346002B04D06A
:10037000094B4FF00042DA620BE008480AF006F839
:100380003B6800937868F9687A693B690AF012F96A
:10039000FEE71837BD4680BD00ED00E0BCD1000887
:1003A00080B400AFFEE700BF1EF0040F0CBFEFF3F8
:1003B0000880EFF3098071462D4A104780B588B058
:1003C00002AF786039600A4B5B6B7B61084B9B6BBB
:1003D0003B61074B9B6AFB60064809F0D7FF3B680F
:1003E00000937868F9687A693B690AF0E3F8FEE7F8
:1003F00000ED00E0CCD100081EF0040F0CBFEFF3BD
:100400000880EFF3098071461A4A104780B588B01A
:1004100002AF786039600A4B5B6B7B61084B9B6B6A
:100420003B61074B9B6AFB60064809F0AFFF3B68E6
:1004300000937868F9687A693B690AF0BBF8FEE7CF
:1004400000ED00E0D8D1000880B400AFFEE700BFA7
:1004500080B400AFFEE700BF80B400AFFEE700BF8E
:1004600080B400AFBD465DF8047B704731030008DF
:08047000BD0300080D040008A3
:10047800A0D5000800000020E4000020A0D5000856
:100488000000001000000010E4000020DC31012012
:0804980000000010000000103C
:1004A0004068003018BF0120704700BF0346406815
:1004B00000225A60704700BF01207047012070473A
:1004C000704700BF08B500F10C0420460C4900221B
:1004D00000F064F820460B4900F0E6F820460A498F
:1004E00000F0E2F82046094900F0DEF8204600F06E
:1004F000CBF9204600F0D8F90A2004F0CFFCF8E749
:10050000C104000824000020040000204400002052
:1005100010B50446024B036003F0CCFF204610BD2B
:1005200010C9000810B50446044B036003F0C2FF75
:1005300020460AF0FFF8204610BD00BF10C9000891
:1005400010B5044603F096FF014B2360204610BD12
:1005500010C9000810B50D4809F03AFF0C480D4BC2
:10056000196809F013FF40F2DC400AF027FC04464A
:10057000FFF7E6FF204608494FF4FA62022303F032
:10058000C5FF04F073F804F0DBFCFEE730C9000897
:1005900044C900086800002058C9000880B584B02C
:1005A00000AFF860B9601346FB71FB68002B0AD1FD
:1005B000144809F0EBFE144809F0E8FE134809F06E
:1005C000E5FE022319E0FB68FA7983F8C424FB688E
:1005D0000022C3F87C24FB680022C3F88024F8685A
:1005E00000F016F8BB68002B03D0FB68BA68C3F8AC
:1005F000CC24F86801F05EFB002318461037BD4696
:1006000080BD00BF60C9000868C900087CC9000837
:1006100080B485B000AF78600023FB600AE07A68A0
:10062000FB6803F590739B00134400225A60FB683B
:100630000133FB60FB680E2BF1D90023FB6009E05E
:100640007A68FB68134403F5067300221A71FB688D
:100650000133FB60FB68B3F5007FF1D37B680022B8
:100660001A707B6800225A707B6801229A707B683E
:100670000022C3F8C0247B6801221A767B684022DE
:100680009A717B6800225A767B68002283F81C24CA
:100690007B68012283F81D24002318461437BD46C9
:1006A0005DF8047B704700BF80B584B000AF786010
:1006B00039600023FB733B68002B20D07B68D3F8A4
:1006C0008034022B0FD87B68D3F88034591C7A68A9
:1006D000C2F880147A6803F58E73396842F82310E3
:1006E0000023FB7316E00E4809F050FE0D4809F098
:1006F0004DFE0D4809F04AFE0223FB730AE008484C
:1007000009F044FE094809F041FE074809F03EFEA1
:100710000223FB73FB7B18461037BD4680BD00BF2C
:1007200060C9000880C900087CC900089CC900088D
:1007300080B584B000AF78600B46FB700023FB737C
:100740007B6893F83634FA789A423CD27B68FA7820
:1007500083F81F24FB782448194609F017FE234824
:1007600009F014FEFB787A681A2101FB03F31344A5
:1007700003F586635B7C1E48194609F007FE1B489B
:1007800009F004FEFB787A681A2101FB03F3134495
:1007900003F586639B7C1748194609F0F7FD13485B
:1007A00009F0F4FDFB787A681A2101FB03F3134486
:1007B00003F58663DB7C1048194609F0E7FD0B481A
:1007C00009F0E4FD0AE00D4809F0E0FD0C4809F0ED
:1007D000DDFD064809F0DAFD0223FB73FB7B1846BA
:1007E0001037BD4680BD00BFB4C900087CC90008F1
:1007F000D4C90008E4C90008F4C9000860C90008A9
:1008000004CA000880B487B000AF7860F970BA708D
:100810007B700023FB7500233B617B6803F232434E
:10082000FB6026E097F917301A2202FB03F3083326
:10083000FA68134402333B613B695B79FA789A4268
:1008400002D0FB78FF2B11D13B699B79BA789A4291
:1008500002D0BB78FF2B09D13B69DB797A789A42C9
:1008600002D07B78FF2B01D1FB7D07E0FB7D0133BC
:10087000FB7597F91730012BD4DDFF2318461C3781
:10088000BD465DF8047B704780B582B000AF7860EC
:10089000786801F043FA7868012101F009FB002330
:1008A00018460837BD4680BD80B588B004AF786073
:1008B0000223BB730023FB737B681B78DBB20A2B1C
:1008C00000F26E8101A252F823F000BFF90800087F
:1008D000A10B00081B090008790B0008A10B0008F8
:1008E000B1090008190B0008F9090008190A0008E5
:1008F000430A00085F0B00087B6893F81E34DBB2E4
:10090000002B09D07B6801221A70C82001F052FB2D
:10091000786801F049FA44E143E1A44809F036FD62
:10092000A34809F033FD642001F044FB786801F02E
:1009300015FA03461A467B6883F81D247B68052256
:100940001A707868002101F0A7F803461A467B6800
:100950005A717868802101F09FF803461A467B6837
:100960001A717B681A797B6893F81C34796891F85E
:100970001D047968897900900020019002917868BF
:100980001146802201F060F87B685A797B6893F801
:100990001C34796891F81D047968897900900020E9
:1009A0000190029178681146002201F04DF8F8E0BC
:1009B000786800F011F90346002B1CD17D4809F03E
:1009C000E5FC7B4809F0E2FC7B68002283F81F24E9
:1009D0007B6893F83134012B09D1774809F0D6FCB4
:1009E000734809F0D3FC7B6808221A7003E07B6827
:1009F00007221A70D5E0D4E07B68D3F8CC34002B02
:100A000009D07B68D3F8CC347868012198477B689B
:100A100008221A70C5E0C4E07B6893F83734786820
:100A2000194600F0B5FB0346002B09D17B6809226B
:100A30001A70624809F0AAFC5D4809F0A7FCB0E012
:100A4000AFE07B68D3F88034002B06D15C4809F016
:100A50009DFC574809F09AFC5DE07B680022C3F8D2
:100A60007C240023FB7317E0FA7B7B6802F58E720F
:100A700053F822301A797B6893F841349A4208D1AE
:100A8000FA7B7B6802F58E7253F822207B68C3F8EC
:100A90007C24FB7B0133FB73FB7B022BE4D97B685B
:100AA000D3F87C34002B2CD07B68D3F87C349B6843
:100AB000786898470346002B14D17B6806221A7089
:100AC0007B68D3F87C341B683E48194609F05EFC0D
:100AD000374809F05BFC7B68D3F8CC347868032195
:100AE000984718E07B680C221A707B68D3F87C3436
:100AF0001B683548194609F049FC2D4809F046FCA9
:100B00004FE07B680C221A70304809F03FFC2848FF
:100B100009F03CFC45E044E07B68D3F87C34002BD2
:100B20000FD07B68D3F87C341B69786898470346FC
:100B3000BB73BB7BDBB2002B10D17B680A221A701F
:100B40002FE07B680C221A70214809F01FFC214815
:100B500009F01CFC164809F019FC22E021E07B6832
:100B6000D3F87C34002B06D07B68D3F87C345B69E7
:100B70007868984715E014E07868FFF749FD7B68CE
:100B8000D3F87C34002B0AD07B68D3F87C34DB6844
:100B9000786898477B680022C3F87C2401E000E075
:100BA00000BF002318461037BD4680BD24CA000888
:100BB0007CC9000838CA00084CCA000874CA00087A
:100BC00090CA0008B0CA0008C4CA0008E4CA0008F5
:100BD00060C900080CCB000880B588B004AF78600D
:100BE0000123FB737B685B78072B00F24D8101A228
:100BF00052F823F0150C0008830C0008C30C000801
:100C0000490D0008610D00087F0D0008D90D00088E
:100C1000330E00087868082100F0E6F90346002B3F
:100C20002ED17B6893F827247B689A717B68012218
:100C30005A707B681A797B6893F81C34796891F84C
:100C40001D047968897900900020019002917868EC
:100C50001146802200F0F8FE7B685A797B6893F891
:100C60001C34796891F81D04796889790090002016
:100C70000190029178681146002200F0E5FE04E13F
:100C800003E17868122100F0AFF90346002B17D179
:100C90007B68B3F82A347F48194609F077FB7E4811
:100CA00009F074FB7B68B3F828347C48194609F0D6
:100CB0006DFB794809F06AFB7B6802225A70E4E018
:100CC000E3E07868012100F03FFA0346002B3AD1B7
:100CD000022001F06FF97B68012283F81C247B68F5
:100CE00093F81C346E48194609F050FB6A4809F025
:100CF0004DFB7B6803225A707B681A797B6893F8F6
:100D00001C34796891F81D04796889790090002075
:100D10000190029178681146802200F095FE7B6870
:100D20005A797B6893F81C34796891F81D047968C6
:100D30008979009000200190029178681146002284
:100D400000F082FEA1E0A0E07868092100F076F9C9
:100D50000346002B03D17B6804225A7095E094E08F
:100D60007B68B3F834347868194600F067F90346B5
:100D7000002B03D17B6805225A7086E085E07B68F2
:100D800093F82E34002B1CD07B6893F82E247B68BC
:100D900003F50773786811461A46FF2300F074F9CB
:100DA0000346002B17D17B6803F507733D481946AE
:100DB00009F0ECFA384809F0E9FA7B6806225A7023
:100DC00063E0394809F0E2FA334809F0DFFA7B685A
:100DD00006225A7059E058E07B6893F82F34002BB4
:100DE0001CD07B6893F82F247B6803F50773786821
:100DF00011461A46FF2300F047F90346002B17D18E
:100E00007B6803F507732948194609F0BFFA2248A1
:100E100009F0BCFA7B6807225A7036E0244809F0D2
:100E2000B5FA1D4809F0B2FA7B6807225A702CE027
:100E30002BE07B6893F83034002B1BD07B6893F851
:100E400030247B6803F50773786811461A46FF2340
:100E500000F01AF90346002B15D17B6803F50773E0
:100E60001448194609F092FA0B4809F08FFA00234A
:100E7000FB730AE0104809F089FA074809F086FA7E
:100E80000023FB7301E000E000BFFB7B1846103736
:100E9000BD4680BD24CB00087CC9000830CB0008CB
:100EA0003CCB000854CB000868CB00087CCB000882
:100EB0008CCB00089CCB0008B0CB000880B483B07A
:100EC00000AF786039607B683A68C3F8C0240C379B
:100ED000BD465DF8047B704780B582B000AF786096
:100EE0007B68D3F8C0345A1C7B68C3F8C024786888
:100EF00000F004F80837BD4680BD00BF80B582B061
:100F000000AF78607B681B78DBB20A2B0AD17B6864
:100F1000D3F87C34002B05D07B68D3F87C349B69F4
:100F2000786898470837BD4680BD00BF80B582B05D
:100F300000AF78607B681B78DBB2002B0FD17B6839
:100F4000012283F81E247B68D3F8CC34002B0ED00A
:100F50007B68D3F8CC3478680421984707E07B6835
:100F60001B78DBB2012B02D17B6802221A700023AE
:100F700018460837BD4680BD80B582B000AF7860A6
:100F8000786800F0DBFE7B681B797868194600F012
:100F9000A3FD7B685B797868194600F09DFD7B684E
:100FA000002283F81E247B68D3F8CC34002B05D0B4
:100FB0007B68D3F8CC34786805219847084809F055
:100FC000E5F9084809F0E2F9786800F0A7FE7B68C7
:100FD00003221A70002318460837BD4680BD00BFA3
:100FE000C4CB00087CC9000880B586B002AF786029
:100FF0000B46FB707B6803F50773FA7892B2009298
:10100000786800214FF4807200F068F80346FB73A3
:10101000FB7B002B0CD17B6803F584617B6803F5B7
:101020000772FB789BB2084611461A4600F0F8F8A2
:10103000FB7B18461037BD4680BD00BF80B586B02B
:1010400002AF78600B467B807B681C33FB607B883B
:101050000093786800214FF40072FB6800F03EF8BE
:101060000346FB72FB7A002B08D17B6803F2324205
:101070007B881046F9681A4600F03EF9FB7A18465C
:101080001037BD4680BD00BF80B588B002AFF860A4
:101090007A600A46FA723B81FB7A9BB243F4407352
:1010A0009AB2FB6803F5077339890091F86800214B
:1010B00000F014F80346FB75FB7D002B08D1FB689C
:1010C00003F507723B89104679681A4600F00EFA5C
:1010D000FB7D18461837BD4680BD00BF80B584B083
:1010E00000AFF8607B600B46FB7213463B81FB68E8
:1010F0009B78012B1CD1FB7A63F07F03DAB2FB688B
:101100001A74FB6806225A74FB683A895A823B8932
:1011100003F47F43B3F5407F04D1FB6840F20942FA
:101120009A8202E0FB6800229A82FB683A8BDA829C
:101130003B8BF86879681A4600F024FA0346184693
:101140001037BD4680BD00BF80B582B000AF78606B
:101150000B46FB707B689B78012B0FD17B680022CC
:101160001A747B6805225A74FB789AB27B685A829B
:101170007B6800229A827B680022DA8278680021EC
:10118000002200F0FFF9034618460837BD4680BD2F
:1011900080B582B000AF78600B467B807B689B781F
:1011A000012B0ED17B6800221A747B6809225A74C5
:1011B0007B687A885A827B6800229A827B68002248
:1011C000DA8278680021002200F0DCF90346184634
:1011D0000837BD4680BD00BF80B582B000AF7860E3
:1011E0000B46FB707B689B78012B0FD17B6802223A
:1011F0001A747B6801225A747B6800225A82FB7839
:101200009AB27B689A827B680022DA827868002131
:10121000002200F0B7F9034618460837BD4680BDE6
:1012200080B485B000AFF860B9601346FB80BB683E
:101230001A78FB681A70BB685A78FB685A70BB68EA
:1012400002331B781A46BB6803331B781B029BB220
:1012500013449AB2FB685A80BB681A79FB681A710A
:10126000BB685A79FB685A71BB689A79FB689A71B6
:10127000BB68DA79FB68DA71FB88082B36D9BB6862
:1012800008331B781A46BB6809331B781B029BB2D4
:1012900013449AB2FB681A81BB680A331B781A465A
:1012A000BB680B331B781B029BB213449AB2FB68DA
:1012B0005A81BB680C331B781A46BB680D331B7808
:1012C0001B029BB213449AB2FB689A81BB689A7B5B
:1012D000FB689A73BB68DA7BFB68DA73BB681A7CBD
:1012E000FB681A74BB685A7CFB685A741437BD4695
:1012F0005DF8047B704700BF80B58AB000AFF8602E
:10130000B9601346FB80BB687B62002387F82330FB
:10131000002387F82230BB687B62BB681A78FB68C1
:101320001A70BB685A78FB685A70BB6802331B7826
:101330001A46BB6803331B781B029BB213449AB254
:10134000FB685A80BB681A79FB681A71BB685A79C6
:10135000FB685A71BB689A79FB689A71BB68DA7945
:10136000FB68DA71BB681A7AFB681A72FB88092B72
:101370005FD90923FB820023FB6151E007F11603CB
:10138000786A194600F0E4F878627B6A5B78042B8F
:1013900046D197F923301A2202FB03F30833FA6887
:1013A00013440233FB61F869796A00F045F80023C1
:1013B00087F822300023BB6122E007F11603786A28
:1013C000194600F0C5F878627B6A5B78052B17D167
:1013D00097F9233097F922200132D2001A2101FB1C
:1013E00003F313440833FA6813440433BB61B86948
:1013F000796A00F04FF897F82230013387F82230ED
:1014000097F92220FB691B799A4204DAFB685A8813
:10141000FB8A9A42D1D897F82330013387F82330DA
:1014200097F92330012B04DCFB685A88FB8A9A4227
:10143000A4D82837BD4680BD80B483B000AF7860A3
:1014400039603B681A787B681A703B685A787B6809
:101450005A703B689A787B689A703B68DA787B6848
:10146000DA703B681A797B681A713B685A797B6835
:101470005A713B689A797B689A713B68DA797B6824
:10148000DA713B681A7A7B681A720C37BD465DF8D0
:10149000047B704780B483B000AF786039603B68EC
:1014A0001A787B681A703B685A787B685A703B6878
:1014B0009A787B689A703B68DA787B68DA703B6868
:1014C00004331B781A463B6805331B781B029BB21A
:1014D00013449AB27B689A803B689A797B689A71C8
:1014E0000C37BD465DF8047B704700BF80B487B001
:1014F00000AFF860B9601346FB80FB6801331B78CE
:10150000032B20D1FB681B789A1EFB889A42B8BF38
:101510001346BB82FB680233FB600023FB820BE0B7
:10152000FB8AFA6813441A78BB681A70BB680133E7
:10153000BB60FB8A0233FB82FA8ABB8A9A42EFD3F2
:10154000BB6800221A701C37BD465DF8047B7047EB
:1015500080B485B000AF786039603B681A887B68DA
:101560001B7813449AB23B681A807B681B787A68B0
:101570001344FB60FB6818461437BD465DF8047BD6
:10158000704700BF80B586B000AFF860B960134601
:10159000FB800123FB75FB689B78012B02D0022B9B
:1015A0000FD029E0FB68BA689A60FB68FA889A81D4
:1015B000FB6801221A76FB6802229A700123FB75F0
:1015C0001AE0F86800F01EF80346FB75FB7D002B5F
:1015D00008D1FB6801229A70FB6800221A7600236A
:1015E000FB7508E0FB7D022B05D1FB6801229A7098
:1015F0000223FB75FFE700BFFB7D18461837BD4689
:1016000080BD00BF80B586B002AF78600123FB7358
:101610000023BB737B681B7E013B0A2B00F25381C6
:1016200001A252F823F000BF5516000871160008F9
:10163000D5160008FB160008331700085D170008D0
:10164000AF170008D11700080F1800083518000858
:10165000751800087B6803F110027B685B79786875
:1016600011461A4600F03CF97B6802221A762BE1FB
:101670007B685B797868194600F006FC0346BB730B
:10168000BB7B012B1ED17B681B7C23F07F037B730C
:101690007B68DB8A002B0AD07B7B802B03D17B68A5
:1016A00003221A7615E07B6805221A7611E07B7B0F
:1016B000802B03D17B6809221A760AE07B68072217
:1016C0001A7601E1BB7B042B03D17B680B221A76CF
:1016D000FAE0F9E07B68D3F8C0349AB27B68DA812B
:1016E0007B6899687B689A897B681B79786800F0C9
:1016F00035F97B6804221A76E6E07B681B79786806
:10170000194600F0C1FB0346BB73BB7B012B02D122
:101710007B6809221A76BB7B052B02D10323FB735E
:1017200006E0BB7B042B03D17B680B221A76CBE04F
:10173000CAE07B6899687B689A897B685B7901203D
:101740000090786800F0E8F87B68D3F8C0349AB26B
:101750007B68DA817B6806221A76B5E07B685B7964
:101760007868194600F090FB0346BB73BB7B012BE6
:1017700003D17B6807221A7618E0BB7B052B05D1C5
:101780007B680C221A760323FB730FE0BB7B022BD2
:1017900003D17B6805221A7608E0BB7B042B05D1B8
:1017A0007B680B221A760223FB738DE08CE07B684A
:1017B0001B7978680021002200F0D0F87B68D3F80C
:1017C000C0349AB27B68DA817B6808221A767BE0A3
:1017D0007B681B797868194600F056FB0346BB739B
:1017E000BB7B012B05D17B680D221A760023FB738E
:1017F0000CE0BB7B042B03D17B680B221A7605E03F
:10180000BB7B052B02D10323FB735DE05CE07B68AF
:101810005B790122009278680021002200F07CF8B8
:101820007B68D3F8C0349AB27B68DA817B680A227D
:101830001A7649E07B685B797868194600F024FBEA
:101840000346BB73BB7B012B05D10023FB737B6875
:101850000D221A760DE0BB7B022B03D17B68092297
:101860001A7606E0BB7B042B03D17B680B221A7629
:101870002AE029E07B685B7E0133DAB27B685A7626
:101880007B685B7E022B09D8786800F057FA7B688A
:1018900001221A767B6801229A7015E07B68D3F8E2
:1018A000CC347868062198477B6800225A7609482C
:1018B00008F06CFD084808F069FD084808F066FD6E
:1018C0000223FB7300E000BFFB7B18461037BD46C8
:1018D00080BD00BFDCCB0008E4CB0008F4CB0008DF
:1018E00080B588B004AFF860B9601346FB71FB792E
:1018F00000220092BA68019208220292002203920A
:10190000F86819460022002300F0A0FA00231846C8
:101910001037BD4680BD00BF80B588B004AFF86009
:10192000B960FA807B71FB6893F81D34002B01D0FD
:1019300000233B767B7901220092BA680192FA88F3
:1019400002923A7E0392F86819460022002300F0C2
:101950007DFA002318461037BD4680BD80B588B09B
:1019600004AFF860B960FA807B717B790122009244
:10197000BA680192FA88029200220392F868194626
:101980000122002300F062FA002318461037BD46FA
:1019900080BD00BF80B588B004AFF860B960FA8040
:1019A0007B71FB6893F81D34002B01D000233B763C
:1019B0007B7901220092BA680192FA8802923A7EFB
:1019C0000392F86819460022022300F03FFA002330
:1019D00018461037BD4680BD80B588B004AFF860AA
:1019E000B960FA807B717B7901220092BA6801921A
:1019F000FA88029200220392F86819460122022313
:101A000000F024FA002318461037BD4680BD00BF01
:101A100080B588B004AFF860B960FA71BB71FB792A
:101A20009AB2BB7901210091B9680191029200221A
:101A30000392F86819460122032300F007FA0023F5
:101A400018461037BD4680BD80B586B004AF7860BB
:101A5000F970BA707B70F978BA787B78387C00902E
:101A6000387D0190388B0290786800F0C1F900232E
:101A700018460837BD4680BD80B582B000AF78609B
:101A80000B46FB70FB787868194600F0CBF9002311
:101A900018460837BD4680BD80B584B000AF786079
:101AA0000B46FB70786800F037F80346FB81FA8933
:101AB0004FF6FF739A4209D0FB89FA7842F400424C
:101AC000796803F590739B000B445A60FB89DBB285
:101AD00018461037BD4680BD80B483B000AF786033
:101AE0000B46FB70FB780A2B0FD8F878FB787A68E6
:101AF00003F590739B0013445B68C3F30E0279688F
:101B000000F590739B000B445A60002318460C3775
:101B1000BD465DF8047B704780B485B000AF786047
:101B20000023FB730023FB7310E0FB7B7A6803F553
:101B300090739B0013445B6803F40043002B02D1B5
:101B4000FB7B9BB207E0FB7B0133FB73FB7B0A2B28
:101B5000EBD94FF6FF7318461437BD465DF8047B8A
:101B6000704700BF80B58AB000AF78607B681B68A3
:101B7000B3F1A04F5DD1304B2F4A126B42F00102FE
:101B80001A632D4B1B6B03F001033B613B692A4B2E
:101B9000294A126B42F004021A63274B1B6B03F0B5
:101BA0000403FB60FB684FF4C0537B610223BB61FD
:101BB0000023FB6103233B620A237B6207F11403CA
:101BC0001E48194605F0F0F94FF480637B6112233B
:101BD000BB610123FB610A237B6207F114031748F1
:101BE000194605F0E1F901237B610123BB61002364
:101BF000FB6107F114031248194605F0D5F90E4BA5
:101C00000D4A526B42F080025A630B4B0A4A526CE7
:101C100042F480425A64084B5B6C03F48043BB601F
:101C2000BB6843200521002205F088F9432005F018
:101C3000A1F92837BD4680BD0038024000000240AF
:101C40000008024080B582B000AF78607B68D3F8AE
:101C500094321846FFF740F90837BD4680BD00BFF3
:101C600080B582B000AF78607B68D3F894321846B4
:101C7000FFF75CF90837BD4680BD00BF80B582B074
:101C800000AF78607B68D3F894321846FFF774F998
:101C90000837BD4680BD00BF80B483B000AF786018
:101CA00013460A46FA70BB700C37BD465DF8047BDC
:101CB000704700BF80B582B000AF7860164B4FF020
:101CC000A0421A60144B0B229A60134B00221A6137
:101CD000114B00221A62104B02229A610E4B002215
:101CE000DA610D4B0322DA600B4B7A68C3F8942259
:101CF0007B68094AC3F8C824074805F00DFB06486D
:101D000005F0FAFE034678681946FFF7D7F8002376
:101D100018460837BD4680BDD82E012080B582B058
:101D200000AF78607B68D3F8C834184605F068FEC9
:101D3000002318460837BD4680BD00BF80B582B07D
:101D400000AF78607B68D3F8C834184605F07CFE95
:101D5000002318460837BD4680BD00BF80B584B05B
:101D600000AF78600123FB737B68D3F8C834184652
:101D700005F0D0FE0346012B07D0012B02D3022B26
:101D800006D008E00023FB7308E00123FB7305E0A5
:101D90000223FB7302E00123FB7300BFFB7B1846A9
:101DA0001037BD4680BD00BF80B582B000AF7860FF
:101DB0007B68D3F8C834184605F064FE0023184643
:101DC0000837BD4680BD00BF80B582B000AF7860E7
:101DD0000B46FB707B68D3F8C824FB781046194685
:101DE00005F074FE034618460837BD4680BD00BFA7
:101DF00090B587B004AF7860F970BA707B707B687B
:101E0000D3F8C804F978BA787B783C7E00943C7F9C
:101E100001943C8C029405F0CBFA002318460C3751
:101E2000BD4690BD80B582B000AF78600B46FB70B8
:101E30007B68D3F8C824FB781046194605F036FBBA
:101E4000002318460837BD4680BD00BF90B587B057
:101E500004AF7860F970BA707B707B68D3F8C804FF
:101E6000F978BA787B783C7E0094FC6901943C8CCC
:101E7000029497F82440039405F03CFB0023184695
:101E80000C37BD4690BD00BF80B582B000AF786012
:101E90000B46FB707B68D3F8C824FB7810461946C4
:101EA00005F0FEFD034618460837BD4680BD00BF5D
:101EB00080B582B000AF78600B46FB70FB78002BDA
:101EC00005D109480121012205F00EFA04E0064877
:101ED0000121002205F008FAC82004F075FF002354
:101EE00018460837BD4680BD0008024080B483B064
:101EF00000AF786013460A46FA70BB70FA7813494F
:101F000013469B001344DB000B443833DB78002B73
:101F10000AD0FA780D4913469B001344DB000B44AA
:101F20005033BA781A7009E0FA78084913469B00D2
:101F30001344DB000B445033BA785A700023184620
:101F40000C37BD465DF8047B704700BFD82E0120DA
:101F500080B485B000AF78600B46FB700023FB7344
:101F6000FA78134913469B001344DB000B443833C3
:101F7000DB78002B0AD0FA780D4913469B001344F6
:101F8000DB000B4450331B78FB7309E0FA780849F7
:101F900013469B001344DB000B4450335B78FB7308
:101FA000FB7B18461437BD465DF8047B704700BFC5
:101FB000D82E012080B582B000AF7860786804F038
:101FC00003FF0837BD4680BD80B500AF014805F06E
:101FD0001DFC80BDD82E012090B589B004AF78607B
:101FE0000023BB730223FB737B68D3F87C341B791B
:101FF0007868194606225023FEF704FC0346BB739B
:10200000BB7BFF2B10D18B4808F0C0F97B68D3F85D
:102010007C341B688848194608F0B8F9874808F0EE
:10202000B5F90223FB73FFE0BB7B78681946FEF726
:102030007FFB7B68D3F87C444FF480700AF016F87D
:102040000346E3617B68D3F87C34DB69BB607B6863
:1020500093F81F347A681A2101FB03F3134403F544
:1020600087631B7CDBB25BB2002B1ADA7B6893F8C8
:102070001F347A681A2101FB03F3134403F58763C5
:102080001A7CBB68DA717B6893F81F347A681A216E
:1020900001FB03F3134403F587635A8ABB685A8133
:1020A00019E07B6893F81F347A681A2101FB03F367
:1020B000134403F587631A7CBB689A717B6893F8B5
:1020C0001F347A681A2101FB03F3134403F5876375
:1020D0005A8ABB681A817B6893F81F347A681A2180
:1020E00001FB03F3134403F588631B7CDBB25BB293
:1020F000002B1ADA7B6893F81F347A681A2101FBE7
:1021000003F3134403F588631A7CBB68DA717B68B8
:1021100093F81F347A681A2101FB03F3134403F583
:1021200088635A8ABB685A8119E07B6893F81F3428
:102130007A681A2101FB03F3134403F588631A7CC0
:10214000BB689A717B6893F81F347A681A2101FB87
:1021500003F3134403F588635A8ABB681A81BB688A
:102160000022A3F8F820BB680022A3F8FA20BB687D
:1021700000221A73BB6800225A73BB6800229A734C
:10218000BB689B7978681946FFF786FC03461A46B8
:10219000BB685A71BB68DB7978681946FFF77CFC2D
:1021A00003461A46BB681A71786800F093FCBB6856
:1021B000903318460021682209F080FFBB685979E6
:1021C000BB689A797B6893F81C34786890F81D4452
:1021D000B868008900940224019402907868FFF79F
:1021E00033FCBB681979BB68DA797B6893F81C34D7
:1021F000786890F81D44B8684089009402240194DE
:1022000002907868FFF720FCBB681B797868194654
:102210000022FFF76BFEBB685B79786819460022E5
:10222000FFF764FE0023FB73FB7B18461437BD46A3
:1022300090BD00BFFCCB000808CC000830CC0008E3
:1022400080B584B000AF78607B68D3F87C34DB69FC
:10225000FB60FB685B79002B0ED0FB685B797868CC
:102260001946FFF709FCFB685B7978681946FFF7A8
:1022700033FCFB6800225A71FB681B79002B0ED0DF
:10228000FB681B7978681946FFF7F6FBFB681B793A
:1022900078681946FFF720FCFB6800221A717B68FA
:1022A000D3F87C34DB69002B0BD07B68D3F87C340B
:1022B000DB69184609F0E2FE7B68D3F87C34002223
:1022C000DA61002318461037BD4680BD80B584B062
:1022D00000AF78607B68D3F87C34DB69BB60012396
:1022E000FB73BB689B7B022B04D0032B42D0002BDB
:1022F00000D04CE0BB687868194600F0CDFB03467F
:10230000FB73FB7B032B04D1BB6800221A60002304
:10231000FB73FB7B002B2CD1BB681B68DBB201334A
:102320001A46BB681A60BB681B681B48194608F050
:102330002DF81A4808F02AF80023BB7314E0BB7B81
:10234000BA68342101FB03F31344903302229A70DC
:10235000BB7BBA68342101FB03F31344C033002272
:102360005A70BB7B0133BB73BA7BBB681B689A4254
:10237000E5D30CE078680021FEF72EFF0346002B22
:1023800004D1BB68DA7BBB689A73FFE700BFFB7BB5
:1023900018461037BD4680BD34CC000830CC00084C
:1023A00080B586B000AF78607B68D3F87C34DB6999
:1023B0003B610123FB750123FB730123BB733B6965
:1023C0001B7B002B03D0012B00F0248325E33B690A
:1023D000B3F8F8301A463B691B689A4280F00C83C8
:1023E0003B69B3F8F8303A69342101FB03F3134435
:1023F000903301225A703B69B3F8F8303A693421BE
:1024000001FB03F3134490331B78082B00F2F28294
:1024100001A252F823F000BF3D240008F52900086E
:102420007325000811270008732400086928000894
:10243000F5290008F5290008E32900083B69B3F8ED
:10244000F830AC48194607F0A1FFAB4807F09EFFF3
:102450003B69B3F8F8303A69342101FB03F31344C4
:10246000903304221A707B68D3F8C0243B69C3F808
:10247000FC203B69B3F8F830DAB23B69B3F8F830C6
:10248000342101FB03F3983339690B44073378682F
:1024900011461A4600F03AFE0346FB73FB7B002B05
:1024A0003DD13B69B3F8F830342202FB03F3983393
:1024B0003A6913440A339148194607F067FF8E487A
:1024C00007F064FF3B69B3F8F830342202FB03F3F2
:1024D000A0333A6913440B338948194607F056FF75
:1024E000854807F053FF3B69B3F8F830342202FB0C
:1024F00003F3B0333A6913440C338248194607F0AA
:1025000045FF7D4807F042FF3B69B3F8F8303A6970
:10251000342101FB03F31344903302221A70FB7B36
:10252000022B0BD13B69B3F8F8303A69342101FB37
:1025300003F31344903305221A7019E0FB7B042B3C
:1025400016D13B69B3F8F8303A69342101FB03F343
:102550001344903301221A703B69B3F8F8303A699A
:10256000342101FB03F31344903302225A7042E2F8
:1025700041E23B69B3F8F830DBB27868194600F005
:1025800003FD0346BB73BB7B002B49D13B69B3F80A
:10259000F8303A69342101FB03F3134490339B78FC
:1025A000002B11D03B69B3F8F8303A69342101FBB4
:1025B00003F31344C03301225A70534807F0E6FE78
:1025C0004D4807F0E3FE0AE03B69B3F8F8303A699A
:1025D000342101FB03F31344C03300225A703B69DA
:1025E000B3F8F8303A69342101FB03F31344903314
:1025F00003221A703B69B3F8F8303A69342101FBC1
:1026000003F31344903300225A703B69B3F8F83057
:102610003A69342101FB03F31344903300229A708A
:10262000BB7B022B4AD13B69B3F8F8303A693421BD
:1026300001FB03F3134490339B78022B11D03B69C9
:10264000B3F8F8303A69342101FB03F31344C03383
:1026500001225A702D4807F099FE274807F096FE90
:102660000AE03B69B3F8F8303A69342101FB03F31F
:102670001344C03300225A703B69B3F8F8303A690A
:10268000342101FB03F31344903305221A703B6994
:10269000B3F8F8303A69342101FB03F31344903363
:1026A00001225A703B69B3F8F8303A69342101FBD2
:1026B00003F31344903302229A7019E0BB7B042B7E
:1026C00016D13B69B3F8F8303A69342101FB03F3C2
:1026D0001344903301221A703B69B3F8F8303A6919
:1026E000342101FB03F31344903302225A7082E138
:1026F00081E100BF54CC000830CC000860CC000859
:1027000078CC000890CC0008A8CC0008BCCC00080D
:102710003B69B3F8F830DAB23B69B3F8F8303421EA
:1027200001FB03F3903339690B4404337868114695
:102730001A4600F06DFC0346FB73FB7B002B69D14E
:102740003B69B3F8F8303A69342101FB03F31344D1
:10275000C0335B78012B3ED13B69B3F8F8303A695E
:10276000342101FB03F3134490335B683A69B2F8F8
:10277000F8203969342000FB02F20A4490321289B1
:1027800002FB03F3A748194607F000FEA64807F02E
:10279000FDFD3B69B3F8F8303A69342101FB03F3DE
:1027A000134490335B68A148194607F0EFFD9E483B
:1027B00007F0ECFD3B69B3F8F8303A69342101FBCE
:1027C00003F3134490331B899948194607F0DEFD43
:1027D000954807F0DBFD3B69B3F8F8303A693421DE
:1027E00001FB03F31344903301221A703B69B3F8E1
:1027F000F8303A69342101FB03F31344903300228B
:102800005A703B69B3F8F83001339AB23B69A3F8C8
:10281000F82028E0FB7B022B0BD13B69B3F8F830A2
:102820003A69342101FB03F31344903305221A70F3
:1028300019E0FB7B042B16D13B69B3F8F8303A69F9
:10284000342101FB03F31344903301221A703B69D6
:10285000B3F8F8303A69342101FB03F313449033A1
:1028600002225A70C7E0C6E03B69B3F8F830DAB22A
:102870003B69B3F8F830342101FB03F3983339692D
:102880000B440433786811461A4600F0E7FC03460F
:10289000FB73FB7B002B74D13B69B3F8F8303A69CA
:1028A000342101FB03F3134498331B79062B0BD01F
:1028B0003B69B3F8F8303A69342101FB03F3134460
:1028C00098331B79022B16D17B68D3F8C0243B695F
:1028D000D3F8FC30D21A42F20F739A420BD83B69FC
:1028E000B3F8F8303A69342101FB03F31344903311
:1028F00002221A707FE03B69B3F8F8303A6934215C
:1029000001FB03F3134498331B794A48194607F037
:102910003DFD454807F03AFD3B69B3F8F8303A69A8
:10292000342101FB03F3134498335B794248194681
:1029300007F02CFD3C4807F029FD3B69B3F8F8305F
:102940003A69342101FB03F3134498339B793B48E4
:10295000194607F01BFD344807F018FD3B69B3F832
:10296000F8303A69342101FB03F313449033012218
:102970001A703B69B3F8F83001339AB23B69A3F897
:10298000F820FB7B022B11D12D4807F0FFFC2648D5
:1029900007F0FCFC3B69B3F8F8303A69342101FBDD
:1029A00003F31344903308221A7019E0FB7B042BC5
:1029B00016D13B69B3F8F8303A69342101FB03F3CF
:1029C0001344903301221A703B69B3F8F8303A6926
:1029D000342101FB03F31344903302225A700AE0BE
:1029E00009E03B69B3F8F83001339AB23B69A3F8C8
:1029F000F82000E000BF10E03B690022A3F8F820B7
:102A00003B6901221A737B68D3F8CC3478680221C1
:102A1000984702E00023FB7500BFFB7D184618377E
:102A2000BD4680BDD4CC000830CC0008F4CC0008F2
:102A300008CD00081CCD00082CCD000848CD0008AA
:102A4000BCCC000880B483B000AF78600023184687
:102A50000C37BD465DF8047B704700BF80B582B07F
:102A600000AF78607B6821221A747B68FF225A7459
:102A70007B6800225A827B6800229A827B6800224F
:102A8000DA82786800210022FEF77CFD03461846B2
:102A90000837BD4680BD00BF80B582B000AF78600A
:102AA00039607B68A1221A747B68FE225A747B68A5
:102AB00000225A827B6800229A827B680122DA8295
:102AC000786839680122FEF75DFD0346184608372D
:102AD000BD4680BD80B485B000AF78607B68D3F818
:102AE0007C34DB69FB60FB68094A5A65FB68094A6C
:102AF0009A65FB68012283F85020FB68012283F865
:102B00005220002318461437BD465DF8047B7047F9
:102B1000555342435040302080B588B002AF7860B2
:102B20000B46FB700123FB750123BB7501237B75ED
:102B300000233B757B68D3F87C34DB693B61002361
:102B4000FB733B6993F85030013B0A2B00F2A681DE
:102B500001A252F823F000BF852B0008AF2B00081C
:102B60001B2C0008392C0008BD2C0008DF2C0008A5
:102B7000772D0008952D0008E92D00081B2E000870
:102B8000812E00083B69FA7883F861203B690222B4
:102B900083F850203B6903F154023B695B790121C2
:102BA0000091786811461F22FEF7F4FE77E13B6939
:102BB0005B7978681946FFF767F903463B753B7DFB
:102BC000012B19D13B69DB6D002B10D03B6993F8C9
:102BD0006030DBB25BB2002B04DA3B69032283F87E
:102BE000502019E03B69052283F8502014E03B692E
:102BF000072283F8502052E13B7D022B04D13B6930
:102C0000012283F8502007E03B7D052B04D13B696E
:102C10000A2283F8502042E141E13B69D3F88C104D
:102C20003B695A893B691B797868FEF7D5FE3B6999
:102C3000042283F8502032E13B691B7978681946F9
:102C4000FFF722F903463B753B7D012B2DD13B69F4
:102C5000DA6D3B695B899A4210D93B69D3F88C20C5
:102C60003B695B891A443B69C3F88C203B69DA6D88
:102C70003B695B89D21A3B69DA6502E03B69002255
:102C8000DA653B69DB6D002B0AD03B69D3F88C1009
:102C90003B695A893B691B797868FEF79DFE0CE019
:102CA0003B69072283F85020F9E03B7D052B04D1D6
:102CB0003B69092283F85020F1E0F0E03B69D3F84A
:102CC0008C103B691A893B695B7901200090786818
:102CD000FEF760FE3B69062283F85020DFE03B6987
:102CE0005B7978681946FFF7CFF803463B753B7D63
:102CF000012B2FD13B69DA6D3B691B899A4210D9B0
:102D00003B69D3F88C203B691B891A443B69C3F8A3
:102D10008C203B69DA6D3B691B89D21A3B69DA6505
:102D200002E03B690022DA653B69DB6D002B0CD0C9
:102D30003B69D3F88C103B691A893B695B790120A8
:102D400000907868FEF726FE14E03B69072283F8BE
:102D50005020A4E03B7D022B04D13B69052283F87F
:102D6000502007E03B7D052B04D13B690A2283F804
:102D7000502094E093E03B6903F178023B691B79B2
:102D8000786811460D22FEF727FE3B69082283F87A
:102D9000502084E03B691B7978681946FFF774F886
:102DA00003463B753B7D012B15D13B69012283F81E
:102DB00050203B69012283F85220786800F0A0F887
:102DC00003467B757B7D002B02D10023FB750AE057
:102DD0000223FB7563E03B7D052B04D13B6909228F
:102DE00083F850205BE05AE0FB78786819460022AF
:102DF00000F05AF80346BB75BB7D002B04D13B693C
:102E0000072283F8502007E0BB7D042B04D13B69E7
:102E10000B2283F8502042E041E0FB7878681946A5
:102E2000012200F041F80346BB75BB7D002B1ED18B
:102E30003B695B7978681946FFF78AF80346FB73AC
:102E40003B695A79FB7BC3F10103DBB27868114619
:102E50001A46FFF74BF83B691B7978681946002240
:102E6000FFF744F83B69092283F8502007E0BB7D57
:102E7000042B04D13B690B2283F850200FE00EE0B5
:102E80007868FFF7EBFD0346FB75FB7D002B04D153
:102E90003B69012283F8502001E000E000BFFB7D88
:102EA00018461837BD4680BD80B584B000AF786045
:102EB00013460A46FA70BB700223FB737B68D3F893
:102EC0007C34DB69BB60BB78002B02D0012B09D0BE
:102ED00011E0BB68DB7978681946FEF77DF9034697
:102EE000FB7308E0BB689B7978681946FEF774F9B4
:102EF0000346FB7300BFFB7B18461037BD4680BD01
:102F000080B584B000AF78607B68D3F87C34DB692F
:102F1000BB600123FB73BB681B7978681946FEF719
:102F200053FF03460D2B02D00223FB7324E0BB6842
:102F30009A6F144B9A421DD1BB68DA6FBB689B6DC8
:102F40009A4219D1BB6893F88430002B02D1002338
:102F5000FB7311E0BB6893F88430012B02D101238D
:102F6000FB7309E0BB6893F88430022B04D1022381
:102F7000FB7301E00223FB73FB7B18461037BD4651
:102F800080BD00BF5553425380B584B000AF786018
:102F90000B46FB700223FB737B68D3F87C34DB6940
:102FA000BB60BB6893F85230012B02D0022B21D0BA
:102FB00028E0BB680022DA65BB68002283F8602045
:102FC000BB680A2283F86220BB686333184600217D
:102FD000102209F073F8BB68002283F86320BB68F5
:102FE000012283F85020BB68022283F8522001237B
:102FF000FB7307E0FB7878681946FFF78DFD034601
:10300000FB7300BFFB7B18461037BD4680BD00BF79
:1030100080B586B000AFF8600B467A60FB72012382
:10302000FB75FB68D3F87C34DB693B613B6993F843
:103030005230012B02D0022B27D061E03B690822DD
:10304000DA653B69802283F860203B690A2283F8B5
:1030500062203B69633318460021102209F02EF8E4
:103060003B69252283F863203B69012283F85020C5
:103070003B69022283F852203B6903F110023B694D
:10308000C3F88C200123FB753AE0FB7AF8681946F7
:10309000FFF742FD0346FB75FB7D002B2FD13B69FB
:1030A000D3F88C3003331B781A463B69D3F88C3045
:1030B00002331B781B021A433B69D3F88C3001336F
:1030C0001B781B041A433B69D3F88C301B781B0612
:1030D00013431A467B681A603B69D3F88C30073378
:1030E0001B781A463B69D3F88C3006331B781B02D9
:1030F0009BB213439BB29AB27B689A80FFE700BFF2
:10310000FB7D18461837BD4680BD00BF80B586B030
:1031100000AFF8600B467A60FB720223FB75FB6818
:10312000D3F87C34DB693B613B6993F85230012B67
:1031300002D0022B3DD08CE03B692422DA653B694A
:10314000802283F860203B690A2283F862203B6971
:103150006333184600210A2208F0B0FF3B691222AF
:1031600083F86320FB7A5B01DAB23B6983F8642061
:103170003B69002283F865203B69002283F86620C2
:103180003B69242283F867203B69002283F868208A
:103190003B69012283F850203B69022283F85220C8
:1031A0003B6903F110023B69C3F88C200123FB75D6
:1031B0004FE0FB7AF8681946FFF7AEFC0346FB7553
:1031C000FB7D002B44D178680021222208F076FF95
:1031D0003B69D3F88C301B7803F01F03DAB27B68AD
:1031E0005A703B69D3F88C301B785B09DAB27B6884
:1031F0001A703B69D3F88C3001331B78DBB2DB09E2
:10320000DBB21A467B689A707B68DA1C3B69D3F89C
:103210008C30083310461946082208F046FF7B68B8
:1032200003F10C023B69D3F88C3010331046194679
:10323000102208F03AFF7B6803F11D023B69D3F8C6
:103240008C30203310461946042208F02EFFFFE789
:1032500000BFFB7D18461837BD4680BD80B586B0DF
:1032600000AFF8600B467A60FB720223FB75FB68C7
:10327000D3F87C34DB693B613B6993F85230012B16
:1032800002D0022B3DD05EE03B690E22DA653B693D
:10329000802283F860203B690A2283F862203B6920
:1032A000633318460021102208F008FF3B6903220F
:1032B00083F86320FB7A5B01DAB23B6983F8642010
:1032C0003B69002283F865203B69002283F8662071
:1032D0003B690E2283F867203B69002283F868204F
:1032E0003B69012283F850203B69022283F8522077
:1032F0003B6903F110023B69C3F88C200123FB7585
:1033000021E0FB7AF8681946FFF706FC0346FB75D7
:10331000FB7D002B16D13B69D3F88C3002331B7830
:1033200003F00F03DAB27B681A703B69D3F88C3074
:103330001A7B7B685A703B69D3F88C305A7B7B6868
:103340009A70FFE700BFFB7D18461837BD4680BD69
:1033500090B58BB004AF78600023FB750223BB757A
:103360007B68D3F87C341B79786819460122FF23E7
:10337000FDF748FA03467B757B7DFF2B10D10223B6
:10338000BB75964807F002F87B68D3F87C341B685D
:103390009348194606F0FAFF924806F0F7FF17E146
:1033A0007B7D78681946FDF7C3F97B68D3F87C44C8
:1033B000342008F05BFE0346E3617B68D3F87C347D
:1033C000DB693B613B6907229A707B6893F81F3485
:1033D0007A681A2101FB03F3134403F58663DB7C4F
:1033E000012B09D1804806F0D1FF7E4806F0CEFFC0
:1033F0003B697E4A1A631EE07B6893F81F347A6843
:103400001A2101FB03F3134403F58663DB7C022BD3
:1034100009D1774806F0BAFF724806F0B7FF3B695A
:10342000744A1A6307E0744806F0B0FF6D4806F06E
:10343000ADFF0223CDE03B6900229A703B69002278
:103440005A717B6893F81F347A681A2101FB03F3E1
:10345000134403F587631A7C3B699A767B6893F87B
:103460001F347A681A2101FB03F3134403F58763C1
:103470005A8A3B691A837B6893F81F347A681A2149
:1034800001FB03F3134403F587631B7D1A463B6975
:103490009A833B699B8B092B02D83B690A229A834A
:1034A0007B6893F81F347A681A2101FB03F31344F5
:1034B00003F586631B7C022B28BF0223FB7380E08D
:1034C0007B6893F81F34F97D7A680131C9001A20AE
:1034D00000FB03F30B44134403F586631B7CDBB250
:1034E0005BB2002B35DA7B6893F81F34F97D7A687C
:1034F0000131C9001A2000FB03F30B44134403F508
:1035000086631A7C3B691A713B691B797868194696
:10351000FEF7C2FA03461A463B695A703B6959786E
:103520003B691A797B6893F81C34786890F81D44DD
:103530003869008B00940324019402907868FEF7A8
:1035400083FA3B695B78786819460022FEF7CEFC67
:1035500034E07B6893F81F34F97D7A680131C90043
:103560001A2000FB03F30B44134403F586631A7C13
:103570003B69DA703B69DB7878681946FEF78CFAAC
:1035800003461A463B691A703B6919783B69DA7839
:103590007B6893F81C34786890F81D443869008B78
:1035A00000940324019402907868FEF74DFA3B6979
:1035B0001B78786819460022FEF798FCFB7D0133E2
:1035C000FB75FA7DFB7B9A42FFF47AAF0023BB7553
:1035D000BB7D18461C37BD4690BD00BF70CD0008AE
:1035E0007CCD0008A4CD0008A8CD0008B53B00089C
:1035F000C0CD0008593C0008D4CD000880B584B087
:1036000000AF78607B68D3F87C34DB69FB60FB68D3
:103610005B78002B0ED0FB685B7878681946FEF764
:103620002BFAFB685B7878681946FEF755FAFB6859
:1036300000225A70FB681B78002B0ED0FB681B78A9
:1036400078681946FEF718FAFB681B7878681946FF
:10365000FEF742FAFB6800221A707B68D3F87C34CC
:10366000DB69002B06D07B68D3F87C34DB69184615
:1036700008F004FD002318461037BD4680BD00BF8A
:1036800080B584B000AF78600123FB730123BB7366
:103690007B68D3F87C34DB69BB60BB685B79052B46
:1036A0005CD801A252F823F0C13600085D3700084B
:1036B000ED360008C1360008093700083537000824
:1036C0007868092100F032F90346002B0DD1BB6860
:1036D00003F126027B6803F507731046194600F0D4
:1036E000B7F9BB6802225A7139E038E0BB68DB8D5C
:1036F0007868194600F002F90346002B03D1BB6835
:1037000004225A712BE02AE078680021002200F0A0
:1037100025F90346BB73BB7B002B03D1BB68052295
:103720005A7106E0BB7B032B03D1BB6805225A719B
:1037300015E014E07868002100F064F90346002BDE
:103740000BD1BB6801225A717B68D3F8CC347868FE
:10375000022198470023FB7301E000E000BFFB7BE0
:1037600018461037BD4680BD80B586B002AF786080
:103770000023FB737B68D3F87C34DB69BB60BB68D8
:103780009B78062B00F2918001A252F823F000BF33
:10379000AD370008B5370008AB380008AB38000873
:1037A0000B380008F337000839380008BB681B6B7A
:1037B00078689847BB685B69BA68128BD2B200928E
:1037C00078680121002200F0F1F80346002B0FD1A8
:1037D000BB6803F10801BB685A69BB681B8B0846CC
:1037E00011461A4600F088F9BB6805229A705DE020
:1037F0005CE07B68D3F8C03403F00103002B03D0F6
:10380000BB6804229A7051E050E0BB685969BB68FC
:103810001B8BDAB2BB685B787868FEF7F9F8BB6897
:1038200006229A707B68D3F8C024BB681A62BB6812
:10383000002283F8242039E0BB685B787868194659
:10384000FEF722FB0346012B18D1BB6893F8243006
:10385000002B29D1BB6803F10801BB685A69BB681A
:103860001B8B084611461A4600F046F9BB68012238
:1038700083F82420786800F093F917E0BB685B7840
:1038800078681946FEF700FB0346052B0CD1BB6890
:103890009B7E78681946FDF79FFC0346002B03D1F9
:1038A000BB6804229A7001E000E000BFFB7B184671
:1038B0001037BD4680BD00BF80B485B000AF7860D2
:1038C0007B68D3F87C34DB69FB60FB689B78062B54
:1038D0000CD17B68D3F8C024FB681B6AD21AFB6842
:1038E0009B8B9A4202D3FB6804229A7000231846ED
:1038F0001437BD465DF8047B704700BF80B586B0C5
:1039000002AF78600B467B807B6803F507737A888B
:103910000092786801214FF40852FDF7DFFB03465F
:10392000FB73FB7B18461037BD4680BD80B586B063
:1039300002AF78600B467B807B6803F507737A885B
:103940000092786801214FF40452FDF7C7FB03464B
:10395000FB73FB7B18461037BD4680BD80B582B037
:1039600000AF786013460A46FA70BB707B6821226C
:103970001A747B680A225A74FB781B029AB2BB78CD
:103980009BB213439BB29AB27B685A827B68002237
:103990009A827B680022DA82786800210022FDF793
:1039A000F1FD034618460837BD4680BD80B584B09A
:1039B00000AFF8607B600B46FB721346BB72FB687E
:1039C000A1221A74FB6801225A74FB7A1B029AB274
:1039D000BB7A9BB213439BB29AB2FB685A82FB68D4
:1039E00000229A823B7E9AB2FB68DA823B7E9BB2CF
:1039F000F86879681A46FDF7C5FD03461846103782
:103A0000BD4680BD80B582B000AF78600B46FB70CC
:103A10007B6821221A747B680B225A74FB78002B76
:103A200014BF00230123DBB21A467B685A827B68ED
:103A300000229A827B680022DA82786800210022C4
:103A4000FDF7A0FD034618460837BD4680BD00BF00
:103A500080B483B000AF786039603B681A787B68C7
:103A60001A703B685A787B685A703B6802331B783F
:103A70001A463B6803331B781B029BB213449AB26D
:103A80007B685A803B681A797B681A713B685A795F
:103A90007B685A713B689A797B689A713B680733F7
:103AA0001B781A463B6808331B781B029BB21344F1
:103AB0009AB27B681A810C37BD465DF8047B70476B
:103AC00080B485B000AFF860B9601346FB80FB6836
:103AD00000229A80FB680022DA80FB6800229A723A
:103AE000FB68FA881A81FB68BA681A601437BD4609
:103AF0005DF8047B704700BF80B487B000AFF8600A
:103B0000B9601346FB80BB683B61FB689B7A002B66
:103B10003CD1FB6801229A720023FB8232E0FB68F1
:103B20009B885A1CFB68DB889A420AD0FB689B88FA
:103B30005A1CFB681B899A4208D1FB68DB88002B62
:103B400004D1FB6800229A72FB8A23E0FB681A68A2
:103B5000FB689B881A443B69591C39611B781370B8
:103B6000FB689B8801339AB2FB689A80FB689A884D
:103B7000FB681B899A4202D1FB6800229A80FB8A6B
:103B80000133FB82FA8AFB889A42C8D3FB68002281
:103B90009A72FB8818461C37BD465DF8047B704757
:103BA00080B483B000AF78600C37BD465DF8047B0D
:103BB000704700BF80B584B000AF78607B68D3F8F1
:103BC0007C34DB69BB60224B00229A70204B9A78D0
:103BD0001F4B5A701E4B00221A711D4B1A791C4B39
:103BE000DA701B4B00229A71194B9A79184B5A7153
:103BF000174B00221A72164B1A7A154BDA710023F2
:103C0000FB6007E0134BFA68002143F82210FB68C1
:103C10000133FB60FB68012BF4D9BB681B8B022BC3
:103C200002D9BB6802221A83BB680A4A5A61BB6880
:103C300003F108027B6803F507731046194650220A
:103C4000FFF73EFF002318461037BD4680BD00BF7A
:103C5000783101207031012080B584B000AF7860E8
:103C60007B68D3F87C34DB69FB60164B00221A704A
:103C7000144B00225A70134B00229A70114B0022F1
:103C8000DA70104B00221A710F4B00221A60FB6889
:103C90001B8B042B02D9FB6804221A83FB680A4A97
:103CA0005A61FB6803F108027B6803F5077310464D
:103CB00019462822FFF704FF002318461037BD4697
:103CC00080BD00BF883101209031012090B589B0BE
:103CD00004AF78600223FB7378680221022201237B
:103CE000FCF790FD0346BB73BB7BFF2B0ED1A448B2
:103CF00006F04CFB7B68D3F87C341B68A14819465E
:103D000006F044FBA04806F041FB34E1BB7B786839
:103D10001946FCF70DFD7B68D3F87C44502008F071
:103D2000A5F90346E3617B68D3F87C34DB69BB60AB
:103D3000BB7B7A681A2101FB03F3134403F5876305
:103D40001B7CDBB25BB2002B15DABB7B7A681A21D5
:103D500001FB03F3134403F587631A7CBB685A70B5
:103D6000BB7B7A681A2101FB03F3134403F58763D5
:103D70005A8ABB685A81BB685B7878681946FDF738
:103D80008BFE03461A46BB681A70BB681978BB687D
:103D90005A787B6893F81C34786890F81D44B868AA
:103DA000408900940324019402907868FDF74CFE4A
:103DB000BB681B78786819460022FEF797F8786888
:103DC0000A2100220023FCF71DFD0346BB73BB7BC9
:103DD000FF2B0ED16A4806F0D9FA7B68D3F87C3401
:103DE0001B686A48194606F0D1FA674806F0CEFA11
:103DF000C1E0BB7B7A681A2101FB03F3134403F58E
:103E000087631B7CDBB25BB2002B16DABB7B7A6864
:103E10001A2101FB03F3134403F587631A7CBB6883
:103E2000DA73BB7B7A681A2101FB03F3134403F5B1
:103E300087635A8ABB685A8315E0BB7B7A681A216C
:103E400001FB03F3134403F587631A7CBB689A7381
:103E5000BB7B7A681A2101FB03F3134403F58763E4
:103E60005A8ABB681A83BB7B7A681A2101FB03F369
:103E7000134403F588631B7CDBB25BB2002B16DABC
:103E8000BB7B7A681A2101FB03F3134403F58863B3
:103E90001A7CBB68DA73BB7B7A681A2101FB03F3D7
:103EA000134403F588635A8ABB685A8315E0BB7BC9
:103EB0007A681A2101FB03F3134403F588631A7C23
:103EC000BB689A73BB7B7A681A2101FB03F3134426
:103ED00003F588635A8ABB681A83BB689B7B786842
:103EE0001946FDF7D9FD03461A46BB685A73BB68ED
:103EF000DB7B78681946FDF7CFFD03461A46BB68A1
:103F00001A73BB68597BBB689A7B7B6893F81C3437
:103F1000786890F81D44B868008B009402240194DE
:103F200002907868FDF790FDBB68197BBB68DA7B6F
:103F30007B6893F81C34786890F81D44B868408B0F
:103F400000940224019402907868FDF77DFDBB681F
:103F5000002283F84C20BB685B7B786819460022FE
:103F6000FDF7C4FFBB681B7B786819460022FDF78C
:103F7000BDFF0023FB73FB7B18461437BD4690BD85
:103F8000F0CD0008FCCD00083CCE000840CE000873
:103F900080B584B000AF78607B68D3F87C34DB698F
:103FA000FB60FB681B78002B0ED0FB681B787868E1
:103FB0001946FDF761FDFB681B7878681946FDF727
:103FC0008BFDFB6800221A70FB681B7B002B0ED058
:103FD000FB681B7B78681946FDF74EFDFB681B7B71
:103FE00078681946FDF778FDFB6800221A73FB68B4
:103FF0005B7B002B0ED0FB685B7B78681946FDF776
:104000003BFDFB685B7B78681946FDF765FDFB6847
:1040100000225A737B68D3F87C34DB69002B0BD009
:104020007B68D3F87C34DB69184608F027F87B6896
:10403000D3F87C340022DA61002318461037BD46DD
:1040400080BD00BF80B584B000AF78600223FB73F1
:104050007B68D3F87C34DB69BB60BB68403378682D
:10406000194600F0B1F80346FB73FB7B002B05D12A
:104070007B68D3F8CC34786802219847FB7B1846DC
:104080001037BD4680BD00BF80B584B000AF7860FA
:104090000123FB730023BB737B68D3F87C34DB699B
:1040A000BB60BB6893F84C30042B7AD801A252F85D
:1040B00023F000BFC9400008CF40000801410008BC
:1040C00077410008854100080023FB736AE0BB6864
:1040D0009B6C7868194600F097F80346BB73BB7B6E
:1040E000002B04D1BB68022283F84C2007E0BB7B85
:1040F000012B04D0BB68042283F84C2052E051E02D
:10410000BB6840337868194600F05EF80346BB731D
:10411000BB7B002B26D1BB68002283F84C20BB68F8
:1041200093F84420BB689B6C1B799A4222D1BB68F0
:1041300093F84620BB689B6C9B799A421AD1BB6866
:1041400093F84520BB689B6C5B799A4212D1BB689F
:104150001A6CBB689B6C1B689A420BD1786800F0A4
:1041600059F91FE0BB7B012B04D0BB68042283F804
:104170004C2017E016E0786800F066F8786800F0E8
:10418000D9F80FE078680021FDF726F80346BB73E5
:10419000BB7B002B04D1BB68002283F84C2001E0DC
:1041A00000E000BFFB7B18461037BD4680BD00BF56
:1041B00080B483B000AF7860002318460C37BD464A
:1041C0005DF8047B704700BF80B582B000AF7860B7
:1041D00039607B68A1221A747B6821225A747B683B
:1041E00000225A827B6800229A827B680722DA8248
:1041F0003B68786819460722FDF7C4F9034618465C
:104200000837BD4680BD00BF80B582B000AF786082
:1042100039607B6821221A747B6820225A747B687B
:1042200000225A827B6800229A827B680722DA8207
:104230003B68786819460722FDF7A4F9034618463B
:104240000837BD4680BD00BF80B586B002AF78603C
:104250007B68D3F87C34DB69FB600023FB72FB686E
:1042600093F84D30012B02D0022B23D05FE0FB6886
:104270005A6AFB681B8B9A420BD9FB68D969FB68A9
:104280001A8BFB685B7B012000907868FDF782FB4E
:104290000BE0FB68D969FB685B6A9AB2FB685B7BE1
:1042A000012000907868FDF775FBFB68022283F817
:1042B0004D203CE0FB685B7B78681946FDF7E4FD28
:1042C0000346FB72FB7A012B28D1FB685A6AFB6814
:1042D0001B8B9A420ED9FB685A6AFB681B8BD21A59
:1042E000FB685A62FB68DA69FB681B8B1A44FB683F
:1042F000DA6102E0FB6800225A62FB685B6A002B0D
:1043000004D0FB68012283F84D200FE0FB680022F7
:1043100083F84D20786800F069F807E0FB7A022BFB
:1043200004D1FB68012283F84D20FFE700BF10375E
:10433000BD4680BD80B584B000AF78607B68D3F89F
:104340007C34DB69FB600023FB72FB6893F84E3022
:10435000032B02D0042B0ED044E0FB68196AFB68E3
:104360005A8BFB681B7B7868FDF736FBFB680422E1
:1043700083F84E2036E0FB681B7B78681946FDF712
:1043800083FD0346FB72FB7A012B2AD1FB681B7B62
:1043900078681946FDF718FD03463B81FB689A6A69
:1043A0003B899A4215D0FB685B8B3A899A4210D9B7
:1043B000FB689A6A3B89D21AFB689A62FB681A6AA0
:1043C0003B891A44FB681A62FB68032283F84E207B
:1043D00007E0FB68002283F84E20786800F010F8B0
:1043E000FFE700BF1037BD4680BD00BF80B483B07B
:1043F00000AF78600C37BD465DF8047B704700BFA6
:1044000080B483B000AF78600C37BD465DF8047BA4
:10441000704700BF80B483B000AF78600C37BD46F2
:104420005DF8047B704700BF80B500AF00F0DEFA96
:1044300080BD00BF80B500AF00F006FB80BD00BFAF
:1044400080B483B000AF7860012318460C37BD46B6
:104450005DF8047B704700BF80B500AF00F0BCFD85
:1044600080BD00BF80B500AF00F0C4FD0346184614
:1044700080BD00BF80B582B000AF78607B68184611
:1044800000F00CF97B680A4A1A607B6800229A6087
:104490007868796800F074F87B6805E07B681846F6
:1044A00000F012F906F0CEFB18460837BD4680BD75
:1044B00080CE000880B582B000AF78607B680A4A81
:1044C0001A607868796800F079F87B68184600F01F
:1044D000FBF80023002B02D0786806F02BF97B68EC
:1044E00018460837BD4680BD80CE000880B582B032
:1044F00000AF78607868FFF7DDFF786806F01AF99A
:104500007B6818460837BD4680BD00BF90B587B0B0
:1045100002AFF860B9603B601346FB80FB681B6824
:104520001C331C68FB88F868B9681A463B68A047CA
:104530000346002B0FD0FA68FB88F96800913968B0
:10454000019110460649BA6800F012F90346002BA3
:1045500001D0012300E0002318461437BD4690BD6A
:104560006545000880B582B000AF78607B681B6845
:1045700018331B68786898470837BD4680BD00BF70
:1045800080B582B000AF78603960FFF74DFF0A4B0D
:104590001B68002B03D1084B7A681A6006E0064BB3
:1045A0001A687B689A60044B7A681A60FFF742FFCA
:1045B0000837BD4680BD00BFE800002080B584B04C
:1045C00000AF78603960FFF72FFF154B1B683A6822
:1045D0009A4206D13B689A68114B1A60FFF72AFF8E
:1045E0001BE0FFF727FFFFF737FF0D4B1B68FB6052
:1045F00002E0FB689B68FB60FB68002B04D0FB6853
:104600009A683B689A42F4D1FB68002B03D03B6860
:104610009A68FB689A60FFF725FF1037BD4680BD9A
:10462000E800002080B582B000AF0123FB710E4B83
:104630001B683B6010E03B681B6814331B683868DC
:1046400098470346FA791340002B0CBF002301233F
:10465000FB713B689B683B603B68002BEBD1FB79AF
:1046600018460837BD4680BDE800002080B500AF81
:10467000FFF7D8FF0346184680BD00BF80B483B063
:1046800000AF78607B68044A1A607B6818460C3774
:10469000BD465DF8047B704708CF000880B582B046
:1046A00000AF78607B681846FFF7E8FF7B68054A33
:1046B0001A607B6800225A607B6818460837BD463E
:1046C00080BD00BFE8CE000880B582B000AF786042
:1046D0007B680B4A1A607868FBF7E2FE0346002B02
:1046E00002D0786800F06EF80023002B02D07868C2
:1046F00006F020F87B6818460837BD4680BD00BF2D
:10470000E8CE000880B582B000AF78607868FFF727
:10471000DBFF786806F00EF87B6818460837BD4660
:1047200080BD00BF80B582B000AF786039603B6863
:10473000002B05D10B481B210B4A0C4B05F0F4FD57
:104740007B681B681B68786898470346002B02D07B
:10475000786800F037F87B683A685A600837BD46D9
:1047600080BD00BFBCCE000844CF0008CCCE0008FE
:1047700080B58AB004AFF860B9607A607B807B88CE
:104780007A6A009207F1100201920022029200223E
:104790000392B86879681A463B6A00F02DFA03461E
:1047A0007B617B69012B07D1FB681B6804331B68A5
:1047B0003A69F868114698477B6918461837BD462C
:1047C00080BD00BF80B584B000AF78607B685B6857
:1047D000002B0BD07B685B68FB607B6800225A6013
:1047E000F86800F0D9FA7B6800225A601037BD469D
:1047F00080BD00BF80B485B000AFF860B9607A605A
:10480000FB68043BFB60FB684FF080721A60FB683A
:10481000043BFB60BA68FB681A60FB68043BFB6002
:104820000C4AFB681A60FB68143BFB607A68FB6803
:104830001A60FB68043BFB60FB686FF002021A60C1
:10484000FB68203BFB60FB6818461437BD465DF8EB
:10485000047B70475948000880B483B000AF0C4B0C
:104860001B68B3F1FF3F09D04FF0500383F3118869
:10487000BFF36F8FBFF34F8F7B60FEE74FF05003A6
:1048800083F31188BFF36F8FBFF34F8F3B60FEE759
:1048900064000020064B19680868B0E8F04F80F308
:1048A0000988BFF36F8F4FF0000080F311887047C5
:1048B000F400002006480068006880F3088862B6AB
:1048C00061B6BFF34F8FBFF36F8F00DF00BF0000F3
:1048D00008ED00E080B586B000AF3B4B1A683B4B5B
:1048E0009A4209D14FF0500383F31188BFF36F8FC1
:1048F000BFF34F8F3B61FEE7334B1A68344B9A424C
:1049000009D14FF0500383F31188BFF36F8FBFF3CA
:104910004F8FFB60FEE72F4B7B617B691B78DBB21F
:10492000BB607B69FF221A707B691B78DBB2FB716D
:10493000FB79DBB203F05003DAB2274B1A70274B36
:1049400007221A6009E0254B1B685A1E234B1A6088
:10495000FB79DBB25B00DBB2FB71FB79DBB2DBB274
:104960005BB2002BEFDB1D4B1B681A021B4B1A605E
:104970001A4B1B6803F4E062184B1A60BB68DAB28A
:104980007B691A70164B164A126842F470021A605C
:10499000134B134A126842F070421A6000F0CCF8D0
:1049A000104B00221A6000F0E1F80F4B0E4A12681B
:1049B00042F040421A60FFF77DFFFFF74DFF0023F2
:1049C00018461837BD4680BD00ED00E071C20F41AA
:1049D00070C20F4100E400E0EC000020F000002075
:1049E00020ED00E06400002034EF00E080B483B0EC
:1049F00000AF4FF0500383F31188BFF36F8FBFF305
:104A00004F8F7B600E4B1B685A1C0D4B1A600C4B72
:104A10001B68012B0ED10B4B1B68DBB2002B09D09E
:104A20004FF0500383F31188BFF36F8FBFF34F8FA5
:104A30003B60FEE70C37BD465DF8047B704700BF66
:104A40006400002004ED00E080B483B000AF104BA0
:104A50001B68002B09D14FF0500383F31188BFF37B
:104A60006F8FBFF34F8F7B60FEE7094B1B685A1EA9
:104A7000074B1A60064B1B68002B04D100233B60D8
:104A80003B6883F311880C37BD465DF8047B7047A3
:104A900064000020EFF30980BFF36F8F144B1A6896
:104AA0001EF0100F08BF20ED108A20E9F04F1060B3
:104AB0004DF8043D4FF0500080F31188BFF34F8F45
:104AC000BFF36F8F00F000FC4FF0000080F31188FF
:104AD00008BC19680868B0E8F04F1EF0100F08BF56
:104AE000B0EC108A80F30988BFF36F8F704700BF66
:104AF000F400002080B584B000AFEFF311824FF0D6
:104B0000500383F31188BFF36F8FBFF34F8FFA60A9
:104B1000BB6000F013FB0346002B03D0054B4FF0A6
:104B200080521A6000237B607B6883F31188103702
:104B3000BD4680BD04ED00E080B400AF074B084ADD
:104B40001168084AA2FB01029209013A1A60064B59
:104B500007221A60BD465DF8047B704714E000E050
:104B600068000020D34D621010E000E0DFF80C0078
:104B7000016841F4700101607047000088ED00E0B9
:104B800080B485B000AFEFF30583FB60FB680F2BAB
:104B900013D9154AFB6813441B78FB72134B1B781F
:104BA000FA7A9A4209D24FF0500383F31188BFF387
:104BB0006F8FBFF34F8F7B60FEE70D4B1B6803F4D5
:104BC000E0620C4B1B689A4209D94FF0500383F303
:104BD0001188BFF36F8FBFF34F8F3B60FEE7143731
:104BE000BD465DF8047B7047F0E300E0EC00002078
:104BF0000CED00E0F000002080B58CB002AFF86052
:104C0000B9603B601346FB80FB68002B09D14FF075
:104C1000500383F31188BFF36F8FBFF34F8FBB61D6
:104C2000FEE73B6B042B09D94FF0500383F3118847
:104C3000BFF36F8FBFF34F8F7B61FEE7FB88184692
:104C4000B96B00F063FE38623B6A002B78D03B6A98
:104C50001A6BFB8803F18043013B9B001344FB610B
:104C6000FB6923F00703FB61FB6903F00703002BDB
:104C700009D04FF0500383F31188BFF36F8FBFF358
:104C80004F8F3B61FEE7FB880093386AB9683A6B47
:104C9000FB6B00F03BFDF869F9683A68FFF7AAFD85
:104CA00002463B6A1A607B6B002B02D07B6B3A6A30
:104CB0001A60FFF79BFE314B1B685A1C2F4B1A6082
:104CC0002F4B1B68002B09D12D4B3A6A1A602B4BD6
:104CD0001B68012B0FD100F06BFD0CE0294B1B680A
:104CE000002B08D1264B1B68DA6A3B6B9A4202D82C
:104CF000234B3A6A1A60244B1B685A1C224B1A60D9
:104D0000214B1A683B6A1A643B6ADB6A01229A40AB
:104D10001E4B1B681A431D4B1A603B6ADA6A134626
:104D20009B0013449B001A4A1A443B6A0433104602
:104D3000194601F0DFFA01237B62FFF785FE02E0EE
:104D40004FF0FF337B627B6A012B11D10D4B1B6847
:104D5000002B0DD00A4B1B68DA6A3B6B9A4207D2D4
:104D60000C4B4FF080521A60BFF34F8FBFF36F8F21
:104D70007B6A18462837BD4680BD00BFCC010020A5
:104D8000F4000020D8010020E8010020D401002018
:104D9000F800002004ED00E080B584B000AF78603A
:104DA000FFF724FE7B68002B02D1334B1B6800E029
:104DB0007B68FB60FB680433184601F0F7FA034692
:104DC000002B15D1FB68DA6A2C4913469B0013446B
:104DD0009B000B441B68002B0AD1FB68DB6A012295
:104DE00002FA03F3DA43264B1B681A40244B1A607D
:104DF000FB689B6A002B04D0FB681833184601F04F
:104E0000D5FAFB6804331F48194601F073FA1E4BAC
:104E10001B685A1C1C4B1A601C4B1B685A1C1B4BF2
:104E20001A60FFF711FE1A4B1B68002B21D0124BA2
:104E30001B68FA689A4216D1164B1B68002B09D0E2
:104E40004FF0500383F31188BFF36F8FBFF34F8F81
:104E5000BB60FEE7104B4FF080521A60BFF34F8FDC
:104E6000BFF36F8F05E0FFF7C1FD00F097FDFFF77F
:104E7000EBFD1037BD4680BDF4000020F800002097
:104E8000D4010020A0010020B4010020E80100208E
:104E9000D8010020F001002004ED00E080B586B0CC
:104EA00000AF786000237B617B68002B2FD01F4B05
:104EB0001B68002B09D04FF0500383F31188BFF318
:104EC0006F8FBFF34F8FFB60FEE700F085F8184B44
:104ED0001A687B6813443B61164B1B680433184601
:104EE00001F064FA0346002B0BD1124B1B68DB6AFE
:104EF000012202FA03F3DA430F4B1B681A400E4BF0
:104F00001A60386900F0CCFC00F074F878617B69B5
:104F1000002B07D1094B4FF080521A60BFF34F8F1F
:104F2000BFF36F8F1837BD4680BD00BFF001002072
:104F3000D0010020F4000020D401002004ED00E0A6
:104F400080B588B004AF00230093002301930023B1
:104F50000293002303931B481B4982220023FFF77F
:104F60004BFEF860FB68012B02D100F067FEF86091
:104F7000FB68012B15D14FF0500383F31188BFF369
:104F80006F8FBFF34F8FBB60104B4FF0FF321A6033
:104F90000F4B01221A600F4B00221A60FFF79AFC98
:104FA0000CE0FB68002B09D14FF0500383F311880C
:104FB000BFF36F8FBFF34F8F7B60FEE71037BD46A7
:104FC00080BD00BFD956000870CF0008EC0100205A
:104FD000D8010020D001002080B400AF044B1B6832
:104FE0005A1C034B1A60BD465DF8047B704700BF36
:104FF000F001002080B584B000AF0023FB603E4B81
:105000001B68002B09D14FF0500383F31188BFF3C5
:105010006F8FBFF34F8F7B60FEE7FFF7E7FC364BE8
:105020001B685A1E344B1A60334B1B68002B5BD134
:10503000324B1B68002B57D02EE0314BDB68DB680E
:10504000BB60BB681833184601F0B0F9BB68043385
:10505000184601F0ABF9BB68DB6A01229A40294B84
:105060001B681A43274B1A60BB68DA6A13469B0019
:1050700013449B00244A1A44BB6804331046194663
:1050800001F038F9BB68DA6A204B1B68DB6A9A4288
:1050900002D31F4B01221A60194B1B68002BCCD185
:1050A0001C4B1B68002B11D00CE000F047F80346A6
:1050B000002B02D0164B01221A60164B1B685A1E99
:1050C000144B1A60134B1B68002BEED1104B1B685E
:1050D000012B09D10123FB600F4B4FF080521A6066
:1050E000BFF34F8FBFF36F8FFFF7AEFCFB6818461F
:1050F0001037BD4680BD00BFF0010020CC0100206C
:105100008C010020D4010020F8000020F4000020D1
:10511000E0010020DC01002004ED00E080B483B059
:1051200000AF054B1B687B607B6818460C37BD469B
:105130005DF8047B704700BFD001002080B586B0C9
:1051400000AF00237B61554B1B68002B40F0938020
:10515000534B1B685A1C524B1A60514B1B683B61E6
:105160003B69002B1FD14F4B1B681B68002B09D0DC
:105170004FF0500383F31188BFF36F8FBFF34F8F4E
:105180003B60FEE7474B1B68FB60474B1A68454B8B
:105190001A60454BFA681A60444B1B685A1C434B13
:1051A0001A6000F0FBFB424B1B683A699A424DD3F0
:1051B0003C4B1B681B68002B01D1012300E000233E
:1051C000002B04D03A4B4FF0FF321A603EE0354BD3
:1051D0001B68DB68DB68BB60BB685B687B603A6947
:1051E0007B689A4203D2324B7A681A602EE0BB6821
:1051F0000433184601F0DAF8BB689B6A002B04D030
:10520000BB681833184601F0D1F8BB68DB6A01228D
:105210009A40284B1B681A43264B1A60BB68DA6A0F
:1052200013469B0013449B00234A1A44BB68043373
:105230001046194601F05EF8BB68DA6A1F4B1B681E
:10524000DB6A9A4201D301237B61B1E71B4B1B68E8
:10525000DA6A194913469B0013449B000B441B68F0
:10526000012B01D901237B61154B1B68002B09D150
:1052700005F094F906E0124B1B685A1C104B1A609B
:1052800005F08CF90F4B1B68002B01D001237B61CB
:105290007B6918461837BD4680BD00BFF00100206D
:1052A000D00100208401002088010020E4010020BA
:1052B000EC010020D4010020F8000020F4000020C0
:1052C000DC010020E001002080B586B000AF374B44
:1052D0001B68002B03D0364B01221A6063E0344B6D
:1052E00000221A60334B1B681A68324B1B681B6B19
:1052F0009A4208D82F4B1A682E4B1B68343310463D
:10530000194605F045F92B4B1B681B6B18462A49BB
:10531000142206F0BBFE0346002B08D0254B1A686A
:10532000244B1B6834331046194605F031F9234BE2
:105330001B68FB60FB68B3FA83F3FB72FB7AC3F173
:105340001F037B611E497A6913469B0013449B002F
:105350000B441B68002B09D14FF0500383F31188D5
:10536000BFF36F8FBFF34F8F7B60FEE77A69134601
:105370009B0013449B00124A13443B613B695B68EA
:105380005A683B695A603B695A683B6908339A42DC
:1053900004D13B695B685A683B695A603B695B684A
:1053A000DA68044B1A601837BD4680BDF001002052
:1053B000E0010020F400002078CF0008D401002094
:1053C000F800002080B584B000AF786039607B6859
:1053D000002B09D14FF0500383F31188BFF36F8F77
:1053E000BFF34F8FBB60FEE7194B1B68183378681B
:1053F000194600F0A3FF164B1B680433184600F053
:10540000D5FF0346002B0BD1114B1B68DB6A012231
:1054100002FA03F3DA430F4B1B681A400D4B1A6074
:105420003B68B3F1FF3F07D1094B1B6804330A48BF
:10543000194600F05FFF07E0084B1A683B68134409
:10544000FB60F86800F02CFA1037BD4680BD00BF45
:10545000F4000020D4010020B8010020D001002079
:1054600080B586B000AFF860B9607A60FB68002B49
:1054700009D14FF0500383F31188BFF36F8FBFF34F
:105480004F8F3B61FEE7194B1B681833F8681946CC
:1054900000F030FF154B1B680433184600F086FF00
:1054A0000346002B0BD1114B1B68DB6A012202FA69
:1054B00003F3DA430E4B1B681A400D4B1A607B68EE
:1054C000012B07D1094B1B6804330A48194600F029
:1054D00011FF07E0084B1A68BB6813447B617869C9
:1054E00000F0DEF91837BD4680BD00BFF400002093
:1054F000D4010020B8010020D001002080B586B082
:1055000000AF78607B68DB68DB683B613B69002B40
:1055100009D14FF0500383F31188BFF36F8FBFF3AE
:105520004F8FFB60FEE73B691833184600F03EFFE3
:105530001D4B1B68002B1CD13B690433184600F03F
:1055400035FF3B69DB6A01229A40184B1B681A43FE
:10555000164B1A603B69DA6A13469B0013449B00A2
:10556000134A1A443B6904331046194600F0C2FE40
:1055700005E03B6918330F48194600F0BBFE3B6954
:10558000DA6A0D4B1B68DB6A9A4205D901237B61FD
:105590000A4B01221A6001E000237B617B691846F7
:1055A0001837BD4680BD00BFF0010020D4010020A7
:1055B000F80000208C010020F4000020E001002011
:1055C00080B485B000AF78607B68002B09D14FF0C4
:1055D000500383F31188BFF36F8FBFF34F8FFB60CE
:1055E000FEE7064B1A687B681A60054B1A687B68F1
:1055F0005A601437BD465DF8047B7047E401002013
:10560000D001002080B586B000AF786039607B683B
:10561000002B09D14FF0500383F31188BFF36F8F34
:10562000BFF34F8FFB60FEE73B68002B09D14FF0C3
:10563000500383F31188BFF36F8FBFF34F8FBB60AD
:10564000FEE7FFF7D3F91C4B1B683B613B681B6807
:10565000B3F1FF3F02D100237B6126E07B681A682B
:10566000164B1B689A4207D07B685A683B699A427E
:1056700002D801237B6118E07B685B683A69D21A23
:105680003B681B689A420ED23B681A687B6859686F
:105690003B69CB1A1A443B681A607868FFF790FFA1
:1056A00000237B6101E001237B61FFF7CDF97B697A
:1056B00018461837BD4680BDD0010020E401002007
:1056C00080B400AF034B01221A60BD465DF8047B35
:1056D000704700BFE001002080B582B000AF786065
:1056E00000F0A4F8074B1B68012B07D9064B4FF0BD
:1056F00080521A60BFF34F8FBFF36F8F04F054FFD7
:10570000EEE700BFF800002004ED00E080B586B0B1
:1057100000AFF860B9607A603B6000237B6112E003
:10572000BA687B6913441A78F9687B690B44303393
:105730001A71BA687B6913441B78002B00D105E00D
:105740007B6901337B617B69092BE9D9FB68002206
:1057500083F83D207B68042B01D904237B60FB6820
:105760007A68DA62FB687A689A64FB680022DA6415
:10577000FB680433184600F0B1FDFB681833184687
:1057800000F0ACFDFB68FA681A617B68C3F10502A2
:10579000FB689A61FB68FA685A62FB6800221A6526
:1057A000FB68002283F854201837BD4680BD00BF37
:1057B00080B582B000AF00237B600CE07A681346AE
:1057C0009B0013449B00114A1344184600F066FDE9
:1057D0007B6801337B607B68042BEFD90C4800F0B9
:1057E0005DFD0C4800F05AFD0B4800F057FD0B48DA
:1057F00000F054FD0A4800F051FD0A4B044A1A60BB
:10580000094B044A1A600837BD4680BDF8000020E5
:105810005C010020700100208C010020A00100200C
:10582000B8010020840100208801002080B582B0EA
:1058300000AF28E0FFF7D0FB164B1B68002B14BF0E
:1058400000230123DBB27B60FFF7D4FB7B68002BD6
:1058500019D1FFF7CBF80F4BDB68DB683B603B6887
:105860000433184600F0A2FD0B4B1B685A1E0A4B6E
:105870001A600A4B1B685A1E084B1A60FFF7E4F8BF
:10588000386800F07BF8054B1B68002BD2D1083735
:10589000BD4680BDA0010020CC010020B401002045
:1058A00080B582B000AF7860134B1B687A685A608D
:1058B000124B1B687A689A4209D2114B1A680E4B38
:1058C0001B6804331046194600F038FD10E00D4BFC
:1058D0001A68094B1B6804331046194600F02EFD68
:1058E000094B1B687A689A4202D2074B7A681A60A1
:1058F0000837BD4680BD00BFF4000020D001002065
:105900008801002084010020EC01002080B584B0D3
:1059100000AF03463960FB803B68002B06D1FB8853
:105920009B00184600F058FC034600E03B68BB6053
:10593000BB68002B0ED0582000F04EFCF860FB68CE
:10594000002B03D0FB68BA681A6305E0B86800F062
:105950008FFC01E00023FB60FB68002B08D0FB6894
:105960001A6BFB889B001046A5211A4606F0A6FB81
:10597000FB6818461037BD4680BD00BF80B582B0B9
:1059800000AF78607B681B6B184600F071FC78688C
:1059900000F06EFC0837BD4680BD00BF80B483B008
:1059A00000AF0E4B1B681B68002B01D1012300E0E8
:1059B0000023002B04D00A4B4FF0FF321A6008E09E
:1059C000064B1B68DB68DB687B607B685A68044BAE
:1059D0001A600C37BD465DF8047B704784010020D7
:1059E000EC01002080B483B000AF0B4B1B68002B90
:1059F00002D101237B6008E0084B1B68002B02D119
:105A000002237B6001E000237B607B6818460C3733
:105A1000BD465DF8047B7047D8010020F0010020EE
:105A200080B584B000AF78607B68FB607B68002B3A
:105A300062D0FB68DA6A324B1B68DB6A9A425BD23F
:105A4000FB689B69002B06DB2D4B1B68DB6AC3F1EF
:105A50000502FB689A61FB685969FB68DA6A1346BC
:105A60009B0013449B00274A1344994201D1012310
:105A700000E00023002B3AD0FB680433184600F006
:105A800095FC0346002B15D1FB68DA6A1D491346C5
:105A90009B0013449B000B441B68002B0AD1FB683E
:105AA000DB6A012202FA03F3DA43174B1B681A4040
:105AB000154B1A60124B1B68DA6AFB68DA62FB68E6
:105AC000DB6A01229A40104B1B681A430E4B1A6086
