:020000040800F2
:10000000000002200903000811030008190300087A
:10001000A1030008A9030008F9030008000000007C
:10002000000000000000000000000000A11A00080D
:100030005104000800000000A11C0008011D000878
:100040000103000801030008010300080103000880
:100050000103000801030008010300080103000870
:100060000103000801030008010300080103000860
:100070000103000801030008010300080103000850
:100080000103000801030008010300080103000840
:100090000103000801030008010300080103000830
:1000A0000103000801030008010300080103000820
:1000B0000103000801030008010300080103000810
:1000C0000103000801030008010300080103000800
:1000D00001030008010300080103000801030008F0
:1000E00001030008010300080103000801030008E0
:1000F00001030008010300080103000801030008D0
:1001000001030008110700080103000801030008AB
:1001100001030008010300080103000801030008AF
:10012000010300080103000801030008A1060008FC
:10013000010300080103000801030008010300088F
:10014000010300080103000801030008010300087F
:10015000010300080103000801030008010300086F
:10016000010300080103000801030008010300085F
:10017000010300080103000801030008000000005B
:10018000010300080103000880B58EB000AF05F040
:1001900081FC494B494A1A60494B484A1A60494B0D
:1001A0003B63494BFB62494BBB62FB6A7B6207E0E6
:1001B0007B6A1A1D7A623A6B111D396312681A60E4
:1001C000BA6A7B6A9A42F3D83B4B1A68404B9A4210
:1001D00004D13B4B1A683F4B9A4200D0FEE73E4B9E
:1001E000364A1A603D4B354A1A603D4B3B623D4BE7
:1001F000FB613B6ABB6104E0BB691A1DBA61002266
:100200001A60FA69BB699A42F6D8334B1B68002B17
:1002100003D1324B1B68002B00D0FEE705F04AFCEF
:100220003A1D3B461046194605F054FB2E4A2F4B0B
:10023000D31A9B107B6100233B6107E02B4B3A698B
:1002400053F8223098473B6901333B617A693B6937
:100250009A42F3DC264A274BD31A9B107B6100237A
:100260003B6107E0234B3A6953F8223098473B69DA
:1002700001333B617A693B699A42F3DC7A683B68F7
:100280001046194600F082F978631B4A1B4BD31ABB
:100290009B10FB60FB68BB6008E0BB685A1E174BF5
:1002A00053F822309847BB68013BBB60BB68002B0A
:1002B000F3DC786B05F0CAFA00000020BABADECA97
:1002C00080000020E8510108000000208400002088
:1002D000785634123254769884000020B0300120D1
:1002E00084000020B4300120A0040008A00400080D
:1002F000A0040008A0040008A0040008A00400084E
:1003000080B400AFFEE700BF80B500AFFFF73CFF51
:1003100080B400AFFEE700BF1EF0040F0CBFEFF388
:100320000880EFF30980854601BE71464F4A1047A9
:1003300080B588B002AF78603960174B5B6B7B612A
:10034000154B9B6B3B61144B9B6AFB60124B1B6B09
:1003500003F00203002B10D00F4BDB6A002B0CDAEA
:1003600078684BF6AB6105F0A5FC0346002B04D082
:10037000094B4FF00042DA620BE0084805F0F0FA52
:100380003B6800937868F9687A693B6905F0FCFB83
:10039000FEE71837BD4680BD00ED00E0044E0108C1
:1003A00080B400AFFEE700BF1EF0040F0CBFEFF3F8
:1003B0000880EFF3098071462D4A104780B588B058
:1003C00002AF786039600A4B5B6B7B61084B9B6BBB
:1003D0003B61074B9B6AFB60064805F0C1FA3B682E
:1003E00000937868F9687A693B6905F0CDFBFEE710
:1003F00000ED00E0144E01081EF0040F0CBFEFF3F7
:100400000880EFF3098071461A4A104780B588B01A
:1004100002AF786039600A4B5B6B7B61084B9B6B6A
:100420003B61074B9B6AFB60064805F099FA3B6805
:1004300000937868F9687A693B6905F0A5FBFEE7E7
:1004400000ED00E0204E010880B400AFFEE700BFE1
:1004500080B400AFFEE700BF80B400AFFEE700BF8E
:1004600080B400AFBD465DF8047B704731030008DF
:08047000BD0300080D040008A3
:10047800E85101080000002084000020E85101082C
:10048800000000100000001084000020B43001209B
:0804980000000010000000103C
:1004A0004068003018BF0120704700BF0346406815
:1004B00000225A60704700BF0120704710B582B01B
:1004C000044602F0EDFC0190237D83F001032375C7
:1004D000A08900F5801080308002E28901219140DE
:1004E00089B20BB1012200E0002204F081FB01A8D7
:1004F000216902F007FBE7E710B586B00D4B196BD9
:100500008289012404FA02F20A431A63C38904FAB5
:1005100003F301930294039402230493808900F56A
:1005200080108030800201A904F0C2F9204606B094
:1005300010BD00BF0038024010B50446024B0360F6
:1005400001F0BEF8204610BDE87E000810B5044654
:10055000044B036001F0B4F8204605F0D5FB2046BB
:1005600010BD00BFE87E0008F8B504460F461646E9
:100570001D4601F085F8044B2360A781E6812561C3
:10058000002323752046F8BDE87E000810B5114809
:1005900005F008FA1048114B196805F0E1F9182028
:1005A00005F0F6FE044603210C224FF4FA73FFF720
:1005B000DBFF20460A498222022301F0ADF84FF406
:1005C000FA50032100F00EF801F056F902F07AFB20
:1005D000FEE700BF087F00081C7F0008080000201D
:1005E000307F000880B586B004AF03463960FB80D9
:1005F00000F0F0F8FB883A680092074A0192002266
:10060000029200220392054805491A46002302F08F
:1006100027F90837BD4680BD880000202506000860
:10062000387F000880B582B000AF786000F0AAF98A
:1006300000F0C2F90346002B29D0012002F0F0FAA5
:10064000154800F01FFE0346002B1DD0012002F0CC
:10065000E7FA1248012100F02BFE0346002B0FD0D1
:10066000012002F0DDFA00F0B3FF0346002B03D0B7
:10067000012002F0D5FA0AE0012002F0D1FA06E0EA
:10068000012002F0CDFA02E0012002F0C9FA4FF495
:100690007A7002F0C5FAFAE78C000020A000002072
:1006A00080B500AF154803F033FF144B93F8353095
:1006B000DBB2112B05D0114B93F83530DBB2042B94
:1006C0000ED10E4B93F83530DBB2042B02D10C4B1C
:1006D0002922DA640B4B1B6818460B4901F0D6FD42
:1006E000094B1B68002B07D0084B4FF080521A6053
:1006F000BFF34F8FBFF36F8F80BD00BF1801002085
:10070000B8000020700100207801002004ED00E016
:1007100080B400AF2D4B5B6B03F00203002B06D0BF
:100720002B4B0222DA64294B02229A6341E0274BC9
:100730005B6B03F00803002B06D0254B0422DA6420
:10074000224B08229A6334E0204B5B6B03F02003BA
:10075000002B06D01E4B0622DA641C4B20229A6323
:1007600027E01A4B5B6B03F01003002B06D0184BED
:100770000522DA64154B10229A631AE0134B5B6B67
:1007800003F40073002B07D0114B0722DA640F4BE0
:100790004FF400729A630CE00C4B5B6B03F48073B4
:1007A000002B06D00A4B0022DA64084B4FF480720B
:1007B0009A63064A054BDB6B23F4434323F03A0369
:1007C000D363BD465DF8047B704700BF002C014039
:1007D000B800002090B58FB004AF604B5F4A126B39
:1007E00042F002021A635D4B1B6B03F002033B6194
:1007F0003B695A4B594A126B42F004021A63574B39
:100800001B6B03F00403FB60FB68544B534A126BF1
:1008100042F008021A63514B1B6B03F00803BB60E4
:10082000BB6800233B620123FB610123BB61012301
:100830007B614B4A07F114031046194604F038F85F
:1008400002233B620123FB610C237B620223BB6119
:100850004FF4F8537B6107F114034248194604F042
:1008600027F804237B6107F114033F48194604F07D
:100870001FF83E4B3E4A1A603C4B00221A613B4B2C
:1008800000229A60394B76229A61384B00225A60D6
:10089000364B0022DA60354B00225A61334B354A21
:1008A0009A65324B334ADA65304B6C4603F11002DD
:1008B00007CA84E8070004330ECB2D4804F028FE55
:1008C0002B4B2B4AD26A42F40062DA62234B234A52
:1008D000526C42F400625A64204B5B6C03F4006378
:1008E0007B607B68224804F03FFE234B01221A60A4
:1008F0001A4B1A4A126B42F480021A63174B1B6B95
:1009000003F480033B603B681A4B002283F83520D8
:10091000184B0022DA64174B002283F834203B2066
:100920000521002203F0D2FC3B2003F0EBFC312038
:100930000621002203F0CAFC312003F0E3FC012071
:100940000021032201F0C6FA02460C4B1A600C4B40
:1009500000221A602C37BD4690BD00BF003802400F
:100960000004024000080240000C0240B8000020D1
:10097000002C014018010020A080254270010020B9
:100980007401002080B500AF0A4A012310461946C1
:10099000002204F02DF9C82002F042F9054A012393
:1009A00010461946012204F023F9C82002F038F954
:1009B00080BD00BF0004024090B58DB004AF4FF47D
:1009C00080333B616423FB606423BB600023FB77BF
:1009D0000023FB8000F08EFC0346002B40F0D1800A
:1009E00000237B71012002F01BF97B1D00201946BA
:1009F00000F08CFC0346002B40F0C380012002F085
:100A00000FF90023FB7500237B710023BB610CE011
:100A10007B1D3869194600F079FC0346FB75BB69FC
:100A20000133BB61012002F0FBF8FB7D002B09D1F3
:100A30007B7983F00103DBB2002B03D0BA69FB683A
:100A40009A42E5D3FB7D002B40F09B807B79002B05
:100A500000F09780BA69FB689A4280F092804B4B15
:100A600000225A620023BB610023FB750AE048485C
:100A700000F06EFC0346FB75BB690133BB610120CE
:100A800002F0CEF8FB7D002B07D1404B5B6A002BB8
:100A900003D1BA69BB689A42E9D3FB7D002B70D1C0
:100AA0003A4B5B6A002B6CD0BA69BB689A4268D239
:100AB000012002F0B5F8354B5B6A184600F068FC7F
:100AC0000346002B5DD1012002F0AAF802233B71FE
:100AD0003B1D0093012000210022072300F0B6FAFD
:100AE0000346002B4DD1294B2A4A1A60274B4FF45D
:100AF00000621A61254B00229A60244B04229A61FD
:100B0000224B00225A60214B0022DA601F4B002248
:100B10005A611E4B6C4603F1100207CA84E80700B5
:100B200004330ECB1B4804F0F3FC012002F078F8EC
:100B30000223FB70FB1C00930120002101221223E1
:100B400000F084FA0346002B1BD1FB7803F003036B
:100B5000032B16D1012002F063F80223BB70BB1CEB
:100B60000093012000210122022300F06FFA0346C6
:100B7000002B06D1BB7803F00203002B01D0012328
:100B8000FB77FB7F18462437BD4690BDB800002098
:100B9000DC000020002C014080B58CB000AFF86074
:100BA000B9607A60FB70002387F82F300023BB62A6
:100BB0007B68002B14BF0023012387F82730BB6814
:100BC0003B61FB687B617B68BB610023FB614FF489
:100BD00080633B6207F110033548194604F0D2FCEC
:100BE00097F82730002B10D003E000BFBB6A013319
:100BF000BB624FF48033BA6A9A4222D22C4B5B6BB1
:100C000003F08003002BF0D01BE003E000BFBB6AC1
:100C10000133BB624FF48033BA6A9A4211D2244B3B
:100C20005B6B03F00103002B0BD1214B5B6B03F0DB
:100C30004003002B05D11E4B5B6B03F00403002B1C
:100C4000E4D04FF48033BA6A9A420CD297F8273036
:100C500083F00103DBB2002B09D0154B5B6B03F073
:100C60000403002B03D0032387F82F301AE097F8F2
:100C7000273083F00103DBB2002B0FD0FB7883F029
:100C80000103DBB2002B09D0094B5B6B03F00103BE
:100C9000002B03D0012387F82F3003E0044B40F2F0
:100CA000FF529A6397F82F3018463037BD4680BD03
:100CB000002C014080B584B000AF7860396000231B
:100CC000FB732F4A2E4BDB6B43F44A7343F0020352
:100CD000D3632C4B01221A602B4B2C4A1A602A4BEF
:100CE0004FF000625A60284B00229A60264B042283
:100CF0005A62254B03229A62234B4FF40002DA62B8
:100D0000214B4FF480429A611F4B4FF480621A616D
:100D10001D4B2022DA611C4B4FF400121A631A4B50
:100D20004FF480525A61184B0022DA60164B4FF490
:100D300040321A62144B164A9A63134B0022DA634C
:100D4000114B00229A64104B00221A640E4B0022B1
:100D50005A640D4803F0F0FA0346002B0BD17A6871
:100D60003B689B0808480B4903F052FB0346002BE5
:100D700001D10123FB73FB7B18461037BD4680BDB4
:100D8000002C01408C852542180100205864024047
:100D9000B8000020802C014080B584B000AF78609E
:100DA00039600023FB73304A2F4BDB6B43F44673EF
:100DB00043F00203D3632D4B01221A602C4B2D4AC2
:100DC0001A602B4B4FF000625A60294B40229A6008
:100DD000274B04225A62264B01229A62244B4FF47D
:100DE0000002DA62224B4FF480429A61204B4FF4AA
:100DF00080621A611E4B2022DA611D4B4FF40012F3
:100E00001A631B4B4FF480525A61194B0022DA606F
:100E1000174B4FF440321A62154B174A9A63144B22
:100E20000022DA63124B00229A64114B00221A64EA
:100E30000F4B00225A640E4803F07EFA0346002B43
:100E40000CD17A683B689B08094811460B4A03F0AD
:100E5000DFFA0346002B01D10123FB73FB7B18460D
:100E60001037BD4680BD00BF002C01408C85254257
:100E70001801002058640240B8000020802C014076
:100E800080B58EB000AFF8607B600B46FB721346F6
:100E9000BB72FB6803F007031A07FB7A002B02D032
:100EA0004FF0006300E000231A43BB7A002B02D00E
:100EB0004FF0806300E000231A437B68C3F3100304
:100EC0005B021A433B6CC3F3080313433B630123E8
:100ED0007B624FF40073BB61FB7A002B06D04FF4AA
:100EE00000733A6C02FB03F37B6101E03B6C7B61B6
:100EF0004FF0FF333B610223FB61FB7A002B01D0F3
:100F0000002300E004233B6207F110031448194654
:100F100004F076FB3520396B40220023FFF73CFEBE
:100F2000034687F8373097F83730002B11D100206F
:100F300004F052FBF862002004F04EFB03461B0A4B
:100F400003F0CF03BB62BB6A002B02D0292387F8D2
:100F5000373097F8373018463837BD4680BD00BF68
:100F6000002C014080B58EB000AFF8607B600B466E
:100F7000FB721346BB72FB6803F007031A07FB7A88
:100F8000002B02D04FF0006300E000231A43BB7A2D
:100F9000002B02D04FF0806300E000231A437B68EF
:100FA000C3F310035B021A433B6CC3F30803134300
:100FB00043F000433B633520396B40220023FFF7A9
:100FC000EBFD034687F8373097F83730002B35D1E3
:100FD000002004F001FBF862002004F0FDFA034653
:100FE0001B0A03F0CF03BB62BB6A002B03D029238B
:100FF00087F8373022E001237B624FF40073BB6136
:10100000FB7A002B06D04FF400733A6C02FB03F31B
:101010007B6101E03B6C7B614FF0FF333B61002360
:10102000FB61FB7A002B01D0002300E004233B622C
:1010300007F110030448194604F0E2FA97F8373034
:1010400018463837BD4680BD002C014080B588B0B9
:1010500000AFB9607B600346FB731346BB73FB7B39
:10106000002B02D04FF0004300E00023BA6802F0EA
:10107000070212071A43BB7B002B02D04FF000631C
:1010800000E000231A437B68C3F310035B021A439A
:10109000BB6A1B781343BB613420B969402200232B
:1010A000FFF77AFD0346FB77FB7F002B1BD1002067
:1010B00004F092FA78617B691B0A03F0CF033B616D
:1010C0003B69002B02D02923FB770CE0FB7B83F0EC
:1010D0000103DBB2002B02D1BB7B002B03D07B6969
:1010E000DAB2BB6A1A70FB7F18462037BD4680BD56
:1010F00080B588B002AFB9607B600346FB731346CE
:10110000BB733B6A1B88DBB2BB753B6A1B881B0A3F
:101110009BB2DBB27B75FA7BBB7B07F116010091BA
:101120001046B9681A467B68FFF790FF0346FB75C7
:10113000FB7D002B18D17B680133F97BBA7B07F16B
:10114000150000900846B968FFF780FF0346FB755D
:10115000FB7D002B08D1BB7D1A467B7D1B029BB219
:1011600013449AB23B6A1A80FB7D18461837BD4675
:1011700080BD00BF80B588B002AFF860B9607A600A
:101180003B600023FB754FF40073BA689A4226D285
:10119000F868B968FFF78EFD0346002B1FD0BB68C7
:1011A00000933868002101227B68FFF769FE03463F
:1011B000FB75FB7D002B0FD10C4B1B6818460021E3
:1011C0004FF0FF32002301F0E1F8094803F062F923
:1011D000084BDB6CFB7504E02923FB7501E026233B
:1011E000FB75FB7D18461837BD4680BD7001002099
:1011F00018010020B800002080B588B002AFF86068
:10120000B9607A603B600023FB754FF40073BA68E5
:101210009A4229D2BB6800933868002101227B687A
:10122000FFF7A0FE0346FB75FB7D002B19D1F86884
:10123000B968FFF7B1FD0346002B0FD00E4B1B68BA
:10124000184600214FF0FF32002301F09FF80B48B1
:1012500003F020F90A4BDB6CFB7507E02923FB75D3
:1012600004E02923FB7501E02623FB75FB7D18466E
:101270001837BD4680BD00BF700100201801002056
:10128000B800002080B582B000AF78607B68184657
:10129000142100220023FFF76DFF0346002B14BF2B
:1012A00000230123DBB218460837BD4680BD00BFCE
:1012B00080B584B000AF786039600023FB733B6871
:1012C000002B11D03B68072B0ED87A683B681B02B5
:1012D000104618211A460023FFF74CFF0346002B47
:1012E00014BF00230123FB73FB7B18461037BD4658
:1012F00080BD00BF80B500AF002000210022002388
:10130000FFF74AFC0346184680BD00BF80B584B095
:1013100000AF786039600520796840220123FFF72B
:101320003BFC0346FB73FB7B002B08D1002004F041
:1013300053F90346DB0FDAB23B681A7002E03B68F0
:1013400000221A70FB7B18461037BD4680BD00BFD7
:1013500080B584B000AF78600320002140220023D4
:10136000FFF71AFC0346FB73FB7B002B07D1002021
:1013700004F032F903461A0C7B681A6002E07B68BD
:1013800000221A60FB7B18461037BD4680BD00BFA7
:1013900080B584B000AF78607B681B0407201946D5
:1013A00040220023FFF7F8FB0346FB73FB7B002B77
:1013B00009D1002004F010F9B860BB68B3F5F05F04
:1013C00001D02923FB73FB7B18461037BD4680BD37
:1013D00080B584B002AFBB1D009300200121002224
:1013E0007C23FFF785FE0346002B05D1FB88B3F570
:1013F000C06F01D1012300E0002303F00103DBB241
:1014000018460837BD4680BD80B584B000AF78600F
:1014100039604FF4FC33FB60FA683B68D31ABB6059
:1014200078683968BA680123FFF7E6FE0346002BA7
:1014300014BF00230123DBB218461037BD4680BD20
:1014400080B58CB000AFF860B9607A60012387F88E
:101450002F307B68BB6256E07A68BB6AD31ABA68E1
:1014600013443B627A68BB6AD21AFB681344FB617F
:101470001423BB61BB69C3F58072BB6A9A420CD965
:10148000BB6A03339B089B007B6225480021F42242
:1014900006F0FEF80023BB6207E0BB69C3F580736A
:1014A0007B62BA6A7B6AD31ABB621E4B00221A7037
:1014B0001C4B00225A707B6A9AB2BB699BB21344E0
:1014C0009AB2184B5A80174B01225A60164B1B6870
:1014D000591C154A1160134A9360114B7B617B695B
:1014E000FA691A607B697A6A5A601048396A7A6ABE
:1014F00006F0C5F80B4B5B880A481946FFF784FFD6
:10150000034687F82F3097F82F30002B02D0BB6AA4
:10151000002BA1D197F82F3018463037BD4680BD3B
:10152000782F01206C2F012074010020802F0120D2
:1015300080B483B000AF786018460C37BD465DF8C4
:10154000047B704780B588B000AF78600123FB77DB
:101550007B683B610823BB6100237B6123E07A68E1
:10156000BB691344FB60BB690833BB61FB68196846
:101570007A68BB691A44FB685B68084611461A46DC
:10158000FFF75EFF0346FB77FB7F83F00103DBB2CF
:10159000002B00D00DE0FB685B68BA691344BB61A7
:1015A0007B6901337B613B695B781A467B699A42B0
:1015B000D5D8FB7F002B06D03B695B681846FFF748
:1015C000B7FF0346FB77FB7F18462037BD4680BD3B
:1015D00080B586B000AF0023FB753B461846FFF789
:1015E00051FE0346002B1ED0FB78C3F34003DBB251
:1015F000002B18D0BB78C3F34003DBB2002B12D012
:10160000FB79C3F30103DBB2022B0CD1FFF7E0FE41
:101610000346002B07D00648FFF794FF0346002B34
:1016200001D00123FB75FB7D18461837BD4680BDF0
:10163000487F000880B500AF00F0DEFA80BD00BF33
:1016400080B500AF00F006FB80BD00BF80B483B062
:1016500000AF7860012318460C37BD465DF8047B67
:10166000704700BF80B500AF01F078FB80BD00BFC0
:1016700080B500AF01F080FB0346184680BD00BF77
:1016800080B582B000AF78607B68184600F00CF936
:101690007B680A4A1A607B6800229A6078687968D9
:1016A00000F074F87B6805E07B68184600F012F9DA
:1016B00004F0B2FD18460837BD4680BDC04A010897
:1016C00080B582B000AF78607B680A4A1A6078689B
:1016D000796800F079F87B68184600F0FBF8002381
:1016E000002B02D0786804F00FFB7B68184608379F
:1016F000BD4680BDC04A010880B582B000AF7860A9
:101700007868FFF7DDFF786804F0FEFA7B6818461A
:101710000837BD4680BD00BF90B587B002AFF86006
:10172000B9603B601346FB80FB681B681C331C6878
:10173000FB88F868B9681A463B68A0470346002B47
:101740000FD0FA68FB88F96800913968019110465A
:101750000649BA6800F012F90346002B01D00123B4
:1017600000E0002318461437BD4690BD71170008ED
:1017700080B582B000AF78607B681B6818331B6847
:10178000786898470837BD4680BD00BF80B582B0F5
:1017900000AF78603960FFF74DFF0A4B1B68002BE4
:1017A00003D1084B7A681A6006E0064B1A687B681A
:1017B0009A60044B7A681A60FFF742FF0837BD460B
:1017C00080BD00BF7C01002080B584B000AF786090
:1017D0003960FFF72FFF154B1B683A689A4206D114
:1017E0003B689A68114B1A60FFF72AFF1BE0FFF76E
:1017F00027FFFFF737FF0D4B1B68FB6002E0FB681C
:101800009B68FB60FB68002B04D0FB689A683B6810
:101810009A42F4D1FB68002B03D03B689A68FB68BE
:101820009A60FFF725FF1037BD4680BD7C01002080
:1018300080B582B000AF0123FB710E4B1B683B608B
:1018400010E03B681B6814331B68386898470346F0
:10185000FA791340002B0CBF00230123FB713B6876
:101860009B683B603B68002BEBD1FB79184608373F
:10187000BD4680BD7C01002080B500AFFFF7D8FFDA
:101880000346184680BD00BF80B483B000AF7860C7
:101890007B68044A1A607B6818460C37BD465DF8C1
:1018A000047B7047484B010880B582B000AF786078
:1018B0007B681846FFF7E8FF7B68054A1A607B687B
:1018C00000225A607B6818460837BD4680BD00BFBD
:1018D000284B010880B582B000AF78607B680B4A66
:1018E0001A607868FEF7DCFD0346002B02D07868AA
:1018F00000F06EF80023002B02D0786804F004FAA0
:101900007B6818460837BD4680BD00BF284B0108DC
:1019100080B582B000AF78607868FFF7DBFF786849
:1019200004F0F2F97B6818460837BD4680BD00BF59
:1019300080B582B000AF786039603B68002B05D17C
:101940000B481B210B4A0C4B03F0D8FF7B681B682C
:101950001B68786898470346002B02D0786800F02F
:1019600037F87B683A685A600837BD4680BD00BFCB
:10197000FC4A0108844B01080C4B010880B58AB071
:1019800004AFF860B9607A607B807B887A6A0092E5
:1019900007F1100201920022029200220392B8681D
:1019A00079681A463B6A00F05BFF03467B617B69FE
:1019B000012B07D1FB681B6804331B683A69F86880
:1019C000114698477B6918461837BD4680BD00BF51
:1019D00080B584B000AF78607B685B68002B0BD06B
:1019E0007B685B68FB607B6800225A60F86801F0E6
:1019F00007F87B6800225A601037BD4680BD00BFE3
:101A000080B485B000AFF860B9607A60FB68043BD1
:101A1000FB60FB684FF080721A60FB68043BFB6060
:101A2000BA68FB681A60FB68043BFB600C4AFB6801
:101A30001A60FB68143BFB607A68FB681A60FB68FD
:101A4000043BFB60FB686FF002021A60FB68203BFE
:101A5000FB60FB6818461437BD465DF8047B704791
:101A6000651A000880B483B000AF0C4B1B68B3F15B
:101A7000FF3F09D04FF0500383F31188BFF36F8FFE
:101A8000BFF34F8F7B60FEE74FF0500383F3118865
:101A9000BFF36F8FBFF34F8F3B60FEE70400002062
:101AA000064B19680868B0E8F04F80F30988BFF367
:101AB0006F8F4FF0000080F311887047880100207D
:101AC00006480068006880F3088862B661B6BFF314
:101AD0004F8FBFF36F8F00DF00BF000008ED00E005
:101AE00080B586B000AF3B4B1A683B4B9A4209D198
:101AF0004FF0500383F31188BFF36F8FBFF34F8F05
:101B00003B61FEE7334B1A68344B9A4209D14FF0E0
:101B1000500383F31188BFF36F8FBFF34F8FFB60C8
:101B2000FEE72F4B7B617B691B78DBB2BB607B6977
:101B3000FF221A707B691B78DBB2FB71FB79DBB289
:101B400003F05003DAB2274B1A70274B07221A60B2
:101B500009E0254B1B685A1E234B1A60FB79DBB248
:101B60005B00DBB2FB71FB79DBB2DBB25BB2002B5B
:101B7000EFDB1D4B1B681A021B4B1A601A4B1B68CC
:101B800003F4E062184B1A60BB68DAB27B691A7022
:101B9000164B164A126842F470021A60134B134A2D
:101BA000126842F070421A6000F0CCF8104B00222C
:101BB0001A6000F0E1F80F4B0E4A126842F0404202
:101BC0001A60FFF77DFFFFF74DFF00231846183717
:101BD000BD4680BD00ED00E071C20F4170C20F41F3
:101BE00000E400E0800100208401002020ED00E0FE
:101BF0000400002034EF00E080B483B000AF4FF069
:101C0000500383F31188BFF36F8FBFF34F8F7B6057
:101C10000E4B1B685A1C0D4B1A600C4B1B68012B9A
:101C20000ED10B4B1B68DBB2002B09D04FF05003D9
:101C300083F31188BFF36F8FBFF34F8F3B60FEE7D5
:101C40000C37BD465DF8047B704700BF04000020E0
:101C500004ED00E080B483B000AF104B1B68002B94
:101C600009D14FF0500383F31188BFF36F8FBFF397
:101C70004F8F7B60FEE7094B1B685A1E074B1A60AB
:101C8000064B1B68002B04D100233B603B6883F3A9
:101C900011880C37BD465DF8047B704704000020B6
:101CA000EFF30980BFF36F8F144B1A681EF0100F0B
:101CB00008BF20ED108A20E9F04F10604DF8043D78
:101CC0004FF0500080F31188BFF34F8FBFF36F8F39
:101CD00001F0BCF94FF0000080F3118808BC1968CE
:101CE0000868B0E8F04F1EF0100F08BFB0EC108A83
:101CF00080F30988BFF36F8F704700BF8801002011
:101D000080B584B000AFEFF311824FF0500383F33E
:101D10001188BFF36F8FBFF34F8FFA60BB6001F084
:101D2000CFF80346002B03D0054B4FF080521A60CA
:101D300000237B607B6883F311881037BD4680BD2C
:101D400004ED00E080B400AF074B084A1168084A70
:101D5000A2FB01029209013A1A60064B07221A609F
:101D6000BD465DF8047B704714E000E008000020E9
:101D7000D34D621010E000E0DFF80C00016841F480
:101D8000700101607047000088ED00E080B485B00C
:101D900000AFEFF30583FB60FB680F2B13D9154AE7
:101DA000FB6813441B78FB72134B1B78FA7A9A4238
:101DB00009D24FF0500383F31188BFF36F8FBFF345
:101DC0004F8F7B60FEE70D4B1B6803F4E0620C4B0A
:101DD0001B689A4209D94FF0500383F31188BFF36F
:101DE0006F8FBFF34F8F3B60FEE71437BD465DF842
:101DF000047B7047F0E300E0800100200CED00E080
:101E00008401002080B584B000AF786039607B68C1
:101E1000FB60FB68002B09D14FF0500383F311885E
:101E2000BFF36F8FBFF34F8FBB60FEE7FFF7E4FE9A
:101E3000FB681A68FB68DB6BF968096C01FB03F34C
:101E40001A44FB685A60FB6800229A63FB681A68B0
:101E5000FB689A60FB681A68FB68DB6B013BF968FA
:101E6000096C01FB03F31A44FB68DA60FB684FF06E
:101E7000FF325A64FB684FF0FF329A643B68002BD4
:101E800014D1FB681B69002B1AD0FB68103318466D
:101E900001F0F6F90346012B12D10D4B4FF08052A1
:101EA0001A60BFF34F8FBFF36F8F09E0FB681033E9
:101EB000184602F0B5F8FB682433184602F0B0F873
:101EC000FFF7C8FE012318461037BD4680BD00BF8E
:101ED00004ED00E080B58AB000AFF860B960134649
:101EE000FB7100233B62FB68002B09D14FF05003CC
:101EF00083F31188BFF36F8FBFF34F8FBB61FEE792
:101F0000BB68002B02D100237B6205E0FB68BA6846
:101F100002FB03F301337B627B6A5433184602F001
:101F20001DF8F861FB69002B1BD0BB68002B03D1A7
:101F3000FB69FA691A6004E0FB6903F15402FB696A
:101F40001A60FB69FA68DA63FB69BA681A64F869AF
:101F50000121FFF757FFFB69FA7983F85020FB69ED
:101F60003B623B6A002B09D14FF0500383F3118889
:101F7000BFF36F8FBFF34F8F7B61FEE73B6A18465D
:101F80002837BD4680BD00BF80B58EB000AFF86079
:101F9000B9607A603B6000237B63FB683B633B6B0B
:101FA000002B09D14FF0500383F31188BFF36F8FDB
:101FB000BFF34F8FBB62FEE7BB68002B03D13B6BC7
:101FC0001B6C002B01D1012300E00023002B09D161
:101FD0004FF0500383F31188BFF36F8FBFF34F8F20
:101FE0007B62FEE73B68022B03D13B6BDB6B012B73
:101FF00001D1012300E00023002B09D14FF0500351
:1020000083F31188BFF36F8FBFF34F8F3B62FEE7FF
:1020100001F0AAFB0346002B02D17B68002B01D103
:10202000012300E00023002B09D14FF0500383F37C
:102030001188BFF36F8FBFF34F8FFB61FEE7FFF790
:10204000DBFD3B6B9A6B3B6BDB6B9A4202D33B68CD
:10205000022B29D1386BB9683A6800F09DFAF86212
:102060003B6B5B6A002B10D03B6B2433184601F0AE
:1020700007F90346012B13D13D4B4FF080521A60F4
:10208000BFF34F8FBFF36F8F0AE0FB6A002B07D0BF
:10209000374B4FF080521A60BFF34F8FBFF36F8FF3
:1020A000FFF7D8FD01235FE07B68002B03D1FFF72A
:1020B000D1FD002358E07B6B002B06D107F1140300
:1020C000184601F03FF901237B63FFF7C3FD00F0E1
:1020D00045FEFFF791FD3B6B5B6CB3F1FF3F02D117
:1020E0003B6B00225A643B6B9B6CB3F1FF3F02D108
:1020F0003B6B00229A64FFF7ADFD07F114023B1D14
:102100001046194601F040F90346002B24D1386BE4
:1021100000F038FB0346002B18D03B6B03F1100294
:102120007B681046194601F00FF8386B00F0C8FACA
:1021300000F022FE0346002B15D10D4B4FF08052CC
:102140001A60BFF34F8FBFF36F8F0CE0386B00F056
:10215000B7FA00F011FE72E7386B00F0B1FA00F048
:102160000BFE002300E06AE718463837BD4680BD05
:1021700004ED00E080B58EB000AFF860B9607A6021
:102180003B60FB683B633B6B002B09D14FF0500376
:1021900083F31188BFF36F8FBFF34F8FBB62FEE7EE
:1021A000BB68002B03D13B6B1B6C002B01D10123BF
:1021B00000E00023002B09D14FF0500383F3118876
:1021C000BFF36F8FBFF34F8F7B62FEE73B68022B3D
:1021D00003D13B6BDB6B012B01D1012300E000231A
:1021E000002B09D14FF0500383F31188BFF36F8F99
:1021F000BFF34F8F3B62FEE7FFF7C8FDEFF311829D
:102200004FF0500383F31188BFF36F8FBFF34F8FED
:10221000FA61BB61FB69FB623B6B9A6B3B6BDB6BEF
:102220009A4202D33B68022B24D1386BB9683A68D2
:1022300000F0B2F93B6B9B6CB3F1FF3F12D13B6BEB
:102240005B6A002B13D03B6B2433184601F018F85F
:102250000346002B0BD07B68002B08D07B68012243
:102260001A6004E03B6B9B6C5A1C3B6B9A64012325
:102270007B6301E000237B63FB6A7B617B6983F303
:1022800011887B6B18463837BD4680BD80B58CB051
:1022900000AF786039607B68BB62BB6A002B09D1F4
:1022A0004FF0500383F31188BFF36F8FBFF34F8F4D
:1022B0003B62FEE7BB6A1B6C002B09D04FF050035A
:1022C00083F31188BFF36F8FBFF34F8FFB61FEE77E
:1022D000BB6A1B68002B03D1BB6A5B68002B01D172
:1022E000012300E00023002B09D14FF0500383F3BA
:1022F0001188BFF36F8FBFF34F8FBB61FEE7FFF70E
:1023000045FDEFF311824FF0500383F31188BFF3C3
:102310006F8FBFF34F8F7A613B617B697B62BB6AD2
:102320009A6BBB6ADB6B9A4224D2BB6A9B6B5A1CCA
:10233000BB6A9A63BB6A9B6CB3F1FF3F12D1BB6A65
:102340005B6A002B13D0BB6A2433184600F098FF59
:102350000346002B0BD03B68002B08D03B680122C2
:102360001A6004E0BB6A9B6C5A1CBB6A9A64012326
:10237000FB6201E00023FB627B6AFB60FB6883F386
:102380001188FB6A18463037BD4680BD80B58CB0D9
:1023900000AFF860B9607A603B600023FB62FB68C5
:1023A000BB62BB6A002B09D14FF0500383F3118845
:1023B000BFF36F8FBFF34F8F3B62FEE7BB68002B0D
:1023C00003D1BB6A1B6C002B01D1012300E0002369
:1023D000002B09D14FF0500383F31188BFF36F8FA7
:1023E000BFF34F8FFB61FEE701F0BEF90346002B00
:1023F00002D17B68002B01D1012300E00023002BD8
:1024000009D14FF0500383F31188BFF36F8FBFF3EF
:102410004F8FBB61FEE7FFF7EFFBBB6A9B6B002BA7
:1024200047D0BB6ADB687B62B86AB96800F022F902
:102430003B68002B22D1BB6A9B6B5A1EBB6A9A6316
:10244000BB6A1B68002B04D101F0A6FA0246BB6AE6
:102450005A60BB6A1B69002B27D0BB6A1033184631
:1024600000F00EFF0346012B1FD14A4B4FF0805264
:102470001A60BFF34F8FBFF36F8F16E0BB6A7A6AA3
:10248000DA60BB6A5B6A002B0FD0BB6A2433184644
:1024900000F0F6FE0346002B07D03E4B4FF0805273
:1024A0001A60BFF34F8FBFF36F8FFFF7D3FB01238A
:1024B0006CE07B68002B03D1FFF7CCFB002365E0C9
:1024C000FB6A002B06D107F11003184600F03AFF13
:1024D0000123FB62FFF7BEFB00F040FCFFF78CFB23
:1024E000BB6A5B6CB3F1FF3F02D1BB6A00225A6446
:1024F000BB6A9B6CB3F1FF3F02D1BB6A00229A64B6
:10250000FFF7A8FB07F110023B1D1046194600F02B
:102510003BFF0346002B31D1B86A00F01DF903469A
:10252000002B25D0BB6A1B68002B08D1FFF764FB8A
:10253000BB6A5B68184601F035F9FFF78BFBBB6A95
:1025400003F124027B681046194600F0FDFDB86ACD
:1025500000F0B6F800F010FC0346002B15D10D4B2F
:102560004FF080521A60BFF34F8FBFF36F8F0CE0B4
:10257000B86A00F0A5F800F0FFFB4CE7B86A00F07D
:102580009FF800F0F9FB002300E044E718463037DD
:10259000BD4680BD04ED00E080B586B000AFF860B8
:1025A000B9607A6000237B61FB681B6C002B0DD146
:1025B000FB681B68002B52D1FB685B68184601F072
:1025C00067F97861FB6800225A6048E07B68002B5D
:1025D0001AD1FB689A68FB681B6C1046B9681A46EA
:1025E00005F04DF8FB689A68FB681B6C1A44FB68A1
:1025F0009A60FB689A68FB685B689A422FD3FB6815
:102600001A68FB689A602AE0FB68DA68FB681B6C52
:102610001046B9681A4605F032F8FB68DA68FB68BC
:102620001B6C5B421A44FB68DA60FB68DA68FB6883
:102630001B689A4207D2FB685A68FB681B6C5B42B6
:102640001A44FB68DA607B68022B08D1FB689B6B3D
:10265000002B04D0FB689B6B5A1EFB689A63FB68D7
:102660009B6B5A1CFB689A637B6918461837BD46FA
:1026700080BD00BF80B582B000AF786039607B68F4
:102680001B6C002B19D07B68DA687B681B6C1A44C2
:102690007B68DA607B68DA687B685B689A4203D3A0
:1026A0007B681A687B68DA607B68DA687B681B6C19
:1026B000386811461A4604F0E2FF0837BD4680BD6F
:1026C00080B582B000AF7860FFF796FA14E07B68BF
:1026D0005B6A002B0AD07B682433184600F0D0FDDB
:1026E0000346002B03D000F0ADFE00E008E07B685D
:1026F0009B6C5A1E7B689A647B689B6C002BE6DCA3
:102700007B684FF0FF329A64FFF7A4FAFFF774FA80
:1027100014E07B681B69002B0FD07B6810331846D0
:1027200000F0AEFD0346002B01D000F08BFE7B686D
:102730005B6C5A1E7B685A6400E003E07B685B6C4C
:10274000002BE6DC7B684FF0FF325A64FFF782FA19
:102750000837BD4680BD00BF80B584B000AF78604B
:10276000FFF74AFA7B689B6B002B02D10123FB60C9
:1027700001E00023FB60FFF76DFAFB681846103795
:10278000BD4680BD80B584B000AF7860FFF734FAF5
:102790007B689A6B7B68DB6B9A4202D10123FB60FA
:1027A00001E00023FB60FFF755FAFB68184610377D
:1027B000BD4680BD80B485B000AF7860396000232D
:1027C000FB6014E00E4BFA6853F83230002B0BD14B
:1027D0000B4BFA68396843F83210094AFB68DB0092
:1027E00013447A685A6005E0FB680133FB60FB68BC
:1027F000072BE7D91437BD465DF8047B704700BF4F
:102800006C30012080B586B000AFF860B9607A60A6
:10281000FB687B61FFF7F0F97B695B6CB3F1FF3F0D
:1028200002D17B6900225A647B699B6CB3F1FF3F44
:1028300002D17B6900229A64FFF70CFA7B699B6BDB
:10284000002B06D17B6924331846B9687A6800F0FA
:10285000C9FC7869FFF734FF1837BD4680BD00BF5B
:1028600080B58CB002AFF860B9603B601346FB8066
:10287000FB68002B09D14FF0500383F31188BFF39D
:102880006F8FBFF34F8FBB61FEE73B6B042B09D902
:102890004FF0500383F31188BFF36F8FBFF34F8F57
:1028A0007B61FEE7FB881846B96B00F0F1FE3862E9
:1028B0003B6A002B78D03B6A1A6BFB8803F180439C
:1028C000013B9B001344FB61FB6923F00703FB61A1
:1028D000FB6903F00703002B09D04FF0500383F38B
:1028E0001188BFF36F8FBFF34F8F3B61FEE7FB880B
:1028F0000093386AB9683A6BFB6B00F0C9FDF86960
:10290000F9683A68FFF77CF802463B6A1A607B6B0D
:10291000002B02D07B6B3A6A1A60FFF76DF9314BDE
:102920001B685A1C2F4B1A602F4B1B68002B09D1B8
:102930002D4B3A6A1A602B4B1B68012B0FD100F00C
:10294000F9FD0CE0294B1B68002B08D1264B1B68B6
:10295000DA6A3B6B9A4202D8234B3A6A1A60244BDC
:102960001B685A1C224B1A60214B1A683B6A1A6476
:102970003B6ADB6A01229A401E4B1B681A431D4BBF
:102980001A603B6ADA6A13469B0013449B001A4A9A
:102990001A443B6A04331046194601F06DFB0123CB
:1029A0007B62FFF757F902E04FF0FF337B627B6AEF
:1029B000012B11D10D4B1B68002B0DD00A4B1B684E
:1029C000DA6A3B6B9A4207D20C4B4FF080521A6086
:1029D000BFF34F8FBFF36F8F7B6A18462837BD4612
:1029E00080BD00BF60020020880100206C02002032
:1029F0007C020020680200208C01002004ED00E031
:102A000080B584B000AF7860FFF7F6F87B68002BE4
:102A100002D1334B1B6800E07B68FB60FB6804332A
:102A2000184601F085FB0346002B15D1FB68DA6AD6
:102A30002C4913469B0013449B000B441B68002B3E
:102A40000AD1FB68DB6A012202FA03F3DA43264B60
:102A50001B681A40244B1A60FB689B6A002B04D049
:102A6000FB681833184601F063FBFB6804331F480A
:102A7000194601F001FB1E4B1B685A1C1C4B1A60C7
:102A80001C4B1B685A1C1B4B1A60FFF7E3F81A4BD0
:102A90001B68002B21D0124B1B68FA689A4216D192
:102AA000164B1B68002B09D04FF0500383F311889D
:102AB000BFF36F8FBFF34F8FBB60FEE7104B4FF03C
:102AC00080521A60BFF34F8FBFF36F8F05E0FFF79F
:102AD00093F800F025FEFFF7BDF81037BD4680BD26
:102AE000880100208C0100206802002034020020B0
:102AF000480200207C0200206C020020840200209A
:102B000004ED00E080B58AB000AF78603960002342
:102B10007B627B68002B09D14FF0500383F311884F
:102B2000BFF36F8FBFF34F8F7B61FEE73B68002BD6
:102B300009D14FF0500383F31188BFF36F8FBFF3B8
:102B40004F8F3B61FEE7314B1B68002B09D04FF0E4
:102B5000500383F31188BFF36F8FBFF34F8FFB6078
:102B6000FEE700F0FBF82A4B1B683B627B681A68A3
:102B70003B681344FB617B681A683B6A9A420BD935
:102B80007B681A68FB699A4211D9FA693B6A9A42D2
:102B90000DD901237B620AE07B681A68FB699A42BF
:102BA00003D8FA693B6A9A4201D901237B627B68A8
:102BB000FA691A607B6A002B17D0164B1B68043326
:102BC000184601F0B5FA0346002B0BD1114B1B68D8
:102BD000DB6A012202FA03F3DA430F4B1B681A4047
:102BE0000D4B1A60F86900F01DFD00F0C5F8B861E2
:102BF000BB69002B07D1094B4FF080521A60BFF31D
:102C00004F8FBFF36F8F2837BD4680BD84020020F1
:102C100064020020880100206802002004ED00E02A
:102C200080B586B000AF786000237B617B68002BA5
:102C30002FD01F4B1B68002B09D04FF0500383F39C
:102C40001188BFF36F8FBFF34F8FFB60FEE700F07B
:102C500085F8184B1A687B6813443B61164B1B6858
:102C60000433184601F064FA0346002B0BD1124BD3
:102C70001B68DB6A012202FA03F3DA430F4B1B687D
:102C80001A400E4B1A60386900F0CCFC00F074F862
:102C900078617B69002B07D1094B4FF080521A6095
:102CA000BFF34F8FBFF36F8F1837BD4680BD00BF96
:102CB00084020020640200208801002068020020B5
:102CC00004ED00E080B588B004AF0023009300233A
:102CD000019300230293002303931B481B49822284
:102CE0000023FFF7BDFDF860FB68012B02D100F067
:102CF00067FEF860FB68012B15D14FF0500383F39A
:102D00001188BFF36F8FBFF34F8FBB60104B4FF035
:102D1000FF321A600F4B01221A600F4B00221A601B
:102D2000FEF7DEFE0CE0FB68002B09D14FF05003EC
:102D300083F31188BFF36F8FBFF34F8F7B60FEE784
:102D40001037BD4680BD00BF5D340008B04B0108A0
:102D5000800200206C0200206402002080B400AFDA
:102D6000044B1B685A1C034B1A60BD465DF8047B7C
:102D7000704700BF8402002080B584B000AF0023FC
:102D8000FB603E4B1B68002B09D14FF0500383F3CF
:102D90001188BFF36F8FBFF34F8F7B60FEE7FEF7A5
:102DA0002BFF364B1B685A1E344B1A60334B1B6883
:102DB000002B5BD1324B1B68002B57D02EE0314BE0
:102DC000DB68DB68BB60BB681833184601F0B0F9FC
:102DD000BB680433184601F0ABF9BB68DB6A01221B
:102DE0009A40294B1B681A43274B1A60BB68DA6A62
:102DF00013469B0013449B00244A1A44BB680433C7
:102E00001046194601F038F9BB68DA6A204B1B6896
:102E1000DB6A9A4202D31F4B01221A60194B1B68CE
:102E2000002BCCD11C4B1B68002B11D00CE000F008
:102E300047F80346002B02D0164B01221A60164BAE
:102E40001B685A1E144B1A60134B1B68002BEED1E3
:102E5000104B1B68012B09D10123FB600F4B4FF076
:102E600080521A60BFF34F8FBFF36F8FFEF7F2FEF1
:102E7000FB6818461037BD4680BD00BF84020020A5
:102E80006002002020020020680200208C01002047
:102E900088010020740200207002002004ED00E090
:102EA00080B483B000AF054B1B687B607B6818461D
:102EB0000C37BD465DF8047B704700BF64020020FC
:102EC00080B586B000AF00237B61554B1B68002B9B
:102ED00040F09380534B1B685A1C524B1A60514B65
:102EE0001B683B613B69002B1FD14F4B1B681B6864
:102EF000002B09D04FF0500383F31188BFF36F8F7D
:102F0000BFF34F8F3B60FEE7474B1B68FB60474BAF
:102F10001A68454B1A60454BFA681A60444B1B68A7
:102F20005A1C434B1A6000F0FBFB424B1B683A698A
:102F30009A424DD33C4B1B681B68002B01D10123E7
:102F400000E00023002B04D03A4B4FF0FF321A6010
:102F50003EE0354B1B68DB68DB68BB60BB685B68C9
:102F60007B603A697B689A4203D2324B7A681A6076
:102F70002EE0BB680433184601F0DAF8BB689B6AA0
:102F8000002B04D0BB681833184601F0D1F8BB6899
:102F9000DB6A01229A40284B1B681A43264B1A60B1
:102FA000BB68DA6A13469B0013449B00234A1A4409
:102FB000BB6804331046194601F05EF8BB68DA6A54
:102FC0001F4B1B68DB6A9A4201D301237B61B1E787
:102FD0001B4B1B68DA6A194913469B0013449B007C
:102FE0000B441B68012B01D901237B61154B1B6826
:102FF000002B09D102F0BCFD06E0124B1B685A1CE5
:10300000104B1A6002F0B4FD0F4B1B68002B01D06F
:1030100001237B617B6918461837BD4680BD00BF20
:103020008402002064020020180200201C020020FC
:103030007802002080020020680200208C0100201D
:1030400088010020700200207402002080B586B044
:1030500000AF374B1B68002B03D0364B01221A60A0
:1030600063E0344B00221A60334B1B681A68324B02
:103070001B681B6B9A4208D82F4B1A682E4B1B6893
:1030800034331046194602F06DFD2B4B1B681B6B49
:1030900018462A49142204F0E3FA0346002B08D00C
:1030A000254B1A68244B1B6834331046194602F02E
:1030B00059FD234B1B68FB60FB68B3FA83F3FB727B
:1030C000FB7AC3F11F037B611E497A6913469B009B
:1030D00013449B000B441B68002B09D14FF0500395
:1030E00083F31188BFF36F8FBFF34F8F7B60FEE7D1
:1030F0007A6913469B0013449B00124A13443B61B8
:103100003B695B685A683B695A603B695A683B692E
:1031100008339A4204D13B695B685A683B695A603C
:103120003B695B68DA68044B1A601837BD4680BD9E
:10313000840200207402002088010020B84B01089E
:10314000680200208C01002080B584B000AF786058
:1031500039607B68002B09D14FF0500383F311884D
:10316000BFF36F8FBFF34F8FBB60FEE7194B1B6838
:1031700018337868194600F0A3FF164B1B68043318
:10318000184600F0D5FF0346002B0BD1114B1B68EE
:10319000DB6A012202FA03F3DA430F4B1B681A4081
:1031A0000D4B1A603B68B3F1FF3F07D1094B1B6819
:1031B00004330A48194600F05FFF07E0084B1A681D
:1031C0003B681344FB60F86800F02CFA1037BD46EA
:1031D00080BD00BF88010020680200204C02002052
:1031E0006402002080B586B000AFF860B9607A60F4
:1031F000FB68002B09D14FF0500383F31188BFF314
:103200006F8FBFF34F8F3B61FEE7194B1B6818337D
:10321000F868194600F030FF154B1B680433184658
:1032200000F086FF0346002B0BD1114B1B68DB6AB5
:10323000012202FA03F3DA430E4B1B681A400D4BCE
:103240001A607B68012B07D1094B1B6804330A48BD
:10325000194600F011FF07E0084B1A68BB681344D9
:103260007B61786900F0DEF91837BD4680BD00BF8C
:1032700088010020680200204C0200206402002027
:1032800080B586B000AF78607B68DB68DB683B6147
:103290003B69002B09D14FF0500383F31188BFF332
:1032A0006F8FBFF34F8FFB60FEE73B691833184603
:1032B00000F03EFF1D4B1B68002B1CD13B69043303
:1032C000184600F035FF3B69DB6A01229A40184B33
:1032D0001B681A43164B1A603B69DA6A13469B0057
:1032E00013449B00134A1A443B69043310461946A1
:1032F00000F0C2FE05E03B6918330F48194600F0A4
:10330000BBFE3B69DA6A0D4B1B68DB6A9A4205D942
:1033100001237B610A4B01221A6001E000237B61DB
:103320007B6918461837BD4680BD00BF8402002067
:10333000680200208C01002020020020880100206B
:103340007402002080B485B000AF78607B68002BE9
:1033500009D14FF0500383F31188BFF36F8FBFF390
:103360004F8FFB60FEE7064B1A687B681A60054BBF
:103370001A687B685A601437BD465DF8047B704755
:10338000780200206402002080B586B000AF78602B
:1033900039607B68002B09D14FF0500383F311880B
:1033A000BFF36F8FBFF34F8FFB60FEE73B68002BCF
:1033B00009D14FF0500383F31188BFF36F8FBFF330
:1033C0004F8FBB60FEE7FEF717FC1C4B1B683B6191
:1033D0003B681B68B3F1FF3F02D100237B6126E00D
:1033E0007B681A68164B1B689A4207D07B685A683C
:1033F0003B699A4202D801237B6118E07B685B68D5
:103400003A69D21A3B681B689A420ED23B681A6826
:103410007B6859683B69CB1A1A443B681A60786824
:10342000FFF790FF00237B6101E001237B61FEF742
:1034300011FC7B6918461837BD4680BD6402002028
:103440007802002080B400AF034B01221A60BD4611
:103450005DF8047B704700BF7402002080B582B025
:1034600000AF786000F0A4F8074B1B68012B07D968
:10347000064B4FF080521A60BFF34F8FBFF36F8F30
:1034800002F07CFBEEE700BF8C01002004ED00E0C1
:1034900080B586B000AFF860B9607A603B60002309
:1034A0007B6112E0BA687B6913441A78F9687B691A
:1034B0000B4430331A71BA687B6913441B78002BB4
:1034C00000D105E07B6901337B617B69092BE9D978
:1034D000FB68002283F83D207B68042B01D904237C
:1034E0007B60FB687A68DA62FB687A689A64FB68DA
:1034F0000022DA64FB680433184600F0B1FDFB6873
:103500001833184600F0ACFDFB68FA681A617B6856
:10351000C3F10502FB689A61FB68FA685A62FB68AE
:1035200000221A65FB68002283F854201837BD4634
:1035300080BD00BF80B582B000AF00237B600CE08F
:103540007A6813469B0013449B00114A13441846A3
:1035500000F066FD7B6801337B607B68042BEFD94C
:103560000C4800F05DFD0C4800F05AFD0B4800F0DF
:1035700057FD0B4800F054FD0A4800F051FD0A4B7E
:10358000044A1A60094B044A1A600837BD4680BDD8
:103590008C010020F0010020040200202002002005
:1035A000340200204C020020180200201C020020DF
:1035B00080B582B000AF28E0FFF7D0FB164B1B6848
:1035C000002B14BF00230123DBB27B60FFF7D4FB89
:1035D0007B68002B19D1FEF70FFB0F4BDB68DB6814
:1035E0003B603B680433184600F0A2FD0B4B1B68A0
:1035F0005A1E0A4B1A600A4B1B685A1E084B1A6067
:10360000FEF728FB386800F07BF8054B1B68002BA1
:10361000D2D10837BD4680BD3402002060020020B0
:103620004802002080B582B000AF7860134B1B6861
:103630007A685A60124B1B687A689A4209D2114B19
:103640001A680E4B1B6804331046194600F038FD0B
:1036500010E00D4B1A68094B1B68043310461946DD
:1036600000F02EFD094B1B687A689A4202D2074B84
:103670007A681A600837BD4680BD00BF8801002007
:10368000640200201C02002018020020800200209A
:1036900080B584B000AF03463960FB803B68002BE7
:1036A00006D1FB889B00184600F058FC034600E05A
:1036B0003B68BB60BB68002B0ED0582000F04EFC6E
:1036C000F860FB68002B03D0FB68BA681A6305E05A
:1036D000B86800F08FFC01E00023FB60FB68002B62
:1036E00008D0FB681A6BFB889B001046A5211A4680
:1036F00003F0CEFFFB6818461037BD4680BD00BF03
:1037000080B582B000AF78607B681B6B184600F014
:1037100071FC786800F06EFC0837BD4680BD00BFC4
:1037200080B483B000AF0E4B1B681B68002B01D127
:10373000012300E00023002B04D00A4B4FF0FF329E
:103740001A6008E0064B1B68DB68DB687B607B68FF
:103750005A68044B1A600C37BD465DF8047B70470D
:10376000180200208002002080B483B000AF0B4B11
:103770001B68002B02D101237B6008E0084B1B680B
:10378000002B02D102237B6001E000237B607B6879
:1037900018460C37BD465DF8047B70476C0200206C
:1037A0008402002080B584B000AF78607B68FB6045
:1037B0007B68002B62D0FB68DA6A324B1B68DB6ADD
:1037C0009A425BD2FB689B69002B06DB2D4B1B6882
:1037D000DB6AC3F10502FB689A61FB685969FB6803
:1037E000DA6A13469B0013449B00274A134499420C
:1037F00001D1012300E00023002B3AD0FB68043301
:10380000184600F095FC0346002B15D1FB68DA6AD8
:103810001D4913469B0013449B000B441B68002B5F
:103820000AD1FB68DB6A012202FA03F3DA43174B81
:103830001B681A40154B1A60124B1B68DA6AFB684A
:10384000DA62FB68DB6A01229A40104B1B681A435C
:103850000E4B1A60FB68DA6A13469B0013449B0008
:10386000094A1A44FB6804331046194600F004FC68
:1038700004E0044B1B68DA6AFB68DA621037BD4665
:1038800080BD00BF880100208C010020680200205C
:1038900080B586B000AF78607B683B6100237B61B8
:1038A0007B68002B6CD0394B1B683A699A4209D06F
:1038B0004FF0500383F31188BFF36F8FBFF34F8F27
:1038C000FB60FEE73B69DB6C002B09D14FF0500336
:1038D00083F31188BFF36F8FBFF34F8FBB60FEE799
:1038E0003B69DB6C5A1E3B69DA643B69DA6A3B6907
:1038F0009B6C9A4244D03B69DB6C002B40D13B6906
:103900000433184600F014FC0346002B15D13B6924
:10391000DA6A1F4913469B0013449B000B441B6843
:10392000002B0AD13B69DB6A012202FA03F3DA4376
:10393000184B1B681A40174B1A603B699A6C3B691D
:10394000DA623B69DB6AC3F105023B699A613B6954
:10395000DB6A01229A400F4B1B681A430D4B1A6019
:103960003B69DA6A13469B0013449B00084A1A44D9
:103970003B6904331046194600F07EFB01237B614E
:103980007B6918461837BD4680BD00BF88010020FE
:103990008C0100206802002080B400AF074B1B6838
:1039A000002B04D0054B1B68DA6C0132DA64034B40
:1039B0001B681846BD465DF8047B704788010020EF
:1039C00080B586B004AF00237B6000F081FA134B12
:1039D0001B68002B0FD002230093002301930023C8
:1039E0000293002303930E480E494FF48272002382
:1039F000FEF736FF78607B68002B09D14FF050034B
:103A000083F31188BFF36F8FBFF34F8F3B60FEE7E7
:103A10007B6818460837BD4680BD00BFB80200204D
:103A2000353B0008CC4B010880B588B000AFF8608A
:103A3000B9607A603B600023FB611D4B1B68002B63
:103A400030D0BB683B617B687B61FB68BB61BB6856
:103A5000052B1CDCFFF788FE0346022B0BD1144B11
:103A60001A6807F1100310461946BA6A0023FEF7D8
:103A70008BFAF86116E00E4B1A6807F11003104636
:103A8000194600220023FEF77FFAF8610AE0084B8E
:103A90001A6807F11003104619463A680023FEF72A
:103AA00069FBF861FB6918462037BD4680BD00BF41
:103AB000B802002080B588B002AF786039601C4B36
:103AC0001B68DB68DB687B617B690433184600F0A8
:103AD0002FFB7B69DB69012B22D17B699A697B68AB
:103AE0001344786919463A687B6800F0B9F80346D0
:103AF000012B15D100230093786900217A680023F7
:103B0000FFF792FF38613B69002B09D14FF050035A
:103B100083F31188BFF36F8FBFF34F8FFB60FEE716
:103B20007B695B6A786998471837BD4680BD00BFDE
:103B3000B002002080B584B000AF786007F10803C0
:103B4000184600F049F8F860BB68F868194600F0BC
:103B500003F800F0C7F8F1E780B584B000AF7860F3
:103B60003960FFF7FBF807F10803184600F058F832
:103B7000F860BB68002B25D13B68002B0AD17A681E
:103B8000FB689A4206D8FFF7F7F87868F968FFF7FC
:103B900091FF19E00E4B1A687968FB68CB1A104642
:103BA00019463A68FEF72EFEFFF7E6F80346002BAB
:103BB0000AD1084B4FF080521A60BFF34F8FBFF30A
:103BC0006F8F01E0FFF7D8F81037BD4680BD00BF0A
:103BD000B802002004ED00E080B485B000AF78604A
:103BE0000E4B1B681B68002B14BF00230123DBB2A4
:103BF0001A467B681A607B681B68002B05D1074B4F
:103C00001B68DB681B68FB6001E00023FB60FB684E
:103C100018461437BD465DF8047B7047B00200209B
:103C200080B584B000AF7860FFF73AF9F8600B4BCD
:103C30001B68FA689A4205D200F0EAF87B68012214
:103C40001A6002E07B6800221A60044BFA681A606E
:103C5000FB6818461037BD4680BD00BFBC0200207F
:103C600080B586B000AFF860B9607A603B60002331
:103C70007B61FB68BA685A60FB68FA681A61BA68C7
:103C80007B689A4212D87A683B68D21AFB689B69B3
:103C90009A4202D301237B611BE0104B1A68FB6838
:103CA00004331046194600F00BFA12E07A683B68BC
:103CB0009A4206D2BA683B689A4202D301237B61DA
:103CC00007E0074B1A68FB6804331046194600F0FA
:103CD000F7F97B6918461837BD4680BDB40200204D
:103CE000B002002080B58CB002AF7EE0BB68002B34
:103CF0007BDB3B697B627B6A5B69002B04D07B6A60
:103D00000433184600F014FA3B1D1846FFF788FFED
:103D10003862BB68092B67D801A252F823F000BFB4
:103D2000493D0008493D0008493D0008E93D0008BB
:103D3000A93D0008E13D0008493D0008493D000853
:103D4000E93D0008A93D0008FA687B6A9B691A44AE
:103D5000FB68786A11463A6AFFF782FF0346012B37
:103D600021D17B6A5B6A786A98477B6ADB69012BA1
:103D700019D1FA687B6A9B69134400220092786A21
:103D800000211A460023FFF74FFEF861FB69002B64
:103D900009D14FF0500383F31188BFF36F8FBFF346
:103DA0004F8FBB61FEE720E0FA687B6A9A617B6A0D
:103DB0009B69002B09D14FF0500383F31188BFF3A7
:103DC0006F8FBFF34F8F7B61FEE77B6A9A693B6A17
:103DD0001344786A19463A6A3B6AFFF741FF04E0E8
:103DE000786A00F007F900E000BF084B1A6807F195
:103DF00008031046194600220023FEF7C7FA0346BF
:103E0000002B7FF473AF2837BD4680BDB802002079
:103E100080B588B002AF44E02B4B1B68DB681B68A1
:103E20007B61294B1B68DB68DB683B613B690433C2
:103E3000184600F07DF93B695B6A386998473B6931
:103E4000DB69012B2DD13B699A697B691344FB60C7
:103E5000FA687B699A420ED93B69FA685A603B69F5
:103E60003A691A61184B1A683B69043310461946BF
:103E700000F026F915E000230093386900217A69E3
:103E80000023FFF7D1FDB860BB68002B09D14FF0CC
:103E9000500383F31188BFF36F8FBFF34F8F3B60E5
:103EA000FEE7094B1B681B68002BB5D1064B1B684E
:103EB0007B60064B1A68044B1A60044B7A681A60E0
:103EC0001837BD4680BD00BFB0020020B4020020FC
:103ED00080B582B000AFFDF78FFE1A4B1B68002B38
:103EE0002BD1194800F09CF8184800F099F8184BAD
:103EF000154A1A60174B154A1A600A200C21002235
:103F0000FDF7E8FF02460F4B1A600E4B1B68002BB3
:103F100009D14FF0500383F31188BFF36F8FBFF3C4
:103F20004F8F7B60FEE7074B1B68002B05D0054BCE
:103F30001B6818460849FEF73DFCFDF78BFE083765
:103F4000BD4680BDB8020020880200209C020020EF
:103F5000B0020020B4020020D44B010880B584B028
:103F600000AF78600023FB607B6803F00703002B41
:103F700004D07B6823F0070308337B60FEF7EEFE76
:103F8000184B1B68002B05D1174B23F007031A466B
:103F9000144B1A60154B1A687B681A44144B9A42EA
:103FA00013D8124B1A687B681A44104B1B689A424C
:103FB0000BD90C4B1A680D4B1B681344FB600B4B61
:103FC0001A687B681A44094B1A60FEF7D5FEFB6835
:103FD000002B01D101F0C2FDFB6818461037BD4629
:103FE00080BD00BFC42E0120C8020020C02E0120C9
:103FF000F72B010080B485B000AF78607B68002BA0
:1040000009D04FF0500383F31188BFF36F8FBFF3D4
:104010004F8FFB60FEE71437BD465DF8047B7047A9
:1040200080B483B000AF78607B6803F108027B68DE
:104030005A607B684FF0FF329A607B6803F1080298
:104040007B68DA607B6803F108027B681A617B6831
:1040500000221A600C37BD465DF8047B704700BF34
:1040600080B483B000AF78607B6800221A610C379F
:10407000BD465DF8047B704780B485B000AF7860C2
:1040800039607B685B68FB603B68FA685A60FB6874
:104090009A683B689A60FB689B683A685A60FB685C
:1040A0003A689A603B687A681A617B681B685A1C98
:1040B0007B681A601437BD465DF8047B704700BF0B
:1040C00080B485B000AF786039603B681B68BB6026
:1040D000BB68B3F1FF3F03D17B681B69FB600CE059
:1040E0007B680833FB6002E0FB685B68FB60FB6891
:1040F0005B681A68BB689A42F6D9FB685A683B68E5
:104100005A603B685B683A689A603B68FA689A60F4
:10411000FB683A685A603B687A681A617B681B687A
:104120005A1C7B681A601437BD465DF8047B7047E3
:1041300080B485B000AF78607B681B69FB607B68EA
:104140005B687A6892689A607B689B687A68526854
:104150005A60FB685A687B689A4203D17B689A6808
:10416000FB685A607B6800221A61FB681B685A1E54
:10417000FB681A60FB681B6818461437BD465DF87B
:10418000047B704780B400AF044BDB6803F4E0634A
:104190001B0A1846BD465DF8047B704700ED00E041
:1041A00080B483B000AF0346FB71084B97F907203A
:1041B0005209F97901F01F01012000FA01F143F8D9
:1041C00022100C37BD465DF8047B704700E100E02B
:1041D00080B483B000AF03463960FB7197F90730B4
:1041E000002B0BDA0D49FB7903F00F03043B3A680F
:1041F000D2B21201D2B20B441A7609E0084997F9FB
:1042000007303A68D2B21201D2B20B4483F80023CD
:104210000C37BD465DF8047B704700BF00ED00E041
:1042200000E100E080B489B000AFF860B9607A6066
:10423000FB6803F00703FB61FB69C3F10703042B71
:1042400028BF0423BB61FB690433062B02D9FB6939
:10425000033B00E000237B61BB69012202FA03F308
:104260005A1EBB681A407B699A407B69012101FA9A
:1042700003F3591E7B680B40134318462437BD4691
:104280005DF8047B704700BF80B582B000AF7860F6
:104290007B68013BB3F1807F01D301230FE00A4B20
:1042A0007A68013A5A604FF0FF300F21FFF790FF14
:1042B000054B00229A60044B07221A60002318461F
:1042C0000837BD4680BD00BF10E000E080B586B075
:1042D00000AF0346B9607A60FB7300237B61FFF790
:1042E00051FF78617869B9687A68FFF79BFF0346E8
:1042F00097F90F2010461946FFF76AFF1837BD4699
:1043000080BD00BF80B582B000AF0346FB7197F956
:1043100007301846FFF744FF0837BD4680BD00BF91
:1043200080B582B000AF78607868FFF7ADFF0346D4
:1043300018460837BD4680BD80B584B000AF7860B0
:104340000023FB607B68002B01D101235AE07B68CE
:10435000022283F835207B681B681B68FB60FA68C3
:104360002A4B1340FB607B685A687B689B681A4342
:104370007B68DB681A437B681B691A437B685B694F
:104380001A437B689B691A437B68DB691A437B6825
:104390001B6A1343FA681343FB607B685B6A042B58
:1043A00007D17B68DA6A7B681B6B1343FA68134397
:1043B000FB607B681B68FA681A607B681B685B6936
:1043C000FB60FB6823F00703FB607B685B6AFA68AD
:1043D0001343FB607B685B6A042B04D17B689B6A98
:1043E000FA681343FB607B681B68FA685A61786857
:1043F00000F028FA7B680022DA647B68012283F8E7
:104400003520002318461037BD4680BD3F8010F090
:1044100080B584B000AFF860B9607A603B60FB683B
:1044200093F83430012B01D102232EE0FB680122E6
:1044300083F83420FB68022283F83520FB681B6870
:10444000FA681268126822F001021A60F868B96806
:104450007A683B6800F0C8F9FB681B68FA68126864
:10446000126842F01E021A60FB681B68FA68126844
:10447000526942F080025A61FB681B68FA68126850
:10448000126842F001021A60002318461037BD4638
:1044900080BD00BF80B584B000AF78600023FB60B2
:1044A0007B681B687A681268126822F001021A6041
:1044B00001F0ACF9F86017E001F0A8F90246FB68DA
:1044C000D31AB3F57A7F0FD97B68DB6C43F02002F7
:1044D0007B68DA647B68002283F834207B680322DF
:1044E00083F8352003230FE07B681B681B6803F00B
:1044F0000103002BE0D17B68002283F834207B6825
:10450000012283F83520002318461037BD4680BDB0
:1045100080B584B000AF78607B681B6DFB60FB6882
:104520001A687B685B6D082101FA03F31340002BC6
:104530002AD07B681B681B6803F00403002B23D080
:104540007B681B687A681268126822F004021A609D
:104550007B685B6D08229A40FB689A607B68DB6C25
:1045600043F001027B68DA647B68042283F835201B
:104570007B68002283F834207B689B6C002B03D07F
:104580007B689B6C78689847FB681A687B685B6DF2
:10459000934901FA03F31340002B2AD07B681B6870
:1045A0005B6903F08003002B23D07B681B687A686B
:1045B0001268526922F080025A617B685B6D884AFA
:1045C0009A40FB689A607B68DB6C43F002027B6870
:1045D000DA647B68042283F835207B68002283F844
:1045E00034207B689B6C002B03D07B689B6C7868C5
:1045F0009847FB681A687B685B6D7A4901FA03F398
:104600001340002B2AD07B681B681B6803F0020351
:10461000002B23D07B681B687A681268126822F02E
:1046200002021A607B685B6D6E4A9A40FB689A6072
:104630007B68DB6C43F004027B68DA647B680422ED
:1046400083F835207B68002283F834207B689B6CDC
:10465000002B03D07B689B6C78689847FB681A68CE
:104660007B685B6D102101FA03F31340002B4CD0E3
:104670007B681B681B6803F00803002B45D07B6830
:104680001B681B6803F48023002B1DD07B685B6DC7
:1046900010229A40FB689A607B681B681B6803F4D1
:1046A0000023002B04D17B68312283F8352024E0DD
:1046B0007B681B681B6803F40023002B1DD07B68FC
:1046C000412283F8352018E07B681B681B6803F4DF
:1046D0008073002B07D17B681B687A6812681268A8
:1046E00022F008021A607B685B6D10229A40FB681A
:1046F0009A607B68312283F835207B681B6C002B25
:1047000003D07B681B6C78689847FB681A687B68E5
:104710005B6D202101FA03F31340002B5CD07B6812
:104720001B681B6803F01003002B55D07B681B68C7
:104730001B6803F48023002B25D07B685B6D20224F
:104740009A40FB689A607B681B681B6803F400232F
:10475000002B08D17B685B6C002B3DD07B685B6CC9
:104760007868984738E07B681B681B6803F400236F
:10477000002B31D07B68DB6B002B2DD07B68DB6B93
:104780007868984728E07B681B681B6803F480738F
:10479000002B07D17B681B687A681268126822F0C8
:1047A00010021A607B685B6D20229A40FB689A6059
:1047B0007B68DA6C7B68DA647B68112283F83520C9
:1047C0007B68002283F834207B68DB6B002B03D0EE
:1047D0007B68DB6B786898471037BD4680BD00BFAB
:1047E000010080000400800080B485B000AFF86054
:1047F000B9607A603B60FB681B68FA6812681268EF
:1048000022F480221A60FB681B683A685A60FB68D1
:104810009B68402B08D1FB681B687A689A60FB682C
:104820001B68BA68DA6007E0FB681B68BA689A60C0
:10483000FB681B687A68DA601437BD465DF8047B54
:10484000704700BF80B485B000AF78607B681B689C
:10485000DBB2A3F11002144BA3FB02131B09FB6094
:10486000124AFB6813441B781A467B685A65FB683A
:10487000032B09D97B681B6823F47F7323F00303A0
:104880001A1D7B681A6507E07B681B6823F47F7339
:1048900023F003037A6813657B681B6D1846143791
:1048A000BD465DF8047B7047ABAAAAAADC4B0108A1
:1048B00080B489B000AF7860396000237B61002349
:1048C0003B610023BB610023FB616FE1FB690122B7
:1048D00002FA03F37B613B681A687B6913403B6112
:1048E0003A697B699A4240F05E813B685B68022BC3
:1048F00003D03B685B68122B23D1FB69DA087B6825
:10490000083253F82230BB61FB6903F007039B00B8
:104910000F2202FA03F3DB43BA691340BB613B6821
:104920001A69FB6903F007039B0002FA03F3BA69F3
:104930001343BB61FB69DA087B680832B96943F845
:1049400022107B681B68BB61FB695B00032202FAD3
:1049500003F3DB43BA691340BB613B685B6803F058
:104960000302FB695B0002FA03F3BA691343BB61FC
:104970007B68BA691A603B685B68012B0BD03B68A7
:104980005B68022B07D03B685B68112B03D03B6848
:104990005B68122B30D17B689B68BB61FB695B0055
:1049A000032202FA03F3DB43BA691340BB613B689D
:1049B000DA68FB695B0002FA03F3BA691343BB616F
:1049C0007B68BA699A607B685B68BB61FB6901229E
:1049D00002FA03F3DB43BA691340BB613B685B68CF
:1049E00003F010031A09FB6902FA03F3BA691343CF
:1049F000BB617B68BA695A607B68DB68BB61FB6935
:104A00005B00032202FA03F3DB43BA691340BB6184
:104A10003B689A68FB695B0002FA03F3BA691343C7
:104A2000BB617B68BA69DA603B685B6803F08053FE
:104A3000002B00F0B880624B614A526C42F4804215
:104A40005A645F4B5B6C03F48043FB60FB685D4B17
:104A5000FA699208023253F82230BB61FB6903F015
:104A600003039B000F2202FA03F3DB43BA691340EE
:104A7000BB617A68544B9A4231D07A68534B9A4260
:104A80002BD07A68524B9A4225D07A68514B9A4281
:104A90001FD07A68504B9A4219D07A684F4B9A428D
:104AA00013D07A684E4B9A420DD07A684D4B9A4299
:104AB00007D07A684C4B9A4201D1082310E00923B1
:104AC0000EE007230CE006230AE0052308E0042398
:104AD00006E0032304E0022302E0012300E00023B8
:104AE000FA6902F0030292009340BA691343BB6172
:104AF000344BFA6992080232B96943F822103B4BF1
:104B00001B68BB613B69DB43BA691340BB613B680F
:104B10005B6803F48033002B03D0BA693B6913430D
:104B2000BB61324BBA691A60304B5B68BB613B6951
:104B3000DB43BA691340BB613B685B6803F4003335
:104B4000002B03D0BA693B691343BB61274BBA6999
:104B50005A60264B9B68BB613B69DB43BA691340D3
:104B6000BB613B685B6803F48013002B03D0BA6918
:104B70003B691343BB611D4BBA699A601B4BDB68F1
:104B8000BB613B69DB43BA691340BB613B685B684F
:104B900003F40013002B03D0BA693B691343BB61D4
:104BA000124BBA69DA60FB690133FB61FB690F2BB9
:104BB0007FF68CAE2437BD465DF8047B704700BF9E
:104BC000003802400038014000000240000402406A
:104BD00000080240000C0240001002400014024095
:104BE00000180240001C024000200240003C01402E
:104BF00080B483B000AF786013460A467A807B7039
:104C00007B78002B03D07A887B689A6103E07B88ED
:104C10001A047B689A610C37BD465DF8047B7047C7
:104C200080B58EB000AF786000237B637B681B6823
:104C300003F00103002B6AD0A24B9B6803F00C0326
:104C4000042B0BD09F4B9B6803F00C03082B12D155
:104C50009C4B5B6803F48003002B0CD0994B1B68C2
:104C600003F40033002B05D07B685B68002B01D177
:104C700001230FE24BE0944B00221A7000F0C6FDB6
:104C800078630AE000F0C2FD02467B6BD21A41F263
:104C900088339A4201D90323FCE18A4B1B6803F451
:104CA0000033002BEED1884B7A685268D2B21A706A
:104CB0007B685B68002B15D000F0A8FD78630AE0E4
:104CC00000F0A4FD02467B6BD21A41F288339A426F
:104CD00001D90323DEE17B4B1B6803F40033002B77
:104CE000EED014E000F092FD78630AE000F08EFD53
:104CF00002467B6BD21A41F288339A4201D90323D0
:104D0000C8E1704B1B6803F40033002BEED17B68C5
:104D10001B6803F00203002B77D06A4B9B6803F0FB
:104D20000C03002B0BD0674B9B6803F00C03082B84
:104D300026D1644B5B6803F48003002B20D1614BC8
:104D40001B6803F00203002B05D07B68DB68012B96
:104D500001D001239EE15B4B5A4A126822F0F80110
:104D60007A681069F8223A633A6B92FAA2F2FA6210
:104D7000FA6AB2FA82F200FA02F20A431A6044E0D6
:104D80007B68DB68002B2AD0504B01221A6000F0B0
:104D90003DFD786308E000F039FD02467B6BD31AD5
:104DA000642B01D9032375E1464B1B6803F0020312
:104DB000002BF0D0434B434A126822F0F8017A6886
:104DC0001069F822BA62BA6A92FAA2F27A627A6A30
:104DD000B2FA82F200FA02F20A431A6015E03B4B83
:104DE00000221A6000F012FD786308E000F00EFD6A
:104DF00002467B6BD31A642B01D903234AE1314B62
:104E00001B6803F00203002BF0D17B681B6803F0E2
:104E10000803002B30D07B685B69002B16D02C4B2D
:104E200001221A6000F0F2FC786308E000F0EEFC6A
:104E300002467B6BD31A642B01D903232AE1214B51
:104E40005B6F03F00203002BF0D015E0204B002233
:104E50001A6000F0DBFC786308E000F0D7FC024643
:104E60007B6BD31A642B01D9032313E1154B5B6FC2
:104E700003F00203002BF0D17B681B6803F00403EE
:104E8000002B7BD00F4B0F4A126C42F080521A64F9
:104E90000C4B1B6C03F08053BB60BB680D4B0D4A81
:104EA000126842F480721A6000F0B0FC786313E07C
:104EB00000F0ACFC02467B6BD31A642B0CD90323A5
:104EC000E8E000BF003802400238024000004742DC
:104ED000800E474200700040704B1B6803F48073E3
:104EE000002BE5D06E4B00221A7000F08FFC786327
:104EF0000AE000F08BFC02467B6BD21A41F2883349
:104F00009A4201D90323C5E0664B1B6F03F00203ED
:104F1000002BEED1624B7A689268D2B21A707B682D
:104F20009B68002B15D000F071FC78630AE000F05C
:104F30006DFC02467B6BD21A41F288339A4201D94A
:104F40000323A7E0574B1B6F03F00203002BEED0A7
:104F500014E000F05BFC78630AE000F057FC0246C6
:104F60007B6BD21A41F288339A4201D9032391E034
:104F70004C4B1B6F03F00203002BEED17B689B6947
:104F8000002B00F08680474B9B6803F00C03082B36
:104F90007DD07B689B69022B62D1434B00221A6053
:104FA00000F034FC786308E000F030FC02467B6BD4
:104FB000D31A642B01D903236CE03A4B1B6803F02E
:104FC0000073002BF0D1374B7A68D1697A68126A86
:104FD00011437A68506A47F6C0723A623A6A92FAA6
:104FE000A2F2FA61FA69B2FA82F200FA02F211430D
:104FF0007A68926A5208501E4FF44032BA61BA6918
:1050000092FAA2F27A617A69B2FA82F200FA02F2B4
:1050100011437A68D06A4FF070623A613A6992FA45
:10502000A2F2FA60FA68B2FA82F200FA02F20A43D5
:105030005A601D4B01221A6000F0E8FB786308E01B
:1050400000F0E4FB02467B6BD31A642B01D90323E7
:1050500020E0144B1B6803F00073002BF0D018E025
:10506000114B00221A6000F0D1FB786308E000F0D9
:10507000CDFB02467B6BD31A642B01D9032309E0D5
:10508000084B1B6803F00073002BF0D101E00123F3
:1050900000E0002318463837BD4680BD0070004050
:1050A00070380240003802406000474280B584B04A
:1050B00000AF786039600023FB60A24B1B6803F0EF
:1050C0000F023B689A4280F0A8809E4B3A68D2B2A9
:1050D0001A709C4B1B6803F00F023B689A4201D088
:1050E000012369E17B681B6803F00203002B08D0F1
:1050F000954B954A926822F0F0017A6892680A43CB
:105100009A607B681B6803F00103002B00F031817B
:105110007B685B68012B07D18B4B1B6803F4003362
:10512000002B1AD1012347E17B685B68022B03D077
:105130007B685B68032B08D1834B1B6803F000730B
:10514000002B01D1012337E107E07F4B1B6803F0FF
:105150000203002B01D101232EE17B4B7A4A926896
:1051600022F003017A6852680A439A6000F04EFB0D
:10517000F8607B685B68012B12D10AE000F046FB07
:105180000246FB68D21A41F288339A4201D90323BE
:1051900012E16D4B9B6803F00C03042BEED1E8E0A9
:1051A0007B685B68022B12D10AE000F02FFB0246FD
:1051B000FB68D21A41F288339A4201D90323FBE0FB
:1051C000614B9B6803F00C03082BEED1D1E07B68A8
:1051D0005B68032B0ED101E00323EDE05A4B9B6883
:1051E00000F014FB0246FB68D21A41F288339A425F
:1051F000F4D9F1E70AE000F009FB0246FB68D21A95
:1052000041F288339A4201D90323D5E04E4B9B6883
:1052100003F00C03002BEED1ABE07B681B6803F0BE
:105220000203002B08D0484B474A926822F0F00155
:105230007A6892680A439A607B681B6803F00103EE
:10524000002B00F089807B685B68012B07D13E4B07
:105250001B6803F40033002B1AD10123ACE07B68F8
:105260005B68022B03D07B685B68032B08D1364B4D
:105270001B6803F00073002B01D101239CE007E0C1
:10528000314B1B6803F00203002B01D1012393E093
:105290002D4B2D4A926822F003017A6852680A4326
:1052A0009A6000F0B3FAF8607B685B68012B12D15A
:1052B0000AE000F0ABFA0246FB68D21A41F28833EA
:1052C0009A4201D9032377E01F4B9B6803F00C033C
:1052D000042BEED140E07B685B68022B12D10AE020
:1052E00000F094FA0246FB68D21A41F288339A42DF
:1052F00001D9032360E0144B9B6803F00C03082BD7
:10530000EED129E07B685B68032B0ED101E003231B
:1053100052E00D4B9B6800F079FA0246FB68D21A06
:1053200041F288339A42F4D9F1E70FE000F06EFAC7
:105330000246FB68D21A41F288339A4206D9032307
:105340003AE000BF003C0240003802401C4B9B6822
:1053500003F00C03002BE9D11A4B3A68D2B21A7051
:10536000184B1B6803F00F023B689A4201D00123DF
:1053700022E07B681B6803F00403002B08D0104B6D
:105380000F4A926822F4E0517A68D2680A439A6020
:105390007B681B6803F00803002B09D0084B084A00
:1053A000926822F460417A681269D2000A439A60D6
:1053B0000F2000F001FA002318461037BD4680BDCB
:1053C00000380240003C024080B48BB000AF0023A4
:1053D000FB6100237B620023BB6100233B62364BF1
:1053E0009B6803F00C03042B06D0082B07D0002B7E
:1053F00058D1324B3B6258E0314B3B6255E02E4B6B
:105400005B6803F03F03FB612B4B5B6803F4800395
:10541000002B17D02A4AFB69B2FBF3F2264B5968DE
:1054200047F6C0730B4047F6C0717961796991FA0C
:10543000A1F139613969B1FA81F1CB4003FB02F383
:105440007B6216E01D4AFB69B2FBF3F21A4B596806
:1054500047F6C0730B4047F6C071F960F96891FADE
:10546000A1F1B960B968B1FA81F1CB4003FB02F355
:105470007B62114B5B6803F440324FF440337B6036
:105480007B6893FAA3F33B603B68B3FA83F322FA99
:1054900003F301335B00BB617A6ABB69B2FBF3F3D0
:1054A0003B6202E0054B3B6200BF3B6A18462C376B
:1054B000BD465DF8047B7047003802400024F400CC
:1054C00000127A0080B582B000AFFFF77DFF024680
:1054D0000C4B9B6803F0F001F0237B607B6893FA30
:1054E000A3F33B603B68B3FA83F321FA03F3064965
:1054F000CB5CDA40054B1A60044B1B681846083732
:10550000BD4680BD00380240E44B01080800002081
:1055100084B080B485B000AF786007F11C0080E8EB
:105520000E000023FB60FA693B6A1A437B6A1A4348
:10553000BB6A1A43FB6A1A433B6B1343FA68134373
:10554000FB607B685B6823F4FD4323F07F03FA680C
:105550001A437B685A60002318461437BD465DF82D
:10556000047B04B0704700BF80B483B000AF7860A4
:105570007B6803221A60002318460C37BD465DF88D
:10558000047B704780B485B000AF78603960002339
:10559000FB603B681A687B689A603B685A683B68A6
:1055A0009B681A433B68DB681A433B681B691343DB
:1055B000FA681343FB607B68DB6823F47F6323F0A6
:1055C0000F03FA681A437B68DA6000231846143721
:1055D000BD465DF8047B704780B485B000AF78604D
:1055E0000023FB607A68054B1344FB60FB681B6873
:1055F00018461437BD465DF8047B7047142C0140F3
:1056000080B485B000AF786039600023FB603B68F0
:105610001A687B685A623B685A687B689A623B6882
:105620009A683B68DB681A433B681B691A433B680E
:105630005B691343FA681343FB607B68DB6A23F002
:10564000F702FB681A437B68DA62002318461437B6
:10565000BD465DF8047B704780B400AF164B164A18
:10566000D2F8882042F47002C3F88820134B134A02
:10567000126842F001021A60104B00229A600F4A31
:105680000E4B1B6823F0847323F4803313600B4BA1
:105690000B4A5A60094B094A126822F480221A60A8
:1056A000064B0022DA60044B4FF000629A60BD4660
:1056B0005DF8047B704700BF00ED00E00038024059
:1056C0001030002480B487B000AF00233B6100237A
:1056D0007B610223FB600023BB6002237B60314BB4
:1056E0009B6803F00C033B613B69042B07D0082B3C
:1056F00009D0002B3FD12C4B2C4A1A603FE02A4B9B
:105700002B4A1A603BE0274B5B6803F480039B0D38
:10571000BB60244B5B6803F03F037B60BB68002BDE
:105720000DD0234A7B68B2FBF3F21E4B596847F653
:10573000C0730B409B0903FB02F37B610CE01B4A27
:105740007B68B2FBF3F2174B596847F6C0730B4006
:105750009B0903FB02F37B61124B5B6803F440334C
:105760001B0C01335B00FB607A69FB68B2FBF3F250
:105770000D4B1A6003E00C4B0C4A1A6000BF094B3A
:105780009B6803F0F0031B090A4AD35C3B61064B9C
:105790001A683B69DA40044B1A601C37BD465DF855
:1057A000047B704700380240080000200024F40009
:1057B00000127A00F44B010880B582B000AF786027
:1057C000FFF780FE0246094BA3FB02139B09184614
:1057D000FEF7A6FD4FF0FF3079680022FEF776FD58
:1057E000002318460837BD4680BD00BFD34D621068
:1057F00080B400AF044B1B685A1C034B1A60BD46B3
:105800005DF8047B704700BFC82E012080B400AF54
:10581000034B1B681846BD465DF8047B704700BF0C
:10582000C82E012080B500AF024800F0BBF800F0A0
:1058300013F800BF044C010880B500AF024800F027
:10584000B1F800F009F800BF204C010880B483B023
:1058500000AF7860FEE700BF80B500AF024800F0FF
:10586000A1F80120FFF7F2FF344C010880B584B0A5
:1058700000AF7860144B1B68002B02D1124B134A07
:105880001A60114B1B68FB607B68033323F0030332
:105890007B600D4B1A687B681A440D4B9A4207D9FE
:1058A00001F0C8FE03460C221A604FF0FF3306E0F9
:1058B000054B1A687B681A44034B1A60FB6818464C
:1058C0001037BD4680BD00BFCC2E0120B430012072
:1058D00000FC012080B483B000AF786039607B6841
:1058E00001221A603B68044A1A6000BF0C37BD46AB
:1058F0005DF8047B704700BF0C00002080B586B0C7
:1059000002AFF860B9607A603B607B68002B01D021
:10591000094A00E0094A7B68002B01D07B6800E05F
:10592000064B0092019306483968FA68BB6800F09C
:1059300017F8FFF791FF00BF484C0108584C0108C9
:105940005C4C010880B582B000AF786039600348D4
:1059500079683A6800F004F8FFF77EFF8C4C010884
:105960000FB480B582B000AF07F114033B600C4860
:1059700080213A693B6801F077FF78607B68002BF3
:1059800005DD7B680648194600F024F878607B68DE
:1059900018460837BD46BDE8804004B0704700BFD8
:1059A000D42E012080B582B000AF7860786801F015
:1059B00029FF03467868194600F00CF804480121D5
:1059C00000F008F8034618460837BD4680BD00BF02
:1059D000B84C010880B582B000AF78603960786853
:1059E000396800F005F8034618460837BD4680BD03
:1059F000B0B590B000AF786039607A683B68134406
:105A00001B78002B0BD104233B637B68FB623C6B50
:105A1000FD6A20462946ABBE0446BC6234E03B68C2
:105A2000FB632EE0FB6B102B28BF10237B6300234E
:105A3000BB630CE07B681A7807F10C01BB6B0B446D
:105A40001A70BB6B0133BB637B6801337B60BA6B3D
:105A50007B6B9A42EED307F10C02BB6B134400221E
:105A60001A7004237B6207F10C033B627C6A3D6A77
:105A700020462946ABBE0446FC61FA6B7B6BD31A09
:105A8000FB63FB6B002BCDD13B6818464037BD460E
:105A9000B0BD00BF80B500AFFFF7DEFD044B044A88
:105AA000D2F8882042F47002C3F8882080BD00BF7D
:105AB00000ED00E080B500AF00F004F8FFF702FE53
:105AC00080BD00BF80B594B000AF224B214A126C5C
