:020000040800F2
:1000000000000220A5020008AD020008B5020008A9
:1000100039030008410300089103000800000000B4
:10002000000000000000000000000000E1030008E4
:10003000E903000800000000F1030008E5040008DF
:100040009D0200089D0200089D0200089D02000814
:100050009D0200089D0200089D0200089D02000804
:100060009D0200089D0200089D0200089D020008F4
:100070009D0200089D0200089D0200089D020008E4
:100080009D0200089D0200089D0200089D020008D4
:100090009D0200089D0200089D0200089D020008C4
:1000A0009D0200089D0200089D0200089D020008B4
:1000B0009D0200089D0200089D0200089D020008A4
:1000C0009D0200089D0200089D0200089D02000894
:1000D0009D0200089D0200089D0200089D02000884
:1000E0009D0200089D0200089D0200089D02000874
:1000F0009D0200089D0200089D0200089D02000864
:100100009D0200089D0200089D0200089D02000853
:100110009D0200089D0200089D0200089D02000843
:100120009D0200089D0200089D0200089D02000833
:100130009D0200089D0200089D0200089D02000823
:100140009D0200089D0200089D0200089D02000813
:100150009D0200089D0200089D0200089D02000803
:100160009D0200089D0200089D0200089D020008F3
:100170009D0200089D0200089D020008000000008A
:100180009D0200089D02000800B583B000F002FD4A
:10019000304B314A1360314A1360314B314A03E02E
:1001A00011681960043304322F498B42F8D32A4B6B
:1001B0001A682E4B9A4204D1284B1A682C4B9A424B
:1001C00000D0FEE7234B2B4A13602B4A13602B4BC6
:1001D00002E000221A600433294A9342F9D3254BE6
:1001E0001B6813B9244B1B6803B1FEE700F0D8FC71
:1001F00001A8694600F044F9224B234DED1AAD10D9
:10020000002404E01F4B53F8243098470134A542E2
:10021000F8DC1E4B1E4DED1AAD10002404E01B4B04
:1002200053F8243098470134A542F8DC019800992E
:1002300000F062F90546174B174CE41AA41004E0CD
:10024000013C144B53F824309847002CF8DC284626
:1002500000F0F2F8BABADECA0000002074000020F4
:10026000000000206817000878000020785634123B
:100270003254769878000020140100207800002085
:100280001801002038040008380400083804000869
:1002900038040008380400083804000880B400AFAF
:1002A000FEE700BF80B500AFFFF76EFF80B400AF80
:1002B000FEE700BF1EF0040F0CBFEFF30880EFF362
:1002C000098071464F4A104780B588B002AF786008
:1002D0003960174B5B6B7B61154B9B6B3B61144B20
:1002E0009B6AFB60124B1B6B03F00203002B10D0C8
:1002F0000F4BDB6A002B0CDA78684BF6AB6100F031
:10030000EBFC0346002B04D0094B4FF00042DA62AD
:100310000BE0084800F0A4FB3B6800937868F9689C
:100320007A693B6900F042FCFEE71837BD4680BDA4
:1003300000ED00E00417000880B400AFFEE700BF46
:100340001EF0040F0CBFEFF30880EFF30980714635
:100350002D4A104780B588B002AF786039600A4BEB
:100360005B6B7B61084B9B6B3B61074B9B6AFB6044
:10037000064800F075FB3B6800937868F9687A6975
:100380003B6900F013FCFEE700ED00E014170008E5
:100390001EF0040F0CBFEFF30880EFF309807146E5
:1003A0001A4A104780B588B002AF786039600A4BAE
:1003B0005B6B7B61084B9B6B3B61074B9B6AFB60F4
:1003C000064800F04DFB3B6800937868F9687A694D
:1003D0003B6900F0EBFBFEE700ED00E020170008B2
:1003E00080B400AFFEE700BF80B400AFFEE700BFFF
:1003F00080B400AFFEE700BF80B400AFBD465DF83B
:10040000047B7047C902000855030008A5030008D3
:100410006817000800000020780000206817000816
:1004200000000010000000107800002018010020DB
:080430000000001000000010A4
:10043800FEE700BF08B50D4B1B6813B90C4A0B4B00
:100448001A600A4B1B68033020F003001844094A5D
:10045800904206D900F066FC0C2303604FF0FF3091
:1004680008BD024A1060184608BD00BF7C00002085
:100478001801002000FC012001230360014B0B60E0
:10048800704700BF0400002030B587B00C4B1A6BD2
:1004980042F008021A634FF4805401940123029336
:1004A800022204920393074D284601A900F06CF834
:1004B80028462146002200F007FA07B030BD00BFE9
:1004C80000380240000C0240034B1860024B1B68C6
:1004D800002BFBD1704700BF84000020034B1B6832
:1004E8001BB1024B1A68013A1A6070478400002059
:1004F80030B583B01C4800F0D1FA1C4C1C48216868
:1005080000F0AAFA22681B4BA3FB02129209013AD7
:10051800B2F1807F09D2184B5A60F021174A82F84D
:10052800231000229A6007221A6001A8FFF7ACFF87
:100538000024134D28464FF48051012200F0C4F9DD
:1005480040F29A20FFF7C0FF28464FF4805100225E
:1005580000F0BAF94FF4A770FFF7B6FF0134094865
:10056800214600F079FAE4E7741500080C00002031
:1005780088150008D34D621010E000E000ED00E09F
:10058800000C02409C15000880B489B000AF786068
:10059800396000237B6100233B610023BB6100239A
:1005A800FB616FE1FB69012202FA03F37B613B689F
:1005B8001A687B6913403B613A697B699A4240F04B
:1005C8005E813B685B68022B03D03B685B68122B3B
:1005D80023D1FB69DA087B68083253F82230BB6103
:1005E800FB6903F007039B000F2202FA03F3DB43C6
:1005F800BA691340BB613B681A69FB6903F00703DA
:100608009B0002FA03F3BA691343BB61FB69DA087A
:100618007B680832B96943F822107B681B68BB61A4
:10062800FB695B00032202FA03F3DB43BA69134058
:10063800BB613B685B6803F00302FB695B0002FA7D
:1006480003F3BA691343BB617B68BA691A603B68F4
:100658005B68012B0BD03B685B68022B07D03B68BB
:100668005B68112B03D03B685B68122B30D17B6829
:100678009B68BB61FB695B00032202FA03F3DB435F
:10068800BA691340BB613B68DA68FB695B0002FA30
:1006980003F3BA691343BB617B68BA699A607B68E4
:1006A8005B68BB61FB69012202FA03F3DB43BA69A9
:1006B8001340BB613B685B6803F010031A09FB69D0
:1006C80002FA03F3BA691343BB617B68BA695A60DB
:1006D8007B68DB68BB61FB695B00032202FA03F3FA
:1006E800DB43BA691340BB613B689A68FB695B00EE
:1006F80002FA03F3BA691343BB617B68BA69DA602B
:100708003B685B6803F08053002B00F0B880624BB5
:10071800614A526C42F480425A645F4B5B6C03F44A
:100728008043FB60FB685D4BFA699208023253F81C
:100738002230BB61FB6903F003039B000F2202FA1E
:1007480003F3DB43BA691340BB617A68544B9A429E
:1007580031D07A68534B9A422BD07A68524B9A42DE
:1007680025D07A68514B9A421FD07A68504B9A42EA
:1007780019D07A684F4B9A4213D07A684E4B9A42F6
:100788000DD07A684D4B9A4207D07A684C4B9A4202
:1007980001D1082310E009230EE007230CE006230B
:1007A8000AE0052308E0042306E0032304E002230B
:1007B80002E0012300E00023FA6902F0030292003C
:1007C8009340BA691343BB61344BFA699208023209
:1007D800B96943F822103B4B1B68BB613B69DB439B
:1007E800BA691340BB613B685B6803F48033002B34
:1007F80003D0BA693B691343BB61324BBA691A60CB
:10080800304B5B68BB613B69DB43BA691340BB6132
:100818003B685B6803F40033002B03D0BA693B697B
:100828001343BB61274BBA695A60264B9B68BB616F
:100838003B69DB43BA691340BB613B685B6803F4FF
:100848008013002B03D0BA693B691343BB611D4B6E
:10085800BA699A601B4BDB68BB613B69DB43BA69C9
:100868001340BB613B685B6803F40013002B03D0A3
:10087800BA693B691343BB61124BBA69DA60FB6919
:100888000133FB61FB690F2B7FF68CAE2437BD4625
:100898005DF8047B704700BF003802400038014013
:1008A800000002400004024000080240000C024020
:1008B800001002400014024000180240001C0240D0
:1008C80000200240003C014080B483B000AF786053
:1008D80013460A467A807B707B78002B03D07A888F
:1008E8007B689A6103E07B881A047B689A610C37FD
:1008F800BD465DF8047B704780B400AF164B164ABE
:10090800D2F8882042F47002C3F88820134B134AA7
:10091800126842F001021A60104B00229A600F4AD6
:100928000E4B1B6823F0847323F4803313600B4B46
:100938000B4A5A60094B094A126822F480221A604D
:10094800064B0022DA60044B4FF000629A60BD4605
:100958005DF8047B704700BF00ED00E000380240FE
:100968001030002480B487B000AF00233B6100231F
:100978007B610223FB600023BB6002237B60314B59
:100988009B6803F00C033B613B69042B07D0082BE1
:1009980009D0002B3FD12C4B2C4A1A603FE02A4B40
:1009A8002B4A1A603BE0274B5B6803F480039B0DDE
:1009B800BB60244B5B6803F03F037B60BB68002B84
:1009C8000DD0234A7B68B2FBF3F21E4B596847F6F9
:1009D800C0730B409B0903FB02F37B610CE01B4ACD
:1009E8007B68B2FBF3F2174B596847F6C0730B40AC
:1009F8009B0903FB02F37B61124B5B6803F44033F2
:100A08001B0C01335B00FB607A69FB68B2FBF3F2F5
:100A18000D4B1A6003E00C4B0C4A1A6000BF094BDF
:100A28009B6803F0F0031B090A4AD35C3B61064B41
:100A38001A683B69DA40044B1A601C37BD465DF8FA
:100A4800047B7047003802400C0000200024F400AA
:100A580000127A00A81500080FB480B582B000AF64
:100A680007F114033B600C4880213A693B6800F0A9
:100A780091F978607B68002B05DD7B68064819468C
:100A880000F024F878607B6818460837BD46BDE852
:100A9800804004B0704700BF8800002080B582B055
:100AA80000AF7860786800F043F903467868194623
:100AB80000F00CF80448012100F008F80346184635
:100AC8000837BD4680BD00BFB815000880B582B0A4
:100AD80000AF786039607868396800F005F8034637
:100AE80018460837BD4680BDB0B590B000AF7860F5
:100AF80039607A683B6813441B78002B0BD10423B8
:100B08003B637B68FB623C6BFD6A20462946ABBEB3
:100B18000446BC6234E03B68FB632EE0FB6B102BA1
:100B280028BF10237B630023BB630CE07B681A7823
:100B380007F10C01BB6B0B441A70BB6B0133BB6331
:100B48007B6801337B60BA6B7B6B9A42EED307F10B
:100B58000C02BB6B134400221A7004237B6207F15A
:100B68000C033B627C6A3D6A20462946ABBE0446BC
:100B7800FC61FA6B7B6BD31AFB63FB6B002BCDD14B
:100B88003B6818464037BD46B0BD00BF80B500AFD2
:100B9800FFF7B2FE80BD00BF80B500AFFFF7E2FEF1
:100BA80080BD00BF80B584B000AFF860B9607A60DE
:100BB8003B603448FFF750FFFB681B683248194612
:100BC800FFF74AFFFB685B6830481946FFF744FFA8
:100BD800FB689B682E481946FFF73EFFFB68DB68F9
:100BE8002C481946FFF738FFFB681B692A48194645
:100BF800FFF732FFFB685B6928481946FFF72CFFAF
:100C0800FB689B6926481946FFF726FFFB68DB69E6
:100C180024481946FFF720FF2348FFF71DFF234804
:100C2800B968FFF719FF224BDB6A22481946FFF71C
:100C380013FF1F4B1B6B20481946FFF70DFF1C4B7A
:100C4800DB6B1E481946FFF707FFBB6803F08003FC
:100C5800002B03D01A487968FFF7FEFEBB6803F43F
:100C68000043002B03D017483968FFF7F5FE1648F4
:100C7800FFF7F2FE1548B969FFF7EEFE1037BD46DB
:100C880080BD00BFE8150008F81500080816000820
:100C98001816000828160008381600084816000814
:100CA8005816000868160008781600088416000808
:100CB80000ED00E094160008A4160008B416000819
:100CC800C4160008D4160008E4160008EC1600083C
:100CD80080B485B000AF78600B467B807B689B69E9
:100CE800FB60FB681B887A889A4213D17B681B6873
:100CF800BB60BB68032B03D0042B03D000230AE09E
:100D080000BF00E000BF7B689B699A1C7B689A6102
:100D1800012300E0002318461437BD465DF8047B24
:100D2800704700BF014B1868704700BF7000002073
:100D3800034613F8012B002AFBD1181A0138704713
:100D480030B5141E9BB0054604DA8B2303604FF0C0
:100D5800FF301CE04FF4027200910491ADF80C20B2
:100D680014BF04F1FF3121464FF6FF72029105913D
:100D7800ADF80E2069461A461E9B00F077F8431C12
:100D8800BCBF8B232B6014B1009B00221A701BB0D0
:100D980030BD000073B50093054B06460D4614465A
:100DA800186831462A462346FFF7CAFF02B070BDCD
:100DB800700000202DE9F0478D68AB4281460C4653
:100DC80092461F4643D38B8913F4906F3DD0266813
:100DD8000969C1EB06086669022206EB460696FB1E
:100DE800F2F608F101023A44964238BF16465B050E
:100DF8000FD5314600F026FB054698B121694246D9
:100E080000F0B7FAA38923F4906343F08003A38129
:100E180013E0324600F06AFB054670B9484621697E
:100E280000F0CCFA0C23C9F80030A38943F0400342
:100E3800A3814FF0FF30BDE8F08725616661454426
:100E4800C8EB06062560A6603D46AF4200D23D4687
:100E58002A462068514600F095FAA3685B1BA360F8
:100E680023681D4425600020BDE8F0872DE9F04384
:100E78009DB0074603938B891C060D4616460CD574
:100E88000B6953B9402100F0DDFA2860286110B9D8
:100E98000C233B60C8E040236B61002309932023A7
:100EA8008DF8293030238DF82A3033461C4613F844
:100EB800012B1AB9B4EB06090FD002E0252AF5D1A7
:100EC800F8E73846294632464B46FFF773FF0130AC
:100ED80000F0A580099B4B4409932378002B00F070
:100EE8009E8000234FF0FF320493079305920693E8
:100EF8008DF853301A9304F101094C464D4E217870
:100F08003046052200F026FA09F10109049B28B1B0
:100F1800861B0120B04003430493EEE7D90644BF83
:100F280020228DF853201A0744BF2B228DF8532016
:100F380022782A2A02D0079B21460EE0039A111D27
:100F480012680391002A01DB079204E0524243F041
:100F580002030792049301340AE00C460131227817
:100F6800303A092A03D80A2000FB0323F5E7079340
:100F780023782E2B1AD163782A2B0AD1039B1A1DAA
:100F88001B680392002B04F10204B8BF4FF0FF3333
:100F98000BE0611C00230C4601312278303A092A03
:100FA80003D80A2000FB0323F5E70593224E217896
:100FB8003046032200F0CEF930B1861B049B402056
:100FC800B04003430493013421781C488DF828105D
:100FD8000622661C00F0BEF988B1194B33B9039B91
:100FE800073323F007030833039314E003AB00939C
:100FF800384604A92A46134BAFF3008007E003AB39
:101008000093384604A92A460E4B00F08FF8B0F139
:10101800FF3F804603D0099B4344099345E7AB89CA
:101028005B0601D4099801E04FF0FF301DB0BDE820
:10103800F08300BF32170008381700083C17000873
:1010480000000000BD0D00082DE9F84315461F46B5
:101058008A680B69DDF820809A42A8BF13462B6086
:1010680091F8432006460C460AB101332B602368E9
:10107800990602D52B6802332B60236813F0060902
:101088001DD094F843302268003318BF012392061C
:101098001FD5E1185A1C302081F84300224494F8E7
:1010A800451082F84310023313E03046394604F104
:1010B80019020123C047013007D009F10109E2688C
:1010C8002B68D31A9945F0DBDBE74FF0FF30BDE81A
:1010D800F8833046394604F14302C0470130F4D062
:1010E80023682A68E16803F00603042B08BFC2EBF3
:1010F80001052369A2680CBF25EAE57500259A4217
:10110800C4BFC3EB0203ED184FF00009A9450ADA82
:101118003046394604F11A020123C0470130D4D0C1
:1011280009F10109F2E70020BDE8F8832DE9FF473E
:101138000E7E0C9D6E2E80460C4691469A4601F115
:10114800430000F0A58011D8632E22D009D8002EC4
:1011580000F0AF80582E40F0BF8081F845607B4A90
:101168004FE0642E1ED0692E1CD0B5E0732E00F01F
:10117800A48009D86F2E2BD0702E40F0AD800B685C
:1011880043F020030B6038E0752E21D0782E34D040
:10119800A2E02B681A1D1B682A6001F1420781F83A
:1011A80042309DE022682B6812F0800F03D01A1D90
:1011B8002A601D6805E05106F9D51A1D2A60B3F9A1
:1011C8000050002D39DA2D236D4284F8433034E085
:1011D80022682B6812F0800F03D01A1D2A601D6840
:1011E80004E05206F9D51A1D2A601D88237E574A45
:1011F8006F2B14BF0A2308231BE07823544A84F872
:1012080045302368296813F0800F01F104062E6029
:1012180001D00D6802E05F06FBD50D88DE0744BFEC
:1012280043F0200323601DB9236823F020032360C3
:101238001023002184F8431001E0444A0A23666819
:10124800A660002E03DB216821F00401216005B9A6
:101258006EB104F14201B5FBF3F603FB16550F46D8
:10126800555D01F801593546002EF4D100E00746D6
:10127800082B0AD12368DD0707D5626823699A42DB
:1012880003DC302307F8013C013FC01B20612CE040
:1012980009682B68626911F0800F04D0191D296054
:1012A8001B681A6005E04906F8D5191D29601B68F6
:1012B8001A8000232361074617E02B681A1D2A604D
:1012C8001F683846FFF734FD63682061984288BF7D
:1012D80023612369636005E004F1420784F84260F2
:1012E80001232361002384F84330CDF800A0404651
:1012F800214603AA4B46FFF7A7FE013002D14FF063
:10130800FF301FE0404649463A462369D04701303E
:10131800F5D023689B0705D4E068039B9842B8BFC3
:1013280018460FE00025E268039BD31A9D42F3DAC2
:101338004046494604F119020123D0470130DED066
:101348000135F0E704B0BDE8F08700BF4317000897
:101358005417000810B5C9B202449042034606D09B
:101368001C788C4200F10100F7D1184610BD00200E
:1013780010BD10B50023934203D0CC5CC454013394
:10138800F9E710BD814270B501D300230EE08C1837
:10139800A042FAD28518134613F1FF3305D3514200
:1013A80066182944F65CCE54F6E770BD934203D024
:1013B800CC5CC4540133F9E770BD000030B5002996
:1013C8003CD051F8042C0B1F1D49002AB8BF9B18AC
:1013D8000A680C4612B95A600B6030BD93420DD2B0
:1013E80019685818904203D15A5811444268196034
:1013F8005A60236030BD994203D80A4651680029D3
:10140800F9D1146815199D420AD11B682344D018D4
:101418008842136012D10868034413604B680CE0DB
:1014280002D90C23036030BD18681C188C4203D104
:101438000C684968204418605960536030BD00BF8B
:101448000C01002070B5CD1C25F0030508350C2DC6
:1014580038BF0C25002D06463FDB8D423DD3214B7E
:101468001C6818462146A1B10B685B1B0ED40B2BD8
:1014780003D90B60CC18CD501FE08C4202D16268B2
:1014880002601AE04B6863600C4616E00C46496837
:10149800E9E7154C23681BB9304600F04DF8206089
:1014A8002946304600F048F8431C014615D0C41CB4
:1014B80024F0030484420AD1256004F10B00231DA3
:1014C80020F00700C31A0BD05A42E25070BD3046D4
:1014D800611A00F031F80130EED10C23336000209E
:1014E80070BD00BF0C01002008010020F8B50646B9
:1014F80014460D4621B91146BDE8F840FFF7A2BFD2
:101508001AB9FFF75BFF2046F8BD00F025F8A042A6
:101518000ED230462146FFF795FF074650B12946BF
:101528002246FFF726FF30462946FFF747FF01E02E
:101538002846F8BD3846F8BD38B5064C00230546A0
:1015480008462360FEF776FF431C02D1236803B1E7
:101558002B6038BD1001002051F8040C002802DA75
:1015680004390B58184404387047000048656C6CFF
:101578006F2041524D20576F726C642100000000AB
:1015880053797374656D20636C6F636B3A202575AE
:10159800487A0A005365636F6E642025750A000057
:1015A800000000000000000001020304060708090B
:1015B8000A0000006D61696E28617267633D2564E9
:1015C8002C20617267763D5B000000002C20000033
:1015D80022257322000000005D293B0A000000005C
:1015E800537461636B206672616D653A0A0000008E
:1015F800205230203D2020253038580A00000000B5
:10160800205231203D2020253038580A00000000A3
:10161800205232203D2020253038580A0000000092
:10162800205233203D2020253038580A0000000081
:1016380020523132203D20253038580A0000000061
:10164800204C52203D2020253038580A0000000048
:10165800205043203D2020253038580A0000000043
:1016680020505352203D20253038580A00000000F1
:101678004653522F4641523A0A000000204346532F
:1016880052203D2020253038580A00002048465373
:1016980052203D2020253038580A00002044465367
:1016A80052203D2020253038580A0000204146535A
:1016B80052203D2020253038580A0000204D4D4644
:1016C8004152203D20253038580A0000204246412A
:1016D80052203D2020253038580A00004D69736398
:1016E8000A000000204C522F4558435F524554557C
:1016F800524E3D20253038580A0000005B48617280
:10170800644661756C745D0A000000005B42757385
:101718004661756C745D0A005B5573616765466167
:10172800756C745D0A0000004300232D302B2000E7
:10173800686C4C0065666745464700303132333483
:101748003536373839414243444546003031323323
:0D17580034353637383961626364656600E8
:101768007856341280000020000000000024F400A5
:101778000000000000000000000000000000000061
:101788000000000000000000000000000000000051
:1017980030170008000000000000000000000000F2
:1017A8000000000000000000000000000000000031
:1017B8000000000000000000000000000000000021
:1017C8000000000000000000000000000000000011
:0817D800100000203254769845
:040000050800018965
:00000001FF
